S0400000626F6F746C6F616465722D756172742D62676170695F65667233326D673231613032306631303234696D33325F62726434313830622D6372632E733337B2
S3150000000020130020992E0000B30B00009916000063
S31500000010FF0C0000330D0000A318000000000000D4
S315000000200000000000000000C00000008B2C000053
S315000000309B2C000000010000BB2C0000F72D0000E7
S31500000040F00F10032480054010010020130000006B
S315000000500900000000010000020200001300000079
S31500000060F00F10032480054010020020130000004A
S31500000070090000000002000001010000D3FFFFFF9D
S3150000008080000000000000000000000000000000EA
S31500000090000000000000000000000000000000005A
S315000000A0000000000000000000000000000000004A
S315000000B0000000000000000000000000000000003A
S315000000C007B0CD5E0100000000000C01202F0000EB
S315000000D00040000000001000F00010009B18000017
S315000000E09F180000B31C0000DD2C00000F2D00003F
S315000000F000000000452D0000A32D000000000000B8
S3150000010013B779FAC925DDB7ADF3CFE0F1B614B868
S3150000011001010000020000001C2F0000400000004A
S3150000012000000C01000000000000000000000000BC
S3150000013000000000000000000000000000000000B9
S31500000140000000A0020001030B00000000000000F8
S315000001500000000000000000000000000000000099
S315000001600000000000000000000000000000000089
S315000001700000000000000000000000000000000079
S315000001800000000000000000000000000000000069
S315000001900000000000000000000000000000000059
S315000001A00000000000000000000000000000000049
S315000001B00000000000000000000000000000000039
S315000001C00000000000000000000000000000000029
S315000001D00000000000000000000000000000000019
S315000001E00000000000000000000000000000000009
S315000001F000000000000000000000000000000000F9
S3150000020000000000000000000000000000000000E8
S3150000021000000000000000000000000000000000D8
S3150000022000000000000000000000000000000000C8
S3150000023000000000000000000000000000000000B8
S315000002400000000000000000000000A00400000004
S315000002500000000000000000000000000000000098
S315000002600000000000000000000000000000000088
S315000002700000000000000000000000000000000078
S315000002800000000000000000000000000000000068
S315000002900000000000000000000000000000000058
S315000002A00000000000000000000000000000000048
S315000002B00000000000000000000000000000000038
S315000002C00000000000000000000000000000000028
S315000002D00000000000000000000000000000000018
S315000002E00000000000000000000000000000000008
S315000002F000000000000000000000000000000000F8
S3150000030000000000000000000000000000000000E7
S3150000031000000000000000000000000000000000D7
S3150000032000000000000000000000000000000000C7
S3150000033000000000000000000000000000000000B7
S3150000034000000000000000000000000000000000A7
S315000003500000002002000000000000000000000075
S315000003600000000000000000000000000000000087
S315000003700000000000000000000000000000000077
S315000003800000000000000000000000000000000067
S315000003900000000000000000000000000000000057
S315000003A00000000000000000000000000000000047
S315000003B00000000000000000000000000000000037
S315000003C00000000000000000000000000000000027
S315000003D00000000000000000000000000000000017
S315000003E00000000000000000000000000000000007
S315000003F000000000000000000000000000000000F7
S3150000040000000000000000000000000000000000E6
S3150000041000000000000000000000000000000000D6
S3150000042000000000000000000000000000000000C6
S3150000043000000000000000000000000000000000B6
S3150000044000000000000000000000000000000000A6
S31500000450000000000000000000FF00000000000097
S315000004600000000000000000000000000000000086
S315000004700000000000000000000000000000000076
S315000004800000000000000000000000000000000066
S315000004900000000000000000000000000000000056
S3150000067038B5012086490860864C40F6AA62E260D9
S31500000680002020600021616541F205006060A160E4
S3150000069061616164804A814B1A60814D2960A9615C
S315000006A02961A960E96060602068206000F01AF99D
S315000006B07C49096801230422C1F38021491CB0FB4F
S315000006C0F1F04FF4E111400100F56120B0FBF1F1CA
S315000006D07548203900EAC10060610521002000F05C
S315000006E051F9012301220621002000F04BF91420C4
S315000006F028604FF4A021A9614FF4C0222A6101238A
S3150000070004220421032000F03DF90520E06067483B
S31500000710012101604FF0F0524260002303624363FF
S31500000720C363036562494FF480220A60614AC36568
S315000007300024920884659200C2665F4B4B605F4955
S315000007404C600C6003215E4A11600124446402205F
S315000007505C49086031BD70B50E4605461446802ECC
S3150000076002D341F2031070BD00F025F810B941F232
S31500000770062070BD0020544902E02A5C0A54401C41
S31500000780B042FAD3D1F88000761E022266F30E102C
S31500000790C1F88000803189084C4889008165026073
S315000007A03CB100F008F80028FBD0494801688A06E9
S315000007B0FBD5002070BD4749CA684148930703D559
S315000007C002220A60026004E049688A0703D4022113
S315000007D0016001207047002070473F48006840F2E2
S315000007E00111884208BF002007D040F2022188424A
S315000007F00EBF4FF480703949401A394A1168814258
S3150000080001D10020704701D2401A7047C1F500712E
S31500000810401870472DE9F0410746884615460026E0
S315000008208BB1069C2CB100F0EBF80021204600F0BD
S3150000083000F9FFF7D2FF404505D2002CF9D000F0B1
S3150000084010F90028F5D0FFF7C8FF804515D84046B7
S3150000085013E0002102240EE0214B19681F4A545C64
S31500000860491C184ABC55761CB1F5007FF1D0B1F58C
S31500000870807F01D10124146019608642ECD305B152
S315000008802E60464534BF41F204200020BDE8F081C9
S315000008900490054008800540FFFF010048A0054080
S315000008A0ACC5034070800040F8FF7F0004000440A0
S315000008B00040044040000000020004008C00044098
S315000008C034200440101004408000002048000440FA
S315000008D018800540280004406C00044010010020E8
S315000008E01803002010B51449086800F00700032813
S315000008F008BF124A18D0124B1868C0F304401128DA
S3150000090028BF104A10D200BF11A2125C0E480F4C2D
S315000009104243A24208D11B68012022461B0E03F067
S3150000092003039840B2FBF0F20868C0F30130401CA4
S31500000930B2FBF0F010BD00007080004000F04902EC
S3150000094008000140C0EA210140420F0000093D00B5
S315000009500400000700000D1013001A20263038404E
S31500000960500000003022504310B50123214C04E012
S315000009703022504310B501231F4C03FA01F12044E5
S31500000980016110BDF8B5054617460E461C463800EF
S3150000099007D0002C284602D0FFF7EAFF01E0FFF758
S315000009A0E1FF2A4630204243144988180F22082EB8
S315000009B005D24168B30000F015F8416006E0A6F1E3
S315000009C00803C1689B0000F00DF8C1604FB9002C08
S315000009D03146284602D0BDE8F440C9E7BDE8F440F8
S315000009E0C0E7F1BD9A4021EA020207FA03F111437A
S315000009F07047000000E0034000D0034000C0034001
S31500000A00F8B5FFF76FFF4FF47A71B0FBF1F01F4AAC
S31500000A1023A1800A50606846102200F049F840F28F
S31500000A20FF30ADF802006946194800F05DF805B0E0
S31500000A3000BD70B5174BDD68144C626802FB0050B0
S31500000A40ADB286B2AE429241D20F227019B1D968C8
S31500000A5082B29142FBD101250F4E35601D60608048
S31500000A6070BD0E490A68094B187802F0010210B1F0
S31500000A7022B9002070470AB10120704708695988D9
S31500000A8088428041C043C00F704700001003002019
S31500000A90008004401880044014A0044014800440E0
S31500000AA0010000000000000000000000000000003F
S31500000AB04AB1000011F8013B521E00F8013B1CBF71
S31500000AC011F8013BF8E77047324988421CBF324AA9
S31500000AD0904205D0314988421CBF314A904201D12B
S31500000AE00120704700207047F8B504460D46FFF711
S31500000AF0EBFF204600F056F8012142F23002A150E9
S31500000B00687895F804E00028A87A4FEA0E2E14BFFC
S31500000B10402100210028E87A14BF80220022002804
S31500000B20287B14BF202300230028687B14BF1026CF
S31500000B3000260028A87914BF082700270028B5F941
S31500000B4002004EEA804E687A14BF4FF4803C4FF0A4
S31500000B50000C40EA0E000143114319433143394367
S31500000B604CEA01016160012141F23002A15028786E
S31500000B7008B90221E16000226262697901B110219F
S31500000B80EA792B7A43EA82031943A16008B101206E
S31500000B90E060F1BD0080044000C004400000054054
S31500000BA000400540016BCA0702D501694A06F9D41F
S31500000BB07047FEE780B590B000F016F8B0F5A02FAC
S31500000BC011B016BFB0F5302F0C48002000BD80B51F
S31500000BD090B000F009F8B0F5A02F11B016BFB0F52F
S31500000BE0302F0748002000BD0023402269464FF4FD
S31500000BF0807000F04DB80348704700004CE30F00CA
S31500000C006CE30F0086E20F00426812B9416070473C
S31500000C10526850680128FBD151607047826812B94A
S31500000C2081607047526850680128FBD15160704757
S31500000C30C269042A05D200EB8202D160C169491C4F
S31500000C40C1617047C169042900D9704710B54FF0DA
S31500000C5098410A6CD302FAD5C269121D92000A6540
S31500000C6002680A6042680A608368002203E000EBBB
S31500000C708204E368521C0B60C3699A42F7D310BD25
S31500000C8017480168C902FCD50069704700000000DA
S31500000C90002B2DE9F84E8BB0074614BF114D124DAF
S31500000CA00E46144603A8202100F026F80FA02F4375
S31500000CB090E8000E03976F4687E8000E009644F012
S31500000CC000540294694603A8FFF7A8FF03A8FFF79C
S31500000CD0B9FFFFF7D5FF0CB000F47020BDE8F08E29
S31500000CE04400004C01000AFF010008FF000000005C
S31500000CF00100000000000000002200F001B8FEE73D
S31500000D0000B500BF130096469446103928BFA0E8E8
S31500000D100C50FAD85FEA417C28BF0CC048BF40F8A7
S31500000D20042BC90728BF20F8022B48BF00F8012B67
S31500000D3000BDFEE700207047002070470020704786
S31500000D402421FFF7D9BF70B50D4604461646242167
S31500000D50FFF7D2FF802E1CBFC02EB6F5807F02D0D3
S31500000D606FF01F0070BD2660F2082946201DFFF7B0
S31500000D709FFE002070BD2DE9F84791B00646306809
S31500000D800F46144680281D4618BFC02805D0B0F56A
S31500000D90807F18BF6FF071004AD109A82021FFF7A4
S31500000DA0ABFF012F0FF2542191E88C000CBFDFF846
S31500000DB00C02DFF80C020990684680E88C00301DB2
S31500000DC0009030680FF2402206A9C00840F000509B
S31500000DD0029092E8884009A881E888400FF2342101
S31500000DE0069491E8000703AC694684E8000703957A
S31500000DF0FFF70AFF06A909A8FFF706FF03A909A836
S31500000E00FFF70CFF316809A800F01EF8102109A8A9
S31500000E10FFF70EFF00F032F950B909A8FFF712FFED
S31500000E2000F009F804F47024002C0CBF00202046C2
S31500000E3012B0BDE8F087DFF88C010168C902FCD565
S31500000E40046900F025B911A8C908FFF7F1BE000032
S31500000E50002A2DE9F64F99B014BF14680024002526
S31500000E60009000684FF00009019180289A46249E60
S31500000E70259F1CBFC028B0F5807FDDF8988004D080
S31500000E806FF01F0092E000F09FF80198814580F016
S31500000E908680002CF7D1A0EB09005FEA101B60D01A
S31500000EA067A511A85EA12022FFF702FE95E80E00B5
S31500000EB008A84FEA0B1B80E80E000099081D089051
S31500000EC000990BA80A680EA9D20842F000520A92AD
S31500000ED00FF2781292E8284081E82840CDF838A031
S31500000EE00FF2741191E82C000DF1140E80E82C001D
S31500000EF0CDF82CA05BA090E80E0007EB09008EE869
S31500000F000E0005904BF00051079100BF58A393E8DF
S31500000F10214002AA08EB090382E8214000F068F8A4
S31500000F2000F062F805A900F060F800F059F80BA986
S31500000F3000F057F800980168FFF785FF594611A899
S31500000F40FFF776FE00F09AF800282FD111A8FFF7D8
S31500000F5079FE00F02EF8056900F09AF8D94405F4F8
S31500000F607025FDB90BE041425144CA7B521CCA733D
S31500000F70D2B212B9401C0F28F5D900F025F8019815
S31500000F80B0EB09003FF481AF002CF6D10098334650
S31500000F9052460121FFF7EFFE0028E4D006E01A983A
S31500000FA000B10460002D0CBF002028461BB0BDE830
S31500000FB0F08F04480168C902FCD57047000100049F
S31500000FC0000101044400004C17F80910305D641C50
S31500000FD004F00F04414008F8091009F101097047AF
S31500000FE002A911A8FFF71ABE0EA911A8FFF70CBE99
S31500000FF00293049108A911A8FFF706BE000000009D
S3150000100001000000000000000000000001000000D8
S315000010101000002000000000010000001000002069
S3150000102003030004000000000000000000000000B0
S3150000103000000000000000000000000000000000AA
S315000010400000000001000000000000000000000099
S315000010500100000010000020000000000100000058
S315000010601000002000000000010000000000000049
S3150000107000000000010000000000000080B5FFF73E
S3150000108059FE10B9FFF758FE08B14FF0FF3002BD08
S31500001090FFF754BE1CB50123042200F023F80021FB
S315000010A0009102E00098401C009000986428F9DB4B
S315000010B00123022200F017F8002001E00098401CEE
S315000010C000900098B0F5FA7FF8DB05490C6801231B
S315000010D0002200F007F804F0010484F0010016BDB8
S315000010E044C0034000210120FFF74CBC70B5DFF877
S315000010F04021DFF84031DFF84041246865070CD411
S31500001100C60701D41C4209D100EA04058D4208D065
S31500001110521EF0D16FF0020070BD06E06FF00100C4
S3150000112070BD1C42FAD1002070BD4FF0FF3070BD7B
S3150000113070B541F67131414C0122424BE568E162DE
S315000011401A60606002262660002121202D0CFFF720
S31500001150CDFF05F00105010003D100212120FFF795
S31500001160C5FF0121364A11600DB10021E16270BD53
S315000011702DE9F047DFF8D0800125C8F800504FF47C
S315000011805026324F47F8206030264643304D002720
S31500001190354441F671346F60AF60AF612D4E3769EB
S315000011A0346334683F0C07F0010744F001043460EF
S315000011B0012404FA00FC22E0B1603469640729D4F2
S315000011C04FEA9E04641E240144F06054EC602A61D8
S315000011D0214C6C61C8F820C0204CD4F8009029FA44
S315000011E000F95FEAC97AF8D51D4CC4F800C0C8F802
S315000011F024C00424746071447244A3EB0E0363B1EB
S3150000120001F50054640B6403A4EB010E7345D3D2BD
S315000012109E46D1E74FF0FF3007E0306840084000B7
S3150000122030600FB1002030630020BDE8F087000079
S3150000123080969800020001001C0003401000034045
S315000012400C2003400C1003400410044000400440EE
S31500001250580004400C0003401800034034000440CA
S3150000126034200440054909688A0902F03F0201F06A
S315000012703F0382704370090B0170704714C007402A
S315000012802DE9F84F5FEA00080E4698B017461D464E
S3150000129018BF002E00D017B940F2016060E0229C12
S315000012A0002D10A836A116BF002CDFF8BC90DFF881
S315000012B0BC902022FFF7FCFB494610A8FFF7B8FCBC
S315000012C0202110A8FFF7B4FC35A292E808500DA91A
S315000012D0002D81E808500D9534A191E8010C0DF11F
S315000012E0280918BF002C89E8010C0A9405D00DA91D
S315000012F000F042F80AA900F03FF800BF2EA191E8DD
S315000013001C0007A807A980E81C00CDF81C8000F087
S3150000131033F800BF2BA191E81C0004A801AD80E8BA
S315000013201C0004962AA696E8004304A910A885E89E
S3150000133000430197FFF768FC01A900F01DF810A80B
S31500001340FFF780FC0A4800900A480168C902FCD5EC
S31500001350006900F470200090009808B140F2046023
S3150000136019B0BDE8F08F00001F24FC841F24008004
S31500001370785634124400004C10A8FFF745BC000014
S315000013800000010600000000000000000000000050
S315000013900000000000000000000000000000000047
S315000013A000000000010000002000002000000000F6
S315000013B001000000200000200000000001000000E5
S315000013C02000002000000000010000002000002096
S315000013D00000000001000000200000202DE9FC476D
S315000013E08A461446984670B9002C43D00B990A6871
S315000013F03F2A0AD84868002818BF5FEA080905D1BD
S315000014000FF24C1902E0414835E0C14602F03F06B2
S31500001410A218C6F140050A60A24202D24868401CE2
S3150000142048600A9F96B1AC4210D32A465146B81975
S31500001430FFF73EFB0120009043463A46494600200E
S3150000144000F096F8C146AA44641B00263F2C0BD92F
S31500001450A5090095434652464946002000F088F803
S315000014600AEB851AA4EB851424B122465146B81915
S31500001470FFF71EFB0020BDE8F687F8B586B00C46E0
S3150000148015461E4640BB002102AF56F821304A429F
S315000014909200D21D00EBC300B85402A8104456F8BF
S315000014A02120C01E5209827056F82120520B42702C
S315000014B056F82120520D027056F82100491C400FA3
S315000014C00129E2D9327802F03F02382A34BFC2F14C
S315000014D03802C2F1780201E00C4814E0019600954A
S315000014E023460B490020FFF779FF01960095234616
S315000014F0082202A90020FFF771FF0C98202221463E
S31500001500FFF7D6FA002007B0F0BD000080AFFFFF5E
S31500001510800000006821FFF7EFBB002101604160F9
S315000015200020704700F12803E0B50093019000F118
S3150000153008030020FFF752FF0EBD80B50346009159
S3150000154003F1280203F108010020FFF796FF02BD10
S315000015506A09E667BB67AE853C6EF372A54FF53A3E
S31500001560510E527F9B05688C1F83D9AB5BE0CD196A
S315000015702DE9F04F91B004460E4617461D4609A8C0
S315000015802AA12022FFF794FA30A191E8010C0DF16F
S31500001590180800BF30A288E8010C069792E8884038
S315000015A003A981E8884000BF2EA1039691E80007B1
S315000015B06E4686E80007009574BB09981A9C40F4AD
S315000015C080600990A10109A8FFF732FB089803A9DA
S315000015D040EA84140894059840F02000059002988B
S315000015E040F02000029009A8FFF70EFB06A909A803
S315000015F0FFF70AFB694609A8FFF710FB09A8FFF7E2
S3150000160021FB07480168C902FCD5006910F4702F58
S315000016100CBF0020034800E0034811B0BDE8F08F7E
S315000016204400004C80ADFFFF80AFFFFF00000103C8
S3150000163000000000000000000000000000000000A4
S315000016400000000000000000000000000000000094
S315000016500100000000000020000000000100000062
S315000016600000002000000000010000000000002033
S3150000167030B5084B01241C6000255D60DA609C6073
S3150000168002E010F8014BDC610A46511E002AF8D12F
S31500001690186A30BD048008404FF4017000F0C5B8E8
S315000016A01CB56846FFF7DEFD4D48816ACA0311D4B2
S315000016B041686FF3162141F4B81141F405414160C8
S315000016C0016821F4704141F440410160026842F42E
S315000016D0E06202609DF80100012804BF9DF8000049
S315000016E0002807D14FF0005106200A6801F5804115
S315000016F0401EFAD13B48016841F00301016000F049
S31500001700CCF800F08CF800F0D3F800F0D3F818B15C
S315000017104FF4017000F089F800F0EAF8044600F092
S31500001720C8F9002C19BF40F20370844240F2012030
S3150000173000F07BF840F2057084421BBF40F2067150
S315000017408C4240F203204FF4017000F06EF8002046
S3150000175016BD000080B5012100F04BF8224908684B
S3150000176042060AD500F078F840F20221401A07D066
S31500001770C01E05D0C01E012802D9FFF78BFC08B198
S3150000178000F036F844F20400016811F1010F05D1AA
S315000017904FF4027000F034F800F02AF89DF80100CA
S315000017A060B14FF4804000F084FA8DF800009DF897
S315000017B0000018B94FF4027000F022F89DF80000FE
S315000017C068B14FF48041094801600A461046016835
S315000017D081F3088881F3098840688746FEE701BDE2
S315000017E030C00040808000409440004008ED00E09A
S315000017F000218DF800108DF8011070470020704709
S315000018004FF000514A8808804FF6F07002404AF6C1
S31500001810C0339A421CBF4FF20F024A8070474CF207
S315000018203C30FFE709490880704780B5FFF7E8FFBD
S31500001830BFF34F8F06490A68064802F4E062024386
S315000018400A60BFF34F8F00BFFDE7000002000020D3
S315000018500CED00E00400FA0510B54FF00052508878
S315000018604FF6F0714AF6C03401EA0003A3421CBFEA
S315000018704FF20F03984201D1108810BD002804BF13
S315000018801088012802D140F2022010BD4FF40070EA
S3150000189010BD4FF0005000887047002070470020B0
S315000018A07047FEE701790122C01C091DFEF753BFF0
S315000018B0FEF7DEBE10B5C2B0FFF7EBFF784CB0F511
S315000018C0027F05D1684600F0EFF86846FFF7EAFFA9
S315000018D0684604F5847100F0E8F828210A680DF1DD
S315000018E00700936803606846FFF7DCFF42B010BD4F
S315000018F0F8B5ADF5866D6B4C88A800F0D5F802A852
S3150000190004F584712C22FFF7D3F841A804F59A71E7
S315000019104FF48E72FFF7CCF827A804F514716822ED
S31500001920FFF7C6F80DA804F52E716822FFF7C0F878
S3150000193020230DAA27A941A800F034FC5DA540F696
S31500001940033640F2022708E0012100228DF8261214
S31500001950ADF8272288A8FFF7A5FF4FF48471CAA81F
S31500001960FFF7CAF9FEF739FF0028FBD04FF47A706B
S315000019700090CAA8012301AA0121C01CFEF74AFF54
S315000019809DF82B032028EDD14FF47A7100910123A5
S3150000199001AA0321CBA8FEF73DFF01980328DCD15D
S315000019A09DF82C4374B140F6B8300090CBA80123C3
S315000019B001AA2146C01CFEF72DFF0199A14208BFCE
S315000019C00028CAD19DF82D030028C6D19DF82E0304
S315000019D09DF82F330328C0D8DFE800F0530304191D
S315000019E0BBE7B1E70095CCAA02A941A800F01EFC0E
S315000019F0022100288DF826121CBF41F207018842F9
S31500001A0012BFADF827620022ADF82722A2E7032015
S31500001A108DF826029DF80A0000281CBF9DF80B00D1
S31500001A20002888A81ABF0021ADF82712ADF8276252
S31500001A30FFF738FF9DF80A0000281CBF9DF80B0031
S31500001A4000288AD09DF8080041070CD50C9800F0B4
S31500001A50A9F920B101F09DF800F0D4F97DE73846E8
S31500001A60FFF7E3FE79E78107FCD528200268039893
S31500001A709168814204D201F08CF80B9900F058F974
S31500001A806BE79DF80A0028B19DF80B0010B940F2EB
S31500001A900320E5E7012BE2D040F20120E0E7000059
S31500001AA0400100005003000021464FF48472FEF707
S31500001AB0FFBF704700000000111C0000000000007E
S31500001AC0391C0000F8B50446600B0D461646B4EB0B
S31500001AD0403004BF204601F064F804F500577F0B40
S31500001AE07F0304E0384601F05CF807F5005730192B
S31500001AF08742F7D332462946204601B00223BDE885
S31500001B00F04001F052B838B504460D4600F0B4F87E
S31500001B1058B16069012803D1204600F0C5F808B91C
S31500001B20002032BDA069286000E02C60012032BD93
S31500001B30F0B504469DB040F204600090656B01F07C
S31500001B4025F80746284600F097F800285ED0287C3E
S31500001B5002282CD201F012F828B1286A012101F0DE
S31500001B6041F8002852D034200668304600F084F848
S31500001B7000284BD038694038B04218D300208DF881
S31500001B80040001A9284601F030F800283ED002A939
S31500001B902846FFF7B8FF002838D0029839698842EE
S31500001BA028BFA04203D30146AB48814201D300209F
S31500001BB02CE003A801F01BF802982146021B03A89B
S31500001BC001F01FF803A801F01EF8029C00F0D4FFF4
S31500001BD0203450B19DF8040008B1A86B00E0B06B4A
S31500001BE000F124010091031D06E0FEF7F0FF054613
S31500001BF0FEF7E0FF034600950299224603A8FFF789
S31500001C003FFB00900098401E8041C00F1DB0F0BD04
S31500001C1070B504460D46164600F0B8FF01698C42C1
S31500001C2022BF40693219904205D3324629462046E2
S31500001C30BDE8704046E770BD2DE9F0410446884690
S31500001C40164600F0A3FF074600F0A3FF25187019FB
S31500001C50814988420ED23CB900F09BFF79698842DF
S31500001C603CBF386900F09DFF324641462846BDE834
S31500001C70F04127E7BDE8F0817FB5040012D0684641
S31500001C807DA11022FEF714FF002046420DEB06054B
S31500001C90E97B225C914205D1401C1028F5D3012036
S31500001CA004B070BD0020FBE7007C02288041C00F15
S31500001CB07047F8B5044625686768666B00F066FFEE
S31500001CC005F1604565498D4229D20069874226D3D0
S31500001CD061498F4223D24030864201D38E4205D3DA
S31500001CE0FFF78CFD401E8041C00FF2BDFFF786FD59
S31500001CF0B8B93046FFF7C0FFB8B1307C02280ED223
S31500001D00706990B102280CD1B0694FF0FF32001D06
S31500001D10011B2046FFF7ACFC5149884205D0002044
S31500001D20F2BD2046BDE8F24002E70120F2BD000008
S31500001D3070B590B004460D464FF0FF32FFF798FCA1
S31500001D40474B984213D168464FA100F057F800F070
S31500001D508FF8294600F08DF86846FEF773FF414E6E
S31500001D603068C002FCD5306910F4702F02D0002014
S31500001D7010B070BD00F038FF40F20220FFF740FDC2
S31500001D800DF1200048A100F039F800F06DF8294661
S31500001D9000F06BF808A8FEF755FF3068C002FCD5C6
S31500001DA03169E4E72DE9F8438CB004464FF0FF357E
S31500001DB0009504A844A100F021F800BF4AA696E8C1
S31500001DC0800301AD01A985E88003CDF804D004A8FD
S31500001DD0FEF724FF04A8FEF735FF22480168C90272
S31500001DE0FCD5006910F4702F18BF002003D10098AD
S31500001DF0A0428041C00F0DB0BDE8F0832022FEF75F
S31500001E0057BE000038B590B00446684639A1FFF7C2
S31500001E10F5FF00F02DF86846FEF714FF114D28680F
S31500001E20C002FCD5286910F4702F11D140F20220AF
S31500001E30FFF7E6FC0DF1200036A1FFF7DFFF00F00B
S31500001E4013F808A8FEF7FEFE2868C002FCD529692B
S31500001E50002011B030BD000001001000018001001B
S31500001E60E320BBDE4400004C214608A8FEF7E0BE96
S31500001E7021466846FEF7DCBEB814B6F1E0CFF3ADF6
S31500001E80B7DD25C9FA79B713010005430000000044
S31500001E90000000000000000000000000000000003C
S31500001EA000000000000000000100064300000000E2
S31500001EB0000000000000000000000000000000001C
S31500001EC000000000000000000000084300000000C1
S31500001ED000000000000000000000000000000000FC
S31500001EE000000000000000000000000001000000EB
S31500001EF00400002000000243000000000000000073
S31500001F0000000000000000000000000000000000CB
S31500001F100000000000000343000000000000000075
S31500001F2000000000000000000000000000000000AB
S31500001F300000000070B54B688C689C4206D200F128
S31500001F4040021B1B14781B19412B01D3002070BDC6
S31500001F500D6853781478E4188B6804F03F04EE5C3F
S31500001F6006558C68641C8C6013785B1C13708C6837
S31500001F704B689C42ECD3012070BD90F840004A6843
S31500001F8089681018401A7047F8B584B014460026C0
S31500001F90054601960096082302AA00F047F841F28A
S31500001FA00306B0423BD195F8430005F1480738B126
S31500001FB000F037F83868082302AA02A900F04CFEA0
S31500001FC09DF80A209DF80B009DF80910120442EABC
S31500001FD000629DF8080042EA0122024322609DF851
S31500001FE00E009DF80F1000F0B9FD9DF80D1040EAA7
S31500001FF001209DF80C100843606095F8430048B92D
S31500002000DFF8E41A8A421CBFDFF8E00A824201D0F8
S3150000201000F007F860680021F960B860304605B046
S31500002020F0BD7868082202A900F0EBBD2DE9F04169
S315000020300C4617461D468046FFF79FFF08F14006EF
S31500002040A84207D221464046FFF774FF00284CD02D
S31500002050002048E000210CE0707818F800207A543F
S3150000206073783078491C5B1C03F03F03421E737083
S315000020703270307808B1A942EED3A0686268904207
S3150000208038BFA94207D22368185C7854A268491C55
S31500002090521CA260F1E7A94227D1B26C069C2946E0
S315000020A03846FFF7E5FAB06424B1F0682A463946A7
S315000020B000F0A7FD079838B1F07878B1B0682B46E4
S315000020C03A46394600F0C8FDF07838B1B169F06992
S315000020D028188842F06124BF0020F07070692D181E
S315000020E0756141F20300BDE8F0811520B07141F23F
S315000020F00200F8E72DE9F8431E467368002B4ED020
S315000021000C4614F0030118BF41F2020048D11546EF
S31500002110074600F037FD396E001D6A18824221D34A
S3150000212000F1180399421DD28C46844505EB01083F
S3150000213000F1180238BF84469045ACEB0101ACEBC8
S31500002140000088BF904604EB0109A8EB0C08384450
S31500002150424649466830FEF7ABFCFF2241464846F8
S3150000216000F08AFD00F015FD396E001D884222BF81
S315000021706A18031D9A4209D3411A6018026807F1CA
S3150000218080010A60FF22042100F076FD21463368B3
S31500002190386E74682A46A047386E2D183D660020B2
S315000021A0BDE8F283F8B5064606F1400700200D4665
S315000021B0B8717870F870387100214FF0FF3014460E
S315000021C03970797103F02003B86439627962BB70A3
S315000021D0FF22182106F1680000F04EFDFF220421BF
S315000021E006F1800000F048FDFF22042106F184007C
S315000021F000F042FDBD60FC60882106F1900000F011
S3150000220045FD002086F8180100F0B4FC00B11DB1B0
S3150000221000F0AEFC18B114B941F20B00F2BD14B1D6
S31500002220F86800F0E4FC0020F2BD00002DE9F84F4C
S3150000223005468846002100230024B4B005A880E89E
S315000022401A000592349A0891DDF8F8A00692486BB8
S3150000225041F20307099000F099FC0069099940389A
S31500002260884280F0188246E395F81801002840F06D
S315000022701D82099A1AAB05A9284600F08DFC00902C
S31500002280009841F20601A046884200F0D4830098E7
S31500002290B8426AD0DFE300F04EFC00900098A046FA
S315000022A0B842F7D104980021C9F80C10C9F8080003
S315000022B00398DFF83C1888425ED102228EE000F0D7
S315000022C03AFC00900098A046B842E3D1B07820B11D
S315000022D00398DFF8181888424EE03278D10756D5B1
S315000022E07078002853D10398DFF8041888421CBF81
S315000022F0DFF8001888422AD0DFF8FC17884200F081
S315000023008680DFF8F81788421FBFDFF8F417884287
S31500002310DFF8F01788421AD0DFF8EC17884225D08C
S31500002320DFF8C417884277D0DFF8E017884213D069
S31500002330DFF8DC1788420DD0DFF8B017884218D0D6
S31500002340DFF8D01788421CBFDFF8CC17884200F0B0
S315000023507A8114E0102241E011203071D9F808107A
S315000023600020C9F81400C9F8101094E11521317144
S3150000237079E000F0FDFB002840F0658142E0152081
S31500002380307103A800F085FC00286CD0B3E20398F6
S31500002390DFF86017884220D0DFF85C17884233D018
S315000023A0DFF8581788421DD0DFF85417884217D037
S315000023B0DFF85017884217D0DFF82C17884228D04C
S315000023C0DFF82817884216D0DFF8481788420FD062
S315000023D0DFF84417884209D021E00B2232715AE116
S315000023E0042006E0062118E0072002E0092114E097
S315000023F00D2030714FE100F0BBFB002804BF707860
S315000024000028B9D10E2108E070780028B4D1122135
S3150000241003E070780028AFD1132131713BE103A8A6
S3150000242000F037FCC0B103981421C9F8440031719B
S31500002430039800F030FC089030788106EED50898B5
S3150000244000281CBF41680029E8D02846884700902C
S3150000245000980028E2D04EE270781521317110B153
S3150000246041F204003DE341F208003AE3D9F80C00DA
S3150000247008284DD2002101200191009000F072FB46
S3150000248000F062FB4DD198F803000006B0F1407FE2
S3150000249004D01520307141F2090022E398F80500B6
S315000024A098F8041041EA00210291C90704D5307852
S315000024B040F00100307002E000F05CFB30B900F043
S315000024C057FB0028D2D00298C105CFD41520307111
S315000024D041F20A0005E31C220AA904F10800FEF7EE
S315000024E0E7FA207840F00100207004F1080000F0BF
S315000024F056FB002805D0002104F1080000F040FB3F
S31500002500002800F0BC81D9F80830D9F80C009842B0
S3150000251080F08E8200F00BFB00F01BFB00F014FB3A
S31500002520D9D098E2207840F00400207098F80E0088
S3150000253098F80F1098F80C2000F010FB98F80D1082
S3150000254040EA01201043A0626078410732D5EB20B3
S315000025508DF82800A620172188F8020088F80110B7
S3150000256005F150005E2188F80310026805F1840128
S315000025700A600022C9F81C20F07840F00200F070D2
S31500002580DAF80CC0BCF1000F14D0DAF800300422DF
S315000025900AA90020E047D9F81C00DAF80030DAF87A
S315000025A00CC008220CA90830E047D9F81C001030EE
S315000025B0C9F81C000C203071D9F80C00082869D223
S315000025C000F0B5FA08230CAA00F0C4FA00F0BCFA31
S315000025D0A8D040E2207840F00200207098F802006F
S315000025E098F803109DF8282000F0B8FA98F8011022
S315000025F040EA012010436060D9F80800083860629C
S3150000260098F8060098F8071098F8042000F0A6FA43
S3150000261098F8051040EA0120104314D1F1780520FE
S31500002620307141F00101F1700020C9F81C00D9F8A1
S315000026300C0008282ED200F07AFA00F093FA00F087
S3150000264083FAC7D007E21520307154E198F80210DA
S3150000265098F803009DF82820090441EA006198F8DB
S31500002660010041EA002111430291D9F8080005282A
S3150000267024BF0298C9F81800D9F80C00042807D21C
S3150000268000F055FA00F064FA00F05EFADED0E2E1FE
S315000026900A203071A0460798349988424ED24446A3
S315000026A005F142060DF1280805F14809307915288B
S315000026B0F0D8DFE810F01F001E001D001C001B00F4
S315000026C02D001A0020002D0019002D0018002D00E5
S315000026D0190036011202AC01BB011700C301BD008F
S315000026E01202D7E7C0E567E7C6E70CE79FE7AAE768
S315000026F0BCE6E4E5CFE50021C9F81C100820C8E7D0
S3150000270000F00EFAE047D9F81C004044C9F81C0056
S31500002710D9F80800D9F80C10814280F08981A0EB25
S315000027200108B8F1040F05A9284608D3FFF725FCD0
S31500002730042808D205A92846FFF7FCFBD0E1FFF7DD
S315000027401CFC4045F6D3B8F1410F05A9284628BF21
S315000027504FF04008FFF711FC404502D200F0F0F9B7
S315000027608046B8F1040F0AAA05A924BF4FEA9800CB
S315000027704FEA800801200190009043462846FFF763
S3150000278055FC00F0E1F940F066813079082804D163
S31500002790DAF808C0BCF1000FB2D1C8F1040BB8F1E9
S315000027A0040F06D20AA8FF225946404400F064FAF4
S315000027B0D84431790A2911D1DAF8040030B101215F
S315000027C004F1080000F0DCF9002858D053464246D0
S315000027D00AA92846FFF78EFC009099E7052919D12A
S315000027E06078820716D5DAF80C0098B1D9F81C0083
S315000027F0052818D208EB0001072914D30AA9091DD8
S31500002800081A016805F184021160FF22042100F014
S3150000281033FA08E00C29E0D160784107DDD5DAF813
S315000028200C000028D9D000F07BF9DAF80CC069E773
S315000028303178A046880606D5D9F8440000F02BFA70
S315000028400890002857D0DAF8040028B1012108F1D1
S31500002850080000F095F990B1089CD9F80C00D9F859
S31500002860081088424AD2307881060DD5002C1CBF4C
S315000028702169002908D028468847834606E01520A6
S31500002880307141F20C002CE14FF0010B00F058F9C9
S315000028905845FFF44FAFD9F80800D9F80C10A0EB53
S315000028A0010BBBF1410F05A9284628BF4FF0400B8D
S315000028B0FFF763FB834502D300F042F9834601200C
S315000028C0019000905B4600F044F900F03DF911D10B
S315000028D030788106C1D574B1D4F808C0BCF1000FB8
S315000028E009D053465A460AA92846E0470090009860
S315000028F00028B2D0AFE041F20100F2E0089430784F
S31500002900810640F19680002C1CBFE268002A05D0A3
S3150000291051462846904700900098002800F089808C
S3150000292099E000200190009000F012F900F00CF9F7
S31500002930F6D1D9F840007949884204D0152232717F
S3150000294041F20500CDE000F013F910B90120E07066
S3150000295002E0E078002849D0F07810F0030F1CBFA1
S31500002960DAF80C70002F06D0DAF80030042205F1F0
S3150000297084010420B847D9F8181000291CBFDAF8DA
S315000029800400002832D04FF0FF31029105F1800794
S315000029900422394602A800F081F950B100F0F9F896
S315000029A038B13946DAF80030DAF804700422001D2E
S315000029B0B847042205F1680102A800F06FF9A8B132
S315000029C000F0E0F8DAF80030DAF80470142205F1C5
S315000029D06C010830B84700F0D5F805F16801DAF85F
S315000029E00030DAF804500422001DA8470120A07028
S315000029F00F21317174E0FEF7FEF8009080210191FD
S31500002A00D9F8000001230BAA022100F0FFF8D9F83B
S31500002A100C0010280CD200210120019100901023F7
S31500002A2000F097F800F090F8E5D014E001207070FF
S31500002A30A0460121F1E4152030710CE0B078A046E3
S31500002A400028F6D1002101910090402300F081F882
S31500002A5000F07AF801D0009843E0D9F8040000F0BD
S31500002A60D2F895F8180128B105F1B401009105F1E5
S31500002A7094031CE000F080F890B1099812AA806BCC
S31500002A80031D00F124010091D9F804000AA9FEF7FC
S31500002A90F7FB0090009888B100210091002306E022
S31500002AA0FEF795F80446FEF785F800940346D9F834
S31500002AB0040012AA0AA9FEF7E3FB0090009838B1B9
S31500002AC0002188F803101520307141F2060008E055
S31500002AD0012088F80300B070ABE741F2070000E080
S31500002AE0002035B0BDE8F08FF70A0AF7FC0404FCB5
S31500002AF0EB17A603EB17A65EF30B0BF3F40A0AF427
S31500002B00F50909F5F60808F6F70909F7F90707F9C7
S31500002B10FA0606FAFD0303FDFE0101FEE320BBDE15
S31500002B20DAF8003042460AA9D9F81C00704701219C
S31500002B3001910091704703AA05A92846FFF724BA18
S31500002B4005A92846FFF719BA00900098B8427047C1
S31500002B5004230AAA05A92846FFF768BA000440EA32
S31500002B600160704708230AAA05A92846FFF75EBA3E
S31500002B7000207047002070470020704700207047F3
S31500002B8001207047282001680869704728200068DE
S31500002B9070474FF40040704741F20600704701202D
S31500002BA0704780B5FEF7C4FA18E010B51C46082C2D
S31500002BB008D20AB9012010BD10F0030F08BF12F0A9
S31500002BC0030F01D0002010BD13460A4601462046D9
S31500002BD0FEF7CEFA401E8041C00F10BD401E804158
S31500002BE0C00F02BD0020704770470120704710B526
S31500002BF00446FEF78FFC20460021BDE81040FEF794
S31500002C008CBCFEF78FBC0146FEF797BC2DE9F84356
S31500002C1080460E4691461C46089D099F08F12000F5
S31500002C20FEF78EF83A46294608F12000FEF78BF8A3
S31500002C3008F144000021016006750C22494608F19E
S31500002C405900FDF735FF08F16500210C220A0170D5
S31500002C5042708470BDE8F1833EB51C460292019134
S31500002C6000F1480500F1580300F1440200952146A1
S31500002C702030FEF7EDF837BD4018491C1CBFB1F1F6
S31500002C80010100F8012DF9D17047FEE70022FFF798
S31500002C90F3BF0020704700207047FEE703000020C6
S31500002CA0521E22BF13F8010B11F801CBB0EB0C003A
S31500002CB0F6D0521C08BF10467047FEE70448054987
S31500002CC008600548026842F470020260704700001E
S31500002CD00000000008ED00E088ED00E010B50446B5
S31500002CE0B1F50A7F02D240F2052010BD4FF40A71F9
S31500002CF0FEF702F80020607004F5D87204F5A4719E
S31500002D0004F12C000023BDE81040FFF74BBA1CB5B8
S31500002D100446009100F040F80028C4F824021CBFC5
S31500002D2041F2070188420BD1A07838B1E07810B1A2
S31500002D3040F2032016BD40F2022016BD40F20120EB
S31500002D4016BD00002DE9FC41089E904604460F463C
S31500002D501D46002232601C212846FDF7CDFF00BF2C
S31500002D6011A2009243463A4600F016F820788107F1
S31500002D7044BF606830602178C80705D51C2204F17D
S31500002D8008012846FDF794FE2078002814BF00208D
S31500002D9040F20640BDE8F681214604F12C00FFF71B
S31500002DA045BA4FF40A7070470000000000000000AA
S31500002DB000000000000000000548014603B4684614
S31500002DC080F30988AFF3008000F004F800F014F8EF
S31500002DD0A5EDF5FE4EF68851CEF20001086840F4E6
S31500002DE070000860BFF34F8FBFF36F8F4FF0007016
S31500002DF0E1EE100A7047FEE700F00DF8002801D05A
S31500002E0000F028F8AFF300800020AFF30080FEF753
S31500002E1047FC00F033F80120704730B4002513E07A
S31500002E2050F8042BD30744BFA9F101039A18091FD0
S31500002E30042942F8045BFAD213468C0744BF158076
S31500002E409B1CC90748BF1D7050F8041B0029E7D119
S31500002E5030BC704710B5074979441831064C7C449C
S31500002E60163404E00A68081D114488470146A14249
S31500002E70F8D110BD700000008C00000000F000B812
S31500002E800746384600F002F8FBE700002021090358
S31500002E9026311820ABBEF9E780B5FFF70FFFFEF726
S31500002EA059FCBDE80140FFF787BF30B5016884686B
S31500002EB04218416802EB5103C90703D54C4401E0AF
S31500002EC0491C05D19A420AD012F9011B12F8015B7E
S31500002ED0002904F8015BF3D4491EF7D5F2E70C305C
S31500002EE030BD000037FFFFFF0C020000100100207C
S31500002EF000000000B7FFFFFF0C00000024000000E8
S31500002F008000002081000C00F07F1030800000203F
S31500002F103C800540FC000000000000001F32E80075
S50302F208
S70500000000FA
