S020000066697273745F73746167655F62746C5F65666D33326A6731622E73333738
S1130000900400202905000071050000750500001A
S1130010790500007D050000810500000000000056
S113002000000000000000004005000085050000FD
S113003089050000000000008D0500009105000006
S113004010B56249624A01E021B1491E1369DC0717
S1130050FAD411B96FF0020010BD50600120106095
S11300601169480702D54FF0FF3010BD002010BDC4
S113007003460020002900D1704770B5544C53F852
S1130080042BE26008252560491E504A01E062B154
S1130090521E2569EE07FAD43AB12269940701D4B5
S11300A011B1EBE76FF0010070BD6FF0020070BD9D
S11300B02DE9F84F444D0C46A96B834600208EB2BF
S11300C006B1012641F67131A9634FEA92082B6803
S11300D043F001032B608146A24612E0C7F30A07EE
S11300E0C7F50067BF08A8EB0900B84238BF074648
S11300F039465046FFF7BCFF01000CD1B9440AEB66
S1130100870AC14507D20BEB89073846FFF798FFEA
S11301100100E3D00DE0DBF8002021688A4208D01A
S11301205846FFF78DFF010003D101212046FFF758
S11301309FFF2968490849002960F6B20EB10021E1
S1130140A963BDE8F28F30B51F4B20490246986B76
S113015080B200B1012041F671349C631D6845F002
S113016001051D609A6001225A605C69620704D52A
S113017000F021F84FF0FF3030BD02225A605A6976
S1130180D40710D5002918BF491EF8D10BE0002967
S1130190196804D100F010F86FF0020030BD00F0CF
S11301A00BF8002030BD5A699407F0D500F003F82D
S11301B06FF0010030BD196849084900196008B1A1
S11301C000209863704773E708000E4080969800FB
S11301D00C000E40F8B5282001680869CD68846ACF
S11301E0AC4225D305F560518C4221D2641B04191D
S11301F0264E2168B1421BD1E168254F4FF0FF32F2
S113020000F050F8B84213D100F044F80ED202685E
S1130210B2420BD18168A268914207D3C1684FF002
S1130220FF32284600F03EF8B84201D00120F2BD6A
S11302300020F2BDF8B5282000680569C468AE6ADC
S1130240361BAE19274604E0384600F045F807F59A
S11302500067F26810198742F6D32946204600F059
S113026057F890B100F016F80CD2026807498A4298
S113027008D1C1684FF0FF32204600F013F804495A
S1130280884201D00020F2BD0120F2BD07B0CD5E4E
S1130290E320BBDE40F628000068A0F50061B1F55C
S11302A0605F704730B50A4B1C6844F020041C6042
S11302B00125084B1D609A605D6002E010F8014B57
S11302C09C610A46511E002AF8D1D86930BD00BF8E
S11302D0B0400E4000C0014080B5FFF734FF401E1F
S11302E08041C00F02BD80B58308800705D54FF655
S11302F0FF7242EA0142009204E041F07F4141F47E
S11303007F010091042269469800FFF75CFF02BD5B
S1130310F8B505460E46144605F0010104F0010047
S1130320014321D1F4B1AA0707D536F8021B2846A8
S1130330FFF7D9FFC0B9AD1CA41E042C0CD3A70829
S1130340BF003A4631462846FFF73DFF790806EBE1
S113035041067D19E41B38B924B131882846FFF7DA
S1130360C2FF08B90120F2BD0020F2BD80B51948D2
S1130370194A01681160FFF75DFF0028FBD040F2C5
S1130380022000F02FF8002002BD000010B5134C2D
S11303900020206000F046F811490A68B2F5803F59
S11303A00AD040F20921884218BFB0F5007F03D17A
S11303B0FFF710FF00B110BD4FF40060206002464B
S11303C01046016881F3088881F3098840688746EC
S11303D0FEE70000880000208C00002008ED00E00B
S11303E004500E404FF0005108804FF20F00488037
S11303F00948016821F4E06141F400710160BFF330
S11304004F8F064906480A6802F4E06202430A6014
S1130410BFF34F8F00BFFDE700500E400CED00E02E
S11304200400FA054FF000514FF20F024888904241
S113043001D108887047002804BF0888012802D128
S113044040F2022070474FF4007070470A490B488D
S113045008600B48426942F400524261016889080D
S113046089000160426B520852004263016A21F024
S1130470805101627047000008ED00E000000000B8
S113048040300E4030B450F8041B79B10268436820
S113049002440830DC0744BFA9F10104E31852F810
S11304A0045B43F8045B091FF9D1ECE730BC7047E7
S11304B010B5074979441831064C7C44163404E0DD
S11304C00A68081D114488470146A142F8D110BDAD
S11304D00800000018000000ADFFFFFF100000003E
S11304E07400000080000020000000000120C046CD
S11304F0002801D0FFF7DCFFAFF300800020AFF34A
S11305000080FFF733FF00F000F800F001B80000AE
S11305100746384600F002F8FBE7000020210903F3
S113052026311820ABBEF9E70248804702488047CD
S1130530024800474D0400008D03000065050000DB
S1130540AD1007B00100000000030A01000800001C
S113055000800000005A620200800000C0EA21010D
S1130560C0EA2101AFF30080AFF30080FFF7BEFFC4
S1130570FFF7FEBFFFF7FEBFFFF7FEBFFFF7FEBFAB
S1130580FFF7FEBFFFF7FEBFFFF7FEBFFFF7FEBF9B
S1070590FFF7FEBFB0
S903056592
