S020000066697273745F73746167655F62746C5F6566783332786731332E7333374E
S3150FE100000A4880F308880A4800470000000000000C
S3150FE1001000000000000000000000000000000000EA
S3150FE1002000000000000000009005E10F90040020A1
S3150FE100307905E10F10B55F495F4A01E069B1491EE4
S3150FE100401369DC07FAD441B15060012010601169E0
S3150FE10050480705D54FF0FF3010BD6FF0020010BD18
S3150FE10060002010BD03460020002900D1704770B56E
S3150FE10070514C53F8042BE26008252560491E4D4A81
S3150FE1008001E04AB1521E2569EE07FAD422B122697F
S3150FE10090950702D419B1ECE784E06FF0010070BD6A
S3150FE100A02DE9F047424EB36B804600209FB207B170
S3150FE100B0012741F67133B3638A463C4B1C681B68D3
S3150FE100C0356845F0010535600024950812E0C9F35E
S3150FE100D00A09C9F500694FEA9909281B484538BF4E
S3150FE100E0814649465046FFF7BDFF010010D14C440A
S3150FE100F00AEB890AAC420BD208EB84094846FFF7B3
S3150FE1010099FF0100E3D0316849084900316003E006
S3150FE101103268520852003260FFB20FB10021B1636B
S3150FE10120BDE8F08770B5224B22490246986B80B243
S3150FE1013000B1012041F671349C631C4C256824689B
S3150FE101401E6846F001061E609A6001225A605C69DC
S3150FE10150620704D500F01EF84FF0FF3070BD0222A2
S3150FE101605A6000E0491E5A69D40701D50029F9D131
S3150FE101705A69940704D500F00DF86FF0010070BDD0
S3150FE101800029196802D100F006F80BE000F003F838
S3150FE10190002070BD196849084900196008B10020AF
S3150FE101A0986370476FF0020070BD79E704300E4037
S3150FE101B008000E40809698000C000E40F8B53148C5
S3150FE101C001680869CD68846AAC4225D305F56051AB
S3150FE101D08C4221D2641B04192B4E2168B1421BD1EB
S3150FE101E0E1682A4F4FF0FF3200F056F8B84213D1CB
S3150FE101F000F040F80ED20268B2420BD18168A268D4
S3150FE10200914207D3C1684FF0FF32284600F044F818
S3150FE10210B84201D00120F2BD0020F2BDF8B5194870
S3150FE1022000680569C468AE6A361BAE19274604E055
S3150FE10230384600F063F807F50067F2681019874250
S3150FE10240F6D32946204600F060F890B100F012F897
S3150FE102500CD202680C498A4208D1C1684FF0FF32CD
S3150FE10260204600F019F80949884201D00020F2BD75
S3150FE102700120F2BD0648074900680918B1F5605F2C
S3150FE10280704700002800E10F07B0CD5EE320BBDE2B
S3150FE102902808E10F00F81EF030B50A4B1C6844F050
S3150FE102A040041C600125084B1D609A605D6002E009
S3150FE102B010F8014B9C610A46511E002AF8D1D86904
S3150FE102C030BD00BFB0400E4000C0014080B583088D
S3150FE102D0800700F006F8042269469800FFF765FFEC
S3150FE102E002BD05D54FF6FF7242EA01420092704711
S3150FE102F041F07F4141F47F010091704780B5FFF7EF
S3150FE1030011FF401E8041C00F02BDF8B5140005462E
S3150FE103100E4624D005F0010104F00100014320D17E
S3150FE10320AA0707D536F8021B2846FFF7CFFFC0B954
S3150FE10330AD1CA41E042C0CD3A708BF003A463146C8
S3150FE103402846FFF732FF790806EB41067D19E41BD4
S3150FE1035038B924B131882846FFF7B8FF08B901202B
S3150FE10360F2BD0020F2BD30B40EE0026843680244EC
S3150FE103700830DC0744BFA9F10104E31852F8045B26
S3150FE1038043F8045B091FF9D150F8041B0029ECD19E
S3150FE1039030BC704780B51B481B4A01681B4811608A
S3150FE103A04023C36001684A03FCD4FFF737FF0028F7
S3150FE103B0FBD040F2022000F042F8002002BD00001F
S3150FE103C010B5134C1348206000F056F812490A682D
S3150FE103D0B2F5803F0AD040F20921884218BFB0F545
S3150FE103E0007F03D1FFF7EAFE00B110BD0B4A226091
S3150FE103F01046016881F3088881F3098840688746CA
S3150FE10400FEE70000880000208C00002004300E403B
S3150FE1041008ED00E00000E10F04500E400008E10F87
S3150FE104204FF000514AF6C03308804FF6F0704A8814
S3150FE1043002409A421CBF4FF20F024A80704780B5C5
S3150FE10440FFF7EEFF0948016821F4E06141F400711D
S3150FE104500160BFF34F8F064906480A6802F4E0626E
S3150FE1046002430A60BFF34F8F00BFFDE700500E4016
S3150FE104700CED00E00400FA054FF000514FF20F02C8
S3150FE104804888904201D108887047002804BF088840
S3150FE10490012802D140F2022070474FF400707047F5
S3150FE104A010B5074979441831064C7C44163404E0FB
S3150FE104B00A68081D114488470146A142F8D110BDCB
S3150FE104C02C0000003C0000004EF68851CEF20001F0
S3150FE104D0086840F470000860BFF34F8FBFF36F8F6A
S3150FE104E04FF00070E1EE100A704700007BFEFFFF50
S3150FE104F010000000B00000008000002000000000A6
S3150FE105000449054808600548026842F47002026032
S3150FE105107047000008ED00E02C00E10F88ED00E0E8
S3150FE105200120C046002801D0FFF7BAFFAFF30080E4
S3150FE105300020AFF30080FFF72DFF00F000F800F089
S3150FE1054001B800000746384600F002F8FBE7000065
S3150FE105502021090326311820ABBEF9E705480146EC
S3150FE1056003B4684680F30988AFF30080FFF7ACFF69
S3150FE10570FFF7D6FFA5EDF5FE024880470248804713
S3150FE10580024800470105E10FC103E10F5D05E10FE8
S3150FE10590AD1007B00100000000000C010008E10FEB
S3150FE105A00080000000F0490200800000C0EA21014E
S3090FE105B0C0EA210185
S7050FE1055DA8
