S020000066697273745F73746167655F62746C5F65666D33326A6731622E73333738
S11300009004002079050000B5050000B905000042
S1130010BD050000C1050000C5050000000000008A
S1130020000000000000000090050000C905000069
S1130030CD05000000000000D1050000D50500003A
S113004010B56249624A01E069B1491E1369DC07CF
S1130050FAD441B15060012010601169480705D5F8
S11300604FF0FF3010BD6FF0020010BD002010BD36
S113007003460020002900D1704770B5544C53F852
S1130080042BE26008252560491E504A01E04AB16C
S1130090521E2569EE07FAD422B12269950704D4C9
S11300A029B1ECE76FF0020070BD6FF0010070BD84
S11300B02DE9F84F444D0C46A96B834600208EB2BF
S11300C006B1012641F67131A9634FEA92082B6803
S11300D043F001032B608146A24612E0C7F30A07EE
S11300E0C7F50067BF08A8EB0900B84238BF074648
S11300F039465046FFF7BCFF01000CD1B9440AEB66
S1130100870AC14507D20BEB89073846FFF798FFEA
S11301100100E3D00DE0DBF8002021688A4208D01A
S11301205846FFF78DFF010003D101212046FFF758
S11301309FFF2968490849002960F6B20EB10021E1
S1130140A963BDE8F28F30B51F4B20490246986B76
S113015080B200B1012041F671349C631D6845F002
S113016001051D609A6001225A605C69620704D52A
S113017000F020F84FF0FF3030BD02225A6000E05A
S1130180491E5A69D40701D50029F9D15A6994073F
S113019004D500F00FF86FF0010030BD0029196894
S11301A004D100F008F86FF0020030BD00F003F84D
S11301B0002030BD196849084900196008B10020C1
S11301C09863704774E7000008000E40809698001A
S11301D00C000E40F8B5282001680869CD68846ACF
S11301E0AC4225D305F560518C4221D2641B04191D
S11301F0264E2168B1421BD1E168254F4FF0FF32F2
S113020000F050F8B84213D100F044F80ED202685E
S1130210B2420BD18168A268914207D3C1684FF002
S1130220FF32284600F03EF8B84201D00120F2BD6A
S11302300020F2BDF8B5282000680569C468AE6ADC
S1130240361BAE19274604E0384600F05DF807F582
S11302500067F26810198742F6D32946204600F059
S11302605AF890B100F016F80CD2026807498A4295
S113027008D1C1684FF0FF32204600F013F804495A
S1130280884201D00020F2BD0120F2BD07B0CD5E4E
S1130290E320BBDE40F628000068A0F50061B1F55C
S11302A0605F704730B50A4B1C6844F020041C6042
S11302B00125084B1D609A605D6002E010F8014B57
S11302C09C610A46511E002AF8D1D86930BD00BF8E
S11302D0B0400E4000C0014080B58308800700F0A4
S11302E006F8042269469800FFF76CFF02BD05D5A5
S11302F04FF6FF7242EA01420092704741F07F419B
S113030041F47F010091704780B5FFF71CFF401E48
S11303108041C00F02BDF8B5140005460E4624D036
S113032005F0010104F00100014320D1AA0707D51B
S113033036F8021B2846FFF7CFFFC0B9AD1CA41E38
S1130340042C0CD3A708BF003A4631462846FFF7D1
S113035039FF790806EB41067D19E41B38B924B14D
S113036031882846FFF7B8FF08B90120F2BD002004
S1130370F2BD30B40EE00268436802440830DC0782
S113038044BFA9F10104E31852F8045B43F8045B89
S1130390091FF9D150F8041B0029ECD130BC704777
S11303A04FF000514AF6C03308804FF6F0704A8887
S11303B002409A421CBF4FF20F024A80704780B538
S11303C0FFF7EEFF0948016821F4E06141F4007190
S11303D00160BFF34F8F064906480A6802F4E062E1
S11303E002430A60BFF34F8F00BFFDE700500E4089
S11303F00CED00E00400FA0510B54FF000524FF682
S1130400F071508801EA00034AF6C034A3421CBFCD
S11304104FF20F03984201D1108810BD002804BF89
S11304201088012802D140F2022010BD4FF4007060
S113043010BD000080B51948194A01681160FFF722
S1130440F9FE0028FBD040F20220FFF7B8FF00209D
S113045002BD000010B5134C00202060FFF7CCFF54
S113046011490A68B2F5803F0AD040F20921884256
S113047018BFB0F5007F03D1FFF7ACFE00B110BD8B
S11304804FF40060206002461046016881F308883A
S113049081F3098840688746FEE700008800002051
S11304A08C00002008ED00E004500E400A490B487F
S11304B008600B48426942F40052426101688908AD
S11304C089000160426B520852004263016A21F0C4
S11304D0805101627047000008ED00E00000000058
S11304E040300E4010B5074979441831064C7C441D
S11304F0163404E00A68081D114488470146A142E5
S1130500F8D110BD080000001800000067FEFFFFCE
S11305101000000090000000800000200000000097
S11305200120C046002801D0FFF7DCFFAFF30080B4
S11305300020AFF30080FFF77DFF00F000F800F02B
S113054001B800000746384600F002F8FBE7000057
S11305502021090326311820ABBEF9E705480146DE
S113056003B4684680F30988AFF30080AFF30080DA
S1130570FFF7D6FFA5EDF5FE024880470248804705
S113058002480047AD040000550400005D0500006A
S1130590AD1007B00100000000000C0100080000CD
S11305A000800000005A620200800000C0EA2101BD
S11305B0C0EA2101FFF7FEBFFFF7FEBFFFF7FEBF52
S11305C0FFF7FEBFFFF7FEBFFFF7FEBFFFF7FEBF5B
S10B05D0FFF7FEBFFFF7FEBFB9
S903055D9A
