S021000066697273745F73746167655F62746C5F65666D333274673131622E733337FC
S3150FE100000A4880F308880A4800470000000000000C
S3150FE1001000000000000000000000000000000000EA
S3150FE1002000000000000000008005E10F90040020B1
S3150FE100306905E10F10B567490122674B02E0002917
S3150FE1004005D0491E1C691440F9D1002901D10220BE
S3150FE1005005E058601A601869400702D50020C043D1
S3150FE1006010BD002010BD02000020002900D170470D
S3150FE1007030B5594B1468DC60121D08241C60554CD1
S3150FE10080491E02E0002C0ED0641E1D69ED07F9D45E
S3150FE10090002C08D01B699B0702D4002902D0E8E7A0
S3150FE100A00120C04330BD0220FBE7FEB54B4CA46BEC
S3150FE100B0A4B2002C00D001246D462C70424C474D62
S3150FE100C0AC633F4C25682468444C246801252543DD
S3150FE100D0424C2560970800250E000190002012E0A2
S3150FE100E0802000016105490D401A8408781BA04262
S3150FE100F000D2040021003000FFF7B5FF01000CD15B
S3150FE101002D19A1007618BD4207D20198A90044180E
S3150FE101102000FFF78FFF0100E2D030490A68012383
S3150FE101209A430A606A461278002A01D000228A634E
S3150FE10130FEBDF0B52749234A936B9BB2002B00D046
S3150FE101400123214C94631E4C25682468012415680C
S3150FE1015025431560906054600120C0430025566920
S3150FE10160760707D5116808401060002B00D095631C
S3150FE10170002011E0022656605769274015D0002965
S3150FE1018013D0491EF8E70029116807D1084010601E
S3150FE10190002B00D095630220C043F0BD08401060EC
S3150FE101A0002B00D095630020F0BD54692640EAD0BC
S3150FE101B0116808401060002B00D095630120EBE732
S3150FE101C004300E4008000040711B000080B5FFF7B8
S3150FE101D06CFF02BD809698000C00004008000040BD
S3150FE101E0F8B5354802681069816AD2680092914282
S3150FE101F02CD38023DB01D218914227D2009A891A98
S3150FE102000F182E4E3968B14220D12D4D0024E4430B
S3150FE102102200F96800F05AF8A84217D12948006878
S3150FE10220294941188022D20191420DD20168B1428A
S3150FE102300AD18168BA68914206D32200C168009853
S3150FE1024000F044F8A84201D00120F2BD0020F2BD32
S3150FE10250F8B519480068C4680769B86A001BC5197B
S3150FE10260260005E0300000F061F880200001361825
S3150FE10270EA68A0188642F5D33900200000F05DF850
S3150FE10280002817D00F4800680F4941188022D20184
S3150FE1029091420CD20168094A914208D10022D24318
S3150FE102A0C168200000F012F80549884201D000200C
S3150FE102B0F2BD0120F2BD00002800E10F07B0CD5ECF
S3150FE102C0E320BBDE2808E10F00F81EF030B50A4B3C
S3150FE102D01C68202525431D600124084B1C609A608C
S3150FE102E05C6002E002789A61401C0A00511E002A06
S3150FE102F0F8D1D86930BD00BFB0400E4000C0014013
S3150FE1030080B5020090088000920702D50904054ADC
S3150FE1031000E0054A0A43009204226946FFF756FFB9
S3150FE1032002BD0000FFFF00000000FFFF80B5FFF7F1
S3150FE1033000FF401E8041C00F02BDF8B514002AD060
S3150FE1034005000E00C107C90FD207D20F0A4324D108
S3150FE10350A80708D531882800FFF7D2FF00281CD15E
S3150FE10360AD1CA41EB61C042C0DD3A708BF003A0082
S3150FE1037031002800FFF72AFF790849007618ED19B1
S3150FE10380E41B002809D1002C05D031882800FFF79E
S3150FE10390B7FF002801D10120F2BD0020F2BD000018
S3150FE103A080B51A4800681A4908601A484021C160A9
S3150FE103B001684903FCD4FFF74BFF0028FBD0164831
S3150FE103C000F042F8002002BD10B5144C144820602D
S3150FE103D000F04DF8134909688022520291420AD082
S3150FE103E01149884202D00939884204D1FFF7F8FE54
S3150FE103F0002800D010BD0D4A22601046016881F336
S3150FE10400088881F3098840688746FEE7880000205F
S3150FE104108C00002004300E400202000008ED00E0DF
S3150FE104200000E10F04500E40090200000008E10F41
S3150FE104308021890508804888184A02401848824277
S3150FE1044001D018484880704780B5FFF7F1FF16488D
S3150FE104500168164A0A40410D11430160BFF34F8F00
S3150FE10460134814490860BFF34F8F00BFFDE78020A3
S3150FE1047080054188094B0B40094A934202D0094A4C
S3150FE10480914201D100887047002904D100880128E3
S3150FE1049001D109487047802080007047F0FF0000C6
S3150FE104A0C0AB00000FF0000000500E40FFF8FFFF59
S3150FE104B00400FA050CED00E00202000030B401225F
S3150FE104C00168001D00290FD00368C318446808307E
S3150FE104D0144202D04D466D1E64191D6825601B1D21
S3150FE104E0241D091FECD0F8E730BC704710B507495A
S3150FE104F079441831064C7C44163404E0081D0A6829
S3150FE10500891888470100A142F8D110BD0800000003
S3150FE1051018000000A9FFFFFF10000000880000008F
S3150FE1052080000020000000000120C046002801D015
S3150FE10530FFF7DCFF00BF00BF002000BF00BFFFF7E2
S3150FE105402FFF00F000F880B500F002F801BD0000C2
S3150FE105500746384600F002F8FBE7000020210903C1
S3150FE1056026311820ABBEF9E702488047024880479B
S3150FE10570024800479505E10FC903E10FB505E10F04
S3150FE10580AD1007B00100000000000C010008E10FFB
S3150FE105900080000001480249086070472C00E10F16
S3150FE105A008ED00E0006CDC0200800000C0EA2101EA
S3150FE105B0C0EA210100BF00BF00BF00BFFFF7B4FFD4
S7050FE105B550
