S0390000626F6F746C6F616465722D756172742D62676170695F6D676D3132703332663130323467615F62726434333034612D6372632E73333782
S3150FE10800201300206937E10F830EE10F5921E10F24
S3150FE108104F0FE10F1B12E10FC712E10F00000000AE
S3150FE1082000000000000000004008E10F5F13E10F38
S3150FE108307723E10F8008E10FAB35E10F1B36E10FAF
S3150FE1084007B0CD5E0100000000000C01D0300000C2
S3150FE108500000000000001000F00010006F23E10F10
S3150FE108607323E10FB928E10F8737E10FB937E10FAD
S3150FE1087000000000F337E10F5738E10F00000000E9
S3150FE1088013B779FAC925DDB7ADF3CFE0F1B614B8F1
S3150FE108900101000002000000CC38E10F400000002A
S3150FE108A000000C0100000000000000000000000045
S3150FE108B00000000000000000000000000000000042
S3150FE108C010B501218548864C00F060F90121854874
S3150FE108D000F05CF901214FF4AA4000F057F901212C
S3150FE108E0814800F053F940F6AA60E06000212160EB
S3150FE108F0616641F205006060A1606161E1647B4A76
S3150FE10900A2646167A167E16760602068206000F01B
S3150FE1091075F9400100F561204FF4E111B0FBF1F0FB
S3150FE109202038734A02EAC0026261012304220021E0
S3150FE10930002000F0BAF9012301220121002000F085
S3150FE10940B4F90020A0670321616701230422052181
S3150FE1095000F0ABF90520E0604FF0E061654801601A
S3150FE1096000220262C2624263C2664FF440236249C9
S3150FE109700B608A60002400BF6CA2604B4C6092084A
S3150FE1098092008A610B638C634C6303215C4A1160AD
S3150FE109900123C36302205B49086010BD70B50E46A3
S3150FE109A0802E0546144602D341F2031070BD00F0C6
S3150FE109B026F810B941F2062070BD0020524902E037
S3150FE109C02A5C0A54401CB042FAD3D1F88000761E55
S3150FE109D066F30E10C1F88000803189084B48890013
S3150FE109E0016002224A490A603CB100F008F800288A
S3150FE109F0FBD0484801688A06FBD5002070BD464802
S3150FE10A0046498268930702D50220086003E0006831
S3150FE10A10820703D4022088600120704700207047C7
S3150FE10A203F48006840F20111884208BF002007D015
S3150FE10A3040F2022188420EBF4FF480703949401AC5
S3150FE10A40394A1168814201D10020704701D2401A1B
S3150FE10A507047C1F50071401870472DE9F04107461F
S3150FE10A608846154600268BB1069C2CB100F056F947
S3150FE10A700021204600F074F9FFF7D2FF404505D279
S3150FE10A80002CF9D000F082F90028F5D0FFF7C8FF66
S3150FE10A90804505D8404603E000230B600221116033
S3150FE10AA0864212D220491F4A0B68D45C154ABC55BF
S3150FE10AB0761C5B1CB3F5007F0B60EDD0B3F5807F41
S3150FE10AC0EED10121EBE7BDE8F08105B12E60464598
S3150FE10AD034BF41F204200020F5E700004041050054
S3150FE10AE00000014000350A0000420400F9FF010051
S3150FE10AF0F8FF7F0000200E4080200E4001000C0021
S3150FE10B0028200E4408200E4680000020C8200E4003
S3150FE10B103C200E401000014020200E4020200E44C4
S3150FE10B2094200E401001002018030020F00F10034F
S3150FE10B301C00014010010020130000000900000015
S3150FE10B40000100000202000013000000F00F100385
S3150FE10B501C000140100200201300000009000000F4
S3150FE10B600002000001010000D3FFFFFF890001EB46
S3150FE10B70401101F184410A607047DFF874104A6849
S3150FE10B80D30702D40A680242FCD1704770B50C460E
S3150FE10B900246110A01F00F010020491E0929DFF86B
S3150FE10BA0545013D8DFE801F0051312120715181286
S3150FE10BB01B1FDFF83850C2F3043608B1FFF7DDFF2C
S3150FE10BC0224631462846BDE87040CFE770BD103565
S3150FE10BD0F1E730350120EEE738351020EBE7403508
S3150FE10BE04FF48030E7E7DFF81050E4E700400E40BE
S3150FE10BF040410E40B0400E4050410E4010B51449F1
S3150FE10C00086800F00700022808BF124A18D0124BF5
S3150FE10C101868C0F30440112828BF104A10D200BF4C
S3150FE10C2011A20F4C125C0F484243A24208D11B6836
S3150FE10C305B0E012003F0030322469840B2FBF0F26C
S3150FE10C40C86EC0F30420401CB2FBF0F010BD0000EB
S3150FE10C5094400E4000F0490210400E40C0EA2101D7
S3150FE10C6000093D0040420F000400000700000D108F
S3150FE10C7013001A20263038404800000010B500F066
S3150FE10C800DF804F1806404E010B500F007F804F103
S3150FE10C90C064012303FA01F1216010BD30221E4B1E
S3150FE10CA05043184400F10C047047F8B50546174652
S3150FE10CB038000E461C4607D0002C284602D0FFF717
S3150FE10CC0E3FF01E0FFF7DAFF2A46302012494243FC
S3150FE10CD088180F22082E05D2B300416800F015F8E7
S3150FE10CE0416006E0A6F108039B00816800F00DF86C
S3150FE10CF081604FB9002C3146284602D0BDE8F44059
S3150FE10D00C2E7BDE8F440B9E7F1BD9A4021EA020234
S3150FE10D1007FA03F11143704700A00040F8B52548E3
S3150FE10D20016841F4801101602348026842F0010233
S3150FE10D300260FFF763FF4FF47A71B0FBF1F01F4AE0
S3150FE10D4022A1800A50601022684600F057F80A2067
S3150FE10D508DF8020069461A4800F0ACF805B000BDFF
S3150FE10D6030B5184B154C1D69626802FB0050608067
S3150FE10D70ADB26088A8429241D20F227011B11969C2
S3150FE10D808142FCD101201860586030BD0E490B4BF2
S3150FE10D900A68187802F0010210B122B900207047F3
S3150FE10DA00AB1012070478869598888428041C0435A
S3150FE10DB0C00F704700400E40C0400E4010030020A8
S3150FE10DC000800140148001400C80014001000000C9
S3150FE10DD000000000000000000000000062B38B0776
S3150FE10DE008D0521E11F8013B00F8013B00F02480B8
S3150FE10DF08B07F6D1830740F0208000BF103A07D367
S3150FE10E0030B4B1E83810103AA0E83810F9D230BC56
S3150FE10E10530724BFB1E80810A0E8081044BF51F802
S3150FE10E20043B40F8043BD20724BF31F8022B20F8EC
S3150FE10E30022B44BF0B7803707047121F17D35B0069
S3150FE10E4009D151F8043B20F8023B1B0C121F20F885
S3150FE10E50023BF6D20BE051F8043B00F8013B1B0ACB
S3150FE10E6020F8023B1B0C121F00F8013BF3D238BFEF
S3150FE10E70121D521E24BF11F8013B00F8013BF8D8B1
S3150FE10E807047FEE7074988421CBF074A904205D0E3
S3150FE10E90064988421CBF064A904201D1012070479C
S3150FE10EA000207047008001400084014000A001400E
S3150FE10EB000A401402DE9F04104460D46FFF7E2FF9C
S3150FE10EC0287808B9022161600022626269780029F7
S3150FE10ED0697A14BF402300230029A97A14BF80261B
S3150FE10EE000260029E97A14BF202700270029297B4C
S3150FE10EF014BF4FF0100C944601B1082195F803E0A9
S3150FE10F00AA7895F807804FEA0E4E4EEA026EAA7955
S3150FE10F104EEA822242EA082E2A7A42EA0E02134367
S3150FE10F2033433B434CEA03030B43297900296979A0
S3150FE10F3014BF4FF40052002209B14FF08051134311
S3150FE10F400B43236008B101206060BDE8F081FEE745
S3150FE10F500248704702487047024870474A43E00F1C
S3150FE10F606A43E00F8642E00F00207047002070478A
S3150FE10F7000207047012070470948016808697047EA
S3150FE10F800848006870470648006870470548064AF2
S3150FE10F9000680168914201D10069704700207047EE
S3150FE10FA02808E10F2800E10FAD1007B001207047C7
S3150FE10FB0890001EB401101F184410A60704710B5D8
S3150FE10FC00A684B688C68C968026003600460016057
S3150FE10FD010BDF4E71FB5044611F0030008D0102247
S3150FE10FE06846FFF7FBFE69462046FFF7F2FF1FBD96
S3150FE10FF0009120460099FFF7ECFF1FBD10B502687F
S3150FE110000368046800680A608C604B60C86010BDB5
S3150FE110101FB50C4614F0030108D06946FFF7EEFF42
S3150FE11020102269462046FFF7D9FE1FBD00940099AD
S3150FE11030FFF7E4FF1FBD38B5102A04460D460DD163
S3150FE1104001220021FFF7B4FF04F5887429462046F3
S3150FE11050FFF7B5FF05F11001204606E0002200215A
S3150FE11060FFF7A6FF294604F12400BDE83440A6E7C1
S3150FE1107038B5044611F0030088B015460CD0082D9B
S3150FE110800CBF102220226846FFF7A8FE2A466946C2
S3150FE110902046FFF7D0FF04E0009120460099FFF7C5
S3150FE110A0CAFF09B030BD242100F0B8B870B50D46BE
S3150FE110B000F010F8802E18BFB6F5807F02D06FF0E2
S3150FE110C0710070BD2660F2082946201DFFF786FEE6
S3150FE110D0002070BD04461646242100F09FB85946FC
S3150FE110E005F1800094E7011D2846C1E7484600F067
S3150FE110F098B82DE9F64F83B0002A14BF146800247F
S3150FE111000190002702680F9EDDF840800091802A4A
S3150FE1111018BFB2F5807F029304D06FF0200068E02C
S3150FE1112000F070F8009887425FD2002CF8D100F0FA
S3150FE1113082F80546002068604FF4404129604FF080
S3150FE11140000A00F0A3F881460198016880290CBFD7
S3150FE1115008221022FFF7C7FF029905F18400FFF776
S3150FE1116039FFFFF7C3FF0098A0EB070913E000F083
S3150FE1117043F80AF1010A00F089F88346F11905F1FE
S3150FE11180A000FFF727FF08EB0701FFF7A9FF584676
S3150FE1119000F047F81037BAEB191F15D24820A860AF
S3150FE111A00521A960E3E76CB94820A8600521A9608C
S3150FE111B000F022F800F06AF881460E99FFF790FFEA
S3150FE111C0FFF794FF00F01EF80098C01BEBD100F07B
S3150FE111D05DF88146029905F18400FFF719FFFFF7E4
S3150FE111E085FF284600F032F89CE7049800B10460C9
S3150FE111F0002005B0BDE8F08F28698107FCD40320F4
S3150FE11200A86070470E9AF15D105D414008F807102E
S3150FE11210641C04F00F047F1C7047FEE7002200F008
S3150FE1122039B800B962B67047890001EB401101F197
S3150FE1123084410A60704780B5FFE7012200210C481F
S3150FE11240FFF7F2FF0B4802BD000000000949884293
S3150FE1125008D1002009A101EBC00300225968044817
S3150FE11260E2E7704704498842FBD10120F2E700002B
S3150FE11270B0400E4000000F4000040F4000000F4049
S3150FE112800000000000040F4001000000EFF31080A2
S3150FE1129072B6704700B500BF1300964694461039F3
S3150FE112A028BFA0E80C50FAD85FEA417C28BF0CC0F2
S3150FE112B048BF40F8042BC90728BF20F8022B48BFC7
S3150FE112C000F8012B00BDFEE738B5174C206840F05A
S3150FE112D0080020600123042200F02AF80021009182
S3150FE112E002E00098401C009000986428F9DB012386
S3150FE112F0022200F01DF8002001E00098401C00904A
S3150FE113000098B0F5FA7FF8DB08490868012814BFA1
S3150FE11310012500250123002200F00AF8206820F0BC
S3150FE1132008002060284632BDB0400E409821144295
S3150FE1133006210520FFF7B9BC42685209042941EAA3
S3150FE1134042120AD9491F022905D9C91E032904D90F
S3150FE11350091F022902D842F0100242607047FEE7E8
S3150FE113606FF0020070BD70B5534B54490246986B4E
S3150FE1137080B200B1012041F671349C634D4C256872
S3150FE1138024681E6846F001061E609A6001225A60C3
S3150FE113905C69620704D500F01FF84FF0FF3070BDAE
S3150FE113A002225A605A69D4070ED5002918BF491E81
S3150FE113B0F8D109E00029196802D100F00EF8CFE75C
S3150FE113C000F00BF8002070BD5A699407F2D500F0D2
S3150FE113D003F86FF0010070BD1968490849001960FB
S3150FE113E008B10020986370472DE9F043914602F169
S3150FE113F06042334DAA424DD23026324A46433244F9
S3150FE114004FF44015156000275760976097612A4D95
S3150FE11410AE6BB6B206B1012641F67137AF6301275E
S3150FE114202C68DFF8A4C044F001042C60874026E065
S3150FE11430A96001246C606C6964072BD44FEA9E04A2
S3150FE11440641E240144F06054D460C2F810901F4C1E
S3150FE11450DFF87C805461D8F800403C43C8F800407F
S3150FE1146010246C60D8F80840C440E407FAD5CCF8EC
S3150FE114700870CCF800707144F144A3EB0E0363B12D
S3150FE1148001F50064E40AE402A4EB010E7345CFD241
S3150FE114909E46CDE74FF0FF300AE004206860F6B2D2
S3150FE114A029684908490029600EB10020A863002088
S3150FE114B0BDE8F08304300E4008000E408096980098
S3150FE114C00100040080200E4020200E4418000E403B
S3150FE114D020200E402DE9F84106000D4618BF002DDC
S3150FE114E0A1B01446984606D0002C18BFB8F1000FEC
S3150FE114F001D0289F17B940F2016023E0012113487B
S3150FE11500FFF744FB402111A8FFF788FE414611A8DA
S3150FE1151000F0D3FA394619A800F0CFFA01A8402115
S3150FE11520FFF77CFE294601A800F0C7FA214609A874
S3150FE1153000F0C3FA01A8009011AB2022314604480E
S3150FE1154000F0CAFA22B0BDE8F081000000050A00FA
S3150FE1155000000F4010B50A684B688C68C9680260D5
S3150FE1156003600460016010BD10B50268036804688A
S3150FE1157000680A608C604B60C86010BD38B50446E0
S3150FE115800D46FFF7E7FF05F110012046BDE83440B0
S3150FE11590E0E738B504460D46FFF7E6FF05F1100122
S3150FE115A02046BDE83440DFE7082250F8041B21B995
S3150FE115B0521EFAD10020C0B270471000FBD00120B5
S3150FE115C0F9E7F8B500F065F90746294604F58470A1
S3150FE115D0FFF7D4FF314604F58670FFF7CFFF3846A4
S3150FE115E0FFF71FFEDFF8DC06206501216165606903
S3150FE115F0000E00F0010080F00100F2BD2DE9F84F79
S3150FE1160088B004460D4692461E46FFF73FFE8346D7
S3150FE1161004F5827705F1400100F035F904F5867896
S3150FE11620514600F029F904F588790AF12001484677
S3150FE11630FFF7A4FF00F022F900F038FAA065E165A3
S3150FE1164004F5847AFFF722FE8346294600F01BF95B
S3150FE1165005F120015046FFF791FF05F1400148469C
S3150FE11660FFF78CFF00F00AF9DFF85C06DFF85C168E
S3150FE11670206561650120A06504F58079FFF706FE17
S3150FE11680834606F140014846FFF783FF6946504618
S3150FE11690FFF77FFF00F0F2F8FFF7F8FD834600F062
S3150FE116A0EAF800F0EBF8DFF82806DFF828162065F0
S3150FE116B061650121DFF8200600F0E7F8804600F0CA
S3150FE116C0E0F800F02BF9DFF81406DFF8141600F056
S3150FE116D021F8054631465046FFF75BFF2846FFF7EF
S3150FE116E0A0FDFFF7D3FD054669463846FFF746FFEE
S3150FE116F02846FFF796FDDFF8EC05DFF8EC1500F06D
S3150FE1170009F8044600F0B3F82046FFF78AFD09B061
S3150FE11710BDE8F08F206561650120A065FFF7B6BDD5
S3150FE117202DE9F84F98B000F0B4F8804604F58277CA
S3150FE1173000F0A7F800F0F2F8DFF8B005DFF8B01522
S3150FE117402065616504F58078DFF8A805FFF7E5FF09
S3150FE11750814608A94046FFF71CFF4846FFF761FDA2
S3150FE11760FFF794FD814600F086F84846FFF759FDED
S3150FE11770DFF88405DFF88415206561654FF486701F
S3150FE11780A06504F58679FFF781FD824610A94846E3
S3150FE11790FFF7FFFE69464046FFF7FBFE5046FFF7B0
S3150FE117A040FDFFF773FD824605F1400100F06BF84E
S3150FE117B05046FFF736FDDFF84805206501216165E3
S3150FE117C004F5847AFFF762FD834600F0C1FA00F073
S3150FE117D055F8DFF83005DFF8301520656165012131
S3150FE117E0DFF8280500F051F8834669465046FFF7C2
S3150FE117F0C5FE10A94846FFF7C1FE00F03FF8DFF836
S3150FE118001005DFF8101520656165DFF80C05FFF7A8
S3150FE1181084FF8346314604F58870FFF7BAFE00F080
S3150FE118202DF8FFF733FD834600F02BF805F1400164
S3150FE118305046FFF7A3FE08A94846FFF79FFE00F0C3
S3150FE118401DF8DFF8D804DFF8D81420656165FFF7D6
S3150FE118501DFD044606F140014046FFF79AFE00F0F2
S3150FE1186006F82046FFF7DDFC19B0BDE8F08F06F16B
S3150FE11870200148468DE6294640467FE65846FFF762
S3150FE11880D0BC05F12001384678E6A065E165FFF7A2
S3150FE11890FDBC04460D461646FFF7F8BC2DE9F041AF
S3150FE118A005460E461C46174620212046FFF7B6FC95
S3150FE118B001222260FFF7EAFC8046394605F5807082
S3150FE118C0FFF75CFE314605F58270FFF757FE05F52A
S3150FE118D0847621463046FFF751FE00F01FF8DFF818
S3150FE118E0440428650BE0DFF84014DFF8400429656E
S3150FE118F06865DFF83C14DFF83C04A965E8656869BB
S3150FE11900C101F0D5FFF7C2FC054621463046FFF788
S3150FE1191040FE2846BDE8F041FFF783BC4046FFF79E
S3150FE1192080BC50F8043B934203D007E050F8042BF8
S3150FE1193022B9091F0129F9DA012070470020704702
S3150FE119402DE9F04188B004460D461646984620210A
S3150FE119506846FFF763FC0122009220214046FFF71C
S3150FE119605DFC202108F12000FFF758FC202108F14A
S3150FE119704000FFF753FC05212046FFF7DDFC002071
S3150FE11980206020636063FF2700F040F802D47F1EDA
S3150FE11990002FF9DC002F36D4424641462046FFF7A9
S3150FE119A0BFFE00F033F82CD5002220214046FFF789
S3150FE119B0B8FF00B30022202108F12000FFF7B1FFA5
S3150FE119C0C8B10022202108F14000FFF7AAFF90B12C
S3150FE119D0202229464046FFF711FA202205F1200180
S3150FE119E008F12000FFF70AFA2022694608F14000C4
S3150FE119F0FFF704FA05E043462A4641462046FFF73C
S3150FE11A00FDFD7F1EC6E708B0BDE8F081381107EB93
S3150FE11A10D060401156F82010A7EB4010C140CA071D
S3150FE11A2070472DE9F0410F4690B004461546052162
S3150FE11A30FFF782FC0022226022636263684620225E
S3150FE11A400FF22031FFF7DAF908AB6A4607F14001E9
S3150FE11A502046FFF723FFFFF719FC804608A904F597
S3150FE11A608270FFF78BFD04F5867639463046FFF730
S3150FE11A7085FD07F1200104F58870FFF77FFDFFF77C
S3150FE11A804DFF00F013F8FFF700FF074605F12001C0
S3150FE11A9004F58070FFF77DFD29463046FFF779FDA6
S3150FE11AA03846FFF7BEFB10B0BDE8F0818F48A2497B
S3150FE11AB0206561650121A148704738B50D46044699
S3150FE11AC02021FFF7ABFBFFE71F204242295C2244AF
S3150FE11AD0401ED177F9D531BD2DE9F04FB9B00746A3
S3150FE11AE00C4616461D4621A86021FFF797FB09A86C
S3150FE11AF06021FFF793FB3CB1009528001CBF429D87
S3150FE11B00002D01D0002E02DC40F20160D5E000206D
S3150FE11B103860386378630C2178680FF23C2840F01F
S3150FE11B20100078603846FFF707FC786820F44060CC
S3150FE11B3040F4006078602022786820F4407040F429
S3150FE11B400070786008F12C0111A8FFF757F911AA77
S3150FE11B5029463846FFF735FD78B92846FFF724FDC4
S3150FE11B6058B111AA05F120013846FFF72AFD20B930
S3150FE11B7005F12000FFF718FD10B940F202609CE075
S3150FE11B80202EC8BF2026202119A8FFF747FB0020EA
S3150FE11B9014E0321A521E09A99208A6F1010E01EBC1
S3150FE11BA08201AEEB000E235C0A6C4FEACE0E0EF00D
S3150FE11BB0180E03FA0EF31A430A64401CB042E8DB2F
S3150FE11BC0FFF764FB064607F5847419A92046FFF76C
S3150FE11BD0D5FC3046FFF725FB5948386507F5807682
S3150FE11BE0FFF754FB814619A93046FFF7D2FC484669
S3150FE11BF0FFF717FB01AB11AA05F120013846FFF7F5
S3150FE11C004DFEFFF743FB834601A907F58270FFF708
S3150FE11C10B5FC07F5887919A94846FFF7AFFC07F533
S3150FE11C20867A00F095F8FFF729FE4648464938656A
S3150FE11C307965FFF72BFB834619A94846FFF7A9FC00
S3150FE11C4001A93046FFF7A5FCFFF718FE21AB19AA4C
S3150FE11C5008F14C013846FFF773FE009909AB01AA6B
S3150FE11C603846FFF76DFE21AA21A93846FFF7D9FEBF
S3150FE11C7009AB21AA09A93846FFF7C0FC09AA09A9A8
S3150FE11C803846FFF7CEFEFFF701FB06460C21384635
S3150FE11C90FFF752FB09A92046FFF770FC00F058F851
S3150FE11CA03046FFF7BEFA29482249386579657869E2
S3150FE11CB0C1014CBF002040F2046039B0BDE8F08F9E
S3150FE11CC0000000003035DA10D01482CB1481E11C0C
S3150FE11CD08CE11C811C84D91C8391D11CE014D8148E
S3150FE11CE01482E11C84D31482D11CE0148AD11C81A5
S3150FE11CF0821CC00C0C0C0100C00C0C83D91C83D8C0
S3150FE11D008AD11C83DA0C811482D11C81C80C0C8117
S3150FE11D108CE11CD01484E31482D11C01D81483D135
S3150FE11D201CC00C0139398401D02484FC1C82FED8F5
S3150FE11D308B1C81A039380100D91C83D11C81E11C90
S3150FE11D4030D00C0130E11C8430D91C013035DA1466
S3150FE11D5029465046FFF712BC2000000000010000A3
S3150FE11D60050C0000FFFFFFFFFFFFFFFFFFFFFFFF78
S3150FE11D70000000000000000000000000010000006C
S3150FE11D80FFFFFFFF512563FCC2CAB9F3849E17A774
S3150FE11D90ADFAE6BCFFFFFFFFFFFFFFFF000000000C
S3150FE11DA0FFFFFFFF96C298D84539A1F4A033EB2D7B
S3150FE11DB0817D0377F240A463E5E6BCF847422CE167
S3150FE11DC0F2D1176BF551BF376840B6CBCE5E316BAB
S3150FE11DD05733CE2B169E0F7C4AEBE78E9B7F1AFE6F
S3150FE11DE0E242E34F2DE9FC478A461446984670B91D
S3150FE11DF0002C43D00B990A683F2A0AD84868002875
S3150FE11E0018BF5FEA080905D10FF24C1902E0424803
S3150FE11E1035E0C14602F03F06A218A242C6F14005DF
S3150FE11E200A6002D24868401C48600A9F96B1AC42EC
S3150FE11E3010D32A465146B819FEF7D0FF012000907C
S3150FE11E4043463A464946002000F0D5F8C146AA4432
S3150FE11E50641B00263F2C0BD9A50900954346524634
S3150FE11E604946002000F0C7F80AEB851AA4EB851462
S3150FE11E7024B122465146B819FEF7B0FF0020BDE85E
S3150FE11E80F6870000F8B586B00C4615461E4640BBF0
S3150FE11E90002102AF4A42920056F82130D21D00EBE3
S3150FE11EA0C300B85402A8104456F82120C01E5209A7
S3150FE11EB0827056F82120520B427056F82120520DAE
S3150FE11EC0027056F82100400F491C0129E2D93278F8
S3150FE11ED002F03F02382A34BFC2F13802C2F178026A
S3150FE11EE001E00D4815E00C9F23A1019600952346CD
S3150FE11EF00020FFF777FF019600952346082202A9F6
S3150FE11F000020FFF76FFF202221463846FEF766FFD6
S3150FE11F10002007B0F0BD000080AFFFFF6821FFF79B
S3150FE11F207DB900210160416000207047E0B500F105
S3150FE11F3028030093019000F108030020FFF752FFF9
S3150FE11F400EBD80B50091034603F1280203F10801A6
S3150FE11F500020FFF797FF02BD6A09E667BB67AE850B
S3150FE11F603C6EF372A54FF53A510E527F9B05688C85
S3150FE11F701F83D9AB5BE0CD198000000000000000A4
S3150FE11F80000000000000000000000000000000005B
S3150FE11F90000000000000000000000000000000004B
S3150FE11FA0000000000000000000000000000000003B
S3150FE11FB0000000000000000010B50A684B688C684D
S3150FE11FC0C968026003600460016010BD10B5026864
S3150FE11FD00368046800680A608C604B60C86010BDD6
S3150FE11FE038B504460D46FFF7F1FF05F1100120461E
S3150FE11FF0BDE83440EAE72DE9F84F98B006460C46BE
S3150FE1200090469A46FFF717F9002E054650D1042060
S3150FE12010286000216960E964686820F440606860BF
S3150FE1202029630020686354F8201009BA4DF820108F
S3150FE12030401C0828F7D3FFF729F9044605F5827600
S3150FE1204069463046FFF7B8FF04A93046FFF7B4FFFC
S3150FE120502046FFF7E6F82F4828650027229C05F56D
S3150FE12060D276A74240D218F0030008EB871906D0C3
S3150FE120704022494608A8FEF7B1FE0DF12009FFF708
S3150FE1208005F98346494600F04BF809F1100100F0D6
S3150FE1209047F809F1200100F043F809F1300100F0AA
S3150FE120A03FF85846FFF7BDF81B4828657F1CD8E770
S3150FE120B01A4816E0FFF7EAF8044651463046FFF7AD
S3150FE120C08FFF2046FFF7ADF82846FFF7BFF8002050
S3150FE120D05AF8201009BA4AF82010401C0828F7D3FD
S3150FE120E0002019B0BDE8F08F1AF0030005F58076F0
S3150FE120F0E0D0FFF7CBF8044669463046FFF770FFAD
S3150FE121002046FFF78EF8202269465046FEF766FE17
S3150FE12110DAE70000888AC801070D810180AFFFFF6A
S3150FE12120304649E730B50A4B1C6844F040041C6061
S3150FE121300125084B1D609A605D6002E010F8014BC6
S3150FE121409C610A46511E002AF8D1D86930BD00BFFD
S3150FE12150B0400E4000C001404FF4017000F0C6B828
S3150FE1216010B54D494D4A0120486410684C4A000E9E
S3150FE1217009D14AF6E850D0620020536B43F00403CD
S3150FE121805363D06201E0012803D8106840F4005090
S3150FE1219010604448036823F4401343F48813036043
S3150FE121A0086840F480700860116C3F4841F4F841CB
S3150FE121B011644021C16002685103FCD400F0D7F8E5
S3150FE121C000F08FF800F0DEF800F0DEF818B14FF40A
S3150FE121D0017000F08BF800F0F7F8044600F0C0F953
S3150FE121E0002C19BF40F20370844240F2012000F047
S3150FE121F07DF840F2057084421BBF40F206718C42B6
S3150FE1220040F203204FF4017000F070F8002010BD8A
S3150FE1221080B5012100F04FF82449086842050AD537
S3150FE1222000F084F840F20221401A07D0C01E05D013
S3150FE12230C01E012802D9FFF747F808B100F03AF8B6
S3150FE122400420016811F1010F05D14FF4027000F07E
S3150FE1225039F800F02FF89DF8010058B1002000F091
S3150FE122602BFB8DF800009DF8000018B94FF40270B2
S3150FE1227000F028F89DF8000060B10D4800210160DB
S3150FE1228000221046016881F3088881F309884068C6
S3150FE122908746FEE701BD000000000E40FC81E00F1E
S3150FE122A064310E4020400E4004300E4004500E4083
S3150FE122B008ED00E000218DF800108DF80110704750
S3150FE122C0002070474FF000514AF6C03308804FF6B1
S3150FE122D0F0704A8802409A421CBF4FF20F024A80C1
S3150FE122E070470E494CF23C300880704780B5FFF7D6
S3150FE122F0E9FF0B48016821F4E06141F400710160E7
S3150FE12300BFF34F8F074908480A6802F4E0620243B8
S3150FE123100A60BFF34F8F00BFFDE700000200002008
S3150FE1232000500E400CED00E00400FA0510B54FF039
S3150FE1233000524FF6F071508801EA00034AF6C034B5
S3150FE12340A3421CBF4FF20F03984201D1108810BD73
S3150FE12350002804BF1088012802D140F2022010BDE7
S3150FE123604FF4007010BD4FF0005000887047002009
S3150FE12370704700207047FEE701790122091DC01C55
S3150FE12380FEF70CBBFEF79CBA80B5A2B0FFF7EBFFE9
S3150FE12390B0F5027F07D1684672A18822FEF72EFDBE
S3150FE123A06846FFF7E9FF684690A18822FEF726FD0A
S3150FE123B06A490A6893680DF1070003606846FFF7FB
S3150FE123C0DBFF23B000BD000038B5ADF5247D60A875
S3150FE123D0A8A18822FEF712FD0DF13000C7A1102248
S3150FE123E0FEF70CFD0DF10800C8A12822FEF706FD48
S3150FE123F03CA89021FEF712FF2AA84821FEF70EFF0F
S3150FE1240010A86821FEF70AFF202310AA2AA93CA8E3
S3150FE1241000F0EAFB40F6033508E0012100228DF8D2
S3150FE124208611ADF8872160A8FFF7A6FF882182A85C
S3150FE12430FEF7F4FEFEF7F4FA0028FBD04FF47A70BC
S3150FE124400090012382A801AA0121C01CFEF705FB1A
S3150FE124509DF80B022028EDD14FF47A7100910123FB
S3150FE1246001AA032183A8FEF7F8FA01980328DDD123
S3150FE124709DF80C4274B140F6B8300090012383A861
S3150FE1248001AA2146C01CFEF7E8FA0199A14208BF4D
S3150FE124900028CBD19DF80D020028C7D19DF80E0279
S3150FE124A09DF80F320328C1D8DFE800F04503041A7F
S3150FE124B0BCE7B2E70CA9009184AA02A93CA800F0F7
S3150FE124C0CFFB02218DF8861100281CBF41F20701CF
S3150FE124D0884212BFADF887510022ADF88721A2E7F6
S3150FE124E003208DF886019DF80A0000281CBF9DF890
S3150FE124F00B0000281ABF0021ADF88711ADF88751FF
S3150FE1250060A8FFF739FF9DF80A0000281CBF9DF868
S3150FE125100B0000288AD09DF8080081070AD50F48DD
S3150FE12520026803989168814204D2FEF72FFD0B9959
S3150FE1253000F000FA7AE79DF80A0038B19DF80B0032
S3150FE1254020B940F20320FFF7D1FE6FE7012B14BF4D
S3150FE1255040F2012040F20220F5E700002808E10FE2
S3150FE1256070470000000000A0020001030B0000000D
S3150FE125700000000000000000000000000000000065
S3150FE125800000000000000000000000000000000055
S3150FE125900000000000000000000000000000000045
S3150FE125A00000000000000000000000000000000035
S3150FE125B00000000000000000000000000000000025
S3150FE125C00000000000000000000000000000000015
S3150FE125D00000000000000000000000000000000005
S3150FE125E0000000000000000000000000000000A055
S3150FE125F004000000000000000000000000000000E1
S3150FE1260000000000000000000000000000000000D4
S3150FE1261000000000000000000000000000000000C4
S3150FE1262000000000000000000000000000000000B4
S3150FE1263000000000000000000000000000000000A4
S3150FE126400000000000000000000000000000000094
S3150FE126500000000000000000000000000000000084
S3150FE126600000000000000000000000000000000074
S3150FE126700000000000000020020000000000000042
S3150FE126800000000000000000000000000000000054
S3150FE126900000000000000000000000000000000044
S3150FE126A00000000000000000000000000000000034
S3150FE126B00000000000000000000000000000000024
S3150FE126C00000000000000000000000000000000014
S3150FE126D00000000000000000000000000000000004
S3150FE126E000000000000000000000000000000000F4
S3150FE126F000000000000000000000000000000000E4
S3150FE127001328E10F000000003B28E10F00FF000056
S3150FE1271000000000000000000000000000000000C3
S3150FE1272000000000000000000000000000000000B3
S3150FE1273000000000F8B50446E00A0D461646B4EB74
S3150FE12740C02004BF204600F0A9FE04F50067FF0A8A
S3150FE12750FF0204E0384600F0A1FE07F500673019E5
S3150FE127608742F7D332462946204601B0BDE8F0400D
S3150FE12770022300F09ABEB8B59BB0044640F204605E
S3150FE127800090656BFEF7FFFB0746284600F07CF8E5
S3150FE1279000283CD0287C02281AD2FEF7E9FB20B1AB
S3150FE127A0286A012100F0BDFE88B3284600F06CF8D7
S3150FE127B030B1686901280BD1287C022808D2AD69AE
S3150FE127C03869854228BFA54202D363498D4201D3B9
S3150FE127D000201CE001A800F0A7FE2A1B214601A854
S3150FE127E000F0ACFE01A800F0ABFEFEF7B3FB04462A
S3150FE127F0FEF7AEFB0346009405F12002294601A838
S3150FE12800FEF768FE00900098401E8041C00F1CB095
S3150FE12810B0BD70B504460D461646FEF7B4FB016929
S3150FE128208C4222BF40693219904205D3324629467E
S3150FE128302046BDE870407DE770BD2DE9F0410446C5
S3150FE1284088461646FEF79CFB44490068884218D134
S3150FE12850FEF799FB0746FEF799FB251870193E49D6
S3150FE1286088420ED23CB9FEF791FB796988423CBFAB
S3150FE12870386900F013FE324641462846BDE8F0417D
S3150FE1288058E7BDE8F08100007FB504464FEA0D0039
S3150FE1289035A11022FEF7B2FA002046420DEB0605EE
S3150FE128A0225CE97B914205D1401C1028F5D301202A
S3150FE128B004B070BD0020FBE7F8B5044625686768EC
S3150FE128C0666BFEF760FB05F1604525498D4229D21E
S3150FE128D00069874226D320498F4223D24030864270
S3150FE128E001D38E4205D3FFF7EBFC401E8041C00FAB
S3150FE128F0F2BDFFF7E5FCB8B93046FFF7C5FFB8B152
S3150FE12900307C02280ED2706990B102280CD1B069E1
S3150FE12910001D011B4FF0FF322046FFF703FC114963
S3150FE12920884205D00020F2BD2046BDE8F24022E7FD
S3150FE129300120F2BD80B54FF0FF32FFF7F3FB094BF4
S3150FE12940984205D100F0EFFD40F20920FFF7CEFCEA
S3150FE12950002002BD0000000001001000AD1007B01D
S3150FE1296001000400E320BBDEB814B6F1E0CFF3AD0E
S3150FE12970B7DD25C9FA79B71370B54B688C689C42F8
S3150FE1298006D200F140021B1B14781B19412B01D310
S3150FE12990002070BD537814780D68E4188B68EE5CEF
S3150FE129A004F03F0406558C68641C8C6013785B1C3D
S3150FE129B013708C684B689C42ECD3012070BD90F884
S3150FE129C040004A6889681018401A7047F8B584B014
S3150FE129D014460026054601960096082302AA00F042
S3150FE129E048F841F20306B0423CD195F8430005F1B0
S3150FE129F0480738B100F038F83868082302AA02A967
S3150FE12A0000F0C4FD9DF80A209DF80B009DF8091012
S3150FE12A10120442EA00629DF8080042EA01220243EB
S3150FE12A2022609DF80E009DF80F10000440EA016048
S3150FE12A309DF80D1040EA01209DF80C1008436060E7
S3150FE12A4095F8430048B9DFF890198A421CBFDFF8C1
S3150FE12A508C09824201D000F007F86068B860002166
S3150FE12A60F960304605B0F0BD7868082202A900F09A
S3150FE12A7065BD2DE9F0410C4617461D468046FFF729
S3150FE12A809EFFA84208F1400606D221464046FFF7CF
S3150FE12A9073FF10B300204DE000210CE0707818F8B9
S3150FE12AA000207A54491C737830785B1C03F03F039E
S3150FE12AB0421E73703270307808B1A942EED3A06826
S3150FE12AC06268904238BFA9420CD22368185C7854E9
S3150FE12AD0491CA268521CA260F1E71220B07141F2C3
S3150FE12AE0020027E0A942F8D1069CB26C2946384686
S3150FE12AF0FFF718FBB06424B1F0682A46394600F0B7
S3150FE12B001DFD079838B1F07878B1B0682B463A4693
S3150FE12B10394600F03BFDF07838B1F069B169281814
S3150FE12B20F061884224BF0020F07070692D1875613D
S3150FE12B3041F20300BDE8F0812DE9F8431E467368C3
S3150FE12B40002B4ED00C4614F0030118BF41F20200E0
S3150FE12B5048D115460746FEF70FFA396E001D6A187A
S3150FE12B60824221D300F1180399421DD28C46844546
S3150FE12B7038BF844605EB010800F11802904588BF7E
S3150FE12B809046ACEB0101ACEB000004EB0109A8EBBD
S3150FE12B900C083844424649466830FEF71FF9FF22D2
S3150FE12BA04146484600F002FDFEF7F0F9396E001D89
S3150FE12BB0884222BF6A18031D9A4209D3411A601847
S3150FE12BC007F1800102680A600421FF2200F0EEFCA2
S3150FE12BD021463368386E74682A46A047386E2D1839
S3150FE12BE03D660020BDE8F283F8B5064606F14007DB
S3150FE12BF00020B8717870F87038710D4600214FF0EA
S3150FE12C00FF303970797103F02003B8643962796264
S3150FE12C101446BB70FF22182106F1680000F0C6FCCE
S3150FE12C20FF22042106F1800000F0C0FCFF220421FF
S3150FE12C3006F1840000F0BAFCBD60FC60FEF796F980
S3150FE12C4000B11DB1FEF790F918B114B941F20B00BD
S3150FE12C50F2BD14B1F86800F067FC0020F2BD000088
S3150FE12C602DE9F84F9AB005460F4605A80021002336
S3150FE12C70002480E81A000592099105F148081A9A8D
S3150FE12C80069205F142090EE00498C8F80800002102
S3150FE12C90C8F80C100398DFF84817884240F0908186
S3150FE12CA0022289F8042007981A99884280F04F8307
S3150FE12CB041F2030208920AAC99F80430122BF2D8CA
S3150FE12CC0DFE813F014001A0049037E0170015E0379
S3150FE12CD05B03A2015E0394015E0394018A02420340
S3150FE12CE061031103150330024203DCE700F0A4FB95
S3150FE12CF000F09DFBC8D03EE300F09EFB00F097FB92
S3150FE12D00F9D199F8020000283BD199F80010CA07CA
S3150FE12D105AD599F80100002856D10398DFF8C01665
S3150FE12D2088421CBFDFF8BC16884225D0DFF8B816FB
S3150FE12D3088421FBFDFF8B4168842DFF8B41688421F
S3150FE12D401AD0DFF8B01688422DD0DFF88C168842FC
S3150FE12D5015D0DFF8A41688421AD0DFF8A0168842FC
S3150FE12D6014D0DFF87816884221D0DFF8941688421E
S3150FE12D701CBFDFF89016884200F022811CE010227A
S3150FE12D808FE70398DFF85416884213E00E2288E79F
S3150FE12D900F2089F804000020D8F80810C8F81010A1
S3150FE12DA0C8F814007FE7122189F8041070E0FEF7E6
S3150FE12DB0DBF8002841D13BE000F043FB03A800F02C
S3150FE12DC028FC002864D0E4E20398DFF81C16884259
S3150FE12DD01AD0DFF81816884214D0DFF81416884295
S3150FE12DE016D0DFF8F415884224D0DFF8F0158842C3
S3150FE12DF016D0DFF80C16884210D0DFF80816884295
S3150FE12E000AD01DE004224CE7062089F804004AE7C0
S3150FE12E10072189F8041046E70920F6E70B21F8E7C1
S3150FE12E20FEF7A2F8002804BF99F80100002804D1A3
S3150FE12E300C21EEE799F80100002840F0C1809EE7EA
S3150FE12E4003A800F0E6FBD0B10398C8F844001121BE
S3150FE12E5089F80410039800F0DEFB099099F8000059
S3150FE12E608106D8D5099800281CBF41680029D2D020
S3150FE12E7028468847009000980028CCD089E2122195
S3150FE12E8099F8010089F8041010B141F204005FE2EC
S3150FE12E9041F208005CE2E0780006B0F1407F04D031
S3150FE12EA000F0CFFA41F2090052E26079217941EA65
S3150FE12EB000210291C90706D599F8000040F00100FB
S3150FE12EC089F8000002E0FEF751F840B9FEF74CF839
S3150FE12ED0002800F042820298C10500F13E8200F01F
S3150FE12EE0B0FA41F20A0033E21C220AA907F10800FF
S3150FE12EF0FDF784FF387840F00100387007F10800DC
S3150FE12F00FEF754F8002803D0002100F082FA0028DA
S3150FE12F1000F01D81D8F80830D8F80C00984280F0FF
S3150FE12F20358201210191009100F07CFA00F07FFAE0
S3150FE12F30DAD020E2387840F002003870A078E178F4
S3150FE12F409DF82820000440EA0160617840EA0120FB
S3150FE12F5010437860D8F8080008387862A179E079EB
S3150FE12F602279090441EA0061607941EA00211143BE
S3150FE12F700291FEF705F8DFF890140068884221D137
S3150FE12F80FDF7FEFF0299C068814219D1052199F833
S3150FE12F90030089F8041040F0010089F803000021CD
S3150FE12FA0C8F81C10D8F80C000828BFF47CAE012134
S3150FE12FB00191009100F049FA00F039FABAD0DAE15D
S3150FE12FC000F03FFAE5E1A178E0789DF828200904C1
S3150FE12FD041EA0061607841EA002111430291D8F894
S3150FE12FE00800052824BF0298C8F81800D8F80C0085
S3150FE12FF0042880F0D18101210191009100F011FAAD
S3150FE1300000F015FADFD0B6E10020C8F81C00082160
S3150FE13010FFE6DAF80030D8F81C005A460AA9A047AD
S3150FE13020D8F81C005844C8F81C00D8F80800D8F89E
S3150FE130300C10814280F0AA81A0EB010BBBF1040FCA
S3150FE1304005A9284608D3FFF7BAFC042808D205A933
S3150FE130502846FFF791FC7AE1FFF7B1FC5845F6D325
S3150FE13060BBF1410F28BF4FF0400B00F0D6F95845A1
S3150FE1307002D200F0D2F98346BBF1040F24BF4FEA27
S3150FE130809B004FEA800B00F0E6F900F0D0F9BAD1D8
S3150FE1309099F80400082803D1DAF80840002CB8D1D2
S3150FE130A0BBF1040FCBF1040406D20AA8FF22214695
S3150FE130B0584400F07BFAA34499F804000A280ED18C
S3150FE130C0DAF8040018B100F0A3F900283FD053460F
S3150FE130D05A460AA92846FFF72FFD0090A5E70528CE
S3150FE130E0A3D178788107A0D5DAF80C0000289CD017
S3150FE130F0D8F81C0005280ED20BEB000107290AD3DD
S3150FE131000AA9091D081A05F1840201681160FF2257
S3150FE13110042100F04BFADAF80030D8F81C00DAF89F
S3150FE131200C407AE799F80010880606D5D8F84400DE
S3150FE1313000F071FA0028099041D0249948680028D7
S3150FE1314000F02C8100F064F9002840F0278100F0AF
S3150FE1315078F941F20C00FBE099F80000810608D5F9
S3150FE13160002C1CBF2169002903D028468847064653
S3150FE1317000E0012600F051F9B042FFF468AFD8F84C
S3150FE131800800D8F80C10A0EB010BBBF1410F28BFDB
S3150FE131904FF0400B00F041F9834502D300F03DF9C2
S3150FE131A0834600F058F900F042F914D199F800007E
S3150FE131B0810640F1F680002C1CBFA668002E00F0B8
S3150FE131C0E88053465A460AA92846B0470090009828
S3150FE131D0002800F0E680CEE000200190009000F09C
S3150FE131E020F900F024F9F6D1D8F840008749884252
S3150FE131F005D0122289F8042041F20500A8E0FDF777
S3150FE13200B3FE10B90120F87002E0F878002849D032
S3150FE1321099F8030010F0030F1EBF2498C468002C21
S3150FE1322005D00368042205F184010420A047D8F8EC
S3150FE13230180000281EBF24994868002832D04FF0A5
S3150FE13240FF31029105F180040422214602A800F024
S3150FE13250E5F950B1FDF79AFE38B124990B6821468D
S3150FE13260249C66680422001DB047042205F168011B
S3150FE1327002A800F0D3F9A8B1FDF77EFE2499249CAC
S3150FE132800B686668142205F16C010830B047FDF74B
S3150FE1329073FE2499249C0B6805F168016568042285
S3150FE132A0001DA8470120B8700D2189F804104EE0E2
S3150FE132B0FDF752FE8021009001910123D8F800001D
S3150FE132C00BAA022100F03FF9D8F80C0010285DD2C5
S3150FE132D00021012001910090102300F0A3F800F0E6
S3150FE132E0A6F8E5D047E0012089F801002AE099F830
S3150FE132F0020038BB002101910090402300F092F8C3
S3150FE1330000F095F837D1D8F8040000F019F9FDF778
S3150FE1331021FE0446FDF71CFE00940346D8F804008F
S3150FE1332012AA0AA9FEF7D6F80090009830B100214B
S3150FE13330F97000F086F841F2060009E00120F87015
S3150FE1334089F80200012060E541F2070000E0002064
S3150FE133501BB0BDE8F08FDDF890A0D8F80C00082877
S3150FE1336014D2002101200191009000F06EF800F0D7
S3150FE133705EF83FF490AD0098EAE7DDF890A0C9E575
S3150FE13380DDF890A051E6DDF890A09DE7CDF890A08D
S3150FE13390D8E741F20100DBE70A2036E5DDF890A038
S3150FE133A0099CD8F80C00D8F808108842FFF4D4AE7F
S3150FE133B0CDF890A0099499F800108A06C2D5002C91
S3150FE133C01CBFE268002ABDD0249928469047009099
S3150FE133D000980028B6D0CEE7F70A0AF7FC0404FCFA
S3150FE133E0EB17A603EB17A65EF40A0AF4F50909F53E
S3150FE133F0F60808F6F70909F7F90707F9FA0606FADB
S3150FE13400FD0303FDFE0101FEAD1007B0E320BBDEB8
S3150FE13410012107F10800FDF7ADBD05A92846FFF724
S3150FE13420CEBA04230AAA05A92846FFF722BB0090C4
S3150FE13430009808998842704703AA05A92846FFF71D
S3150FE13440C5BA122089F80400704708230AAA05A90C
S3150FE134502846FFF70EBB0120019000905B460AAAB2
S3150FE1346005A92846FFF705BB38B584088007154639
S3150FE1347000F007F804236A46A1002846FDF7B4FFDA
S3150FE1348032BD05D54FF6FF7242EA0142009270470F
S3150FE1349041F07F4141F47F010091704780B5FDF71F
S3150FE134A062FF401E8041C00F02BD2DE9F0411D466E
S3150FE134B0082D06468846144630D201214FF4AA401C
S3150FE134C0FDF764FB44B306F0010104F0010001438B
S3150FE134D024D1B00708D538F8021B2A463046FFF744
S3150FE134E0C3FFD8B9B61CA41E042C0DD3A708BF0081
S3150FE134F03B46424631462846FDF776FF790808EB0B
S3150FE135004108BE19E41B48B934B1B8F800102A4690
S3150FE135103046FFF7A9FF08B9012000E00020BDE81A
S3150FE13520F08100207047704710B50446FEF7F6FCB0
S3150FE135302046BDE810400021FEF7F3BCFEF7F6BCCE
S3150FE135400146FEF7FEBC2DE9F843089D099F80462B
S3150FE135500E4691461C46FDF7A6FD3A4629464046DC
S3150FE13560FDF7A4FD08F124000021016006750C2288
S3150FE13570494608F13900FDF731FC08F14500210C08
S3150FE13580220A847001704270BDE8F1833EB5029262
S3150FE1359001911C4600F12805009500F1380300F171
S3150FE135A024022146FDF7A5FD37BDFEE762F30F22A3
S3150FE135B062F31F42401810F0030308D0C91A1FD354
S3150FE135C0DB0748BF00F8012D28BF20F8022D1300B5
S3150FE135D030B414461546103928BF20E93C00FAD815
S3150FE135E0490728BF20E90C0048BF40F8042D8900A0
S3150FE135F028BF20F8022D48BF00F8012D30BC7047D7
S3150FE13600C91818BF00F8012DCB0728BF00F8012D07
S3150FE1361070470020704700207047FEE70300002047
S3150FE1362013F0030F09D0521E22BF13F8010B11F845
S3150FE1363001CBB0EB0C00F3D0704711F0030F14D1AF
S3150FE13640121F22BF53F8040B51F804CB6045F7D094
S3150FE13650121D0AD200BA9CFA8CFCB0EB0C0038BFF3
S3150FE136606FF0000088BF01207047521E22BF13F88A
S3150FE13670010B11F801CBB0EB0C00F6D0521C08BFD1
S3150FE13680104670470449054808600548026842F448
S3150FE13690700202607047000008ED00E00008E10FDC
S3150FE136A088ED00E04EF68851CEF20001086840F44D
S3150FE136B070000860BFF34F8FBFF36F8F4FF000704D
S3150FE136C0E1EE100A704730B4002513E050F8042BF1
S3150FE136D0D30744BFA9F101039A18091F042942F838
S3150FE136E0045BFAD213468C0744BF15809B1CC907AE
S3150FE136F048BF1D7050F8041B0029E7D130BC704755
S3150FE1370000F00DF8002801D000F00CF8AFF30080BF
S3150FE137100020AFF30080FEF723FD00F017F801203C
S3150FE137207047000010B5074979441831064C7C44BF
S3150FE13730163404E00A68081D114488470146A14280
S3150FE13740F8D110BD500100006C01000000F000B887
S3150FE137500746384600F002F8FBE70000202109038F
S3150FE1376026311820ABBEF9E780B5FFF78BFFFEF7E1
S3150FE137704FFDBDE8014000F000B8AFF30080FFF761
S3150FE1378091FFFFF7BDFF10B5B1F5BC7F044602D23D
S3150FE1379040F2052010BD4FF4BC71FDF73FFD00204F
S3150FE137A0607004F5807204F1B80104F12800BDE8F8
S3150FE137B010400023FFF718BA1CB5009104462146C5
S3150FE137C004F12800FFF74CFA00281CBF41F207016C
S3150FE137D08842C4F874010BD1A07838B1E07810B102
S3150FE137E040F2032016BD40F2022016BD40F2012041
S3150FE137F016BD2DE9F04385B004460D460C9E904665
S3150FE13800994601A81021FDF709FD002737601C2114
S3150FE138104846FDF703FD01A8009043462A46214697
S3150FE1382004F12800FFF71CFA2078810744BF60688E
S3150FE1383030602178C80705D51C2204F108014846F6
S3150FE13840FDF7DCFA2078002814BF002040F206408D
S3150FE1385005B0BDE8F0834FF4BC70704730B5016831
S3150FE1386084684218416802EB5103C9070BD54C44F2
S3150FE1387009E012F9011B12F8015B002904F8015B5B
S3150FE1388005D5491CF9D19A42F3D10C3030BD491E09
S3150FE13890F1D5F8E733FEFFFF0C020000100100201F
S3150FE138A000000000B9FFFFFF0C000000240000003C
S3150FE138B08000002081000C00F07F10308000002096
S3150FE138C034000140FC00000000000000C71867F457
S503030DEC
S70500000000FA
