S0430000626F6F746C6F616465722D756172742D62676170695F65667233326267316232333266323536676A34335F62726434313031622D636F6D62696E65642E73333711
S31500000000900400208D050000D5050000D9050000EC
S31500000010DD050000E1050000E50500000000000028
S315000000200000000000000000A4050000E905000033
S31500000030ED05000000000000F1050000F5050000D8
S3150000004010B56249624A01E021B1491E1369DC0715
S31500000050FAD411B96FF0020010BD50600120106093
S315000000601169480702D54FF0FF3010BD002010BDC2
S3150000007003460020002900D1704770B5544C53F850
S31500000080042BE26008252560491E504A01E062B152
S31500000090521E2569EE07FAD43AB12269940701D4B3
S315000000A011B1EBE76FF0010070BD6FF0020070BD9B
S315000000B02DE9F84F444D0C46A96B834600208EB2BD
S315000000C006B1012641F67131A9634FEA92082B6801
S315000000D043F001032B608146A24612E0C7F30A07EC
S315000000E0C7F50067BF08A8EB0900B84238BF074646
S315000000F039465046FFF7BCFF01000CD1B9440AEB64
S31500000100870AC14507D20BEB89073846FFF798FFE8
S315000001100100E3D00DE0DBF8002021688A4208D018
S315000001205846FFF78DFF010003D101212046FFF756
S315000001309FFF2968490849002960F6B20EB10021DF
S31500000140A963BDE8F28F30B51F4B20490246986B74
S3150000015080B200B1012041F671349C631D6845F000
S3150000016001051D609A6001225A605C69620704D528
S3150000017000F021F84FF0FF3030BD02225A605A6974
S31500000180D40710D5002918BF491EF8D10BE0002965
S31500000190196804D100F010F86FF0020030BD00F0CD
S315000001A00BF8002030BD5A699407F0D500F003F82B
S315000001B06FF0010030BD196849084900196008B19F
S315000001C000209863704773E708000E4080969800F9
S315000001D00C000E40F8B5282001680869CD68846ACD
S315000001E0AC4225D305F560518C4221D2641B04191B
S315000001F0264E2168B1421BD1E168254F4FF0FF32F0
S3150000020000F050F8B84213D100F044F80ED202685C
S31500000210B2420BD18168A268914207D3C1684FF000
S31500000220FF32284600F03EF8B84201D00120F2BD68
S315000002300020F2BDF8B5282000680569C468AE6ADA
S31500000240361BAE19274604E0384600F05DF807F580
S315000002500067F26810198742F6D32946204600F057
S315000002605AF890B100F016F80CD2026807498A4293
S3150000027008D1C1684FF0FF32204600F013F8044958
S31500000280884201D00020F2BD0120F2BD07B0CD5E4C
S31500000290E320BBDE40F628000068A0F50061B1F55A
S315000002A0605F704730B50A4B1C6844F020041C6040
S315000002B00125084B1D609A605D6002E010F8014B55
S315000002C09C610A46511E002AF8D1D86930BD00BF8C
S315000002D0B0400E4000C0014080B58308800700F0A2
S315000002E006F8042269469800FFF76DFF02BD05D5A2
S315000002F04FF6FF7242EA01420092704741F07F4199
S3150000030041F47F010091704780B5FFF71CFF401E46
S315000003108041C00F02BDF8B5140005460E4624D034
S3150000032005F0010104F00100014320D1AA0707D519
S3150000033036F8021B2846FFF7CFFFC0B9AD1CA41E36
S31500000340042C0CD3A708BF003A4631462846FFF7CF
S315000003503AFF790806EB41067D19E41B38B924B14A
S3150000036031882846FFF7B8FF08B90120F2BD002002
S31500000370F2BD00004FF000514AF6C03308804FF638
S31500000380F0704A8802409A421CBF4FF20F024A8020
S31500000390704780B5FFF7EEFF0948016821F4E06178
S315000003A041F400710160BFF34F8F064906480A68A1
S315000003B002F4E06202430A60BFF34F8F00BFFDE71D
S315000003C000500E400CED00E00400FA0510B54FF0A9
S315000003D000524FF6F071508801EA00034AF6C03425
S315000003E0A3421CBF4FF20F03984201D1108810BDE3
S315000003F0002804BF1088012802D140F2022010BD57
S315000004004FF4007010BD000080B51948194A016804
S315000004101160FFF70FFF0028FBD040F20220FFF724
S31500000420B8FF002002BD000010B5134C002020606C
S31500000430FFF7CCFF11490A68B2F5803F0AD040F2B7
S315000004400921884218BFB0F5007F03D1FFF7C2FE2D
S3150000045000B110BD4FF400602060024610460168EE
S3150000046081F3088881F3098840688746FEE7000023
S31500000470880000208C00002008ED00E004500E40AB
S315000004800C490D4808600D48026842F4700202608B
S315000004900B48416941F4005141610268920892009B
S315000004A00260416B490849004163016A21F08051AD
S315000004B00162704708ED00E00000000088ED00E0F2
S315000004C040300E4030B450F8041B79B102684368DE
S315000004D002440830DC0744BFA9F10104E31852F8CE
S315000004E0045B43F8045B091FF9D1ECE730BC7047A5
S315000004F010B5074979441831064C7C44163404E09B
S315000005000A68081D114488470146A142F8D110BD6A
S315000005102C0000003C0000004EF68851CEF200018F
S31500000520086840F470000860BFF34F8FBFF36F8F09
S315000005304FF00070E1EE100A7047000089FFFFFFE0
S315000005401000000074000000800000200000000081
S315000005500120C046002801D0FFF7CAFFAFF3008094
S315000005600020AFF30080FFF74FFF00F000F800F027
S3150000057001B800000746384600F002F8FBE7000025
S315000005802021090326311820ABBEF9E7024880472F
S315000005900248804702480047810400002904000001
S315000005A0C9050000AD1007B00100000000000C01F5
S315000005B0000800000080000000F0490200800000F2
S315000005C0C0EA2101C0EA2101AFF30080FFF7A4FFD2
S315000005D0FFF7BEFFFFF7FEBFFFF7FEBFFFF7FEBF49
S315000005E0FFF7FEBFFFF7FEBFFFF7FEBFFFF7FEBF39
S30D000005F0FFF7FEBFFFF7FEBF97
S3150000080020130020E5360000070F0000012100003C
S31500000810C711000047120000DF12000000000000B0
S315000008200000000000000000400800003323000024
S3150000083003350000800800007335000043360000D1
S3150000084007B0CD5E0100000000000C014C30000036
S315000008500040000000000400F00010002B23000000
S315000008602F23000061280000033700003537000001
S31500000870000000006F370000D337000000000000C2
S3150000088013B779FAC925DDB7ADF3CFE0F1B614B8E1
S31500000890010100000200000048380000400000008E
S315000008A000000C0100000000000000000000000035
S315000008B00000000000000000000000000000000032
S315000008C010B501218248834C00F05AF90121824873
S315000008D000F056F901214FF48A4000F051F9012148
S315000008E07E4800F04DF940F6AA60E06000212160E4
S315000008F0616641F205006060A1606161E164784A69
S31500000900A2646167A167E16760602068206000F00B
S315000009106FF9400100F561204FF4E111B0FBF1F0F1
S315000009202038704A02EAC0026261012304220021D3
S31500000930002000F0B4F9012301220121002000F07B
S31500000940AEF90020A067032161670520E0604FF043
S31500000950E0616548016000220262C2624263C266CB
S315000009604FF4402361490B608A6000246CA2604BFF
S315000009704C60920892008A610B638C634C6303217E
S315000009805C4A11600123C36302205B49086010BD05
S3150000099070B50E46802E0546144602D341F203106A
S315000009A070BD00F026F810B941F2062070BD002097
S315000009B0524902E02A5C0A54401CB042FAD3D1F8EC
S315000009C08000761E66F30E10C1F88000803189081B
S315000009D04B488900016002224A490A603CB100F096
S315000009E008F80028FBD0484801688A06FBD5002095
S315000009F070BD464846498268930702D502200860C2
S31500000A0003E00068820703D4022088600120704753
S31500000A10002070473F48006840F20111884208BF35
S31500000A20002007D040F2022188420EBF4FF48070AA
S31500000A303949401A394A1168814201D1002070476C
S31500000A4001D2401A7047C1F50071401870472DE970
S31500000A50F04107468846154600268BB1069C2CB108
S31500000A6000F056F90021204600F074F9FFF7D2FF96
S31500000A70404505D2002CF9D000F082F90028F5D0C7
S31500000A80FFF7C8FF804505D8404603E000230B600A
S31500000A9002211160864212D220491F4A0B68D45C9B
S31500000AA0154ABC55761C5B1CB3F5007F0B60EDD078
S31500000AB0B3F5807FEED10121EBE7BDE8F08105B10A
S31500000AC02E60464534BF41F204200020F5E70000C1
S31500000AD0404105000000014000250A0000220400F4
S31500000AE0F9FF0100F8FF7F0000200E4080200E4035
S31500000AF001000C0028200E4408200E46800000202D
S31500000B00C8200E403C200E401000014020200E4020
S31500000B1020200E4494200E401001002018030020CF
S31500000B20F00F10031C00014010010020130000000C
S31500000B30090000000001000002020000130000008E
S31500000B40F00F10031C0001401002002013000000EB
S31500000B50090000000002000001010000D3FFFFFFB2
S31500000B60890001EB401101F184410A607047DFF80A
S31500000B7074104A68D30702D40A680242FCD170474F
S31500000B8070B50C460246110A01F00F010020491EFD
S31500000B900929DFF8545013D8DFE801F005131212C3
S31500000BA0071518121B1FDFF83850C2F3043608B1B8
S31500000BB0FFF7DDFF224631462846BDE87040CFE705
S31500000BC070BD1035F1E730350120EEE738351020DD
S31500000BD0EBE740354FF48030E7E7DFF81050E4E705
S31500000BE000400E4040410E40B0400E4050410E4085
S31500000BF010B51449086800F00700022808BF124A19
S31500000C0018D0124B1868C0F30440112828BF104AA8
S31500000C1010D200BF11A20F4C125C0F484243A242F1
S31500000C2008D11B685B0E012003F00303224698409F
S31500000C30B2FBF0F2C86EC0F30420401CB2FBF0F029
S31500000C4010BD000094400E4000F0490210400E40D6
S31500000C50C0EA210100093D0040420F0004000007E0
S31500000C6000000D1013001A202630384048000000FE
S31500000C7010B500F00DF804F1806404E010B500F042
S31500000C8007F804F1C064012303FA01F1216010BDE5
S31500000C9030221E4B5043184400F10C047047F8B53F
S31500000CA00546174638000E461C4607D0002C284637
S31500000CB002D0FFF7E3FF01E0FFF7DAFF2A46302014
S31500000CC01249424388180F22082E05D2B300416804
S31500000CD000F015F8416006E0A6F108039B00816864
S31500000CE000F00DF881604FB9002C3146284602D03D
S31500000CF0BDE8F440C2E7BDE8F440B9E7F1BD9A406B
S31500000D0021EA020207FA03F11143704700A00040EE
S31500000D10F8B52548016841F480110160234802684E
S31500000D2042F001020260FFF763FF4FF47A71B0FBF5
S31500000D30F1F01F4A22A1800A50601022684600F096
S31500000D4057F80A208DF8020069461A4800F093F811
S31500000D5005B000BD30B5184B154C1D69626802FB25
S31500000D6000506080ADB26088A8429241D20F2270D6
S31500000D7011B119698142FCD101201860586030BD5B
S31500000D800E490B4B0A68187802F0010210B122B91D
S31500000D90002070470AB10120704788695988884247
S31500000DA08041C043C00F704700400E40C0400E4017
S31500000DB01003002000800140148001400C80014097
S31500000DC0010000000000000000000000000000001C
S31500000DD062B38B0708D0521E11F8013B00F8013BA5
S31500000DE000F024808B07F6D1830740F0208000BFF7
S31500000DF0103A07D330B4B1E83810103AA0E83810EA
S31500000E00F9D230BC530724BFB1E80810A0E8081097
S31500000E1044BF51F8043B40F8043BD20724BF31F8E5
S31500000E20022B20F8022B44BF0B7803707047121F69
S31500000E3017D35B0009D151F8043B20F8023B1B0C89
S31500000E40121F20F8023BF6D20BE051F8043B00F8E3
S31500000E50013B1B0A20F8023B1B0C121F00F8013B4A
S31500000E60F3D238BF121D521E24BF11F8013B00F801
S31500000E70013BF8D870472DE9F0410246087808B9D9
S31500000E8002235360002454624B78002B4B7A14BF24
S31500000E9040250025002B8B7A14BF80260026002BC8
S31500000EA0CB7A14BF20270027002B0B7B14BF4FF0F3
S31500000EB0100CA44603B1082391F803E08C7891F84E
S31500000EC007804FEA0E4E4EEA046E8C794EEA842471
S31500000ED044EA082E0C7A44EA0E04254335433D4382
S31500000EE04CEA05051D430B790BB14FF400534979C4
S31500000EF009B14FF080511D430D43156008B1012023
S31500000F005060BDE8F081FEE702487047024870472E
S31500000F10024870474A43E00F6A43E00F8642E00FFB
S31500000F20002070470020704740F6280001680869D5
S31500000F30704728200068704740F628000068704710
S31500000F402820044A00680168914201D1006970476F
S31500000F5000207047AD1007B001207047890001EBF3
S31500000F60401101F184410A60704710B50A684B6868
S31500000F708C68C968026003600460016010BDF4E714
S31500000F801FB5044611F0030008D010226846FFF78B
S31500000F901FFF69462046FFF7F2FF1FBD009120465E
S31500000FA00099FFF7ECFF1FBD10B5026803680468DF
S31500000FB000680A608C604B60C86010BD1FB50C46A7
S31500000FC014F0030108D06946FFF7EEFF10226946C8
S31500000FD02046FFF7FDFE1FBD00940099FFF7E4FFD2
S31500000FE01FBD38B5102A04460D460DD10122002139
S31500000FF0FFF7B4FF04F5887429462046FFF7B5FFCE
S3150000100005F11001204606E000220021FFF7A6FFA9
S31500001010294604F12400BDE83440A6E738B5044665
S3150000102011F0030088B015460CD0082D0CBF102215
S3150000103020226846FFF7CCFE2A4669462046FFF77F
S31500001040D0FF04E0009120460099FFF7CAFF09B0DF
S3150000105030BD242100F0B8B870B50D4600F010F888
S31500001060802E18BFB6F5807F02D06FF0710070BD7C
S315000010702660F2082946201DFFF7AAFE002070BD53
S3150000108004461646242100F09FB8594605F1800013
S3150000109094E7011D2846C1E7484600F098B82DE9B7
S315000010A0F64F83B0002A14BF14680024019000276D
S315000010B002680F9EDDF840800091802A18BFB2F5C5
S315000010C0807F029304D06FF0200068E000F070F893
S315000010D0009887425FD2002CF8D100F082F80546CE
S315000010E0002068604FF4404129604FF0000A00F08C
S315000010F08DF881460198016880290CBF08221022CC
S31500001100FFF7C7FF029905F18400FFF739FFFFF7E4
S31500001110C3FF0098A0EB070913E000F043F80AF1BB
S31500001120010A00F073F88346F11905F1A000FFF7F4
S3150000113027FF08EB0701FFF7A9FF584600F047F81D
S315000011401037BAEB191F15D24820A8600521A960EF
S31500001150E3E76CB94820A8600521A96000F022F8F1
S3150000116000F054F881460E99FFF790FFFFF794FFC1
S3150000117000F01EF80098C01BEBD100F047F881463E
S31500001180029905F18400FFF719FFFFF785FF28464E
S3150000119000F030F89CE7049800B10460002005B028
S315000011A0BDE8F08F28698107FCD40320A86070474A
S315000011B00E9AF15D105D414008F80710641C04F0BA
S315000011C00F047F1C7047FEE7002200F023B800B929
S315000011D062B67047890001EB401101F184410A6053
S315000011E0704780B5FFE7012201210648FFF7F2FFAD
S315000011F0054802BD0449884203D100220121014865
S31500001200E8E77047B0400E4000000F40EFF3108053
S3150000121072B6704700B500BF130096469446103963
S3150000122028BFA0E80C50FAD85FEA417C28BF0CC062
S3150000123048BF40F8042BC90728BF20F8022B48BF37
S3150000124000F8012B00BDFEE738B5174C206840F0CA
S31500001250040020600123042200F02AF800210091F6
S3150000126002E00098401C009000986428F9DB0123F6
S31500001270022200F01DF8002001E00098401C0090BA
S315000012800098B0F5FA7FF8DB08490868012814BF12
S31500001290012500250123002200F00AF8206820F02D
S315000012A004002060284632BDB0400E409021144212
S315000012B004210520FFF7F3BC42685209042941EADC
S315000012C042120AD9491F022905D9C91E032904D980
S315000012D0091F022902D842F0100242607047FEE759
S315000012E030B5534B53490246986B80B200B101208A
S315000012F041F671349C631D6845F001051D609A60D6
S3150000130001225A605C69620704D500F021F84FF0AB
S31500001310FF3030BD02225A605A69D40710D5002921
S3150000132018BF491EF8D10BE00029196804D100F056
S3150000133010F86FF0020030BD00F00BF8002030BD51
S315000013405A699407F0D500F003F86FF0010030BD3C
S31500001350196849084900196008B100209863704768
S315000013602DE9F043914602F1604247F60145AA4253
S315000013704DD23026304A464332444FF4401515606C
S315000013800027576097609761294DAE6BB6B206B1DC
S31500001390012641F67137AF6301272C68DFF89CC040
S315000013A044F001042C60874026E0A96001246C60AB
S315000013B06C6964072BD44FEA9E04641E240144F032
S315000013C06054D460C2F810901D4CDFF878805461E8
S315000013D0D8F800403C43C8F8004010246C60D8F8A8
S315000013E00840C440E407FAD5CCF80870CCF8007081
S315000013F07144F144A3EB0E0363B101F50064E40A02
S31500001400E402A4EB010E7345CFD29E46CDE74FF022
S31500001410FF300AE004206860F6B2296849084900EE
S3150000142029600EB10020A8630020BDE8F08300000B
S3150000143008000E408096980080200E4020200E4422
S3150000144018000E4020200E4010B50B4A5168136854
S315000014508C0004F03C04C3F381110C4384701168C2
S3150000146001F03F0141709368D16803F0F003C1F3C6
S3150000147003110B43037010BDE0FF0FE02DE9F841A7
S3150000148006000D4618BF002DA1B01446984606D09A
S31500001490002C18BFB8F1000F01D0289F17B940F2F1
S315000014A0016023E001211348FFF76AFB402111A8E0
S315000014B0FFF78AFE414611A800F0D3FA394619A86B
S315000014C000F0CFFA01A84021FFF77EFE294601A8C9
S315000014D000F0C7FA214609A800F0C3FA01A8009057
S315000014E011AB20223146044800F0CAFA22B0BDE80A
S315000014F0F081000000150A0000000F4010B50A68D0
S315000015004B688C68C968026003600460016010BDA6
S3150000151010B502680368046800680A608C604B6056
S31500001520C86010BD38B504460D46FFF7E7FF05F164
S3150000153010012046BDE83440E0E738B504460D46C4
S31500001540FFF7E6FF05F110012046BDE83440DFE76E
S31500001550082250F8041B21B9521EFAD10020C0B24D
S3150000156070471000FBD00120F9E7F8B500F065F9E7
S315000015700746294604F58470FFF7D4FF314604F583
S315000015808670FFF7CFFF3846FFF721FEDFF8DC064F
S315000015902065012161656069000E00F0010080F0A0
S315000015A00100F2BD2DE9F84F88B004460D4692467B
S315000015B01E46FFF72BFE834604F5827705F14001B0
S315000015C000F035F904F58678514600F029F904F55E
S315000015D088790AF120014846FFF7A4FF00F022F9B6
S315000015E000F038FAA065E16504F5847AFFF70EFE8F
S315000015F08346294600F01BF905F120015046FFF706
S3150000160091FF05F140014846FFF78CFF00F00AF90B
S31500001610DFF85C06DFF85C16206561650120A065D1
S3150000162004F58079FFF7F2FD834606F1400148464E
S31500001630FFF783FF69465046FFF77FFF00F0F2F899
S31500001640FFF7E4FD834600F0EAF800F0EBF8DFF878
S315000016502806DFF82816206561650121DFF82006D7
S3150000166000F0E7F8804600F0E0F800F02BF9DFF82C
S315000016701406DFF8141600F021F8054631465046E8
S31500001680FFF75BFF2846FFF7A2FDFFF7BFFD054604
S3150000169069463846FFF746FF2846FFF798FDDFF80C
S315000016A0EC05DFF8EC1500F009F8044600F0B3F895
S315000016B02046FFF78CFD09B0BDE8F08F2065616517
S315000016C00120A065FFF7A2BD2DE9F84F98B000F004
S315000016D0B4F8804604F5827700F0A7F800F0F2F837
S315000016E0DFF8B005DFF8B0152065616504F5807890
S315000016F0DFF8A805FFF7E5FF814608A94046FFF792
S315000017001CFF4846FFF763FDFFF780FD814600F0AA
S3150000171086F84846FFF75BFDDFF88405DFF8841599
S31500001720206561654FF48670A06504F58679FFF73C
S315000017306DFD824610A94846FFF7FFFE6946404602
S31500001740FFF7FBFE5046FFF742FDFFF75FFD8246BF
S3150000175005F1400100F06BF85046FFF738FDDFF861
S31500001760480520650121616504F5847AFFF74EFD81
S31500001770834600F0C1FA00F055F8DFF83005DFF8CF
S315000017803015206561650121DFF8280500F051F864
S31500001790834669465046FFF7C5FE10A94846FFF73F
S315000017A0C1FE00F03FF8DFF81005DFF810152065E0
S315000017B06165DFF80C05FFF784FF8346314604F5C3
S315000017C08870FFF7BAFE00F02DF8FFF71FFD83467D
S315000017D000F02BF805F140015046FFF7A3FE08A9DB
S315000017E04846FFF79FFE00F01DF8DFF8D804DFF843
S315000017F0D81420656165FFF709FD044606F140012E
S315000018004046FFF79AFE00F006F82046FFF7DFFC99
S3150000181019B0BDE8F08F06F1200148468DE629464D
S3150000182040467FE65846FFF7D2BC05F12001384610
S3150000183078E6A065E165FFF7E9BC04460D46164665
S31500001840FFF7E4BC2DE9F04105460E461C46174657
S3150000185020212046FFF7B8FC01222260FFF7D6FCC4
S315000018608046394605F58070FFF75CFE314605F582
S315000018708270FFF757FE05F5847621463046FFF75E
S3150000188051FE00F01FF8DFF8440428650BE0DFF88E
S315000018904014DFF8400429656865DFF83C14DFF87A
S315000018A03C04A965E8656869C101F0D5FFF7AEFC9F
S315000018B0054621463046FFF740FE2846BDE8F04182
S315000018C0FFF785BC4046FFF782BC50F8043B9342C5
S315000018D003D007E050F8042B22B9091F0129F9DAD1
S315000018E001207047002070472DE9F04188B004467A
S315000018F00D461646984620216846FFF765FC0122EC
S31500001900009220214046FFF75FFC202108F12000CD
S31500001910FFF75AFC202108F14000FFF755FC05218E
S315000019202046FFF7C9FC0020206020636063FF2784
S3150000193000F040F802D47F1E002FF9DC002F36D4C9
S31500001940424641462046FFF7BFFE00F033F82CD54D
S31500001950002220214046FFF7B8FF00B300222021D5
S3150000196008F12000FFF7B1FFC8B10022202108F1DD
S315000019704000FFF7AAFF90B1202229464046FFF714
S3150000198037FA202205F1200108F12000FFF730FA8E
S315000019902022694608F14000FFF72AFA05E043468F
S315000019A02A4641462046FFF7FDFD7F1EC6E708B0E2
S315000019B0BDE8F081381107EBD060401156F82010D1
S315000019C0A7EB4010C140CA0770472DE9F0410F460A
S315000019D090B0044615460521FFF76EFC00222260F2
S315000019E022636263684620220FF22031FFF700FA75
S315000019F008AB6A4607F140012046FFF723FFFFF7D1
S31500001A0005FC804608A904F58270FFF78BFD04F5F6
S31500001A10867639463046FFF785FD07F1200104F545
S31500001A208870FFF77FFDFFF74DFF00F013F8FFF713
S31500001A3000FF074605F1200104F58070FFF77DFDE4
S31500001A4029463046FFF779FD3846FFF7C0FB10B050
S31500001A50BDE8F0818F48A249206561650121A14852
S31500001A60704738B50D4604462021FFF7ADFBFFE76A
S31500001A701F204242295C2244401ED177F9D531BD50
S31500001A802DE9F04FB9B007460C4616461D4621A86B
S31500001A906021FFF799FB09A86021FFF795FB3CB190
S31500001AA0009528001CBF429D002D01D0002E02DCAF
S31500001AB040F20160D5E000203860386378630C217D
S31500001AC078680FF23C2840F0100078603846FFF73F
S31500001AD0F3FB786820F4406040F4006078602022D0
S31500001AE0786820F4407040F40070786008F12C01AA
S31500001AF011A8FFF77DF911AA29463846FFF735FDEB
S31500001B0078B92846FFF724FD58B111AA05F120013E
S31500001B103846FFF72AFD20B905F12000FFF718FD2A
S31500001B2010B940F202609CE0202EC8BF202620217A
S31500001B3019A8FFF749FB002014E0321A521E09A922
S31500001B409208A6F1010E01EB8201AEEB000E235CBA
S31500001B500A6C4FEACE0E0EF0180E03FA0EF31A4375
S31500001B600A64401CB042E8DBFFF750FB064607F567
S31500001B70847419A92046FFF7D5FC3046FFF727FBEA
S31500001B805948386507F58076FFF740FB814619A965
S31500001B903046FFF7D2FC4846FFF719FB01AB11AA06
S31500001BA005F120013846FFF74DFEFFF72FFB834670
S31500001BB001A907F58270FFF7B5FC07F5887919A921
S31500001BC04846FFF7AFFC07F5867A00F095F8FFF771
S31500001BD029FE4648464938657965FFF717FB83466F
S31500001BE019A94846FFF7A9FC01A93046FFF7A5FC4D
S31500001BF0FFF718FE21AB19AA08F14C013846FFF78A
S31500001C0073FE009909AB01AA3846FFF76DFE21AABB
S31500001C1021A93846FFF7D9FE09AB21AA09A93846FA
S31500001C20FFF7C0FC09AA09A93846FFF7CEFEFFF761
S31500001C30EDFA06460C213846FFF73EFB09A9204679
S31500001C40FFF770FC00F058F83046FFF7C0FA294855
S31500001C502249386579657869C1014CBF002040F298
S31500001C60046039B0BDE8F08F000000003035DA10AE
S31500001C70D01482CB1481E11C8CE11C811C84D91CFC
S31500001C808391D11CE014D8141482E11C84D31482ED
S31500001C90D11CE0148AD11C81821CC00C0C0C0100E2
S31500001CA0C00C0C83D91C83D88AD11C83DA0C81140E
S31500001CB082D11C81C80C0C818CE11CD01484E314E5
S31500001CC082D11C01D81483D11CC00C01393984017E
S31500001CD0D02484FC1C82FED88B1C81A039380100DC
S31500001CE0D91C83D11C81E11C30D00C0130E11C844D
S31500001CF030D91C013035DA1429465046FFF712BC9C
S31500001D002000000000010000050C0000FFFFFFFF9F
S31500001D10FFFFFFFFFFFFFFFF0000000000000000C5
S31500001D200000000001000000FFFFFFFF512563FCDB
S31500001D30C2CAB9F3849E17A7ADFAE6BCFFFFFFFF40
S31500001D40FFFFFFFF00000000FFFFFFFF96C298D8CD
S31500001D504539A1F4A033EB2D817D0377F240A463CE
S31500001D60E5E6BCF847422CE1F2D1176BF551BF37D7
S31500001D706840B6CBCE5E316B5733CE2B169E0F7CAA
S31500001D804AEBE78E9B7F1AFEE242E34F2DE9FC47C2
S31500001D908A461446984670B9002C43D00B990A68B7
S31500001DA03F2A0AD84868002818BF5FEA080905D103
S31500001DB00FF24C1902E0424835E0C14602F03F06F8
S31500001DC0A218A242C6F140050A6002D24868401C29
S31500001DD048600A9F96B1AC4210D32A465146B819BC
S31500001DE0FEF7F6FF0120009043463A46494600209A
S31500001DF000F0D5F8C146AA44641B00263F2C0BD937
S31500001E00A5090095434652464946002000F0C7F80A
S31500001E100AEB851AA4EB851424B122465146B8195B
S31500001E20FEF7D6FF0020BDE8F6870000F8B586B0BD
S31500001E300C4615461E4640BB002102AF4A429200A0
S31500001E4056F82130D21D00EBC300B85402A8104446
S31500001E5056F82120C01E5209827056F82120520BD6
S31500001E60427056F82120520D027056F82100400F9C
S31500001E70491C0129E2D9327802F03F02382A34BFE0
S31500001E80C2F13802C2F1780201E00D4815E00C9F5C
S31500001E9023A10196009523460020FFF777FF0196C0
S31500001EA000952346082202A90020FFF76FFF202293
S31500001EB021463846FEF78CFF002007B0F0BD000033
S31500001EC080AFFFFF6821FFF77FB900210160416005
S31500001ED000207047E0B500F128030093019000F15F
S31500001EE008030020FFF752FF0EBD80B500910346A0
S31500001EF003F1280203F108010020FFF797FF02BD56
S31500001F006A09E667BB67AE853C6EF372A54FF53A84
S31500001F10510E527F9B05688C1F83D9AB5BE0CD19B0
S31500001F20800000000000000000000000000000002B
S31500001F30000000000000000000000000000000009B
S31500001F40000000000000000000000000000000008B
S31500001F50000000000000000000000000000000007B
S31500001F6010B50A684B688C68C96802600360046033
S31500001F70016010BD10B502680368046800680A6055
S31500001F808C604B60C86010BD38B504460D46FFF73F
S31500001F90F1FF05F110012046BDE83440EAE72DE9DE
S31500001FA0F84F98B006460C4690469A46FFF719F940
S31500001FB0002E054650D10420286000216960E9649E
S31500001FC0686820F44060686029630020686354F8FC
S31500001FD0201009BA4DF82010401C0828F7D3FFF747
S31500001FE015F9044605F5827669463046FFF7B8FFCF
S31500001FF004A93046FFF7B4FF2046FFF7E8F82F485C
S3150000200028650027229C05F5D276A74240D218F013
S31500002010030008EB871906D04022494608A8FEF7B8
S31500002020D7FE0DF12009FFF7F1F88346494600F087
S315000020304BF809F1100100F047F809F1200100F012
S3150000204043F809F1300100F03FF85846FFF7BFF8B2
S315000020501B4828657F1CD8E71A4816E0FFF7D6F814
S31500002060044651463046FFF78FFF2046FFF7AFF88C
S315000020702846FFF7BFF800205AF8201009BA4AF898
S315000020802010401C0828F7D3002019B0BDE8F08FB7
S315000020901AF0030005F58076E0D0FFF7B7F804469E
S315000020A069463046FFF770FF2046FFF790F820227A
S315000020B069465046FEF78CFEDAE70000888AC801BA
S315000020C0070D810180AFFFFF304649E730B50A4B67
S315000020D01C6844F020041C600125084B1D609A60B2
S315000020E05D6002E010F8014B9C610A46511E002A11
S315000020F0F8D1D86930BD00BFB0400E4000C00140E5
S315000021004FF4017000F0D0B838B55049504A01205C
S31500002110086068461468FFF797F9240E8F2C10DACA
S315000021204C484D4C016841F0040202604FF05013D8
S31500002130002230255543521C6351062AF9D301600B
S3150000214000E006DC45480168C909C90141F02001E3
S3150000215001609DF80100012804D14148016841F061
S315000021600401016000203F49086000F0DEF800F03D
S3150000217096F800F0E5F800F0E5F818B14FF40170B4
S3150000218000F092F800F0FEF8044600F0C5F9002CC5
S3150000219019BF40F20370844240F2012000F084F837
S315000021A040F2057084421BBF40F206718C4240F239
S315000021B003204FF4017000F077F8002032BD0000D4
S315000021C080B5012100F055F82749086842050AD56F
S315000021D000F08AF840F20221401A07D0C01E05D04E
S315000021E0C01E012802D9FFF72FF808B100F040F809
S315000021F044F20400016811F1010F05D14FF4027099
S3150000220000F03EF800F034F89DF8010060B14FF49C
S31500002210804000F025FB8DF800009DF8000018B9FD
S315000022204FF4027000F02CF89DF8000068B10F48DA
S315000022304FF4804101600A461046016881F3088820
S3150000224081F3098840688746FEE701BD44000E40D9
S31500002250FC81E00FB0400E4000A000402C400E4034
S3150000226064310E40B40AC64304500E4008ED00E047
S3150000227000218DF800108DF801107047002070477E
S315000022804FF000514AF6C03308804FF6F0704A8886
S3150000229002409A421CBF4FF20F024A8070470E4915
S315000022A04CF23C300880704780B5FFF7E9FF0B48D9
S315000022B0016821F4E06141F400710160BFF34F8FC2
S315000022C0074908480A6802F4E06202430A60BFF35D
S315000022D04F8F00BFFDE700000200002000500E40B7
S315000022E00CED00E00400FA0510B54FF000524FF671
S315000022F0F071508801EA00034AF6C034A3421CBFBD
S315000023004FF20F03984201D1108810BD002804BF78
S315000023101088012802D140F2022010BD4FF400704F
S3150000232010BD4FF000500088704700207047002015
S315000023307047FEE701790122091DC01CFEF728BB84
S31500002340FEF7BEBA80B5A2B0FFF7EBFFB0F5027F8D
S3150000235007D1684671A18822FEF74AFD6846FFF755
S31500002360E9FF68468FA18822FEF742FD40F6280164
S315000023700DF107000A68936803606846FFF7DAFF05
S3150000238023B000BD38B5ADF5247D60A8A7A188228D
S31500002390FEF72EFD0DF13000C6A11022FEF728FD36
S315000023A00DF10800C7A12822FEF722FD3CA89021C6
S315000023B0FEF70AFF2AA84821FEF706FF10A86821A3
S315000023C0FEF702FF202310AA2AA93CA800F0DCFB96
S315000023D040F6033508E0012100228DF88611ADF89C
S315000023E0872160A8FFF7A6FF882182A8FEF7ECFEEA
S315000023F0FEF710FB0028FBD04FF47A700090012303
S3150000240082A801AA0121C01CFEF721FB9DF80B0240
S315000024102028EDD14FF47A710091012301AA0321FE
S3150000242083A8FEF714FB01980328DDD19DF80C4222
S3150000243074B140F6B8300090012383A801AA214662
S31500002440C01CFEF704FB0199A14208BF0028CBD1AE
S315000024509DF80D020028C7D19DF80E029DF80F3297
S315000024600328C1D8DFE800F04603041ABCE7B2E748
S315000024700CA9009184AA02A93CA800F0C1FB022184
S315000024808DF8861100281CBF41F20701884212BF51
S31500002490ADF887510022ADF88721A2E703208DF819
S315000024A086019DF80A0000281CBF9DF80B00002835
S315000024B01ABF0021ADF88711ADF8875160A8FFF764
S315000024C039FF9DF80A0000281CBF9DF80B00002864
S315000024D08AD09DF8080081070BD540F628000268CF
S315000024E003989168814204D2FEF72AFD0B9900F009
S315000024F0F6F979E79DF80A0038B19DF80B0020B986
S3150000250040F20320FFF7D0FE6EE7012B14BF40F226
S31500002510012040F20220F5E770470000000000A00D
S31500002520020001030B000000000000000000000094
S315000025300000000000000000000000000000000095
S315000025400000000000000000000000000000000085
S315000025500000000000000000000000000000000075
S315000025600000000000000000000000000000000065
S315000025700000000000000000000000000000000055
S315000025800000000000000000000000000000000045
S315000025900000000000000000000000000000000035
S315000025A000000000000000A0040000000000000081
S315000025B00000000000000000000000000000000015
S315000025C00000000000000000000000000000000005
S315000025D000000000000000000000000000000000F5
S315000025E000000000000000000000000000000000E5
S315000025F000000000000000000000000000000000D5
S3150000260000000000000000000000000000000000C4
S3150000261000000000000000000000000000000000B4
S315000026200000000000000000000000000000002084
S315000026300200000000000000000000000000000092
S315000026400000000000000000000000000000000084
S315000026500000000000000000000000000000000074
S315000026600000000000000000000000000000000064
S315000026700000000000000000000000000000000054
S315000026800000000000000000000000000000000044
S315000026900000000000000000000000000000000034
S315000026A00000000000000000000000000000000024
S315000026B00000000000000000BB2700000000000032
S315000026C0E327000000FF00000000000000000000FB
S315000026D000000000000000000000000000000000F4
S315000026E0000000000000000000000000F8B50446ED
S315000026F0E00A0D461646B4EBC02004BF204600F0A3
S315000027007CFE04F50067FF0AFF0204E0384600F08D
S3150000271074FE07F5006730198742F7D3324629461B
S31500002720204601B0BDE8F040022300F06DBEB8B50A
S315000027309BB0044640F204600090656BFEF7FCFB1C
S315000027400746284600F074F8002834D0287C022872
S3150000275012D2284600F06CF830B1686901280BD116
S31500002760287C022808D2AD693869854228BFA5426F
S3150000277002D362498D4201D300201CE001A800F07B
S315000027807FFE2A1B214601A800F084FE01A800F066
S3150000279083FEFEF7BBFB0446FEF7B6FB034600943A
S315000027A005F12002294601A8FEF768FE0090009870
S315000027B0401E8041C00F1CB0B0BD70B504460D462A
S315000027C01646FEF7B9FB01698C4222BF40693219F1
S315000027D0904205D3324629462046BDE8704085E73B
S315000027E070BD2DE9F041044688461646FEF7A1FB6A
S315000027F043490068884218D1FEF79EFB0746FEF75C
S315000028009FFB251870193D4988420ED23CB9FEF748
S3150000281097FB796988423CBF386900F0EEFD324685
S3150000282041462846BDE8F04160E7BDE8F08100007A
S315000028307FB504464FEA0D0033A11022FEF7D8FA01
S31500002840002046420DEB0605225CE97B914205D14C
S31500002850401C1028F5D3012004B070BD0020FBE712
S31500002860F8B5044625686768666BFEF765FB05F1F3
S31500002870604547F601418D4229D20069874226D339
S315000028801E498F4223D24030864201D38E4205D361
S31500002890FFF7F4FC401E8041C00FF2BDFFF7EEFCCF
S315000028A0B8B93046FFF7C4FFB8B1307C02280ED263
S315000028B0706990B102280CD1B069001D011B4FF060
S315000028C0FF322046FFF702FC0E49884205D0002061
S315000028D0F2BD2046BDE8F24029E70120F2BD80B5F1
S315000028E04FF0FF32FFF7F2FB064B984204BF40F26F
S315000028F00920FFF7D9FC002002BD000001000400FA
S31500002900AD1007B0E320BBDEB814B6F1E0CFF3ADEF
S31500002910B7DD25C9FA79B71370B54B688C689C4248
S3150000292006D200F140021B1B14781B19412B01D360
S31500002930002070BD537814780D68E4188B68EE5C3F
S3150000294004F03F0406558C68641C8C6013785B1C8D
S3150000295013708C684B689C42ECD3012070BD90F8D4
S3150000296040004A6889681018401A7047F8B584B064
S3150000297014460026054601960096082302AA00F092
S3150000298048F841F20306B0423CD195F8430005F100
S31500002990480738B100F038F83868082302AA02A9B7
S315000029A000F0A0FD9DF80A209DF80B009DF8091087
S315000029B0120442EA00629DF8080042EA012202433C
S315000029C022609DF80E009DF80F10000440EA016099
S315000029D09DF80D1040EA01209DF80C100843606038
S315000029E095F8430048B9DFF850198A421CBFDFF852
S315000029F04C09824201D000F007F86068B8600021F7
S31500002A00F960304605B0F0BD7868082202A900F0EA
S31500002A1041BD2DE9F0410C4617461D468046FFF79D
S31500002A209EFFA84208F1400606D221464046FFF71F
S31500002A3073FF10B300204DE000210CE0707818F809
S31500002A4000207A54491C737830785B1C03F03F03EE
S31500002A50421E73703270307808B1A942EED3A06876
S31500002A606268904238BFA9420CD22368185C785439
S31500002A70491CA268521CA260F1E71220B07141F213
S31500002A80020027E0A942F8D1069CB26C29463846D6
S31500002A90FFF71CFBB06424B1F0682A46394600F003
S31500002AA0F9FC079838B1F07878B1B0682B463A4609
S31500002AB0394600F017FDF07838B1F069B169281889
S31500002AC0F061884224BF0020F07070692D1875618E
S31500002AD041F20300BDE8F0812DE9F8431E46736814
S31500002AE0002B4ED00C4614F0030118BF41F2020031
S31500002AF048D115460746FEF717FA396E001D6A18C3
S31500002B00824221D300F1180399421DD28C46844596
S31500002B1038BF844605EB010800F11802904588BFCE
S31500002B209046ACEB0101ACEB000004EB0109A8EB0D
S31500002B300C083844424649466830FEF749F9FF22F8
S31500002B404146484600F0DEFCFEF7FAF9396E001DF4
S31500002B50884222BF6A18031D9A4209D3411A601897
S31500002B6007F1800102680A600421FF2200F0CAFC16
S31500002B7021463368386E74682A46A047386E2D1889
S31500002B803D660020BDE8F283F8B5064606F140072B
S31500002B900020B8717870F87038710D4600214FF03A
S31500002BA0FF303970797103F02003B86439627962B5
S31500002BB01446BB70FF22182106F1680000F0A2FC43
S31500002BC0FF22042106F1800000F09CFCFF22042174
S31500002BD006F1840000F096FCBD60FC60FEF7A2F9E9
S31500002BE000B11DB1FEF79CF918B114B941F20B0002
S31500002BF0F2BD14B1F86800F043FC0020F2BD0000FD
S31500002C002DE9FB4F05460021002300249AB005A8B4
S31500002C1080E81A000592099105F148081C9A269F3A
S31500002C20069205F142090EE00498C8F80800002152
S31500002C30C8F80C100398DFF80817884240F069813D
S31500002C40022289F8042007981C99884280F00B8399
S31500002C5041F2030208920AAC99F80430122BF2D81A
S31500002C60DFE813F014001A00050357013E03400382
S31500002C7017037B0140036D0140036D014802FE020C
S31500002C804303CA02CE02FE01FE02DCE700F083FB2C
S31500002C9000F07CFBC8D0FAE200F07DFB00F076FB8A
S31500002CA0F9D199F8020000283BD199F80010CA071B
S31500002CB05AD599F80100002856D10398DFF88016F6
S31500002CC088421CBFDFF87C16884225D0DFF87816CC
S31500002CD088421FBFDFF874168842DFF874168842F0
S31500002CE01AD0DFF8701688422DD0DFF84C168842CD
S31500002CF015D0DFF8641688421AD0DFF860168842CD
S31500002D0014D0DFF83816884221D0DFF854168842EE
S31500002D101CBFDFF85016884200F0FB801CE0102232
S31500002D208FE70398DFF81416884213E00E2288E72F
S31500002D300F2089F804000020D8F80810C8F81010F1
S31500002D40C8F814007FE7122189F804106FE0FEF737
S31500002D50E7F8002841D13BE000F022FB03A800F091
S31500002D6004FC002863D0C8E20398DFF8DC1588422B
S31500002D701AD0DFF8D815884214D0DFF8D415884267
S31500002D8016D0DFF8B415884224D0DFF8B015884293
S31500002D9016D0DFF8CC15884210D0DFF8C815884267
S31500002DA00AD01DE004224CE7062089F804004AE711
S31500002DB0072189F8041046E70920F6E70B21F8E712
S31500002DC0FEF7AEF8002804BF99F80100002804D1E8
S31500002DD00C21EEE799F80100002840F09A809EE762
S31500002DE003A800F0C2FBC8B10398C8F8440011213B
S31500002DF089F80410039800F0BAFB099000F0B8FABD
S31500002E00D9D5099800281CBF41680029D3D0284687
S31500002E108847009000980028CDD06EE2122199F8DC
S31500002E20010089F8041010B141F204001CE241F2DD
S31500002E30080019E2E0780006B0F1407F04D000F007
S31500002E40AFFA41F209000FE26079217941EA0021E7
S31500002E500291C90706D599F8000040F0010089F8EB
S31500002E60000002E0FEF75EF840B9FEF759F80028C8
S31500002E7000F0FF810298C10500F1FB8100F090FA95
S31500002E8041F20A00F0E1307840F002003070A0789C
S31500002E90E1789DF82820000440EA0160617840EA64
S31500002EA0012010437060D8F8080008387062A179D4
S31500002EB0E0792279090441EA0061607941EA00215A
S31500002EC011430291FEF735F8DFF89C14006888423A
S31500002ED021D1FEF72EF80299C068814219D1052149
S31500002EE099F8030089F8041040F0010089F80300FE
S31500002EF00021C8F81C10D8F80C00082880F0FB81C7
S31500002F0001210191009100F04FFA00F03FFABAD08A
S31500002F10BDE100F045FAF0E1A178E0789DF82820BF
S31500002F20090441EA0061607841EA002111430291F7
S31500002F30D8F80800052824BF0298C8F81800D8F861
S31500002F400C00042880F0DC8101210191009100F041
S31500002F5017FA00F01BFADFD099E10020C8F81C0030
S31500002F60082126E73B68D8F81C005A460AA9A0475C
S31500002F70D8F81C005844C8F81C00D8F80800D8F83F
S31500002F800C10814280F0B481A0EB010BBBF1040F61
S31500002F9005A9284608D3FFF7E2FC042808D205A9AC
S31500002FA02846FFF7B9FC5EE1FFF7D9FC5845F6D392
S31500002FB0BBF1410F28BF4FF0400B00F0DDF958453B
S31500002FC002D200F0D9F98346BBF1040F24BF4FEAC1
S31500002FD09B004FEA800B00F0EDF900F0D7F9BBD16A
S31500002FE099F80400082802D1BC68002CBAD1BBF1BC
S31500002FF0040FCBF1040406D20AA8FF222146584446
S3150000300000F080FAA34499F804000A2807D13B4649
S315000030105A460AA92846FFF75FFD0090ADE7052846
S31500003020ABD19AF801008107A7D5F8680028A4D08B
S31500003030D8F81C0005280ED20BEB000107290AD38D
S315000030400AA9091D081A05F1840201681160FF2208
S31500003050042100F057FA3B68D8F81C00FC6884E7A6
S3150000306099F80010880640F14D81D8F8440000F028
S315000030707EFA0028099040F045813EE100F078F99B
S3150000308008D5002C1CBF2169002903D02846884793
S31500003090064600E0012600F06FF9B04287D3D8F863
S315000030A00800D8F80C10A0EB010BBBF1410F28BFAC
S315000030B04FF0400B00F060F9834502D300F05CF955
S315000030C0834600F077F900F061F912D100F050F96B
S315000030D040F11981002C1CBFA668002ECDD03B46BE
S315000030E05A460AA92846B04700900098002800F0E2
S315000030F00A81CCE000200190009000F041F900F038
S3150000310045F9F6D1D8F840009849884205D01222F0
S3150000311089F8042041F20500A6E0FDF701FF18B981
S315000031201B990120C87003E01B99C878002841D07C
S3150000313099F8030010F0030F1CBFFC68002C05D0A3
S315000031403B68042205F184010420A047D8F8180042
S3150000315000281CBF786800282CD04FF0FF31029160
S3150000316005F180040422214602A800F003FA40B1CA
S31500003170FDF7E6FE28B121463B687C680422001D67
S31500003180A047042205F1680102A800F0F3F988B10E
S31500003190FDF7CAFE3B687C68142205F16C01083015
S315000031A0A047FDF7C1FE3B687C68042205F1680173
S315000031B0001DA0471B99012088700D2089F8040086
S315000031C051E0FDF7A5FE8021009001910123D8F87A
S315000031D000000BAA022100F062F9D8F80C001028B2
S315000031E04AD20021012001910090102300F0C9F875
S315000031F000F0CCF8E5D04AE0012089F801002DE086
S3150000320099F8020050BB002101910090402300F084
S31500003210B8F800F0BBF83AD1D8F8040000F03CF951
S31500003220FDF774FE0446FDF76FFE00940346D8F8DA
S31500003230040012AA0AA9FEF721F90090009840B1ED
S315000032401B980021C17041F20600122189F8041072
S315000032500AE01B990120C87089F802000121A8E53F
S3150000326041F2070000E000201DB0BDE8F08FDDF858
S315000032706CA0D8F80C0008283AD200210120019150
S31500003280009000F091F800F081F83FF4D3AD00987B
S31500003290EAE7DDF86CA0D8F80830D8F80C009842B8
S315000032A026D201210191009100F06BF800F06EF832
S315000032B0EDD11C220AA90AF10800FDF799FD9AF83A
S315000032C0000040F001008AF800000AF10800FDF74E
S315000032D043FE0028DFD100F063F841F20C00C3E79B
S315000032E01B9E08E6DDF86CA047E6DDF86CA074E7E7
S315000032F0CDF86CA0B2E71B96A5E441F20100B3E756
S315000033000A2052E5099CD8F80C00D8F80810884223
S31500003310FFF4B4AE099400F02BF89FD5002C1CBF27
S31500003320E268002A9AD039462846904700900098CD
S31500003330002893D0ABE70000F70A0AF7FC0404FC68
S31500003340EB17A603EB17A65EF40A0AF4F50909F5CE
S31500003350F60808F6F70909F7F90707F9FA0606FA6B
S31500003360FD0303FDFE0101FEAD1007B0E320BBDE49
S3150000337099F800008106704705A92846FFF7EFBABD
S3150000338004230AAA05A92846FFF743BB0090009824
S3150000339008998842704703AA05A92846FFF7E6BAA6
S315000033A0122089F80400704708230AAA05A92846AE
S315000033B0FFF72FBB0120019000905B460AAA05A9E2
S315000033C02846FFF726BB38B584088007154600F067
S315000033D007F804236A46A1002846FDF7C1FF32BD5F
S315000033E005D54FF6FF7242EA01420092704741F05E
S315000033F07F4141F47F010091704780B5FDF770FF72
S31500003400401E8041C00F02BD2DE9F0411D46082D2A
S3150000341006468846144630D201214FF48A40FDF70D
S31500003420AFFB44B306F0010104F00100014324D1CF
S31500003430B00708D538F8021B2A463046FFF7C3FF07
S31500003440D8B9B61CA41E042C0DD3A708BF003B4652
S31500003450424631462846FDF783FF790808EB4108C6
S31500003460BE19E41B48B934B1B8F800102A463046F4
S31500003470FFF7A9FF08B9012000E00020BDE8F081B0
S3150000348010B50446FEF71EFD2046BDE8104000219B
S31500003490FEF71BBDFEF71EBD0146FEF726BD2DE954
S315000034A0F843089D099F80460E4691461C46FDF747
S315000034B0D0FD3A4629464046FDF7CEFD08F12400E8
S315000034C00021016006750C22494608F13900FDF716
S315000034D07FFC08F14500210C220A847001704270BD
S315000034E0BDE8F1833EB5029201911C4600F1280524
S315000034F0009500F1380300F124022146FDF7CFFDC7
S3150000350037BDFEE762F30F2262F31F42401810F048
S31500003510030308D0C91A1FD3DB0748BF00F8012DE3
S3150000352028BF20F8022D130030B414461546103972
S3150000353028BF20E93C00FAD8490728BF20E90C003B
S3150000354048BF40F8042D890028BF20F8022D48BF47
S3150000355000F8012D30BC7047C91818BF00F8012DBE
S31500003560CB0728BF00F8012D7047002070470020C8
S315000035707047FEE70300002013F0030F09D0521E28
S3150000358022BF13F8010B11F801CBB0EB0C00F3D0FE
S31500003590704711F0030F14D1121F22BF53F8040B0A
S315000035A051F804CB6045F7D0121D0AD200BA9CFA36
S315000035B08CFCB0EB0C0038BF6FF0000088BF012018
S315000035C07047521E22BF13F8010B11F801CBB0EB66
S315000035D00C00F6D0521C08BF104670470C490D4827
S315000035E008600D48026842F4700202600B484169A7
S315000035F041F4005141610268920892000260416BF9
S31500003600490849004163016A21F08051016270470F
S3150000361008ED00E00008000088ED00E040300E40B4
S315000036204EF68851CEF20001086840F4700008603A
S31500003630BFF34F8FBFF36F8F4FF00070E1EE100AAC
S315000036407047FEE700F00DF8002801D000F028F8DA
S31500003650AFF300800020AFF30080FEF755FD00F0C9
S3150000366033F80120704730B4002513E050F8042BDE
S31500003670D30744BFA9F101039A18091F042942F888
S31500003680045BFAD213468C0744BF15809B1CC907FE
S3150000369048BF1D7050F8041B0029E7D130BC7047A5
S315000036A010B5074979441831064C7C44163404E0B9
S315000036B00A68081D114488470146A142F8D110BD89
S315000036C0500100006C01000000F000B807463846C3
S315000036D000F002F8FBE7000020210903263118203C
S315000036E0ABBEF9E780B5FFF779FFFEF769FDBDE8E8
S315000036F0014000F000B8AFF30080FFF791FFFFF73D
S31500003700A1FF10B5B1F5BC7F044602D240F20520F8
S3150000371010BD4FF4BC71FDF757FD0020607004F535
S31500003720807204F1B80104F12800BDE810400023BE
S31500003730FFF72ABA1CB500910446214604F1280079
S31500003740FFF75EFA00281CBF41F207018842C4F861
S3150000375074010BD1A07838B1E07810B140F20320A3
S3150000376016BD40F2022016BD40F2012016BD2DE91D
S31500003770F04385B004460D460C9E9046994601A836
S315000037801021FDF721FD002737601C214846FDF773
S315000037901BFD01A8009043462A46214604F1280055
S315000037A0FFF72EFA2078810744BF606830602178E1
S315000037B0C80705D51C2204F108014846FDF718FB89
S315000037C02078002814BF002040F2064005B0BDE86E
S315000037D0F0834FF4BC70704730B5016884684218B6
S315000037E0416802EB5103C9070BD54C4409E012F9B5
S315000037F0011B12F8015B002904F8015B05D5491C81
S31500003800F9D19A42F3D10C3030BD491EF1D5F8E713
S3150000381057FEFFFF0C020000100100200000000010
S31500003820B9FFFFFF0C00000024000000800000200C
S3150000383081000C00F07F1030800000203400014031
S31100003840FC00000000000000549F299DC1
S503036594
S70500000000FA
