S0290000626F6F746C6F616465722D73746F726167652D696E7465726E616C2D73696E676C652E73333745
S113000080100020BD2700004F020000210E0000D8
S1130010830200006B0600003F0B0000000000009C
S1130020000000000000000058000000A3180000B9
S1130030C32500008C0000008F2600009F260000CE
S11300404546523332000000010000000100000068
S11300500040080000A0070007B0CD5E01000000CA
S113006003000A01E4270000004000000000100023
S1130070F0000100C50F0000C90F0000A712000026
S11300805725000089250000CC00000013B779FA39
S1130090C925DDB7ADF3CFE0F1B614B80101000016
S11300A000000000E02700004000000003000A01F7
S11300B0000000000000000000000000000000003C
S11300C0000000000000000000000000000100002B
S11300D0251500007B150000A9150000C7150000B8
S11300E00D1600001D270000032700003327000021
S11300F02D16000055160000B1160000490A000034
S1130100530A0000710A0000A70A000080B590B0ED
S113011000F012F8B0F5A02F11B00CBF0B4800206E
S113012000BD80B590B000F007F8B0F5A02F11B075
S11301300CBF0748002000BD0023402269464FF44D
S1130140807000F04DB80348704700004CE30F0086
S11301506CE30F0086E20F00426812B941607047F9
S1130160526850680128FBD151607047826812B907
S113017081607047526850680128FBD15160704714
S1130180C269042A05D200EB8202D160C169491C0C
S1130190C161704710B5C169042909D910BD00EBCC
S11301A08203DC68521C0C60C3699A42F7D310BD09
S11301B04FF098410A6CD302FAD5C269121D92001D
S11301C00A6502680A6043680B6082680A6000225C
S11301D0EAE717480168C902FCD5006970470000C6
S11301E0002B2DE9F84E8BB0074614BF114D124D6C
S11301F00E46144603A8202100F026F80FA02F4332
S113020090E8000E03976F4687E8000E009644F0CE
S113021000540294694603A8FFF7A8FF03A8FFF758
S1130220B9FFFFF7D6FF0CB000F47020BDE8F08EE4
S11302304400004C01000AFF010008FF0000000018
S11302400100000000000000002200F001B8FEE7F9
S113025000B500BF130096469446103928BFA0E8A5
S11302600C50FAD85FEA417C28BF0CC048BF40F864
S1130270042BC90728BF20F8022B48BF00F8012B24
S113028000BDFEE700281CBF2421FFF7DDBF704737
S113029070B505000C46164618BF002C02D16FF04D
S11302A0210070BD2421FFF7CFFF802E1CBFC02E7C
S11302B0B6F5807F02D06FF01F0070BD2E60F2088B
S11302C02146281D00F092F9002070BD2DE9F84761
S11302D00600144691B00F461D4618BF002C00D0EE
S11302E015B96FF0210055E03068802818BFC02888
S11302F005D0B0F5807F18BF6FF01F004AD109A860
S11303002021FFF7A1FF012F0FF2602191E88C005B
S11303100CBFDFF84C02DFF84C020990684680E815
S11303208C00301D009030680FF24C2206A9C008E2
S113033040F00050029092E8884009A881E8884083
S11303400FF24021069491E8000703AC694684E863
S113035000070395FFF700FF06A909A8FFF7FCFEB5
S113036003A909A8FFF702FF316809A800F01EF8E5
S1130370102109A8FFF704FF00F073F950B909A888
S1130380FFF708FF00F009F804F47024002C0CBFF8
S11303900020204612B0BDE8F087DFF8CC010168E8
S11303A0C902FCD5046900F05EB911A8C908FFF7B9
S11303B0E7BE0000002A2DE9F64F99B014BF146877
S11303C000240026002800904FF0000A1FBFDDF82B
S11303D09480B8F1000FDDF89890B9F1000F04D0C3
S11303E01D001CBF249F002F02D16FF0210099E053
S11303F00068019180281CBFC028B0F5807F04D01C
S11304006FF01F008EE000F090F80198824580F0B4
S11304108280002CF7D1A0EB0A005FEA101B5DD0AC
S113042063A611A85AA1202200F0F0F896E80E0065
S113043008A84FEA0B1B80E80E000099081D0890DD
S113044000990BA80A680EA9D20842F000520A9239
S11304505AA292E8484081E848400E955AA191E892
S11304604C000DF1140E80E84C000B9559A090E857
S11304700E0008EB0A008EE80E0005904BF00051C8
S1130480079100BF56A393E8414002AA09EB0A036F
S113049082E8414000F059F80EA900F059F805A986
S11304A000F056F800F04DF80BA900F04BF8009856
S11304B00168FFF77AFF594611A8FFF761FE00F0C3
S11304C0D0F800282ED111A8FFF764FE00F043F8FD
S11304D0066900F0C8F8DA4406F4702616B120E084
S11304E000F023F80198B0EB0A008ED0002CF7D16D
S11304F000983B462A460121FFF7E8FE00204142CE
S11305002944CA7B521CCA73D2B2002AE8D1401CC7
S11305100F28F4D9E4E71A9800B104600EB900205A
S113052000E030461BB0BDE8F08F18F80A10385DC3
S1130530641C04F00F04414009F80A100AF1010A8E
S1130540704702A911A8FFF711BE0293049108A9EC
S113055011A8FFF701BE04480168C902FCD5704721
S113056000010004000101044400004C00000000EC
S11305700100000000000000000000000100000075
S11305801000002000000000010000001000002006
S1130590030300040000000000000000000000004D
S11305A00000000000000000000000000000000047
S11305B00000000001000000000000000000000036
S11305C001000000100000200000000001000000F5
S11305D010000020000000000100000000000000E6
S11305E000000000010000000000000062B38B075F
S11305F008D0521E11F8013B00F8013B00F02480A2
S11306008B07F6D1830740F0208000BF103A07D350
S113061030B4B1E83810103AA0E83810F9D230BC40
S1130620530724BFB1E80810A0E8081044BF51F8EC
S1130630043B40F8043BD20724BF31F8022B20F8D6
S1130640022B44BF0B7803707047083A07D3B1E814
S11306500810083A40F8043B40F804CBF7D253079B
S1130660E4E70020704700207047FEE72DE9F847D3
S113067091B006460D4691461F461A9C0DF1240082
S11306803BA12022FFF7C2FF41A393E807000DF12D
S1130690180A03AB8AE80700CDF818903FA090E849
S11306A0004600BF40A2694683E80046039592E8ED
S11306B0280181E8280100971EB1022E33D021D3EE
S11306C036E00998A10140F40070099009A8FFF7E9
S11306D057FD00F047F840F014000590029840F0F0
S11306E01400029003A909A8FFF736FD06A909A87A
S11306F0FFF732FD694609A8FFF738FDFFF7B1FFA0
S1130700C0B126E00998A10140F44070099009A8FD
S1130710FFF736FD00F026F840F02000059002981F
S113072040F02000DDE70998A10140F48060EDE786
S113073009480EE009A8FFF72DFD08480168C90221
S1130740FCD50469FFF78FFF14F4702F0CBF002051
S1130750034812B0BDE8F08780AFFFFF4400004CAF
S113076080ADFFFF089840EA841408940598704708
S11307700000010300000000000000000000000071
S11307800000000000000000000000000000000065
S11307900000000001000000000000200000000034
S11307A00100000000000020000000000100000023
S11307B0000000202DE9F84F834602281FD81400BA
S11307C055D00B9A9846D2F800C0BCF13F0F18D808
S11307D05068002818BF5FEA080A13D1BBF1000F64
S11307E004D0BBF1020F07D003D308E00FF2B01A14
S11307F008E00FF2CC1A05E00FF2E41A02E04B48CD
S113080036E0C2460CF03F06A444C6F14005C2F8E7
S113081000C0A44502D25068401C506089460A9F1B
S11308208EB1AC420FD32A46B819FFF7DFFE012080
S1130830009043463A4651465846FFF717FFC246D2
S1130840A944641B00263F2C0BD9A50900954346F7
S11308504A4651465846FFF709FF09EB8519A4EBB0
S1130860851424B122464946B819FFF7BFFE00207B
S1130870BDE8F28F2DE9F843044686B08846164653
S11308801F46200003D0022C30D02DD330E0142595
S1130890002100200DF1080C57F82030424292004C
S11308A0D21D01EBC3010CF8021002A9114457F840
S11308B02020C91E52098A7057F82020520B4A7012
S11308C057F82020520D0A7057F82010401C490F89
S11308D00128E1D93A7802F03F02382A34BFC2F144
S11308E03802C2F1780205E01C25D1E72025CFE7C4
S11308F00E4817E0DDF83890019700964FEA080398
S11309003FA12046FFF756FF019700964346082271
S113091002A92046FFF74EFF2A4641464846FFF704
S113092065FE002007B0BDE8F083000080AFFFFF44
S113093000281CBF6C21FFF787BC704700220029E8
S113094002604260CCBF0121002180F868100020C1
S113095070473EB590F86830019000F12805002BEF
S113096000F10803009514BF012402242046FFF778
S113097021FF3EBD80B5034693F86800009103F162
S11309802802002803F1080114BF0120022003E01B
S1130990D4E70000DDE7EDE7FFF76CFF02BD0000E0
S11309A067452301EFCDAB8998BADCFE103254764B
S11309B0C3D2E1F0000000000000000000000000CD
S11309C0C1059ED8367CD5073070DD17F70E59392E
S11309D0FFC00B316858151164F98FA7BEFA4FA4F4
S11309E06A09E667BB67AE853C6EF372A54FF53ABC
S11309F0510E527F9B05688C1F83D9AB5BE0CD19E8
S1130A008000000000000000000000000000000062
S1130A1000000000000000000000000000000000D2
S1130A2000000000000000000000000000000000C2
S1130A3000000000000000000000000000000000B2
S1130A402CA07047002070472748006800F0010080
S1130A50704710B50B461118244CA14205D201462B
S1130A601846FFF7C3FD002010BD40F2024010BD40
S1130A7038B513181D4D40F20244AB420BD200238B
S1130A8000E01B1D934208D21D5815F1010FF8D048
S1130A9040F2034032BD204632BD00F041F8002848
S1130AA0F9D0002032BD70B505460C46E00401D1F2
S1130AB0E90402D040F2044070BD60190B4940F2D1
S1130AC00246884203D300E008B9304670BD284688
S1130AD000F01EF805F50055B4F50054F4D10028D3
S1130AE0F3D0002070BD00001C0003400100100082
S1130AF000207047010203002800000028000000C5
S1130B00002000000000100040000000040000006D
S1130B1080B500F05EF8FFE7401E8041C00F02BDC3
S1130B2010F0030F80B508BF12F0030F01D00020AE
S1130B3002BD0AB9012002BD00F06BF8ECE7FEE744
S1130B4010B5DFF82C21DFF82C41DFF82C311B68BD
S1130B50234207D103408B420ED0521EF5D16FF0D1
S1130B60020010BDDFF81401034202D06FF001004F
S1130B7010BD4FF0FF3010BD002010BD70B5DFF880
S1130B8000516860E8680E46410702D54FF0FF3017
S1130B9070BD56F8040B141F02E056F8040B241F12
S1130BA0A86044B108210820FFF7CAFF0100F4D06F
S1130BB00421296070BD0420286000212120FFF752
S1130BC0BFFF010004D100212120BDE87040B7E738
S1130BD070BD70B541F67131294C01222A4BE5688C
S1130BE0E1621A60606002262660002121202D0C3B
S1130BF0FFF7A6FF05F00105010003D10021212024
S1130C00FFF79EFF01211F4A11600DB10021E1622F
S1130C1070BD2DE9F843184F3D688946144641F6E6
S1130C20713180462D0C39620122174B002005F0EA
S1130C3001051A6009E0324649464046FFF79EFF27
S1130C4001000DD1B044B144A41B4CB108F50056C9
S1130C50760B7603A6EB0806B442ECD22646EAE706
S1130C600121084A11600DB100213962BDE8F28307
S1130C7080969800060001001C0003400200010059
S1130C80100003400C2003400C1003400549096880
S1130C908A0902F03F0201F03F0382704370090B9E
S1130CA00170704714C007402DE9F04F5FEA000857
S1130CB00E4697B017461D4618BF002E00D017B930
S1130CC040F201605DE0209C002D0FA833A116BF07
S1130CD0002CDFF8B490DFF8B4902022FFF796FCE4
S1130CE049460FA8FFF74CFA20210FA8FFF748FA4E
S1130CF032A292E808500CA9002D81E808500C9506
S1130D0031A191E8010C0DF1240918BF002C89E8E8
S1130D10010C099405D00CA900F03CF809A900F0D5
S1130D2039F800BF2BA191E81C0006A806A980E8A9
S1130D301C00CDF8188000F02DF800BF28A191E820
S1130D401C0003A86D4680E81C00039627A696E8BD
S1130D50004303A90FA885E800430097FFF7FCF9B7
S1130D60694600F017F80FA8FFF714FA084801685D
S1130D70C902FCD5006910F4702F0CBF002040F2AA
S1130D80046017B0BDE8F08F1F24FC841F2400808A
S1130D904400004C0FA8FFF7DFB900000000010673
S1130DA0000000000000000000000000000000003F
S1130DB0000000000000000000000000000000002F
S1130DC001000000200000200000000001000000DD
S1130DD0200000200000000001000000200000208E
S1130DE000000000010000002000002000000000BE
S1130DF0010000002000002030B5084B01241C60D5
S1130E0000255D60DA609C6002E010F8014BDC6153
S1130E100A46511E002AF8D1186A30BD04800840E1
S1130E204FF4017000F0A0B880B56846FFF72EFFBC
S1130E304148816ACA0311D441686FF3162141F411
S1130E40B81141F405414160016821F4704141F455
S1130E5040410160026842F4E06202609DF80100D2
S1130E60012804BF9DF80000002807D14FF000516D
S1130E7006200A6801F58041401EFAD12F48016816
S1130E8041F00301016000F09DF800F068F800F003
S1130E909DF848B940F2012000F066F84FF4017063
S1130EA000F062F8002002BD254901E00099491EC6
S1130EB0009100990129F9DA40F205429042EDD1FE
S1130EC040F20320ECE700001E4838B50168012415
S1130ED001254A060CD500F061F840F20221401ABF
S1130EE004D0C01E02D0C01E012801D80024002551
S1130EF044F20400016811F1010F06D14FF40270AD
S1130F00BDE8324000F024B831BD2DB14FF480402B
S1130F1000F0C9F90400F1D0002CF5D04FF4804062
S1130F200949086002461046016881F3088881F384
S1130F30098840688746FEE730C000408080004052
S1130F4000350C009440004008ED00E0002070479C
S1130F504FF0005108804FF20F00488070474CF268
S1130F603C300B49088070474FF0005108804FF225
S1130F700F004880BFF34F8F06490A68064802F401
S1130F80E06202430A60BFF34F8F00BFFDE7000039
S1130F90020000200CED00E00400FA054FF00051BF
S1130FA048884FF20F02904201D108887047002808
S1130FB004BF0888012802D140F2022070474FF490
S1130FC000707047FFF73EBDFFF792BD18B5ADF551
S1130FD0037D4FF403726946002000F027FB0021D3
S1130FE0684600F037FB40F201218842F7D040F216
S1130FF0032240F2054490423AD19DF8000000F0EB
S1131000030002281EBF9DF8000000F0050004281C
S11310102ED09DF8000041070CD50A9800F0BAF9CB
S113102040B17F9800F0AAFB20B100F026FC00F04C
S1131030E1F9E8B19DF8000081070FD52820026886
S1131040019993688B4209D27F9800F0A9FB78B18B
S113105000F013FC099900F065F909E09DF800001F
S1131060C10705D503997F9800F0C0FB00B10024A7
S113107020460DF5047D10BDF8B50446600B0D4601
S11310801646B4EB403004BF2046FFF741FD04F59B
S113109000577F0B7F0304E03846FFF739FD07F55F
S11310A0005730198742F7D3324629462046BDE817
S11310B0F840FFF735BD38B504460D4600F00FF88B
S11310C050B16069012805D1207C022802D2A069B0
S11310D0286002E0002032BD2C60012032BD7FB5C3
S11310E0044668460FF280311022FFF78FFA002081
S11310F046420DEB0605E97B225C914205D1401C7A
S11311001028F5D3012004B070BD0020FBE72DE9C1
S1131110F84FB8B005466E6B00F0ACFB8046304625
S1131120FFF7DDFF002809D0307C022858D234278D
S1131130D7F800904846FFF7D2FF00287CD043F64A
S1131140C17AD1454CD24FF0000B002400F08AFB49
S113115080B33069010633D0000A1CBFB06B00288D
S11311602ED03F6804464FF0010B3846FFF7B7FF17
S1131170002835D0574533D2B96B606C4A6C904225
S11311802ED302A800F07EFB4822214602A800F0DC
S113119083FB02A800F082FBB86B04F1680200F143
S11311A024010091031D04F1480102A8FFF77CFD0E
S11311B0B0B95C4601A93046FFF77DFF28B93BE092
S11311C000F052FB0028F4D00AE00198D8F810107F
S11311D0884228BFA84203D301469B48814201D3D9
S11311E0002029E01DA800F04DFB019A29461DA806
S11311F0521B00F051FB1DA800F050FB019D00F0B4
S113120031FB203548B10CB1B06B01E0D9F838009E
S113121000F124010091031D06E0FEF782FF04465D
S1131220FEF774FF0346009401992A461DA8FFF7B0
S11312303BFD401E8041C00F39B0BDE8F08F70B552
S113124004460D46164600F015FB01698C4222BF88
S113125040693219904205D3324629462046BDE8FA
S1131260704009E770BD2DE9F041044688461646F2
S113127000F000FB074600F000FB251870197249C6
S113128088420ED23CB900F0F8FA796988423CBF32
S11312903869FFF73DFC324641462846BDE8F04137
S11312A0EAE6BDE8F081F8B5044625686768666B30
S11312B000F0E0FA05F1604564498D4229D20069E5
S11312C0874226D360498F4223D24030864201D3DD
S11312D08E4205D3FFF73AFE401E8041C00FF2BD97
S11312E0FFF734FEB8B93046FFF7F9FEB8B1307CE9
S11312F002280ED2706990B102280CD1B0694FF067
S1131300FF32001D011B2046FFF776FD504988423D
S113131005D00020F2BD2046BDE8F240F7E60120EA
S1131320F2BD000070B590B004460D464FF0FF3298
S1131330FFF762FD464B984213D168464EA100F078
S113134055F800F08DF8294600F08BF86846FEF752
S113135021FF404E3068C002FCD5306910F4702F74
S113136002D0002010B070BD40F20220FFF7F0FD63
S11313700DF1200048A100F039F800F06DF829467D
S113138000F06BF808A8FEF705FF3068C002FCD532
S11313903169E6E72DE9F8438CB004464FF0FF3598
S11313A0009504A844A100F021F800BF4AA696E8DD
S11313B0800301AD01A985E88003CDF804D004A819
S11313C0FEF7D4FE04A8FEF7E5FE22480168C90230
S11313D0FCD5006910F4702F18BF002003D10098C9
S11313E0A0428041C00F0DB0BDE8F0832022FFF77A
S11313F00DB9000038B590B00446684639A1FFF72E
S1131400F5FF00F02DF86846FEF7C4FE114D28687C
S1131410C002FCD5286910F4702F11D140F20220CB
S1131420FFF796FD0DF1200036A1FFF7DFFF00F076
S113143013F808A8FEF7AEFE2868C002FCD5296997
S1131440002011B030BD0000010010000180010037
S1131450E320BBDE4400004C214608A8FEF790BE02
S113146021466846FEF78CBEB814B6F1E0CFF3AD62
S1131470B7DD25C9FA79B713010005430000000060
S11314800000000000000000000000000000000058
S113149000000000000000000100064300000000FE
S11314A00000000000000000000000000000000038
S11314B000000000000000000000084300000000DD
S11314C00000000000000000000000000000000018
S11314D00000000000000000000000000100000007
S11314E0040000200000024300000000000000008F
S11314F000000000000000000000000000000000E8
S11315000000000000000343000000000000000091
S113151000000000000000000000000000000000C7
S11315200000000010B504000CD04FF4803020609F
S1131530002161603C48027822724068E060FFF755
S11315407FFA206110BD78B504460D4604F5FE7699
S1131550A1B0B1683068802301AA00F025F8009595
S1131560802301AA214604F12C0000F015FBF06051
S1131570B0688030B06022B070BD024640F20140D5
S1131580002900D1704710B5274B5C68A24203D3F1
S113159000220A604A6010BD03EBC20082680A6040
S11315A0C0684860002010BD38B500F021F800D3B1
S11315B026E000F017F800D225E09B68C018BDE8CB
S11315C03840FFF746BA38B500F012F800D317E0F8
S11315D000F008F800D216E09B68C018BDE8384057
S11315E0FFF746BA03EBC403DC681518AC42704736
S11315F00446084611461A460B4B5D68AC427047D8
S113160040F2014032BD40F2024032BD06494A6810
S1131610904202D340F20140704701EBC000C16820
S11316208068FFF740BA0000480000003EB5044659
S11316300D461146284600F08EFF50B969462046F3
S1131640FFF79BFF28B905F5FE700460019941601E
S113165000203EBD38B584B004460D4668461021CE
S1131660FEF7F2FD029504F50075A86888B968686C
S1131670296888420DD269462046FFF764FFA868AE
S113168000281CBF41F2070188420BD140F201201F
S113169008E0A07800281DBFE078002840F203206D
S11316A040F2022005B030BD0120187070470000E0
S11316B0F0B585B004460D46164600278DF8007037
S11316C00DF1040055A100F08BF8CDF804D037607B
S11316D01C212846FEF7B8FD04F500779DF80000AC
S11316E080B994F8720014280CD0B86850B978689E
S11316F03968884206D201A92046FFF724FFEDE7A6
S113170005B0F0BD2078810744BF6068306021785F
S1131710C80705D51C2204F108012846FEF776FF08
S11317209DF80010002905BF20780028002040F211
S11317300640E5E770B504460D46202304F5C8725B
S113174004F5A47104F12C0000F0E3F904F500762B
S1131750B06850B970683168884206D2294620467C
S1131760FFF7F1FEF4E7002070BDA07800281CBF4D
S1131770E0780028F7D0012070BD000000B5ADF579
S1131780077D00F047F808B1002008E004208DF838
S11317901100684625A100F023F800F024F836E093
S11317A030B5ADF5077D04460D4600F063F880685A
S11317B0A84206D24FF4037204A92046FFF736FF6D
S11317C008B1002009E002208DF811004FEA0D0055
S11317D01AA100F005F800F006F80DF5077D30BDFC
S11317E01022FEF713BF694604A8A3E700B5ADF5C0
S11317F0077D00F00FF808B1002008E001208DF803
S11318001100684611A1FFF7EBFFFFF7ECFF0DF5A0
S1131810077D00BD4FF4037204A907E70000000030
S1131820A9160000A9160000A91600000000000077
S1131830000000000000000067120000000000002B
S1131840000000000000000067120000000000001B
S11318503F1200000000000000000000002070475C
S1131860002070470020704700207047282001683E
S1131870086970472820006870474FF4004070479B
S11318800120704710B50446FFF752F820460021A6
S1131890BDE81040FFF77CB8FFF77CB80146FFF7BE
S11318A07AB8FEE72DE9F8431E467368002B4ED044
S11318B00C4614F0030118BF41F2020048D115464A
S11318C00746FFF7D3FF396E001D6A18824221D301
S11318D000F1180399421DD28C46844505EB01089A
S11318E000F1180238BF84469045ACEB0101ACEB23
S11318F0000088BF904604EB0109A8EB0C083844AB
S1131900424649466830FEF771FEFF22414648468A
S113191000F058FEFFF7B1FF396E001D884222BF68
S11319206A18031D9A4209D3411A6018026807F124
S113193080010A60FF22042100F044FE214633683E
S1131940386E74682A46A047386E2D183D6600200C
S1131950BDE8F28370B54B688C689C4206D200F1F6
S113196040021B1B14781B19412B01D3002070BDAE
S11319700D6853781478E4188B6804F03F04EE5C27
S113198006558C68641C8C6013785B1C13708C681F
S11319904B689C42ECD3012070BD90F840004A682B
S11319A089681018401A70472DE9F0410C46174613
S11319B01D468046FFF7F1FF08F14006A84206D213
S11319C021464046FFF7C6FF10B300204DE000213A
S11319D00CE0707818F800207A5473783078491C39
S11319E05B1C03F03F03421E73703270307808B101
S11319F0A942EED3A0686268904238BFA9420CD2D3
S1131A002368185C7854A268491C521CA260F1E750
S1131A101520B07141F2020027E0A942F8D1B26C5E
S1131A20069C29463846FFF7E7F9B06424B1F0680C
S1131A302A463946FFF730FF079838B1F07878B175
S1131A40B0682B463A46394600F012FEF07838B1B9
S1131A50B169F06928188842F06124BF0020F07051
S1131A6070692D18756141F20300BDE8F081F8B585
S1131A7084B014460026054601960096082302AA5F
S1131A80FFF792FF41F20306B0423BD195F84300C1
S1131A9005F1480738B100F037F83868082302AA7E
S1131AA002A900F0E5FD9DF80A209DF80B009DF8C1
S1131AB00910120442EA00629DF8080042EA012279
S1131AC0024322609DF80E009DF80F1000F021FDE6
S1131AD09DF80D1040EA01209DF80C100843606049
S1131AE095F8430048B9DFF8A8198A421CBFDFF80B
S1131AF0A409824201D000F007F860680021F9606F
S1131B00B860304605B0F0BD7868082202A9FFF736
S1131B10C3BEF8B5064606F1400700200D46B8716D
S1131B207870F870387100214FF0FF301446397026
S1131B30797103F02003B86439627962BB70FF22C3
S1131B40182106F1680000F03DFDFF22042106F192
S1131B50800000F037FDFF22042106F1840000F02C
S1131B6031FDBD60FC60882106F1900000F090FD1D
S1131B70002086F81801FFF773FE00B11DB1FFF7CE
S1131B806DFE18B114B941F20B00F2BD14B1F8683E
S1131B90FFF778FE0020F2BD2DE9FC4FB5B00546F5
S1131BA00E4605A800210023002480E81A000592AF
S1131BB0369A08910692486B0990014643F6C17023
S1131BC08142C0F0068441F2010000E0002037B0F9
S1131BD0BDE8F08F012089F8010089F8040005F1BF
S1131BE0420999F8040005F1840405F14808152810
S1131BF071D8DFE810F0DD031700F600F803A40144
S1131C0011024501FB031102000211024C011102F1
S1131C1000020F0432044A0316004F032404020492
S1131C203204D7E700F066FCB842D0D199F802003C
S1131C3030B10398DFF85C18884257D10E22C6E30E
S1131C4099F80000C1075DD599F80100002859D121
S1131C500398DFF8441888421CBFDFF84018884214
S1131C602AD0DFF83C1888423BD0DFF83818884285
S1131C701FBFDFF834188842DFF8301888421BD0C1
S1131C80DFF82C18884227D0DFF80418884200F0C7
S1131C907F80DFF82018884213D0DFF81C188842B0
S1131CA00DD0DFF8F01788421DD0DFF810188842F5
S1131CB01CBFDFF80C18884200F095831AE010224C
S1131CC085E3112089F80400D8F808100020C8F82A
S1131CD01400C8F810107CE300F008FC41F208007E
S1131CE075E7122061E3FFF7B9FD002840F07B831C
S1131CF00E205AE300F0FAFB03A800F0CCFC002805
S1131D00ECD060E70398DFF89417884220D0DFF81E
S1131D109017884232D0DFF88C1788421CD0DFF845
S1131D208817884216D0DFF88417884216D0DFF867
S1131D306017884228D0DFF85C17884214D0DFF897
S1131D407C1788420ED0DFF87817884208D021E04B
S1131D500B223CE3042028E306214BE3072024E381
S1131D60092147E30D2020E3FFF778FD002804BF95
S1131D7099F801000028B9D10E213BE399F801003C
S1131D800028B3D1122135E399F801000028ADD120
S1131D9013212FE303A800F07EFCC8B1039814219B
S1131DA0C8F8440089F80410039800F076FC089001
S1131DB099F8000081068ED5089800281CBF416858
S1131DC0002988D028468847002800F00283FAE6D4
S1131DD099F8010000F08AFB002891D041F2040038
S1131DE0F5E6D8F80C00082880F0DE8200210120F6
S1131DF00191009000F095FBB84209D19AF80300D4
S1131E000006B0F1407F04D000F087FB41F20900E6
S1131E10DDE69AF805009AF8041041EA00210291DF
S1131E20C90706D599F8000040F0010089F80000C0
S1131E3002E0FFF715FD30B9FFF710FD0028D0D000
S1131E400298C105CDD400F068FB41F20A00BEE659
S1131E5001200190009000F057FBB842F7D11C22FA
S1131E600AA906F10800FEF7D1FB307840F0010022
S1131E70307006F10800FFF703FD002800F03B82F4
S1131E80D8F80830D8F80C009842E1D3E8E2D8F842
S1131E900C00082856D201210191009108230CAAB4
S1131EA000F033FBB842D2D1307840F004003070F7
S1131EB09AF80E009AF80F109AF80C2000F029FBFB
S1131EC09AF80D1040EA01201043B062707841077F
S1131ED031D5EB208DF8280017218AF80110A620AF
S1131EE08AF802005E218AF8031005F150000168A7
S1131EF021600021C8F81C1099F8030040F002008A
S1131F0089F803004098D0F80CC0BCF1000F12D03F
S1131F10036804220AA90020E0474098DDF800C1C4
S1131F20082200F0DDFA0CA90830D847D8F81C00C4
S1131F301030C8F81C000C2089F80400A7E7D8F872
S1131F400C00082880F0458201210191009100F0E5
S1131F50E8FAB84237D1307840F0020030709AF88D
S1131F6002009AF803109DF8282000F0D2FA9AF89B
S1131F70011040EA012010437060D8F808000838C6
S1131F8070629AF806009AF807109AF8042000F094
S1131F90C0FA9AF8051040EA0120104340F0238269
S1131FA099F80310052089F8040041F0010189F82B
S1131FB003100020C8F81C00C1E701210191009121
S1131FC000F0A1FAB8427FF402AE9AF802109AF82F
S1131FD003009DF82820090441EA00619AF80100F1
S1131FE041EA002111430291D8F80800042884BF73
S1131FF00298C8F81800D8F80C000428DDD30A2188
S1132000F8E10368D8F81C0052460AA9E047D8F85A
S11320101C005044C8F81C00D8F80800D8F80C106C
S1132020814280F01D82A0EB010ABAF1040F05A9D8
S1132030284608D3FFF7B1FC042808D205A928468E
S1132040FFF788FCC2E5FFF7A8FC5045F6D3BAF1C8
S1132050410F05A9284628BF4FF0400AFFF79DFC11
S1132060504502D200F04BFA8246BAF1040F0AAA94
S113207005A924BF4FEA9A004FEA800A0120019083
S11320800090534600F042FAB8426DD199F804002A
S1132090082805D14098D0F808C0BCF1000FB0D191
S11320A0CAF1040BBAF1040F06D20AA8FF2259465A
S11320B0504400F087FADA4499F804100A2906D14A
S11320C0409B52460AA92846FFF7ECFBA4E70529E2
S11320D017D17078820714D5409BD86888B1D8F896
S11320E01C00042816D80AEB0001072912D30AA9F8
S11320F0091D081A0168FF222160042100F062FA18
S113210008E00C2988D17078410785D5409AD068B9
S11321100028DBD04098DDF800C1524600F0E0F919
S11321200AA9D84773E74FF0010B00F0E8F95845C6
S113213084D3D8F80800D8F80C10A0EB010BBBF13D
S1132140410F05A9284628BF4FF0400BFFF725FC97
S1132150834502D300F0D3F9834601200190009017
S11321605B4600F0D1F9B8427FF431AD99F8000034
S113217081060ED5002C1CBFD4F808C0BCF1000F9A
S11321803FF421AD53465A460AA92846E0470028A1
S1132190EAD1D8F80C00D8F80810884280F064819D
S11321A099F800008106BED5002C1CBF21690029C6
S11321B0B9D0284688478346B7E7FFF74FFB10B9E5
S11321C00120F07002E0F078002843D099F8030071
S11321D010F0030F1CBFDBF80C70002F05D0DBF8E8
S11321E00030042221460420B847D8F818100029EA
S11321F01CBFDBF8040000282CD04FF0FF31029103
S113220005F180040422214602A800F049FA38B1FD
S1132210FFF733FB20B1214600F05CF9001DA04715
S1132220042205F1680102A800F03AFA90B1FFF720
S11322301DFBDBF80030DBF80440142205F16C01CF
S11322400830A047FFF712FB00F044F905F16801DC
S1132250001DA0470120B0700F2189F80410B5E4D7
S11322600020012101900091102300F04DF9B842A3
S113227045D1FDF768FF009080210191D8F8000056
S113228001230BAA022100F0D0F9D8F80C00102881
S1132290E6D3E5E095F8180100287FF4A0ACD8F85F
S11322A00C0005F19004042807D200F04AF9B84262
S11322B025D10AA8016821608BE044280AD200F0E5
S11322C036F9B8421BD140220AA905F19400FEF761
S11322D08DF97EE0482813D200F033F9B8420ED1CC
S11322E00AA8026805F1D4010A600998806B10B14C
S11322F0406C82426DD200F0F9F841F20C0066E4C1
S113230000F015F9B842FAD105F1D80740220AA91C
S11323103846FEF76BF91AA8FFF7B4FA48222146AB
S11323201AA8FFF7B9FA1AA8FFF7B8FA099805F13D
S1132330F80200F0C9F839461AA8FEF7B5FC18B936
S1132340012085F8180130E000F0E7F841F20600BA
S11323503DE4D8F80400FFF7A1FA95F8180128B174
S113236005F1B401009105F194030DE0FFF77AFA49
S113237018B1099800F0A8F806E0FDF7D2FE04466B
S1132380FDF7C4FE00940346D8F8040012AA0AA973
S1132390FEF78AFC20B10020F07000F0A7F8D5E722
S11323A00120F07089F80200012089F8040010E08F
S11323B000F0A0F8B842CBD104980021C8F80C1062
S11323C0C8F808000398344988420CD1022289F8DD
S11323D004200798369941F203070DF1280A884230
S11323E0FFF4FDAB3BE700F098F8F0E40020C8F8F8
S11323F01C00082189F80410EBE799F80000DDF8C7
S113240000A181062ED5D8F8440000F046F90890C2
S113241040BBDCE4002001900090DDF800B100F046
S113242072F8B84294D1D8F84000264988423FF463
S1132430C4AE152289F8042041F2050088E799F812
S113244002000028B0D1002101910090402300F047
S11324505BF8B8423FF47DAF7AE741F2070077E7D3
S11324600121C7E7089C94E6CDF800A1089499F8E7
S113247000108A0698D5002C1CBFE268002A93D06D
S113248040992846904700287FF4A1AB8CE70000D0
S1132490F70A0AF7FC0404FCEB17A603EB17A65E85
S11324A0F30B0BF3F40A0AF4F50909F5F60808F638
S11324B0F70909F7F90707F9FA0606FAFD0303FD18
S11324C0FE0101FEE320BBDE806B00F124010091DC
S11324D0031D7047DBF80030DBF80440042270472A
S11324E00368D8F81C00DCF80CB07047152189F893
S11324F00410704703AA05A92846FFF7B8BA05A92E
S11325002846FFF74ABA04230AAA05A92846FFF772
S11325104BBA000440EA01607047152089F80400B2
S1132520704708230AAA05A92846FFF73DBA0020E8
S113253001210190009140230AAA05A92846FFF72A
S113254033BA002001210190009104230AAA05A9AD
S11325502846FFF729BA10B50446B1F5037F02D225
S113256040F2052010BD4FF40371FDF76DFE00200D
S1132570607004F5C87204F5A47104F12C00002302
S1132580BDE81040FFF7C5BA1CB5044600912146CA
S113259004F12C00FFF700FB0028C4F808021CBF5C
S11325A041F2070188420BD1A07838B1E07810B12C
S11325B040F2032016BD40F2022016BD40F2012075
S11325C016BDFEE762F30F2262F31F42401810F0BB
S11325D0030308D0C91A1FD3DB0748BF00F8012D35
S11325E028BF20F8022D130030B4144615461039C4
S11325F028BF20E93C00FAD8490728BF20E90C008D
S113260048BF40F8042D890028BF20F8022D48BF98
S113261000F8012D30BC7047C91818BF00F8012D0F
S1132620CB0728BF00F8012D70472DE9F8438046F9
S11326300E4691461C46089D099FFDF723FE294638
S11326403A464046FDF724FE08F1240000210160CB
S113265006750C22494608F13900FDF7C7FF08F159
S11326604500210C220A017042708470BDE8F18398
S11326703EB51C460292019100F12805009500F137
S1132680380300F124022146FDF794FE37BDFEE72E
S11326900022FFF79BBF0020704700207047FEE731
S11326A00300002013F0030F09D0521E22BF13F8B9
S11326B0010B11F801CBB0EB0C00F3D07047121FE3
S11326C022BF53F8040B51F804CB6045F7D0121D18
S11326D00AD200BA9CFA8CFCB0EB0C0038BF6FF045
S11326E0000088BF01207047521E22BF13F8010B5F
S11326F011F801CBB0EB0C00F6D0521C08BF104609
S113270070470022026001224FF0FF3302E040F8DC
S11327102230521C8A42FAD30020704700680028F5
S113272018BF10F1010F02D040F20450704700208E
S1132730704740F202507047044805490860054854
S1132740026842F47002026070470000000000005A
S113275008ED00E088ED00E04EF68851CEF200016D
S1132760086840F470000860BFF34F8FBFF36F8FA9
S11327704FF00070E1EE100A7047000000F00DF811
S1132780002801D0AFF30080AFF300800020AFF346
S11327900080FEF749FB00F002F80120704700F0CA
S11327A001B800000746384600F002F8FBE70000D5
S11327B02021090326311820ABBEF9E780B5FFF7C5
S11327C0BBFFFEF781FBBDE8014000F000B8AFF3AA
S11327D00080FFF7C1FFFFF7D1FF000000000000F9
S90327CF06
