S03D0000626F6F746C6F616465722D756172742D62676170695F6D676D31337330326635313267615F62726434333035642D636F6D62696E65642E7333379F
S3150FE100000A4880F308880A4800470000000000000C
S3150FE1001000000000000000000000000000000000EA
S3150FE100200000000000000000A405E10F900400208D
S3150FE100308D05E10F10B55F495F4A01E069B1491ED0
S3150FE100401369DC07FAD441B15060012010601169E0
S3150FE10050480705D54FF0FF3010BD6FF0020010BD18
S3150FE10060002010BD03460020002900D1704770B56E
S3150FE10070514C53F8042BE26008252560491E4D4A81
S3150FE1008001E04AB1521E2569EE07FAD422B122697F
S3150FE10090950702D419B1ECE784E06FF0010070BD6A
S3150FE100A02DE9F047424EB36B804600209FB207B170
S3150FE100B0012741F67133B3638A463C4B1C681B68D3
S3150FE100C0356845F0010535600024950812E0C9F35E
S3150FE100D00A09C9F500694FEA9909281B484538BF4E
S3150FE100E0814649465046FFF7BDFF010010D14C440A
S3150FE100F00AEB890AAC420BD208EB84094846FFF7B3
S3150FE1010099FF0100E3D0316849084900316003E006
S3150FE101103268520852003260FFB20FB10021B1636B
S3150FE10120BDE8F08770B5224B22490246986B80B243
S3150FE1013000B1012041F671349C631C4C256824689B
S3150FE101401E6846F001061E609A6001225A605C69DC
S3150FE10150620704D500F01EF84FF0FF3070BD0222A2
S3150FE101605A6000E0491E5A69D40701D50029F9D131
S3150FE101705A69940704D500F00DF86FF0010070BDD0
S3150FE101800029196802D100F006F80BE000F003F838
S3150FE10190002070BD196849084900196008B10020AF
S3150FE101A0986370476FF0020070BD79E704300E4037
S3150FE101B008000E40809698000C000E40F8B53148C5
S3150FE101C001680869CD68846AAC4225D305F56051AB
S3150FE101D08C4221D2641B04192B4E2168B1421BD1EB
S3150FE101E0E1682A4F4FF0FF3200F056F8B84213D1CB
S3150FE101F000F040F80ED20268B2420BD18168A268D4
S3150FE10200914207D3C1684FF0FF32284600F044F818
S3150FE10210B84201D00120F2BD0020F2BDF8B5194870
S3150FE1022000680569C468AE6A361BAE19274604E055
S3150FE10230384600F063F807F50067F2681019874250
S3150FE10240F6D32946204600F060F890B100F012F897
S3150FE102500CD202680C498A4208D1C1684FF0FF32CD
S3150FE10260204600F019F80949884201D00020F2BD75
S3150FE102700120F2BD0648074900680918B1F5605F2C
S3150FE10280704700002800E10F07B0CD5EE320BBDE2B
S3150FE102902808E10F00F81EF030B50A4B1C6844F050
S3150FE102A040041C600125084B1D609A605D6002E009
S3150FE102B010F8014B9C610A46511E002AF8D1D86904
S3150FE102C030BD00BFB0400E4000C0014080B583088D
S3150FE102D0800700F006F8042269469800FFF765FFEC
S3150FE102E002BD05D54FF6FF7242EA01420092704711
S3150FE102F041F07F4141F47F010091704780B5FFF7EF
S3150FE1030011FF401E8041C00F02BDF8B5140005462E
S3150FE103100E4624D005F0010104F00100014320D17E
S3150FE10320AA0707D536F8021B2846FFF7CFFFC0B954
S3150FE10330AD1CA41E042C0CD3A708BF003A463146C8
S3150FE103402846FFF732FF790806EB41067D19E41BD4
S3150FE1035038B924B131882846FFF7B8FF08B901202B
S3150FE10360F2BD0020F2BD30B40EE0026843680244EC
S3150FE103700830DC0744BFA9F10104E31852F8045B26
S3150FE1038043F8045B091FF9D150F8041B0029ECD19E
S3150FE1039030BC70474FF000514AF6C03308804FF634
S3150FE103A0F0704A8802409A421CBF4FF20F024A8010
S3150FE103B0704780B5FFF7EEFF0948016821F4E06168
S3150FE103C041F400710160BFF34F8F064906480A6891
S3150FE103D002F4E06202430A60BFF34F8F00BFFDE70D
S3150FE103E000500E400CED00E00400FA0510B54FF099
S3150FE103F000524FF6F071508801EA00034AF6C03415
S3150FE10400A3421CBF4FF20F03984201D1108810BDD2
S3150FE10410002804BF1088012802D140F2022010BD46
S3150FE104204FF4007010BD000080B51B481B4A0168F0
S3150FE104301B4811604023C36001684A03FCD4FFF7F0
S3150FE10440EDFE0028FBD040F20220FFF7B2FF0020BD
S3150FE1045002BD000010B5134C13482060FFF7C6FF2D
S3150FE1046012490A68B2F5803F0AD040F20921884263
S3150FE1047018BFB0F5007F03D1FFF7A0FE00B110BDA5
S3150FE104800B4A22601046016881F3088881F30988D7
S3150FE1049040688746FEE70000880000208C000020B8
S3150FE104A004300E4008ED00E00000E10F04500E406D
S3150FE104B00008E10F10B5074979441831064C7C4421
S3150FE104C0163404E00A68081D114488470146A14223
S3150FE104D0F8D110BD2C0000003C0000004EF688510B
S3150FE104E0CEF20001086840F470000860BFF34F8F49
S3150FE104F0BFF36F8F4FF00070E1EE100A7047000007
S3150FE1050067FEFFFF10000000B00000008000002032
S3150FE10510000000000449054808600548026842F4F6
S3150FE10520700202607047000008ED00E02C00E10F59
S3150FE1053088ED00E00120C046002801D0FFF7BAFFA1
S3150FE10540AFF300800020AFF30080FFF76DFF00F0FF
S3150FE1055000F800F001B800000746384600F002F84F
S3150FE10560FBE700002021090326311820ABBEF9E78E
S3150FE105700548014603B4684680F30988AFF3008066
S3150FE10580FFF7ACFFFFF7D6FFA5EDF5FE0248804773
S3150FE1059002488047024800471505E10F5504E10F70
S3150FE105A07105E10FAD1007B00100000000000C016D
S3150FE105B00008E10F0080000000F049020080000012
S30D0FE105C0C0EA2101C0EA2101A5
S3150FE1080020130020B139E10FF713E10F6D25E10F49
S3150FE10810C316E10F6F17E10F0718E10F0000000094
S3150FE1082000000000000000004C09E10F8727E10FEF
S3150FE10830B337E10F8C09E10FD337E10F0F39E10F31
S3150FE10840F00F10031C0001401001002013000000FF
S3150FE108500900000000010000020200001300000081
S3150FE10860F00F10031C0001401002002013000000DE
S3150FE10870090000000002000001010000D3FFFFFFA5
S3150FE1088080000000000000000000000000000000F2
S3150FE108900000000000000000000000000000000062
S3150FE108A00000000000000000000000000000000052
S3150FE108B00000000000000000000000000000000042
S3150FE108C02000000000010000050C0000FFFFFFFF04
S3150FE108D0FFFFFFFFFFFFFFFF00000000000000002A
S3150FE108E00000000001000000FFFFFFFF512563FC40
S3150FE108F0C2CAB9F3849E17A7ADFAE6BCFFFFFFFFA5
S3150FE10900FFFFFFFF00000000FFFFFFFF96C298D831
S3150FE109104539A1F4A033EB2D817D0377F240A46332
S3150FE10920E5E6BCF847422CE1F2D1176BF551BF373B
S3150FE109306840B6CBCE5E316B5733CE2B169E0F7C0E
S3150FE109404AEBE78E9B7F1AFEE242E34F07B0CD5E9D
S3150FE109500100000000000C01383200000000000029
S3150FE1096000000800F00010007F27E10F8327E10F59
S3150FE10970232BE10FF537E10F2738E10F00000000D8
S3150FE109805D38E10FBB38E10F0000000013B779FACC
S3150FE10990C925DDB7ADF3CFE0F1B614B8010100001B
S3150FE109A002000000343AE10F4000000000000C01A4
S3150FE109B00000000000000000000000000000000041
S3150FE109C0000000000000000000000000000000A091
S3150FE109D0020001030B000000000000000000000010
S3150FE109E00000000000000000000000000000000011
S3150FE109F00000000000000000000000000000000001
S3150FE10A0000000000000000000000000000000000F0
S3150FE10A1000000000000000000000000000000000E0
S3150FE10A2000000000000000000000000000000000D0
S3150FE10A3000000000000000000000000000000000C0
S3150FE10A4000000000000000000000000000000000B0
S3150FE10A5000000000000000000000000000000000A0
S3150FE10A600000000000000000000000000000000090
S3150FE10A700000000000000000000000000000000080
S3150FE10A800000000000000000000000000000000070
S3150FE10A900000000000000000000000000000000060
S3150FE10AA00000000000000000000000000000000050
S3150FE10AB00000000000000000000000000000000040
S3150FE10AC00000000000000000000000000000000030
S3150FE10AD000000000000000A004000000000000007C
S3150FE10AE00000000000000000000000000000000010
S3150FE10AF00000000000000000000000000000000000
S3150FE10B0000000000000000000000000000000000EF
S3150FE10B1000000000000000000000000000000000DF
S3150FE10B2000000000000000000000000000000000CF
S3150FE10B3000000000000000000000000000000000BF
S3150FE10B4000000000000000000000000000000000AF
S3150FE10B50000000000000000000000000000000009F
S3150FE10B60000000000000000000000000000000008F
S3150FE10B70000000000000000000000000000000007F
S3150FE10B80000000000000000000000000000000006F
S3150FE10B90000000000000000000000000000000005F
S3150FE10BA0000000000000000000000000000000004F
S3150FE10BB0000000000000000000000000000000003F
S3150FE10BC0000000000000000000000000000000002F
S3150FE10BD000000000000000000000000000000020FF
S3150FE10BE0020000000000000000000000000000000D
S3150FE10BF000000000000000000000000000000000FF
S3150FE10C0000000000000000000000000000000000EE
S3150FE10C1000000000000000000000000000000000DE
S3150FE10C2000000000000000000000000000000000CE
S3150FE10C3000000000000000000000000000000000BE
S3150FE10C4000000000000000000000000000000000AE
S3150FE10C50000000000000000000000000000000009E
S3150FE10C60000000000000000000000000000000008E
S3150FE10C70000000000000000000000000000000007E
S3150FE10C80000000000000000000000000000000006E
S3150FE10C90000000000000000000000000000000005E
S3150FE10CA0000000000000000000000000000000004E
S3150FE10CB0000000000000000000000000000000003E
S3150FE10CC0000000000000000000000000000000002E
S3150FE10CD0000000000000000000000000000000001E
S3150FE10CE00000000000FF000000000000000000000F
S3150FE10CF000000000000000000000000000000000FE
S3150FE10D0000000000000000000000000000000000ED
S3150FE10D1000000000000000000000000000000000DD
S3150FE10D2000000000000000000000000000000000CD
S3150FE10D3000000000000000000000000000000000BD
S3150FE10D4000000000000000000000000000000000AD
S3150FE10D50000000000000000000000000000000009D
S3150FE10D60000000000000000000000000000000008D
S3150FE10D70000000000000000000000000000000007D
S3150FE10D80000000000000000000000000000000006D
S3150FE10D90000000000000000000000000000000005D
S3150FE10DA0000000000000000000000000000000004D
S3150FE10DB0000000000000000000000000000000003D
S3150FE10DC0000000000000000000000000000000002D
S3150FE10DD0000000000000000000000000000000001D
S3150FE10DE0000000000000000000000000000000000D
S3150FE10DF000000000000000000000000000000000FD
S3150FE10E0000000000000000000000000000000000EC
S3150FE10E1000000000000000000000000000000000DC
S3150FE10E2000000000000000000000000000000000CC
S3150FE10E3000000000000000000000000000000000BC
S3150FE10E4000000000000000000000000010B50121C5
S3150FE10E508348844C00F03EF90121834800F03AF9CA
S3150FE10E6001214FF4AA4000F035F901217F4800F046
S3150FE10E7031F940F6AA60E06000212160616641F236
S3150FE10E8005006060A1606161E164794AA26461670E
S3150FE10E90A167E16760602068206000F053F94001C7
S3150FE10EA000F561204FF4E111B0FBF1F02038714A02
S3150FE10EB002EAC0026261012304220021002000F050
S3150FE10EC098F9012301220121002000F092F9002077
S3150FE10ED0A0670321616701230422052100F089F947
S3150FE10EE00520E0604FF0E061634801600022026295
S3150FE10EF0C2624263C2664FF4402360490B608A6067
S3150FE10F0000245F4A5F4B4C60920892008A610B6343
S3150FE10F108C634C6303215C4A11600123C363022096
S3150FE10F205A49086010BD70B50E46802E0546144627
S3150FE10F3002D341F2031070BD00F026F810B941F269
S3150FE10F40062070BD0020524902E02A5C0A54401C7B
S3150FE10F50B042FAD3D1F88000761E66F30E10C1F8CF
S3150FE10F608000803189084B488900016002224A4995
S3150FE10F700A603CB100F008F80028FBD04748016849
S3150FE10F808A06FBD5002070BD45484649826893071E
S3150FE10F9002D50220086003E00068820703D402202D
S3150FE10FA0886001207047002070473F48006840F293
S3150FE10FB00111884208BF002007D040F20221884282
S3150FE10FC00EBF4FF480703949401A394A1168814290
S3150FE10FD001D10020704701D2401A7047C1F5007167
S3150FE10FE0401870472DE9F041074688461546002619
S3150FE10FF08BB1069C2CB100F035F90021204600F0AB
S3150FE1100053F9FFF7D2FF404505D2002CF9D000F096
S3150FE1101062F90028F5D0FFF7C8FF804515D840469D
S3150FE1102013E0002102240EE0214B204A1968545C9B
S3150FE11030164ABC55761C491CB1F5007FF1D0B1F5C6
S3150FE11040807F01D10124146019608642ECD305B18A
S3150FE110502E60464534BF41F204200020BDE8F08101
S3150FE11060404105000000014000350A00003204004E
S3150FE11070F9FF0100F8FF7F0000200E4080200E40AF
S3150FE110804008E10F01000C0028200E4408200E460F
S3150FE1109080000020C8200E403C200E401000014089
S3150FE110A020200E4020200E4494200E4010010020F7
S3150FE110B018030020890001EB401101F184410A6018
S3150FE110C07047DFF874104A68D30702D40A68024200
S3150FE110D0FCD1704770B50C460246110A01F00F01BB
S3150FE110E00020491E0929DFF8545013D8DFE801F033
S3150FE110F005131212071518121B1FDFF83850C2F32A
S3150FE11100043608B1FFF7DDFF224631462846BDE832
S3150FE111107040CFE770BD1035F1E730350120EEE7CE
S3150FE1112038351020EBE740354FF48030E7E7DFF84D
S3150FE111301050E4E700400E4040410E40B0400E40F3
S3150FE1114050410E4010B51449086800F00700022817
S3150FE1115008BF124A18D0124B1868C0F30440112881
S3150FE1116028BF104A10D200BF11A20F4C125C0F48D4
S3150FE111704243A24208D11B685B0E012003F0030331
S3150FE1118022469840B2FBF0F2C86EC0F30420401C31
S3150FE11190B2FBF0F010BD000094400E4000F04902A2
S3150FE111A010400E40C0EA210100093D0040420F0008
S3150FE111B00400000700000D1013001A2026303840F6
S3150FE111C04800000010B500F00DF804F1806404E06A
S3150FE111D010B500F007F804F1C064012303FA01F139
S3150FE111E0216010BD30221E4B5043184400F10C0410
S3150FE111F07047F8B50546174638000E461C4607D028
S3150FE11200002C284602D0FFF7E3FF01E0FFF7DAFFF4
S3150FE112102A4630201249424388180F22082E05D25A
S3150FE11220B300416800F015F8416006E0A6F1080346
S3150FE112309B00816800F00DF881604FB9002C3146B3
S3150FE11240284602D0BDE8F440C2E7BDE8F440B9E76D
S3150FE11250F1BD9A4021EA020207FA03F11143704701
S3150FE1126000A00040F8B52648016841F480110160FD
S3150FE112702448026842F001020260FFF763FF4FF470
S3150FE112807A71B0FBF1F0204A23A1800A5060102257
S3150FE11290684600F049F80A208DF8020069461B48B6
S3150FE112A000F060F805B000BD70B5194B164C1D691D
S3150FE112B0626802FB005086B2ADB2AE429241D20FE6
S3150FE112C0227019B1196982B29142FBD101251D60D4
S3150FE112D05D60608070BD0F490B4B0A68187802F0AC
S3150FE112E0010210B122B9002070470AB101207047FF
S3150FE112F08869598888428041C043C00F7047000012
S3150FE1130000400E40C0400E40100300200080014017
S3150FE11310148001400C800140010000000000000034
S3150FE1132000000000000000004AB1000011F8013B87
S3150FE11330521E00F8013B1CBF11F8013BF8E770475D
S3150FE11340054988421FBF054A90420549884201D1A6
S3150FE113500120704700207047008001400084014062
S3150FE1136000A001402DE9F04104460D46FFF7E8FFE5
S3150FE11370287808B902216160002262626978002942
S3150FE11380697A14BF402300230029A97A14BF802666
S3150FE1139000260029E97A14BF202700270029297B97
S3150FE113A014BF4FF0100C944601B1082195F803E0F4
S3150FE113B0AA7895F807804FEA0E4E4EEA026EAA79A1
S3150FE113C04EEA822242EA082E2A7A42EA0E021343B3
S3150FE113D033433B434CEA03030B43297909B143F406
S3150FE113E00053697909B143F08053236008B10120B5
S3150FE113F06060BDE8F081FEE702487047024870473A
S3150FE11400024870474A43E00F6A43E00F8642E00F16
S3150FE114100020704700207047002070470120704779
S3150FE114200948016808697047084800687047064827
S3150FE11430006870470548064A00680168914201D184
S3150FE1144000697047002070472808E10F2800E10F77
S3150FE11450AD1007B001207047890001EB401101F192
S3150FE1146084410A60704710B50A684B688C68C96891
S3150FE11470026003600460016010BDF4E71FB5044626
S3150FE1148011F0030008D010226846FFF74DFF6946B9
S3150FE114902046FFF7F2FF1FBD009120460099FFF7A7
S3150FE114A0ECFF1FBD10B502680368046800680A60A7
S3150FE114B08C604B60C86010BD1FB50C4614F003017C
S3150FE114C008D06946FFF7EEFF102269462046FFF77F
S3150FE114D02BFF1FBD00940099FFF7E4FF1FBD38B541
S3150FE114E0102A04460D460DD101220021FFF7B4FF64
S3150FE114F004F5887429462046FFF7B5FF05F110017B
S3150FE11500204606E000220021FFF7A6FF294604F157
S3150FE115102400BDE83440A6E738B5044611F00300D0
S3150FE1152088B015460CD0082D0CBF10222022684634
S3150FE11530FFF7FAFE2A4669462046FFF7D0FF04E099
S3150FE11540009120460099FFF7CAFF09B030BD24216B
S3150FE1155000F0B8B870B50D4600F010F8802E18BF40
S3150FE11560B6F5807F02D06FF0710070BD2660F2088C
S3150FE115702946201DFFF7D8FE002070BD044616460A
S3150FE11580242100F09FB8011D2846C5E7484600F023
S3150FE115909CB82DE9F64F83B0002A14BF14680024D6
S3150FE115A00190002702680F9EDDF840800091802AA6
S3150FE115B018BFB2F5807F029304D06FF020006CE084
S3150FE115C000F06EF80098874263D2002CF8D100F054
S3150FE115D086F80546002068604FF4404129604FF0D8
S3150FE115E0000A00F0A7F881460198016880290CBF2F
S3150FE115F008221022FFF7C7FF029905F18400FFF7D2
S3150FE116003DFFFFF7C3FF0098A0EB070915E000F0D8
S3150FE1161052F80AF1010A00F08DF88346F11905F146
S3150FE11620A000FFF72BFF08EB070105F18000FFF79D
S3150FE1163043FF584600F049F81037BAEB191F17D296
S3150FE116404820A8600521A960E1E77CB94820A86098
S3150FE116500521A96000F02FF800F06CF881460E998C
S3150FE1166005F18000FFF728FFFFF790FF00F018F86C
S3150FE116700098C01BE9D100F05DF88146029905F1AA
S3150FE116808400FFF719FFFFF781FF284600F032F8D4
S3150FE1169098E7049800B10460002005B0BDE8F08F2B
S3150FE116A00E9AF15D105D414008F80710641C04F0D5
S3150FE116B00F047F1C704728698107FCD40320A860BB
S3150FE116C07047FEE7002200F039B800B962B67047FD
S3150FE116D0890001EB401101F184410A60704780B541
S3150FE116E0FFE7012200210C48FFF7F2FF0B4802BD8D
S3150FE116F0000000000949884208D1002009A101EB49
S3150FE11700C003002259680448E2E77047044988425A
S3150FE11710FBD10120F2E70000B0400E4000000F4080
S3150FE1172000040F4000000F400000000000040F40CE
S3150FE1173001000000EFF3108072B6704700B500BFED
S3150FE11740130096469446103928BFA0E80C50FAD8F4
S3150FE117505FEA417C28BF0CC048BF40F8042BC9079C
S3150FE1176028BF20F8022B48BF00F8012B00BDFEE78A
S3150FE1177038B5174C206840F0080020600123042299
S3150FE1178000F02AF80021009102E00098401C009039
S3150FE1179000986428F9DB0123022200F01DF80020EE
S3150FE117A001E00098401C00900098B0F5FA7FF8DB55
S3150FE117B008490868012814BF0125002501230022E5
S3150FE117C000F00AF8206820F008002060284632BDB4
S3150FE117D0B0400E409821144206210520FFF709BDBE
S3150FE117E042685209042941EA42120AD9491F0229DC
S3150FE117F005D9C91E032904D9091F022902D842F0C6
S3150FE11800100242607047FEE770B5564B56490246E5
S3150FE11810986B80B200B1012041F671349C63504C54
S3150FE11820256824681E6846F001061E609A6001224B
S3150FE118305A605C69620704D500F01EF84FF0FF307D
S3150FE1184070BD02225A6000E0491E5A69D40701D5DC
S3150FE118500029F9D15A69940704D500F00DF86FF014
S3150FE11860010070BD0029196802D100F006F80BE0FE
S3150FE1187000F003F8002070BD1968490849001960A6
S3150FE1188008B10020986370476FF0020070BD2DE933
S3150FE11890F04D924602F16042B2F1011F4FD230256F
S3150FE118A0324A45432A444FF44016166000275760E3
S3150FE118B0976097612B4DAE6BB6B206B1012641F635
S3150FE118C07137AF6301272C68DFF8A4C0DFF8A4E016
S3150FE118D044F001042C6087404FF0100B24E0A9601F
S3150FE118E001246C606C69640729D44FEA9804641E7D
S3150FE118F0240144F06054D460C2F810A01E4C546128
S3150FE11900DEF800403C43CEF80040C5F804B0DEF8FF
S3150FE119100840C440E407FAD5CCF80870CCF800705B
S3150FE119204144C244A3EB080363B101F50064E40A41
S3150FE11930E402A4EB01084345D1D29846CFE74FF035
S3150FE11940FF300AE004206860F6B2296849084900C9
S3150FE1195029600EB10020A8630020BDE8F08D0000DC
S3150FE1196004300E4008000E408096980080200E400D
S3150FE1197020200E4420200E4018000E4010B50B4AD1
S3150FE11980516813688C0004F03C04C3F381110C43D6
S3150FE119908470116801F03F0141709368D16803F0DB
S3150FE119A0F003C1F303110B43037010BDE0FF0FE02A
S3150FE119B02DE9F8415FEA00080F4618BF002FA1B0E5
S3150FE119C016461D4605D0002E18BF002D01D0289CC6
S3150FE119D014B940F2016023E001211348FFF77AFBC6
S3150FE119E0402111A8FFF76EFE294611A800F0D4FA9F
S3150FE119F0214619A800F0D0FA402101A8FFF762FEAF
S3150FE11A00394601A800F0C8FA314609A800F0C4FA30
S3150FE11A1001A8009011AB20224146044800F0CBFA11
S3150FE11A2022B0BDE8F08100BF00050A0000000F40BB
S3150FE11A3010B50A684B688C68C96802600360046078
S3150FE11A40016010BD10B502680368046800680A609A
S3150FE11A508C604B60C86010BD38B504460D46FFF784
S3150FE11A60E7FF05F110012046BDE83440E0E738B560
S3150FE11A7004460D46FFF7E6FF05F110012046BDE8E6
S3150FE11A803440DFE7082250F8041B21B9521EFAD180
S3150FE11A900020C0B270471000FBD00120F9E7F8B57E
S3150FE11AA004460D461646FFF745FE0746294604F559
S3150FE11AB08470FFF7D1FF314604F58670FFF7CCFF4F
S3150FE11AC000F05EFADFF8D0062065012161656069F5
S3150FE11AD0000E00F0010080F00100F2BD2DE9F84F94
S3150FE11AE088B004460D4692461E46FFF723FE83460F
S3150FE11AF004F5827705F140013846FFF7ADFF04F5AE
S3150FE11B00867851464046FFF7A7FF04F588790AF133
S3150FE11B10200100F0EEF900F0E6F900F034FA04F5F1
S3150FE11B20847AFFF707FE834629463846FFF794FF87
S3150FE11B3005F1200100F07BFB05F1400100F0D9F939
S3150FE11B4000F0D1F9DFF85406DFF854162065616528
S3150FE11B500120A06504F58079FFF7ECFD834606F1D8
S3150FE11B6040014846FFF783FF69465046FFF77FFF7F
S3150FE11B7000F0B9F9FFF7DEFD834629464046FFF748
S3150FE11B806BFF00F0B0F9DFF81C06DFF81C162065D5
S3150FE11B9061650121DFF81406A065E165FFF7CAFD6E
S3150FE11BA0804605F120013846FFF756FF4046FFF71D
S3150FE11BB08CFDDFF8FC05DFF8FC1500F024F805468F
S3150FE11BC031465046FFF753FF2846FFF77EFDFFF7F5
S3150FE11BD0B1FD054669463846FFF73EFF2846FFF752
S3150FE11BE074FDDFF8D405DFF8D41500F00CF80446E0
S3150FE11BF006F120014846FFF73AFF2046FFF765FD5C
S3150FE11C0009B0BDE8F08F206561650120A065FFF79A
S3150FE11C1091BD2DE9F04105460E461C46174600F0EB
S3150FE11C205EF901222260FFF785FD8046394605F50B
S3150FE11C308070FFF711FF314605F58270FFF70CFF54
S3150FE11C4005F5847621463046FFF706FF4046FFF756
S3150FE11C503CFDDFF86C0528650BE0DFF86815DFF86A
S3150FE11C60680529656865DFF86415DFF86405A96518
S3150FE11C70E8656869C101F0D5FFF75CFD05462146C8
S3150FE11C803046FFF7F4FE2846BDE8F041FFF71DBDEC
S3150FE11C9050F8043B934203D007E050F8042B22B9E6
S3150FE11CA0091F0129F9DA01207047002070472DE954
S3150FE11CB0F04FA1B006460D4692461C46202101A8DB
S3150FE11CC0FFF700FD0122019200F009F9202104F14D
S3150FE11CD02000FFF7F7FC202104F14000FFF7F2FCAB
S3150FE11CE005213046FFF77CFD0020306030637063DD
S3150FE11CF0FF275046391107EBD161491150F82120E1
S3150FE11D00A7EB4111CA40D30702D47F1E002FF1DCA6
S3150FE11D1006F5867A06F5807806F582790090D8E0A1
S3150FE11D20202229462046FFF7FFFA202205F120015E
S3150FE11D3004F12000FFF7F8FA202201A904F140008F
S3150FE11D40FFF7F2FAC4E0FFF7F5FC00F0CFF800F089
S3150FE11D50CAF8DFF88004DFF8801430657165DFF8C3
S3150FE11D607C04B065FFF7E6FC834611A94046FFF711
S3150FE11D707EFE00F0B8F8FFF7DDFC834621464046CC
S3150FE11D80FFF76AFE00F0AFF8DFF85404DFF85414FA
S3150FE11D90306571654FF48670B065FFF7CBFC83460E
S3150FE11DA019A95046FFF763FE09A94046FFF75FFE03
S3150FE11DB000F099F8FFF7BEFC834604F1400100F00D
S3150FE11DC098F800F090F8DFF820043065012100F073
S3150FE11DD032FA8346214606F58470FFF73DFE00F0A1
S3150FE11DE082F8DFF80804DFF8081430657165012120
S3150FE11DF0DFF80004B065F165FFF79CFC834609A99E
S3150FE11E0006F58470FFF728FE19A95046FFF724FE61
S3150FE11E1000F069F8DFF8E003DFF8E013306571658C
S3150FE11E20DFF8DC03B065FFF785FC8346214606F54F
S3150FE11E308870FFF71CFE00F056F8FFF77BFC00F009
S3150FE11E4055F804F1400106F58470FFF705FE11A977
S3150FE11E505046FFF701FE00F046F8DFF8A803DFF87A
S3150FE11E60A81300F0E7F9834604F140014046FFF776
S3150FE11E70FEFD04F120015046FFF7F9FD00F033F8BE
S3150FE11E803811009907EBD060401151F82020A7EBEC
S3150FE11E904010C240D1071BD5002220212046FFF773
S3150FE11EA0F7FE78B10022202104F12000FFF7F0FEC2
S3150FE11EB040B10022202104F14000FFF7E9FE00289E
S3150FE11EC07FF42EAF23462A4621463046FFF706FE1C
S3150FE11ED07F1E002F7FF537AF21B0BDE8F08F2021B0
S3150FE11EE02046FFF7EFBB5846FFF7EFBB834604F1FA
S3150FE11EF020014846B0E52DE9F0410F4690B0044682
S3150FE11F0015460521FFF76CFC00222260226362630E
S3150FE11F1068462022DFF8F412FFF706FA08AB6A46A5
S3150FE11F2007F140012046FFF774FEFFF703FC8046F9
S3150FE11F3008A904F58270FFF78FFD04F58676394619
S3150FE11F403046FFF789FD07F1200104F58870FFF7A9
S3150FE11F5083FD4046FFF7B9FB00F015F8FFF7EAFB03
S3150FE11F60074605F1200104F58070FFF780FD29464C
S3150FE11F703046FFF77CFD00F003F810B0BDE8F081C5
S3150FE11F803846FFF7A2BB9348A14920656165012158
S3150FE11F90A048A065E165704738B50D460446202196
S3150FE11FA0FFF790FBFFE71F204242295C2244401EC8
S3150FE11FB0D177F9D531BD2DE9F04FB9B006460D46CA
S3150FE11FC017461C46602121A8FFF77CFB602109A873
S3150FE11FD0FFF778FB3DB1009420001CBF429C002C1B
S3150FE11FE001D0002F02DC40F20160D1E00020306029
S3150FE11FF0306370630C217068DFF81C8240F01000CB
S3150FE1200070603046FFF7ECFB706820F4406040F4F7
S3150FE12010006070602022706820F4407040F4007018
S3150FE12020706008F12C0111A8FFF77EF911AA21467C
S3150FE120303046FFF734FD78B92046FFF723FD58B157
S3150FE1204011AA04F120013046FFF729FD20B904F169
S3150FE120502000FFF717FD10B940F2026098E0202F3C
S3150FE12060C8BF2027202119A8FFF72CFB002014E079
S3150FE120703A1A521E09A99208A7F1010E01EB820144
S3150FE12080AEEB000E2B5C0A6C4FEACE0E0EF0180E7D
S3150FE1209003FA0EF31A430A64401CB842E8DBFFF772
S3150FE120A049FB074606F5847519A92846FFF7D4FCBF
S3150FE120B0FFF766FF5948306506F58077FFF73AFB7C
S3150FE120C0814619A93846FFF7D2FC4846FFF7FDFAD4
S3150FE120D001AB11AA04F120013046FFF79AFDFFF794
S3150FE120E029FB834601A906F58270FFF7B5FC06F5D4
S3150FE120F0887919A94846FFF7AFFC06F5867A00F00D
S3150FE1210095F8FFF7F0FE4648464900F093F8834607
S3150FE1211019A94846FFF7ABFC01A93846FFF7A7FC1B
S3150FE12120FFF7E1FE21AB19AA08F14C013046FFF7A3
S3150FE12130BEFD009909AB01AA3046FFF7B8FD21AA0A
S3150FE1214021A93046FFF7D7FE09AB21AA09A93046E7
S3150FE12150FFF7C4FC09AA09A93046FFF7CCFEFFF742
S3150FE12160E9FA07460C213046FFF73AFB09A928465B
S3150FE12170FFF772FC00F05AF8FFF702FF2A481449FD
S3150FE12180306571657069C1014CBF002040F2046092
S3150FE1219039B0BDE8F08F00003035DA10D01482CBBC
S3150FE121A01481E11C8CE11C811C84D91C8391D11C07
S3150FE121B0E014D8141482E11C84D31482D11CE014E8
S3150FE121C039398401D02484FC1C82FED88B1C81A072
S3150FE121D0393801008AD11C81821CC00C0C0C01001C
S3150FE121E0C00C0C83D91C83D88AD11C83DA0C8114D9
S3150FE121F082D11C81C80C0C818CE11CD01484E314B0
S3150FE1220082D11C01D81483D11CC00C01CC08E10F7B
S3150FE12210D91C83D11C81E11CC008E10F30D00C0120
S3150FE1222030E11C8430D91C013035DA142146504691
S3150FE12230FFF712BC30657165FFF77CBA2DE9FC47F4
S3150FE122408A461446984670B9002C43D00B990A6812
S3150FE122503F2A0AD84868002818BF5FEA080905D15E
S3150FE122600FF24C1902E0414835E0C14602F03F0654
S3150FE12270A218A242C6F140050A6002D24868401C84
S3150FE1228048600A9F96B1AC4210D32A465146B81917
S3150FE12290FFF74AF80120009043463A4649460020A7
S3150FE122A000F0B5F8C146AA44641B00263F2C0BD9B2
S3150FE122B0A5090095434652464946002000F0A7F886
S3150FE122C00AEB851AA4EB851424B122465146B819B7
S3150FE122D0FFF72AF80020BDE8F687F8B586B00C4679
S3150FE122E015461E4640BB002102AF4A42920056F800
S3150FE122F02130D21D00EBC300B85402A8104456F8A2
S3150FE123002120C01E5209827056F82120520B4270CD
S3150FE1231056F82120520D027056F82100400F491C44
S3150FE123200129E2D9327802F03F02382A34BFC2F1ED
S3150FE123303802C2F1780201E00C4814E001960095EB
S3150FE1234023460B490020FFF779FF019600952346B7
S3150FE12350082202A90020FFF771FF0C9820222146DF
S3150FE12360FEF7E2FF002007B0F0BD000080AFFFFFF0
S3150FE123708008E10F6821FFF7A5B9002101604160EF
S3150FE1238000207047E0B500F128030093019000F1BA
S3150FE1239008030020FFF752FF0EBD80B500910346FB
S3150FE123A003F1280203F108010020FFF796FF02BDB2
S3150FE123B06A09E667BB67AE853C6EF372A54FF53AE0
S3150FE123C0510E527F9B05688C1F83D9AB5BE0CD190C
S3150FE123D010B50A684B688C68C968026003600460CF
S3150FE123E0016010BD10B502680368046800680A60F1
S3150FE123F08C604B60C86010BD38B504460D46FFF7DB
S3150FE12400F1FF05F110012046BDE83440EAE72DE979
S3150FE12410F84F98B006460C4690469946FFF75FF996
S3150FE12420054656BB0420286000216960E9646868A7
S3150FE1243020F44060686029630020686354F8201037
S3150FE1244009BA4DF82010401C0828F7D3FFF772F9A7
S3150FE12450044605F5827669463046FFF7B9FF04A9CA
S3150FE124603046FFF7B5FF2046FFF72FF92E482865CF
S3150FE124700027229C05F5D27625E02C4851E018F08D
S3150FE12480030008EB871A06D04022514608A8FEF74B
S3150FE124904BFF0DF1200AFFF74DF98346514600F048
S3150FE124A049F80AF1100100F045F80AF1200100F0B0
S3150FE124B041F80AF1300100F03DF85846FFF705F90A
S3150FE124C01B4828657F1CA742D9D319F0030005F5F0
S3150FE124D080760FD0FFF72EF9044669463046FFF7AF
S3150FE124E08BFF2046FFF7F1F8202269464846FEF7B3
S3150FE124F01BFF09E0FFF71EF9044649463046FFF791
S3150FE125007BFF2046FFF7E1F82846FFF7F3F80020B7
S3150FE1251059F8201009BA49F82010401C0828F7D3BA
S3150FE12520002019B0BDE8F08F888AC80180AFFFFFA0
S3150FE12530070D810130464BE730B50A4B1C6844F075
S3150FE1254040041C600125084B1D609A605D6002E046
S3150FE1255010F8014B9C610A46511E002AF8D1D86941
S3150FE1256030BD00BFB0400E4000C001404FF40170D6
S3150FE1257000F0C4B81CB54A4801214164026842F42F
S3150FE12580807202606846FFF7F9F99DF801000128AC
S3150FE12590DCBF9DF80000022809DD4248424A434B61
S3150FE125A04FF418710160426043664149C1664022AA
S3150FE125B04048016841F4F84101603F48C260016853
S3150FE125C04A03FCD400F0DBF800F093F800F0E2F8F0
S3150FE125D000F0E2F818B14FF4017000F08FF800F057
S3150FE125E0F9F8044600F0CBF9002C19BF40F203705D
S3150FE125F0844240F2012000F081F840F205708442F6
S3150FE126001BBF40F206718C4240F203204FF401707A
S3150FE1261000F074F8002016BD80B5012100F053F8E3
S3150FE126202649086842050AD500F088F840F20221EA
S3150FE12630401A07D0C01E05D0C01E012802D9FFF7E8
S3150FE1264097F808B100F03EF80420016811F1010F87
S3150FE1265005D14FF4027000F03DF800F033F89DF824
S3150FE12660010058B1002000F05CFA8DF800009DF8EA
S3150FE12670000018B94FF4027000F02CF89DF8000035
S3150FE1268060B10F480021016000221046016881F315
S3150FE12690088881F3098840688746FEE701BD000097
S3150FE126A000000E408C420E409A6F0500180100049F
S3150FE126B000843208A4310E4004300E4004500E401F
S3150FE126C008ED00E000218DF800108DF8011070473C
S3150FE126D0002070474FF000514AF6C03308804FF69D
S3150FE126E0F0704A8802409A421CBF4FF20F024A80AD
S3150FE126F070470E494CF23C300880704780B5FFF7C2
S3150FE12700E9FF0B48016821F4E06141F400710160D2
S3150FE12710BFF34F8F074908480A6802F4E0620243A4
S3150FE127200A60BFF34F8F00BFFDE7000002000020F4
S3150FE1273000500E400CED00E00400FA0510B54FF025
S3150FE1274000524FF6F071508801EA00034AF6C034A1
S3150FE12750A3421CBF4FF20F03984201D1108810BD5F
S3150FE12760002804BF1088012802D140F2022010BDD3
S3150FE127704FF4007010BD4FF00050008870470020F5
S3150FE12780704700207047FEE701790122091DC01C41
S3150FE12790FEF7C9BBFEF75ABB10B5C2B0FFF7EBFFA9
S3150FE127A0B0F5027F704C05D1684600F0E3F8684654
S3150FE127B0FFF7EAFF684604F5847100F0DCF86B4930
S3150FE127C00A6893680DF1070003606846FFF7DCFFBF
S3150FE127D042B010BD70B5ADF5607D654C5CA800F0FB
S3150FE127E0C9F802A804F584712822FEF79DFD38A8E1
S3150FE127F004F598719022FEF797FD26A804F5E0718E
S3150FE128004822FEF791FD0CA804F502716822FEF746
S3150FE128108BFD20230CAA26A938A800F018FB00BFD0
S3150FE1282057A540F6033608E0012100228DF876110F
S3150FE12830ADF877215CA8FFF7A7FF4FF484719EA847
S3150FE12840FEF740FFFEF7B1FB0028FBD04FF47A709D
S3150FE12850009001239EA801AA0121C01CFEF7C2FB2D
S3150FE128609DF87B022028EDD14FF47A710091012377
S3150FE1287001AA03219FA8FEF7B5FB01980328DCD136
S3150FE128809DF87C4274B140F6B830009001239FA8C1
S3150FE1289001AA2146C01CFEF7A5FB0199A14208BF7B
S3150FE128A00028CAD19DF87D020028C6D19DF87E0287
S3150FE128B09DF87F320328C0D8DFE800F044030419FE
S3150FE128C0BBE7B1E70095A0AA02A938A800F0FAFA8A
S3150FE128D002218DF8761100281CBF41F207018842CB
S3150FE128E012BFADF877610022ADF87721A2E7032099
S3150FE128F08DF876019DF80A0000281CBF9DF80B00A4
S3150FE1290000281ABF0021ADF87711ADF877615CA801
S3150FE12910FFF73AFF9DF80A0000281CBF9DF80B0050
S3150FE1292000288AD09DF8080081070AD50F4802686A
S3150FE1293003989168814204D2FEF77CFD0B9900F072
S3150FE129402EF97AE79DF80A0038B19DF80B0020B908
S3150FE1295040F20320FFF7D2FE6FE7012B14BF40F2DF
S3150FE12960012040F20220F5E7CC09E10F2808E10F3B
S3150FE12970DC0BE10F21464FF48472FEF7D5BC7047AD
S3150FE1298000000000732AE10F000000009B2AE10F0F
S3150FE12990F8B50446E00A0D461646B4EBC02004BF6F
S3150FE129A0204600F072FE04F50067FF0AFF0204E01D
S3150FE129B0384600F06AFE07F5006730198742F7D30C
S3150FE129C032462946204601B0BDE8F040022300F029
S3150FE129D063BEB8B59BB0044640F204600090656BE8
S3150FE129E0FEF725FD0746284600F07EF800283ED083
S3150FE129F0284600F091F8002839D0FEF70DFD20B1F9
S3150FE12A00286A012100F084FE88B3284600F06CF8AD
S3150FE12A1030B1686901280BD1287C022808D2AD694B
S3150FE12A203869854228BFA54202D365498D4201D354
S3150FE12A3000201CE001A800F06EFE2A1B214601A82A
S3150FE12A4000F073FE01A800F072FEFEF7D7FC044614
S3150FE12A50FEF7D2FC0346009405F12002294601A8B0
S3150FE12A60FEF7A6FF00900098401E8041C00F1CB0F4
S3150FE12A70B0BD70B504460D461646FEF7D8FC0169A2
S3150FE12A808C4222BF40693219904205D3324629461C
S3150FE12A902046BDE870407BE770BD2DE9F041044665
S3150FE12AA088461646FEF7C0FC46490068884218D1AB
S3150FE12AB0FEF7BDFC0746FEF7BDFC25187019404928
S3150FE12AC088420ED23CB9FEF7B5FC796988423CBF24
S3150FE12AD0386900F0DAFD324641462846BDE8F04155
S3150FE12AE056E7BDE8F08100007FB5040012D06846D5
S3150FE12AF036A11022FEF718FC002046420DEB060523
S3150FE12B00225CE97B914205D1401C1028F5D30120C7
S3150FE12B1004B070BD0020FBE7007C02288041C00FA6
S3150FE12B207047F8B5044625686768666BFEF77FFC64
S3150FE12B3005F16045B5F1011F29D20069874226D318
S3150FE12B401F498F4223D24030864201D38E4205D3AD
S3150FE12B50FFF7BEFD401E8041C00FF2BDFFF7B8FD86
S3150FE12B60B8B93046FFF7C0FFB8B1307C02280ED2B4
S3150FE12B70706990B102280CD1B069001D011B4FF0AD
S3150FE12B80FF322046FFF7D8FC0F49884205D00020D7
S3150FE12B90F2BD2046BDE8F2401BE70120F2BD80B54C
S3150FE12BA04FF0FF32FFF7C8FC074B984205D100F013
S3150FE12BB0B1FD40F20920FFF7A1FD002002BD0000A3
S3150FE12BC001000800AD1007B0E320BBDEB814B6F183
S3150FE12BD0E0CFF3ADB7DD25C9FA79B71370B54B6819
S3150FE12BE08C689C4206D200F140021B1B14781B191C
S3150FE12BF0412B01D3002070BD537814780D68E4188A
S3150FE12C008B68EE5C04F03F0406558C68641C8C609F
S3150FE12C1013785B1C13708C684B689C42ECD30120D4
S3150FE12C2070BD90F840004A6889681018401A7047DD
S3150FE12C30F8B584B01446002605460196009608239A
S3150FE12C4002AA00F048F841F20306B0423CD195F8EA
S3150FE12C50430005F1480738B100F038F83868082322
S3150FE12C6002AA02A900F089FD9DF80A209DF80B0042
S3150FE12C709DF80910120442EA00629DF8080042EA43
S3150FE12C800122024322609DF80E009DF80F10000409
S3150FE12C9040EA01609DF80D1040EA01209DF80C1005
S3150FE12CA00843606095F8430048B9DFF824198A4272
S3150FE12CB01CBFDFF82009824201D000F007F86068F7
S3150FE12CC0B8600021F960304605B0F0BD786808229A
S3150FE12CD002A900F02ABD2DE9F0410C4617461D4623
S3150FE12CE08046FFF79EFFA84208F1400607D221462C
S3150FE12CF04046FFF773FF00284CD0002048E0002143
S3150FE12D000CE0707818F800207A54491C7378307803
S3150FE12D105B1C03F03F03421E73703270307808B1CB
S3150FE12D20A942EED3A0686268904238BFA94207D2A2
S3150FE12D302368185C7854491CA268521CA260F1E71B
S3150FE12D40A94227D1069CB26C29463846FFF7F4FB18
S3150FE12D50B06424B1F0682A46394600F0E6FC0798DC
S3150FE12D6038B1F07878B1B0682B463A46394600F07B
S3150FE12D7004FDF07838B1F069B1692818F06188423D
S3150FE12D8024BF0020F07070692D18756141F20300C0
S3150FE12D90BDE8F0811220B07141F20200F8E72DE9AA
S3150FE12DA0F8431E467368002B4ED00C4614F0030110
S3150FE12DB018BF41F2020048D115460746FEF730FB30
S3150FE12DC0396E001D6A18824221D300F11803994228
S3150FE12DD01DD28C46844538BF844605EB010800F1C8
S3150FE12DE01802904588BF9046ACEB0101ACEB0000B1
S3150FE12DF004EB0109A8EB0C08384442464946683012
S3150FE12E00FEF792FAFF224146484600F0C5FCFEF76F
S3150FE12E1011FB396E001D884222BF6A18031D9A42C3
S3150FE12E2009D3411A601807F1800102680A6004218B
S3150FE12E30FF2200F0B1FC21463368386E74682A46EA
S3150FE12E40A047386E2D183D660020BDE8F283F8B530
S3150FE12E50064606F140070020B8717870F8703871B0
S3150FE12E600D4600214FF0FF303970797103F02003E1
S3150FE12E70B864396279621446BB70FF22182106F1F4
S3150FE12E80680000F089FCFF22042106F1800000F0C2
S3150FE12E9083FCFF22042106F1840000F07DFCBD6076
S3150FE12EA0FC60FEF7B7FA00B11DB1FEF7B1FA18B142
S3150FE12EB014B941F20B00F2BD14B1F86800F02BFC26
S3150FE12EC00020F2BD2DE9FC4F04468A46002100237E
S3150FE12ED0002599B005A880E82A000592089104F12A
S3150FE12EE042071A9A249E069204F1480841F2030911
S3150FE12EF09FE10498C8F808000021C8F80C10039860
S3150FE12F00DFF8D41688425ED102233B7191E100F0DE
S3150FE12F1080FB00F08DFBECD02EE300F07AFB00F0A6
S3150FE12F2087FBF9D1B87820B10398DFF8A816884264
S3150FE12F3084E03A78D10752D5787800284FD10398B3
S3150FE12F40DFF8941688421CBFDFF89016884225D029
S3150FE12F50DFF88C1688421FBFDFF888168842DFF844
S3150FE12F60881688421AD0DFF88416884225D0DFF812
S3150FE12F706016884267D0DFF87816884213D0DFF8FB
S3150FE12F80741688420DD0DFF84C16884218D0DFF858
S3150FE12F90681688421CBFDFF86416884200F0238169
S3150FE12FA015E00E223AE00F2038710020D8F808100C
S3150FE12FB0C8F81010C8F814003BE11221397169E025
S3150FE12FC0FEF726FA002840F00E810C2030E112219F
S3150FE12FD0397103A800F0E9FB00285BD029E20398D9
S3150FE12FE0DFF8FC1588421BD0DFF8F815884214D0BC
S3150FE12FF0DFF8F415884215D0DFF8D41588421FD0D3
S3150FE13000DFF8D015884213D0DFF8EC1588420DD0E2
S3150FE13010DFF8E815884207D018E004223A7108E193
S3150FE13020062005E107210FE0092001E10B210BE065
S3150FE13030FEF7EEF90028C6D178780028C3D1C4E7A8
S3150FE1304078780028BFD110213971F2E003A800F09A
S3150FE13050ACFBC0B10398C8F844001121397103984C
S3150FE1306000F0A5FB089038788106EED50898002880
S3150FE130701CBF41680029E8D0204688470090009898
S3150FE130800028E2D0D5E112217878397110B141F2F9
S3150FE13090040099E241F2080096E2D8F80C000828FC
S3150FE130A035D2002101200191009000F0C5FA00F020
S3150FE130B0BFFA40F061829DF827000006B0F1407F2C
S3150FE130C004D01220387141F209007DE209A8417955
S3150FE130D0007940EA01200290C00704D5397841F022
S3150FE130E00101397002E0FEF795F930B9FEF790F973
S3150FE130F00028D2D00298C105CFD41220387141F2FF
S3150FE131000A0061E2D8F80830D8F80C00984280F04E
S3150FE13110558201210191009100F085FA00F088FABC
S3150FE1312060D11C2209A90AF10800FEF7FDF89AF809
S3150FE13130000040F001008AF800000AF10800FEF7EE
S3150FE1314089F920B1002100F060FA0028DAD11220C6
S3150FE13150387141F20C0037E29AF8000040F00200B4
S3150FE131608AF8000009A88278C1789DF82430120404
S3150FE1317042EA0162417842EA01221A43CAF804207F
S3150FE13180D8F808100839CAF824108279C1791204DF
S3150FE1319042EA01624179007942EA0122024302924F
S3150FE131A0FEF742F9DFF85814006888421DD1FEF7A1
S3150FE131B03BF90299C068814215D10521F878397139
S3150FE131C040F00100F8700021C8F81C10D8F80C0087
S3150FE131D008282ED201210191009100F02DFA00F07D
S3150FE131E027FAB9D0C8E11220387122E109A882780D
S3150FE131F0C1784078120442EA01629DF8241042EA4E
S3150FE1320000220A430292D8F80800052824BF029843
S3150FE13210C8F81800D8F80C00042808D2012101914A
S3150FE13220009100F0FFF900F003FADFD0A4E10A20E4
S3150FE13230387107981A99884245D238791228F8D801
S3150FE13240DFE810F01A0019001800170016002B001E
S3150FE1325015001B002B0014002B0014000D01BE01FD
S3150FE132607D018C018F01A200BE01E2E7D2E749E7BA
S3150FE13270ACE7B8E711E750E649E60021C8F81C10BC
S3150FE132800820D5E73368D8F81C005A4609A9A8479C
S3150FE13290D8F81C005844C8F81C00D8F80800D8F82C
S3150FE132A00C10814280F08A81A0EB010BBBF1040F78
S3150FE132B005A9204608D3FFF7B4FC042808D205A9CF
S3150FE132C02046FFF78BFC7EE1FFF7ABFC5845F6D3C3
S3150FE132D0BBF1410F28BF4FF0400B00F09FF9584566
S3150FE132E002D200F09BF98346BBF1040F24BF4FEAEC
S3150FE132F09B004FEA800B00F0A5F900F099F995D103
S3150FE133003879082802D1B568002DBBD1BBF1040F7E
S3150FE13310CBF1040506D209A8FF222946584400F04D
S3150FE133203BFAAB4438790A280DD1706818B100F031
S3150FE133306BF9002837D033465A4609A92046FFF7DD
S3150FE133402EFD0090A9E70528A7D19AF8010081077C
S3150FE13350A3D5F0680028A0D0D8F81C0005280ED216
S3150FE133600BEB000107290AD309A9091D081A04F174
S3150FE13370840201681160FF22042100F00DFA33681F
S3150FE13380D8F81C00F56880E73978880606D5D8F8AD
S3150FE13390440000F00CFA002808904AD0706820B17A
S3150FE133A000F032F900283FF4D2AE089DD8F80C00B0
S3150FE133B0D8F8081088423FD23878810608D5002D13
S3150FE133C01CBF2969002903D020468847834601E0BF
S3150FE133D04FF0010B00F022F95845FFF470AFD8F822
S3150FE133E00800D8F80C10A0EB010BBBF1410F28BF79
S3150FE133F04FF0400B00F012F9834502D300F00EF9BE
S3150FE13400834600F01FF900F013F911D138788106E0
S3150FE13410CCD575B1D5F808C0BCF1000F09D033464C
S3150FE134205A4609A92046E047009000980028BDD0EA
S3150FE13430A2E041F20100C7E008953878810640F134
S3150FE13440BD80002D1CBFEA68002A05D03146204613
S3150FE13450904700900098002800F0B0808CE00020A3
S3150FE134600190009000F0DEF800F0E2F8F6D1D8F81E
S3150FE1347040006449884204D012223A7141F20500B4
S3150FE13480A2E0FDF7C5FF18B901208AF8030003E0B2
S3150FE134909AF80300002840D0F87810F0030F1CBF0C
S3150FE134A0F568002D05D03368042204F18401042068
S3150FE134B0A847D8F8180000281CBF706800282CD040
S3150FE134C04FF0FF31029104F180050422294602A84B
S3150FE134D000F070F940B1FDF7ADFF28B12946336829
S3150FE134E075680422001DA847042204F1680102A8A9
S3150FE134F000F060F988B1FDF793FF33687568142220
S3150FE1350004F16C010830A847FDF78AFF04F1680161
S3150FE13510336874680422001DA04701208AF802006F
S3150FE135200D2139714FE0FDF76BFF8021009001917D
S3150FE135300123D8F800000AAA022100F0FBF8D8F817
S3150FE135400C0010283AD2002101200191009010239E
S3150FE1355000F069F800F06CF8E5D00DE00120787025
S3150FE135602CE0B87850BB002101910090402300F088
S3150FE135705AF800F05DF801D0009825E0D8F804007C
S3150FE1358000F0D5F8FDF73AFF0546FDF735FF009553
S3150FE135900346D8F8040011AA09A9FEF709FA009023
S3150FE135A0009838B100218AF803101220387141F2E0
S3150FE135B0060009E001208AF80300B870012037E61A
S3150FE135C041F2070000E000201BB0BDE8F08F0000DC
S3150FE135D0F70A0AF7FC0404FCEB17A603EB17A65E42
S3150FE135E0F40A0AF4F50909F5F60808F6F70909F7F1
S3150FE135F0F90707F9FA0606FAFD0303FDFE0101FED7
S3150FE13600AD1007B0E320BBDE01210AF10800FDF79B
S3150FE1361005BF03AA05A92046FFF70ABB05A9204660
S3150FE13620FFF7FFBA042309AA05A92046FFF753BB03
S3150FE136300090009848457047082309AA05A9204636
S3150FE13640FFF749BB0120019000905B4609AA05A946
S3150FE136502046FFF740BB38B584088007154600F0D2
S3150FE1366007F804236A46A1002846FEF710F932BD92
S3150FE1367005D54FF6FF7242EA01420092704741F0DB
S3150FE136807F4141F47F010091704780B5FEF7BCF8A9
S3150FE13690401E8041C00F02BD2DE9F0411D46082DA8
S3150FE136A006468846144630D201214FF4AA40FDF76B
S3150FE136B011FD44B306F0010104F00100014324D1E9
S3150FE136C0B00708D538F8021B2A463046FFF7C3FF85
S3150FE136D0D8B9B61CA41E042C0DD3A708BF003B46D0
S3150FE136E0424631462846FEF7D2F8790808EB4108FB
S3150FE136F0BE19E41B48B934B1B8F800102A46304672
S3150FE13700FFF7A9FF08B9012000E00020BDE8F0812D
S3150FE1371000207047704710B50446FEF72BFE204692
S3150FE13720BDE810400021FEF728BEFEF72BBE01468D
S3150FE13730FEF733BE2DE9F843089D099F80460E46F5
S3150FE1374091461C46FDF703FF3A4629464046FDF7EB
S3150FE1375001FF08F124000021016006750C2249469C
S3150FE1376008F13900FDF7E0FD08F14500210C220AC9
S3150FE13770847001704270BDE8F1833EB5029201910A
S3150FE137801C4600F12805009500F1380300F12402EB
S3150FE137902146FDF7FEFE37BD4018491C1CBFB1F1AE
S3150FE137A0010100F8012DF9D1704700207047002083
S3150FE137B07047FEE703000020521E22BF13F8010BEC
S3150FE137C011F801CBB0EB0C00F6D0521C08BF104636
S3150FE137D07047FEE70449054808600548026842F468
S3150FE137E0700202607047000008ED00E00008E10F8B
S3150FE137F088ED00E010B5B1F5BC7F044602D240F288
S3150FE13800052010BD4FF4BC71FDF75CFF0020607021
S3150FE1381004F5807204F1B80104F12800BDE8104007
S3150FE138200023FFF714BB1CB50091044600F040F8E6
S3150FE1383000281CBF41F207018842C4F874010BD17D
S3150FE13840A07838B1E07810B140F2032016BD40F20E
S3150FE13850022016BD40F2012016BD00002DE9FC4104
S3150FE13860089E9046002204460F461D4632601C21F3
S3150FE138702846FDF727FF00BF11A2009243463A46BD
S3150FE1388000F016F82078810744BF60683060217830
S3150FE13890C80705D51C2204F108012846FDF744FDAA
S3150FE138A02078002814BF002040F20640BDE8F681DB
S3150FE138B0214604F12800FFF705BB4FF4BC707047B2
S3150FE138C00000000000000000000000000000000002
S3150FE138D00548014603B4684680F30988AFF30080D3
S3150FE138E000F004F800F014F8A5EDF5FE4EF6885158
S3150FE138F0CEF20001086840F470000860BFF34F8F05
S3150FE13900BFF36F8F4FF00070E1EE100A7047FEE7DD
S3150FE1391000F00DF8002801D000F028F8AFF3008091
S3150FE139200020AFF30080FEF725FE00F033F801200B
S3150FE13930704730B4002513E050F8042BD30744BF8A
S3150FE13940A9F101039A18091F042942F8045BFAD277
S3150FE1395013468C0744BF15809B1CC90748BF1D70D2
S3150FE1396050F8041B0029E7D130BC704710B5074961
S3150FE1397079441831064C7C44163404E00A68081D74
S3150FE13980114488470146A142F8D110BD70000000ED
S3150FE139908C00000000F000B80746384600F002F848
S3150FE139A0FBE700002021090326311820ABBEF9E71A
S3150FE139B080B5FFF70FFFFEF72FFEBDE80140FFF7DA
S3150FE139C087BF30B5016884684218416802EB51033D
S3150FE139D0C90703D54C4401E0491C05D19A420AD0E7
S3150FE139E012F9011B12F8015B002904F8015BF3D40C
S3150FE139F0491EF7D5F2E70C3030BD000037FFFFFF68
S3150FE13A000C0200001001002000000000B7FFFFFFCD
S3150FE13A100C000000240000008000002081000C0053
S3150FE13A20F07F10308000002034000140FC000000E0
S30D0FE13A300000000020C48B7CAD
S503038178
S70500000000FA
