S02B0000626F6F746C6F616465722D73746F726167652D737069666C6173682D73696E676C652D313032346BF2
S3150800000008100020C9010008012500086326000819
S31508000010012500080125000801250008012500081A
S3150800002001250008012500085C4000080125000894
S31508000030012500080C4000080125000801250008D4
S3150800004001250008012500080125000801250008EA
S3150800005001250008012500080125000801250008DA
S3150800006001250008012500080125000801250008CA
S3150800007001250008012500080125000801250008BA
S3150800008001250008012500080125000801250008AA
S31508000090012500080125000801250008012500089A
S315080000A0012500080125000801250008012500088A
S315080000B0012500080125000801250008012500087A
S315080000C0012500080125000801250008012500086A
S315080000D0012500080125000801250008012500085A
S315080000E0012500080125000801250008012500084A
S315080000F0012500080125000801250008012500083A
S315080001000125000801250008012500080125000829
S315080001100125000801250008012500080125000819
S315080001200125000801250008012500080125000809
S3150800013001250008012500080125000801250008F9
S3150800014001250008012500080125000801250008E9
S3150800015001250008012500080125000801250008D9
S3150800016001250008012500080125000801250008C9
S3150800017001250008012500080125000801250008B9
S3150800018001250008012500080125000801250008A9
S315080001900125000801250008012500080125000899
S315080001A00125000801250008012500080125000889
S309080001B0012500080F
S315080001C0013800D0FCE7704708B50D4B83F30A8861
S315080001D00C4B09A1D1E90001C3E9000100F090F830
S315080001E000F062FA00F07EF800F056F800F068F8C1
S315080001F000F012FAAFF30080A5EDF5FEA5EDF5FEC9
S3150800020008000020081000200348044B834202D04F
S31508000210034B03B118477047B85D0020B85D00204E
S3150800022000000000064B0749C91A891048BF01316A
S31508000230491003D0044B0BB101481847704700BF5B
S31508000240B85D0020B85D00200000000010B5064C1F
S31508000250237843B9FFF7D8FF044B13B10448AFF32B
S3150800026000800123237010BDA45D0020000000005B
S31508000270F842000808B5054B1BB105490548AFF318
S315080002800080BDE80840FFF7CDBF00BF00000000B2
S3150800029010100020F8420008064B0748DA1C121A0C
S315080002A0C11E22F00302994288BF0022034903F0C7
S315080002B049BE00BFB85D0020A85D002004430008C1
S315080002C0064B0748DA1C121AC11E22F0030299428D
S315080002D088BF0022002103F06CBE00BFA85D002085
S315080002E0101000200348044A0449121A921002F01A
S315080002F008B900BFB4010008B4010008A85D0020D1
S31508000300044B054A9A60D3F8882042F47002C3F871
S315080003108820704700ED00E00000000837B500F1BE
S31508000320006303F500430193104B0D4698421446AB
S315080003301AD8019A0E4B9A4216D2019A9B1AA342D0
S3150800034012D348B94FF000639B6A0A4A5969914229
S3150800035002D9186900F0B6FA22462946019803B070
S31508000360BDE8304002F0E1B803B030BDFF7FFFF7CB
S3150800037000E03108008000087FB56FF0006200F1E8
S3150800038078419142034619D26D460D4A02F110068C
S315080003902C4610685168083203C4B2422546F7D184
S315080003A05A1E04A90F3311F8014D12F8010F8442A1
S315080003B004D19A42F7D1012004B070BD0020FBE7B2
S315080003C0F83F0008F0B50368044603F16043B3F547
S315080003D0002F9FB033D84FF000639B6A42681E69AE
S315080003E096422CD8344B9A4229D8456B06F14002DE
S315080003F0AA425ED89D425CD82846FFF7BDFF002872
S3150800040057D0284602F0C4F880B16B6973B1022B45
S315080004100ED1AB69C4F1040119444FF0FF322046EE
S3150800042001F0DEF9254BC31A584258411FB0F0BDFA
S3150800043040F2046328460293FFF79EFF08B900209E
S31508000440F4E74FF000635F6B3846FFF795FF002827
S31508000450F5D0A6F150039F42F1D8284603A902F029
S315080004609EF80028EBD0039DAE42E8D8AC42E6D809
S31508000470114B9D42E3D804A801F076FA21462A1BBF
S3150800048004A803F05EFA04A803F05DFA01F07CFA0A
S31508000490044601F097FA23460090294605F1200202
S315080004A004A801F0E1F902900298B0FA80F0400938
S315080004B0BCE70120BAE700BF00003208E320BBDE34
S315080004C070B54FF0FF3290B005460C4601F088F93A
S315080004D01C4B984232D14FF480621B4B00219A661E
S315080004E001A81C2203F065FD184B29466846043C02
S315080004F0009303F0E2FC2146684603F0DEFC6846FA
S3150800050003F0E4FC02F008F80646B8B940F2022007
S3150800051000F084F91C22314609A803F04AFD0C4B69
S31508000520294608A8089303F0C8FC08A8214603F042
S31508000530C4FC08A803F0CAFC01F0EEFF002010B0C6
S3150800054070BD00BFE320BBDE0090004001000543FC
S31508000550010006434FF4806230B50446154B91B04E
S315080005609A6600211C2201A803F023FD124B21469E
S315080005706846009303F0A1FC684603F0A7FC01F067
S31508000580CBFF054698B940F2022000F047F91C2235
S31508000590294609A803F00DFD084B08A8214608932B
S315080005A003F08BFC08A803F091FC01F0B5FF0020CE
S315080005B011B030BD00900040000002430000034324
S315080005C04FF4806210B50F4B8CB004469A66002132
S315080005D01C2205A803F0EDFC0B4B019404930123A0
S315080005E002930A4B01A904A8039303F05CFC04A830
S315080005F003F06CFC01F090FFB0FA80F040090CB0F3
S3150800060010BD00BF00900040000008430400002011
S3150800061000487047008000084FF04023D3F8842034
S3150800062013B5110606D44FF400621A67D3F884206E
S31508000630D206FBD401F0D6FF00F0E2F808B900F0C4
S31508000640C7F803F0BDF9044658B900F0D9F808B15F
S3150800065000F0CEF840F2012000F00AF94FF40170DC
S3150800066018E000F0CDF808B900F0BAF800F0E2F8A2
S31508000670012802D900F0ACF8FEE700F0E7F8094BCC
S315080006800193019B002B0ADC40F205439C42E5D10D
S3150800069040F2032000F0ECF8002002B010BD019BE8
S315080006A0013BEDE700350C0037B54FF480420221D7
S315080006B0404B414C9A66414B2266C3F8D010BFF3B3
S315080006C04F8FBFF36F8F01234FF440313C48C0F87A
S315080006D08031E16003603B4801613B498A668DF8D9
S315080006E006308DF807304FF04023D3F894305A0679
S315080006F00FD500F0D1F8A0F2022080B2072808D85A
S31508000700C923C340DB0742BF00238DF806308DF8A6
S3150800071007302E4B5B68013308D14FF4027000F0A6
S315080007207DF800238DF806308DF807309DF80730E0
S315080007305BB12648FFF746FE8DF806009DF80630A1
S315080007401BB94FF4027000F069F89DF8063073B3D0
S3150800075000F056F808B100F04BF84FF480424FF01D
S31508000760FF31144B9A6603F18063196659660F21A7
S3150800077099660021114BC3F8D010BFF34F8FBFF312
S315080007806F8F01250E4CC4F88050BFF34F8FBFF30F
S315080007906F8F4FF4403008490861C4F88051C8602B
S315080007A00A4801F17C418A66986001F01FFF03B090
S315080007B030BD00BF0090004000A0004400ED00E0FE
S315080007C000E100E00080004400A00040006000084E
S315080007D04CF23C32014B5A80704700BF00000020A3
S315080007E04AF6C032014B5A80704700BF000000200D
S315080007F04FF20F02014B5A80704700BF00000020DD
S315080008004AF6C030044B5B8823F00F039BB21B1AD1
S3150800081058425841704700BF00000020044A08B5F6
S315080008201080FFF7EDFF10B94FF20F03538008BD94
S315080008300000002008B5FFF7E3FF18B1024B5888FF
S3150800084000F00F0008BD00BF0000002008B5FFF744
S31508000850D7FF48B1054A538803F00F010F2914BF83
S31508000860013323F00F03538008BD00BF00000020AA
S3150800087008B5FFF7D3FFBFF34F8F0549054BCA6885
S3150800088002F4E0621343CB60BFF34F8F00BFFDE76E
S3150800089000ED00E00400FA054FF20F01084B5A88F4
S315080008A08A4201D1188870473AB91B8840F202205B
S315080008B0012B18BF4FF4007070474FF40070704753
S315080008C0000000204FF4803208B5044B9A6601F008
S315080008D0F3FBB0FA80F0400908BD00BF0090004065
S315080008E0072BF8B506460F4614461D4601D90020C3
S315080008F0F8BD0121202001F05FFB0121212001F034
S315080009005BFB8CB144EA06039B07F0D14FF48032B7
S31508000910064B31469A66284623463A4601F0F4FBCA
S31508000920B0FA80F04009E3E70120E1E700900040D3
S3150800093010B5044600F0D8F8074BB0FBF3F304FBF8
S3150800094003F0022806D9BDE810400323B0FBF3F0F4
S31508000950FFF736BC10BD00BF40420F004FF0806263
S31508000960024B5A664FF400725A6670470090004070
S31508000970022110B5FFF7F2FF08460023042201F012
S3150800098031FB022200231046012101F02BFB002334
S3150800099004220321022001F025FB0422012311462B
S315080009A0022001F01FFB0122184C04F580535A60FF
S315080009B040F6AA6363610023154A2361E36404F5DC
S315080009C000539A6440F20143A36041F20503E360D1
S315080009D000F08AF80F4B0138B0FBF3F010234FF004
S315080009E002120002E06163610B4BC3F83828A2F5D6
S315080009F08032C3F8302802F50032C3F834281C22A6
S31508000A00C3F820280523636110BD00BF00000A4013
S31508000A10FFFF01000050C30000C0035008B501469F
S31508000A20FFF79CFFBDE80840014803F0F5B900BF91
S31508000A3000000A4038B505460D4CC0F3074120466C
S31508000A40FFF78CFF03F0F2F92046C5F3072103F000
S31508000A50EDF9E9B2204603F0E9F9204603F0D6F9A4
S31508000A60204603F0D3F92046BDE8384003F0CEB956
S31508000A7000000A4008B5FFF771FFBDE80840FF21EE
S31508000A80014803F0C9B900BF00000A4038B50B4D4C
S31508000A90FF212846FFF762FF03F0C8F9FF21284621
S31508000AA003F0C4F9284603F0B1F90402284603F016
S31508000AB0ADF9A4B2204380B238BD00BF00000A4099
S31508000AC008B5FFF74BFF1022014BC3F8A02008BD5D
S31508000AD000E0035008B5FFF741FF1022014BC3F8A9
S31508000AE0A02008BD00D0035030B51C4B87B001AA22
S31508000AF003F11005144618685968083303C4AB4255
S31508000B002246F7D11B782370154B1B6F03F007039A
S31508000B10032B1FD04FF48022124B5A66124A936851
S31508000B20C3F30443102B17D818336B440F4913F833
S31508000B30143C4B430E498B4203D19268C2F30162BF
S31508000B40D340074A106FC0F303300130B3FBF0F00F
S31508000B5007B030BD074BF4E7074BF2E7A44000089F
S31508000B6000800040009000400000014040420F0015
S31508000B7000093D0000F04902C0EA21010A4B186845
S31508000B8030B9B1F5205F0DD8012208481A607047C0
S31508000B90012806D1B1F5005F03D8022204481A607D
S31508000BA070470020704700BF28100020A435002099
S31508000BB0A415002031B1044A1368002BC4BF03F101
S31508000BC0FF331360704700BF2810002002232DE969
S31508000BD0F04F8846164600278BB0DFF8C490DFF83A
S31508000BE0C4A005908DF81F309DF81F20022A07D053
S31508000BF0002E48D041F20231012A18BF0F4642E0C2
S31508000C00D9F80010234DC1F540730893DAF800307F
S31508000C10214809930DF11F0302930023019309ABA1
S31508000C20009308AA1D4B294402F02EFD9DF81F309B
S31508000C3038BB63B3089BD9F8004029461C4424F006
S31508000C40030B43465A46059800F068F914F0030466
S31508000C50074605D02246284605EB0B0103F08FF917
S31508000C60DAF800200999C9F800408A42A2EB010483
S31508000C7004D90A482246014403F081F9CAF800401B
S31508000C80B2E741F2033738460BB0BDE8F08F41F2C0
S31508000C900237F8E7A01000202C100020A41300202B
S31508000CA09C100020A013002008B5702200210648D9
S31508000CB003F07FF901220020044B1A70044B1860D8
S31508000CC0044B186008BD00BF2C100020A55D00204D
S31508000CD09C100020A01300202DE9F84399465B6874
S31508000CE080460F46144613B31B4B1D7875B1002278
S31508000CF01A7051F8043B05220366184B184800F091
S31508000D0061F830BB164802F0ACFB1125154E641B82
S31508000D103368C3F50073A3420CD3D6F80080124893
S31508000D20224679194044444403F00CF93460002003
S31508000D30BDE8F883002249464046FFF747FF0028EA
S31508000D40F6D13368C3F50073A342E6D241F2043004
S31508000D50EEE741F20530EBE7A55D0020A85D00202F
S31508000D602C100020A0130020A41300204B6870B597
S31508000D7005460C46E3B10122FFF728FFC8B90D4B1B
S31508000D80186888B10C4E0428C0F104024FF0FF0120
S31508000D9088BF0022304403F00CF92346042231466A
S31508000DA0284600F0BBF820B90449054802F0E8FCDB
S31508000DB0002070BD9C100020A0100020A85D002017
S31508000DC02C1000202DE9FF41E846044640461E4601
S31508000DD002F0E2FC054660BB32464146204602F078
S31508000DE0AEFC054628BB039AB2F1804F25D240F6E1
S31508000DF0FF731649B2F5800F28BF0B469F1827EADE
S31508000E0003076169974238BF174611B1A36ABB4207
S31508000E1015D03046736898470023394663613046D3
S31508000E2033689847606150B93146204602F07EFC27
S31508000E300225284604B0BDE8F081054BDEE798E8B0
S31508000E400F00A76284E80F00F3E700BFFFFF0F005B
S31508000E50FFFF3F000068024BC31A584258417047CB
S31508000E60FD0707FD034A044B90420CBF18460020B5
S31508000E70704700BFFD0707FDB840000830B50246B9
S31508000E8000230C25054905FB03F460180C59944208
S31508000E9003D001330D2BF6D1002030BDCC4000081D
S31508000EA0F0B50023082787B0CDE9013315463B4640
S31508000EB0009704AA044602F0B2FC41F203039842E2
S31508000EC0064623D194F8433053B13A46E06C04A958
S31508000ED002F037FD04AA3B461146A06C02F020FD3D
S31508000EE0059A049B6A6094F843202B6052B9094A14
S31508000EF0934207D0084A934204D00822E06C04A91A
S31508000F0002F01FFD6B68236500236365304607B052
S31508000F10F0BD00BFF70A0AF7FC0404FC2DE9F04708
S31508000F2099465B6804460F469046002B3FD08B07D0
S31508000F3040D14FF000639B6A006E1B6981181D1D26
S31508000F40A9421BD31C33984218D2A842024638BF7E
S31508000F502A46994294BFC2EB010AC2EB030A101A49
S31508000F603E18C5F16800104431465246204402F046
S31508000F70E9FF5246FF21304603F01BF8226E0F4B5D
S31508000F809A420BD80E4902EB0800884206D39B1AF0
S31508000F90FA58C4F880204FF0FF32FA50D9E90035E4
S31508000FA042463946206EA847236E434423660020EE
S31508000FB0BDE8F08741F20200FAE700BF04800008A6
S31508000FC0088000082DE9F04100254FF0FF37044658
S31508000FD08846164603F0200380F842301822FF217F
S31508000FE0C0E91855A0F8405080F84350A0F844507E
S31508000FF080F84650C0F88870683002F0DAFF882218
S315080010002946C4E91286C4F88070C4F8847004F1CD
S31508001010900002F0CEFF074BC4F82071C4E94635AC
S3150800102084F8245116B1304600F09EFC0020BDE835
S31508001030F08100BF000101012DE9F04FA9B0CDE90B
S3150800104015230593002304460E464FF00109329DE9
S315080010501793179A059B9A4201D30020E7E094F864
S315080010604630142BF6D8DFE813F07900C700C10024
S31508001070610048004C01F2014800EA0148002D00D1
S315080010804800EA014003B40315004201E402E40201
S315080010907402B2030027636D0F2B00F2AB80102396
S315080010A018AA009320464023CDE9019715A902F016
S315080010B0B6FB41F203030B900B9A9A4200F00981A2
S315080010C00B9B57E0DFF868A3636D072B00F22681B8
S315080010D04FF0080838231AAA2046CDE90199CDF819
S315080010E0008015A902F09BFB41F203030D900D9AAF
S315080010F09A4200F03D810D9B3CE04FF00108D4E98F
S3150800110014739F4276D9FF1ADDE916329B1A94F8B2
S315080011104020032F134440F29E81032B00F2B28134
S31508001120204615A902F05AFB002323E00127636D28
S31508001130072B00F2F380082318AA009320464023C1
S31508001140CDE9017715A902F06AFB41F203030E9077
S315080011500E9A9A4200F036810E9B0BE018AA20469A
S3150800116015A9FFF79DFE41F203020890089B9342DA
S3150800117008D0089B079341F20303079A9A423FF463
S3150800118068AF53E0199A1899226500226265A64A43
S31508001190914240F02481022284F84620EAE7082397
S315080011A018AA009320464023CDE9019715A902F015
S315080011B036FB41F203030990099A9A4201D0099B2A
S315080011C0D8E7189B03F07F43B3F1407F05D014237B
S315080011D084F8463041F20903CCE7199BD90706D5AE
S315080011E094F8423043F0010384F842300027636DD7
S315080011F0072BD4D9012327E1204618AA15A9FFF7FA
S315080012004FFE41F203030A90DDF82880984511D075
S31508001210DDF8288041F20303CDF81C80079A9A422C
S315080012203FF417AF079B0BB10023F370079829B05B
S31508001230BDE8F08F1898FFF721FE074628B9142352
S3150800124041F2080884F84630E4E7437994F8242103
S315080012509A4205D9142341F20E0884F84630D9E794
S315080012600168724A914205D00289D20748BF013304
S3150800127084F8243194F84230D8070DD53A8994F881
S315080012804330910706D53BB1142384F8463041F222
S315080012900108BFE7002BF7D018A8FFF7DBFD18B940
S315080012A03B7984F84630B5E71898C4F88C00FFF700
S315080012B0D9FD94F842309A06F2D50028F0D0436852
S315080012C0002BEDD0204698470A900A9B002BE7D0C2
S315080012D0DDE7D4F8488000F093FB80230221CDE9AE
S315080012E0000319AA0123404600F092FAD3E6226DBC
S315080012F00123A265002284F84330E26584F846306B
S31508001300A7E600213C2219A81891012702F051FEF0
S31508001310D4E91432934204D884F8467041F20303A0
S3150800132028E7009318AA40232046CDE9017715A996
S3150800133002F075FA41F203030C900C9A9A4201D016
S315080013400C9B17E70DF1600C06F108030DF1780EFA
S31508001350624603CA724518605960944603F1080349
S31508001360F6D110681860337843F001033370CFE77D
S31508001370337843F0040333701B9BB36273785B07BF
S315080013801CD50020236DCDF860A0C4F8843094F8ED
S315080013904530606643F0020384F84530EF686FB164
S315080013A004222B6818A9B847606E2B684246EF6876
S315080013B01AA90830B847636E103363660B2384F89E
S315080013C0463081E6337843F002033370189B736026
S315080013D0236D083B7362199BB3F1006F05D0142384
S315080013E084F8463041F20103C4E6042384F8463003
S315080013F094F8453043F0010384F8453000236366CA
S3150800140095E6042318AA009320464023CDE90177E0
S3150800141015A902F004FA41F203030F900F9A9A42B3
S3150800142008D00F9BA6E600BFEB17A603F90707F936
S31508001430EB17A65E226D189B042A01D9236601279D
S31508001440636D032BDDD9092384F8463066E700234C
S315080014506366072352E79F423FF662AE9F4228BF64
S315080014601F46402318AA2046CDE90188009715A9EA
S3150800147002F0D5F941F203031090109A9A420AD065
S31508001480109B77E6402F28BF40279F4228BF1F465C
S3150800149027F00307E5E794F846B0BBF1070F1BD022
S315080014A0042FC7F1040A88BF4FF0000A18AB52464A
S315080014B0FF21D81902F07DFDBBF1090FBA4419D1F5
S315080014C02B465246204618A9FFF728FD1090109B78
S315080014D0002B3FF414AED3E7D5F808A0BAF1000FF5
S315080014E0DED02B683A46606E18A9D047636E3B4437
S315080014F0636604E6BBF1040F1FD173789F077FF577
S31508001500FEADEB68002B3FF4FAAD626E042A0BD8E9
S315080015100AEB0203062B07D919AB9B1A1A68C4F8FB
S3150800152084204FF0FF321A60EF682B685246606ECF
S3150800153018A9B847636E5344DAE7BBF10B0F7FF47B
S31508001540DEAD737858077FF5DAADEF68002FECD17A
S31508001550D5E594F8427017F0200707D0D4F88C0028
S31508001560FFF780FC074600283FF43CAF4FF0010A1E
S3150800157044E05BB357B33B6943B320469847DDE97C
S3150800158016329B1A94F8402013448342FFF4C8ADE0
S31508001590D4E91421A2EB0108B8F1400F28BF4FF097
S315080015A04008984528BF984618AA40232046CDE902
S315080015B001AACDF8008015A902F031F941F203031A
S315080015C01190119A9A4203D0119BD3E50120D6E7D0
S315080015D094F84230990611D5002F3FF403AFD7F897
S315080015E008B0BBF1000F3FF4FDAE2B46424620463D
S315080015F018A9D8471190119B002BE5D1D4E91421DD
S3150800160094F84230914203F02003B2D3002B3FF402
S31508001610F1AD002F3FF4EEADFB68002B3FF4EAADC9
S315080016202946204698471190119B002B3FF4E2ADBE
S31508001630CAE74FF000618A6A496B1269503A9142CB
S315080016403FF6D0AE112B0FD194F81831002B7FF44A
S31508001650D1AD41F206031293129A9A4202D114238B
S3150800166084F84630129B85E594F84430002B7FF4C5
S31508001670C1ADCDE90133402318AA0093204615A928
S3150800168002F0CDF841F203031290129A9A42E9D178
S31508001690E06C02F058F994F81831A3B104F1B403D8
S315080016A00093E06C04F1940320AA18A900F0DCF872
S315080016B01290129BA3B10023F370142384F84630CA
S315080016C041F2060356E5D4F84C8000F05DF907466A
S315080016D000F078F93B46009020AA404618A9E5E7AD
S315080016E00123F37084F8443084E500234FF004089E
S315080016F0CDE9013318AA40232046CDF8008015A964
S3150800170002F08DF841F203031390139A9A4202D01D
S31508001710139B07938AE5D4F888202F4B9A4205D065
S31508001720142384F8463041F20503F2E70123F370E7
S3150800173094F84530DA0707D5EF682FB14246404698
S315080017402B6804F18401B84794F845309B0707D500
S31508001750EF682FB104222B68104604F18401B847BC
S31508001760236E6BB36F685FB34FF0FF3304F18008E5
S315080017700422414614A8149302F0F1FB20B1042276
S3150800178041462B681548B84704F1680904224946BA
S3150800179014A802F0E4FB98B14FF000639B6A142288
S315080017A0D3F8108004F16C0108F10800D5E9003778
S315080017B0B847D5E900370422494608EB0200B8477E
S315080017C00123B3700E2384F846300023A1E70023D3
S315080017D0F37041F207002AE5E320BBDE0480000827
S315080017E030B50824094B00255C66012403F5FE2361
S315080017F05C6001449D601A61DC60884201D1586AC8
S3150800180030BD10F8012B1A62F7E700BF00900040C0
S315080018102DE9F04116464FF480621D46114B00F142
S31508001820200804469A6640460F4602F06CFBDDE93E
S315080018300612404602F06BFB002384F85870636476
S315080018403368C4F859307368C4F85D30B368C4F8AF
S3150800185061302B0C6DBA84F86530A4F86650BDE883
S31508001860F08100BF009000402DE9F04315464FF483
S3150800187080621C46364B99B0DDF880900E460746C6
S315080018809A66002861D000295FD0002D5DD0002C13
S3150800189058D0304B304AB9F1000F14BF98469046DD
S315080018A01C22002111A802F084FB2C4B414610A8EB
S315080018B0109302F002FB202110A802F0FEFA012282
S315080018C0274B019402920393CDF810900592069344
S315080018D054B1B9F1000F07D001A910A802F0D9FA3E
S315080018E004A910A802F0D5FA079701271C4C07A9E6
S315080018F010A80897099402F0CCFA0AA910A80A9623
S315080019000B970C940D950E970F9402F0C2FA0DA939
S3150800191010A802F0BEFA10A802F0D8FA114B0093EC
S315080019204FF098435A6CD202FCD55B6D40F20460C6
S3150800193003F470230093009B002B08BF002019B006
S31508001940BDE8F083DFF81080AAE740F20160F6E709
S31508001950009000401F2400801F24FC84000001061C
S3150800196020000020785634124FF4806210B50446E1
S31508001970044B9A6601F0EAFF2046BDE810400021B4
S3150800198001F0E8BF009000404FF4806200B50B4BB1
S3150800199099B09A6600212022684602F00AFB402385
S315080019A00021684608AA00F04FFC20F01000012824
S315080019B0034818BF002019B05DF804FB00900040EA
S315080019C04CE331084FF4806200B50B4B99B09A6628
S315080019D000212022684602F0ECFA402300216846DE
S315080019E008AA00F031FC20F010000128034818BFAF
S315080019F0002019B05DF804FB009000406CE3310844
S31508001A000048704786E231082DE9F3471446DDE9B8
S31508001A100A920D461F4600284DD14CB313683F2B3A
S31508001A202AD8516851B32549002F14BFB8468846AD
S31508001A3003F03F061B19136022BF53680133536036
S31508001A40FEB93F2C0ED9A3092A46009341463B46C8
S31508001A50002000F083F824F03F031D4404F03F04FF
S31508001A6034B100262246294609EB060002F06AFA36
S31508001A70002002B0BDE8F087B846D9E7DFF83C8019
S31508001A80D6E7C6F1400A5445ECD32946524609EB37
S31508001A90060002F057FA0123264400934A463B46BD
S31508001AA041460020A6F1400400F058F83F2C554462
S31508001AB0D6D9B846C7E70248DBE700BFA841000801
S31508001AC080AFFFFF2DE9F0411746146886B01E4621
S31508001AD0E3008DF80F3063098DF80E30630B8DF82F
S31508001AE00D30630D8DF80C3053680546DA0002EBAD
S31508001AF054728DF80B2004F03F045A09372C8DF8E0
S31508001B000A204FEA53324FEA53538DF80920884684
S31508001B1094BFC4F13802C4F17802CDE900178DF8F4
S31508001B2008300D4903460020FFF76EFF08222B46B2
S31508001B300020CDE900870DEB0201FFF765FF284677
S31508001B4005F1200350F8042B984246F8042BF9D1E6
S31508001B50002006B0BDE8F08168410008F0B51746D8
S31508001B604FF480621D46254B93B00E469A6604468E
S31508001B70202200210AA802F01CFA01204FF0005288
S31508001B80019702900392049605900692079508908D
S31508001B900992002C2FD1189C194BA40121460AA89A
S31508001BA00A9302F08AF9039B04A91C430394069B33
S31508001BB00AA843F020030693099B43F020030993E0
S31508001BC002F067F901A90AA802F063F907A90AA8A9
S31508001BD002F069F90AA802F079F94FF098435A6CAD
S31508001BE0D202FCD55B6D13F4702F14BF6FF06F0033
S31508001BF0002013B0F0BD6FF07100FAE700900040C6
S31508001C000004010310B5ADF50E7D4FF40D720020EA
S31508001C1001A901F020FF40F20124002101A801F0EA
S31508001C20F1FEA042F9D040F20323984204D040F2D4
S31508001C3005400DF50E7D10BD9DF8043059070DD4ED
S31508001C409DF804309A0719D4DB07F0D504998A98C9
S31508001C5000F040F90028EAD00020EAE70B9800F0E7
S31508001C60B1FC0028ECD08A9800F0F2F80028E7D0FA
S31508001C700B48FEF76FFC0028E2D1D8E74FF0006268
S31508001C80926A029992689142DED98A9800F0FEF823
S31508001C900028CCD00A990248FEF712FCC7E700BF15
S31508001CA00080000831B10A4B5A68824205D80023E1
S31508001CB0C1E9003340F201407047013053F8302043
S31508001CC003EBC0035B6800200A604B60704700BFE7
S31508001CD06842000870B40C4611461A460D4B5D68FA
S31508001CE0854210D9013003EBC0056D68A618AE42CF
S31508001CF00DD8A5420BD3954209D353F8300020449A
S31508001D0070BC01F078BF40F2014070BC704740F2E9
S31508001D100240FAE76842000870B50D46002186B011
S31508001D200DF1070302931E4B04461646116028461A
S31508001D301C22CDE903338DF80710059302F039F913
S31508001D409DF8072052B994F87230132B06D0D4F8B0
S31508001D5030321BB9D4E98A31994219D323789907C5
S31508001D6044BF61683160DB0709D504F1080304F153
S31508001D70240153F8040B8B4245F8040BF9D162B9D8
S31508001D80237840F20640002B18BF002006B070BD2D
S31508001D90204602A901F019FED2E70020F6E700BFA7
S31508001DA0C539000870B40C4611461A460D4B5D68D5
S31508001DB0854210D9013003EBC0056D68A618AE42FE
S31508001DC00DD8A5420BD3954209D353F830002044C9
S31508001DD070BC01F032BF40F2014070BC704740F25F
S31508001DE00240FAE768420008074B5A68824207D958
S31508001DF0013003EBC002516853F8300001F077BF99
S31508001E0040F20140704700BF6842000870B50546B9
S31508001E1088B0C0B14FF4403200236C46C0E90023B5
S31508001E200A4B05F114061A785B680272C3606846A5
S31508001E3000F06EF80FCC0FC694E80F0086E80F0086
S31508001E4005F114032B6108B070BD00BF6842000895
S31508001E5000B5ADF5137D4FF40D7205A901F0FBFD34
S31508001E6078B904238DF81530074BCDE901000390A6
S31508001E7001A905A8049301F002FE0DF5137D5DF88E
S31508001E8004FB0020F9E700BF1D0300084FF00063BC
S31508001E9000B59B6AADF5137D9B688B4204D3002081
S31508001EA00DF5137D5DF804FB4FF40D7205A901F0DD
S31508001EB0D2FD0028F3D102238DF81530044BCDE965
S31508001EC00100039001A905A8049301F0D8FDE7E7EE
S31508001ED01D03000800B5ADF5137D4FF40D7205A975
S31508001EE001F0B9FD78B901238DF81530074B01903B
S31508001EF0CDE90230049001A905A801F0C0FD0DF551
S31508001F00137D5DF804FB0020F9E700BF6F25000884
S31508001F1070B588B0064601F043FE202200216846C7
S31508001F2002F047F801F0C6FD0E2820D00CD8072885
S31508001F300FD00A2818D035466C460FCC0FC594E842
S31508001F400F0085E80F000CE01728F4D13446094D38
S31508001F5001E03446084D0FCD0FC495E80F0084E81C
S31508001F600F00304608B070BD3446044DF3E73446DA
S31508001F70034DF0E778420008D8420008B842000846
S31508001F809842000810B5044601F00AFE54B901F05B
S31508001F9091FD0138C0B2162896BF064B002053F8AB
S31508001FA0200010BD20780028F3D101F083FD2070B1
S31508001FB0EFE700BF0C4200084209531E022B96BFEA
S31508001FC0074B002303EB820300F01F0029B103F53A
S31508001FD08053012282401A60704703F50053F8E7E0
S31508001FE0608000402DE9F04105460F461E469046A2
S31508001FF04AB101233022194C8B4002FB004436B308
S3150800200004F5825423600F21072F05EB450388BF8B
S31508002010A7F108044FEA0313114895BFBC00A400B2
S3150800202004330C3308FA04F2A140184401F0DFFE29
S31508002030B8F1000F09D101233021084ABB4001FB42
S3150800204005223EB102F582521360BDE8F08104F51F
S315080020500154D7E702F50152F6E700BF00C0035066
S3150800206030C00350F0B5114A114C124E00F001056C
S31508002070E3695F0713D40DB9334213D103EA0007A6
S315080020808F4207D10B4A1A40002A0CBF00206FF076
S315080020900100F0BD013AEBD16FF00200F9E74FF00D
S315080020A0FF30F6E76FF00100F3E700BF809698006F
S315080020B000000340020001004FF4803238B50E4B91
S315080020C00E4C9A66E56941F6713315400122E363C1
S315080020D00B4B0021DA600223606121202361FFF7A0
S315080020E0C1FF10B92120FFF7BDFF0122054BDA60B9
S315080020F00DB10023E36338BD0090004000000340A3
S3150800210000100340002003402DE9F04F01274FF44B
S31508002110302530268400DFF8C0C004F1402404F5D9
S315080021208024CCF80470656000244FF48035DFF80D
S31508002130ACE0DFF8AC9006FB00E6F465346634677D
S31508002140234CDFF8A0A0A56641F6713504F51C34CA
S31508002150D4F81C80E563E56807FA00F03D43E560BE
S315080021604BB9E26818F4803F22F00102E26029D1F7
S315080021700020BDE8F08F01F5005505EA09056D1A3E
S315080021809D4228BF1D466161D4F81CB0AF081BF0FC
S31508002190040F19D1013F3F0147F060577766B266D1
S315080021A0C6F86CA0CCF82400DEF834703842FBD0B0
S315080021B0084F294478630427CCF828002A44276165
S315080021C05B1BCDE7E363D3E74FF0FF30D1E700BFF2
S315080021D00090004000200440001004400000044025
S315080021E000E0FFFF180003404FF48062014B002017
S315080021F09A667047009000404FF48062014B0020B9
S315080022009A66704700A0004008B5B0B14FF48062E6
S315080022100B4B9A6601F05AFE4FF098435A6CD2025D
S31508002220FCD54FF48062586D064B10F470209A6600
S3150800223004D0BDE8084001F0FEBD212008BD00BF5E
S315080022400090004000A000401FB5044660B35AB392
S31508002250402B29D1930727D1042925D8DFE801F097
S31508002260031A24221E004FF4807310490B4323607F
S315080022700023C4E90133E3610123019202930C4B65
S31508002280204601A9039301F00EFE2046FFF7BCFF86
S3150800229004B010BD4FF400730449E7E705494FF44D
S315080022A08063E3E70149FAE72120F1E7010008FF27
S315080022B040000020000008FF2DE9F04101290546ED
S315080022C00E4690461F4692B04AD8046824F040034A
S315080022D0802B02D0B4F5807F45D11C2200210BA8A3
S315080022E001F067FE234A244B0121012E08BF13463D
S315080022F00A932B1D0193E408204B44F000540291E5
S315080023000AA80394CDF810800591069307970891BB
S3150800231001A9099301F0BDFD04A90AA801F0B9FDB8
S3150800232007A90AA801F0BFFD29680AA8C90801F08B
S31508002330C4FD10210AA801F0C0FDFFF755FFA8B992
S315080023400AA801F0C3FD4FF098435A6CD202FCD597
S315080023505C6DFFF751FF04F4702012B0BDE8F08100
S315080023606FF02000F9E76FF07100F6E74FF0FF30E5
S31508002370F3E700BF0001000400010104100000207B
S315080023802DE9F04F074689469846164699B082B118
S3150800239015683B6823F04002802A03D0B3F5807F96
S315080023A040F0A68000244C4505D306B135600020D0
S315080023B07BE01546EDE75DB1239B229A1B5D525DD6
S315080023C001355340249A05F00F0513550134EAE701
S315080023D0A9EB040ABAF10F0F0BD8239B03EB040AE7
S315080023E0249B1C44239B03EB090BDA4560D14C461E
S315080023F0D9E71C22294611A801F0DBFD3E4B3A68B5
S3150800240010933B1D01930123D20842F00052029318
S3150800241003923A4ACDF8108005930692CDF81C80AF
S3150800242008930992239A249922442AF00F0A0A92B9
S3150800243021444AF000520B9310A80C920D9101A961
S315080024400E930F9201F025FD04A910A801F021FDB5
S315080024500AA910A801F01DFD0DA910A801F023FD79
S3150800246007A910A801F01FFD396810A8C90801F0CE
S3150800247024FD514610A801F020FDFFF7B5FE90B9DE
S3150800248010A801F023FD4FF098435A6CD202FCD5F0
S31508002490586D544400F4702BFFF7AEFEBBF1000FE5
S315080024A09BD0584601E04FF0FF3019B0BDE8F08FD9
S315080024B055B1229A1AF8013B525D0135534004F88A
S315080024C0013B05F00F0590E7424601213846229B5D
S315080024D0FFF7F2FE0028E8D108F1100212F8013DD4
S315080024E00133DBB21370002BE3D19045F6D1E0E758
S315080024F06FF01F00D9E700BF030300041000002097
S31508002500FEE710B53AB1002350F8234041F82340BE
S3150800251001339A42F8D110BD4FF098435A6CD20253
S31508002520FCD5586D00F470207047C0F30C032DE9F4
S31508002530F04105460F4616460BB9FEF7C3F905F5F1
S31508002540005424F4FF5424F01F0405EB0608A045A4
S3150800255007D8324639462846BDE8F0410223FEF739
S31508002560BFB92046FEF7AEF904F50054EFE770B49C
S315080025704FF00065AD6A03462E69864206D86C6937
S3150800258013449C4202D370BCFFF7CFBF70BC7047A0
S31508002590036913F0FE0F0CBF01200020704738B501
S315080025A004460D46FDF7E8FE38B16369012B07D1ED
S315080025B02046FFF7EDFF10B1A46901202C6038BD55
S315080025C00020FCE74FF0FF3313B5044601A801933A
S315080025D0FDF7F6FF20B1019BA3422CBF0020012086
S315080025E002B010BD01F0A1BA01F0ECBB03461846D3
S315080025F0016881F3088881F3098840688746FEE701
S3150800260073B50C461646054618B311B30AB300232C
S315080026100B60136040F6140303600B6843F0020373
S315080026200B6001F05FFB013018BF2B6801A81CBFC7
S3150800263043F4C0332B604FF0FF33019301F055FB91
S31508002640019B43B92B6803432B60336843F00203AD
S31508002650336002B070BD012B02BF236803432360B9
S31508002660F3E74FF40170FEF703B9B1F50D7F10B526
S3150800267004460FD34FF40D72002101F09AFC04F5BD
S31508002680DE7204F5AA7104F12C000023BDE810409F
S31508002690FEF798BC40F2052010BD13B5044600911C
S315080026A001462C30FEF7C8FCC4F8300218B141F2D6
S315080026B00703984204D1A37823B1E07800F20220F8
S315080026C002B010BD40F20120FAE72DE9F04387B0C9
S315080026D00DF1080904460E46174600211022484601
S315080026E01D46DDF8388001F064FC00211C22C8F87C
S315080026F00010284601F05DFC32463B462146CDF8DF
S31508002700009004F12C00FEF797FC23789A0744BF43
S315080027106268C8F80020DB0709D504F1080304F14C
S31508002720240253F8041B934245F8041BF9D1237875
S3150800273040F20640002B18BF002007B0BDE8F08322
S315080027404FF40D7070470123036080207047436D76
S31508002750002B14BF012011207047826CF0B5531E60
S31508002760B3F5887F18D8D0E9093CD0E90B47C91AD0
S31508002770914228BF11464569866B2FB9C768A7EBF2
S31508002780040E8E4598BF07630C44521AC4628264CD
S3150800279019448B4201D14362F0BDB34234BF64464B
S315080027A000249A1B2A44125DEA540133F1E72DE905
S315080027B0F04F95B008910D92036B416A0793C36A6F
S315080027C00193079B002B40F0AA80019AC3689B1AC5
S315080027D0089A521A9A4240F2A2800B444FF0FF37E9
S315080027E0D0E90DBA8568099307FA05F5ED430E9504
S315080027F04568C36BAF40FD430F9500250293036CF4
S3150800280004690393436C0B950493036804F66825DF
S315080028100C93119504F26465436912950C9D059312
S31508002820C5F10805836A026A13950693D0E9063648
S315080028300E9D019FB6F1807F05EA070808EB0B1C81
S315080028403CBF13F8015B360234F81C7038BF45EA02
S315080028500222F50A7D4395424FEA0B1E40F2C380D9
S31508002860C7F5006607EB561624F81C60019F079EFD
S3150800287004F66C6C3E4312D03E460F9F37400C9EC2
S3150800288007FA06FE00294CD1069E013E059FBE5D4D
S31508002890139F3E414FF4C067764407FB06CC019E62
S315080028A0BBF1060F06F10106019647D80126BBF1D2
S315080028B0030F94BFABEB0B0BABF1030B0096009E1B
S315080028C0B5F1807F38BF13F801EB4FEA460638BFEB
S315080028D02D023CF8067038BF4EEA02224FEAD52E82
S315080028E007FB0EFE964500960CEB06081BD9C7F5A6
S315080028F0006507EB5515AFB27546009EA8F800703F
S31508002900FF2EDCD9059E009F77542E460131099D7E
S315080029108D4240F236830D9D9D4289D831E3089B4E
S315080029205CE74E1EB2E7009EA7EB57170136A5EBEC
S315080029300E05A2EB0E02BFB20096DEE7069FA1EBDC
S315080029400A06514528BF0027BE46059FBBF10A0F58
S315080029503E4416F80E9034BF03260626ABEB060B4C
S3150800296001264FF4807800964FEA4909009E09EA45
S3150800297008070A9708EB06070A9EB5F1807F38BF55
S3150800298013F801EB37440CEB470638BF2D023CF829
S31508002990177038BF4EEA02224FEAD52E07FB0EFE05
S315080029A01096009E96454FEA460600960ED9C7F53C
S315080029B0006507EB5515AFB20A9D28EA0508754666
S315080029C0109E3780009EFF2ECED99BE7009EA7EB70
S315080029D057170136DDF82880A5EB0E05A2EB0E0287
S315080029E0BFB20096ECE7761BA7EB5717B6F1807FC8
S315080029F024F81C70A2EB05020BF1C0093CBF13F8C2
S31508002A00015B360234F8197038BF45EA0222F50A26
S31508002A107D4395424FEA490C40F20581C7F50066A9
S31508002A2007EB561624F81960049E129F0A96039E11
S31508002A300BF10C0B0496029ECDE902A6B5F1807F38
S31508002A403CBF13F8016B2D02B7F800C038BF46EA41
S31508002A500222EE0A0CFB06F6964240F2A3814FF0DC
S31508002A60000ECCF500650CEB55153D8007EB0817F5
S31508002A7004374FF008094FF0010CB6F1807F38BFD4
S31508002A8013F8018B4FEA4C0C38BF360237F80C5056
S31508002A9038BF48EA02224FEAD62805FB08F89045CF
S31508002AA007EB0C0A40F2AE81C5F5006605EB561633
S31508002AB0B5B24646CC45AAF80050DED3AEEB090EB1
S31508002AC00EEB0C05BBF10B0F009540F2B382032DFC
S31508002AD094BF4FEAC51E4FF49C6E4FF0010598BF90
S31508002AE00EF5587EB6F1807F4FEA450538BF13F8D4
S31508002AF001CB05EB0E0838BF360234F8087038BF2C
S31508002B004CEA02224FEAD62C07FB0CFC944540F20D
S31508002B108381C7F5006607EB5616B7B266463F2DA2
S31508002B2024F80870DED9403D032D3FD905F0010C85
S31508002B300D2D4FEA55074CF0020C00F283814FF039
S31508002B400108013FC5F1004E0CFA07FC0EF2AF2E44
S31508002B50E6444FEA4E050B95C24665460A970B9F13
S31508002B60B6F1807F4FEA480838BF13F8019B07EB98
S31508002B70080E38BF360234F80EC038BF49EA0222BA
S31508002B804FEAD6290CFB09F9914540F24E81CCF55E
S31508002B9000660CEB56161FFA86FC4E460A9F24F86A
S31508002BA00EC0013F4FEA4A0A0A97D8D1079F05F196
S31508002BB0010A002F40F03C82019FAF4240F2578243
S31508002BC0BBF1130F34BF4FF0070B4FF00A0B009FF2
S31508002BD0099D0237B5EB010CB84600F04882BC45A2
S31508002BE028BFBC46069FA1EB0A05514528BF00270A
S31508002BF03D44019F67440197A8EB0C070B97069F76
S31508002C007F1BBC45059F0F4400F21C82A5EB0108FB
S31508002C10059D614405EB010C17F808E007F801EB80
S31508002C20BC45F9D173E6A7EB5717761B521B24F858
S31508002C301970079D019F3D4303D1012015B0BDE8DA
S31508002C40F08FB6F1807F38BF13F8015B0CF11809D5
S31508002C5038BF360234F8097038BF45EA0222F50A49
S31508002C607D43954250D9C7F5006607EB5616B5F170
S31508002C70807F24F809600EF1F00E38BF13F8016B57
S31508002C80C64438BF2D0234F81E7038BF46EA022201
S31508002C90EE0A7E4396421FD9C7F5006507EB551520
S31508002CA0069F24F81E50514528BF0027BC46059F9D
S31508002CB0A1EB0A053D4415F80C50BBF1060F7D54EF
S31508002CC0019D88BF4FF00B0B05F1010598BF4FF02A
S31508002CD0090B013101951AE6AD1B921B029ECDF830
S31508002CE008A0B246A7EB571724F81E70049EBBF13E
S31508002CF0060F0A96039E8CBF4FF00B0B4FF0080B7E
S31508002D00CDE903A6119F99E6761BA7EB5717B6F1EF
S31508002D10807F24F80970A2EB05020CF1300E3CBF47
S31508002D2013F8015B360234F80E7038BF45EA022202
S31508002D30F50A7D43954206D9C7F5006607EB561690
S31508002D4024F80E60D2E7761BA7EB5717B6F1807FFB
S31508002D5024F80E70A2EB05020CF1480C3CBF13F8E0
S31508002D60015B360234F80C7038BF45EA0222F50AD0
S31508002D707D4395420AD9C7F5006607EB561624F82F
S31508002D800C60DDE9026702970396AFE7A7EB5717D2
S31508002D9024F80C70049F521B751B029E0297039F12
S31508002DA00497F1E7AD1BACEB5C1CB5F1807FA7F887
S31508002DB000C0A2EB06023CBF13F8016B2D02B7F860
S31508002DC002C038BF46EA0222EE0A0CFB06F6964215
S31508002DD00BD9CCF500650CEB551507EB08187D806B
S31508002DE04FF0080E08F5827743E6ACEB5C1C921BA5
S31508002DF0A7F802C04FF0100E4FF4807907F5017757
S31508002E00AE1B38E6A5EB5515A6EB0806A2EB08029D
S31508002E10ADB20CF1010C4DE6A7EB5717A6EB0C0665
S31508002E20A2EB0C02BFB2013579E6ACEB5C1CA6EB53
S31508002E300906A2EB09021FFA8CFC08F1010845EA0B
S31508002E400A05ABE6053FB6F1807F3EBF13F8015B86
S31508002E50360245EA02227608921BD51705F1010EBD
S31508002E60013F05EA06050EEB4C0C2A44EBD1B6F1F8
S31508002E70807F3CBF13F8017B36024FEA0C15B4F885
S31508002E8046C638BF47EA0222F70A0CFB07F79742FD
S31508002E9004F2446E40F2AC80CCF500660CEB561694
S31508002EA01FFA86FC0226B7F1807FA4F846C63EF8CC
S31508002EB016A04FEA460C0EEB46093EBF13F8016B07
S31508002EC03F0246EA0222FE0A0AFB06F6964240F24C
S31508002ED09980CAF500680AEB58181FFA88F8A9F805
S31508002EE00080B6F1807F3CBF13F8017B36023EF8BE
S31508002EF01CA038BF47EA0222F70A0AFB07F79742DF
S31508002F004FEA4C080EEB4C0940F28780CAF5006C74
S31508002F100AEB5C1C1FFA8CFCB7F1807FA9F800C08D
S31508002F2038BF13F8016B3EF818903CBF3F0246EADB
S31508002F300222FE0A09FB06F696424FEA480C87BFAC
S31508002F40C9F5006809EB5818A9EB591845F00805A2
S31508002F508FBF1FFA88F8921B1FFA88F8BE1B6F1CD2
S31508002F602EF80C807FF422AE009CABF10C0B04F516
S31508002F7089740B94DDE902A40294049C03940A9CC8
S31508002F800494B6F1807F3CBF13F8014B3602C0E9C2
S31508002F9006360B9B38BF44EA02228364019B026211
S31508002FA0C362029B4162C363039BC0F838A00364F3
S31508002FB0049BC0F834B04364036B23B9C368019A11
S31508002FC0934298BF03630899FFF7C7FB436A089AB9
S31508002FD09342836C07D282690D998A4203D2B3F56C
S31508002FE0897FFFF4E9ABB3F5897F3CD8002025E655
S31508002FF0ACEB5C1CD21B1FFA8CFCF71B45F00105D9
S31508003000032650E7AAEB5A18921B1FFA88F80CF108
S31508003010010C45F00205BE1B61E7AAEB5A1CD21B40
S315080030201FFA8CFC08F1010845F00405F71B73E745
S31508003030079FC2E5DDE902A50295049D03950A9D51
S315080030400495C4E5B9460CEB070E059F17F80580ED
S31508003050069F09F8018B0135AF4208BF0025CE450A
S31508003060F3D1614453E44FF489738364BEE7416244
S31508003070E3E52DE9F047D0E9075301278468D0F83E
S315080030802C80A740D0F834C0013F066907EA080734
S3150800309007EB0C1EB5F1807F36F81E900A4407D25E
S315080030A0914280F0DC8111F8014B2D0244EA03239A
S315080030B0EC0A09FB04F4A34278D2056B06F66C66A3
S315080030C058EA050519D0D0E900E70125BD40013DBC
S315080030D005EA080505FA0EF7456AD0F8148005B919
S315080030E0856A013D18F80550CEF1080E45FA0EF529
S315080030F03D444FF4C06707FB0566BCF1060F20D8B0
S3150800310001204000B4F1807F375A07D2914280F0FF
S31508003110A68111F8015B240245EA0323E50A7D43EB
S31508003120AB4229BF01302C46641B5B1BFF28E8D93C
S315080031300120B4F1807F80F02281914228BF0020CF
S315080031401DE1876BD0F824C04569BC45ACEB070E7A
S315080031502CBF0027876A05EB0E0010F807C0012070
S315080031604FF480774FEA4C0C07EA0C0E3D1875446D
S31508003170B4F1807F36F8158007D2914280F06F81CE
S3150800318011F8015B240245EA0323E50A08FB05F565
S315080031904000AB422BBF01302C46774627EA0E0784
S315080031A024BF641B5B1BFF28DCD9C1E7281B0CF175
S315080031B0C00CB0F1807FA3EB04034FEA4C0436F849
S315080031C01CC007D2914280F04A8111F8015B0002C7
S315080031D045EA0323C50A0CFB05F5AB4280F0A0803F
S315080031E002204FF0000E06F2646CB5F1807FBCF841
S315080031F0008007D2914280F0328111F8014B2D02EE
S3150800320044EA0323EC0A08FB04F4A34280F0EB80AB
S315080032100CEB071C00270CF1040C4FF008094FF0C3
S3150800322001084FEA4808B4F1807F3CF808A007D2A5
S31508003230914280F0148111F8015B240245EA0323C8
S31508003240E50A0AFB05F5AB4229BF08F101082C4639
S31508003250641B5B1BC845E4D3BEF1030F3FF669AF99
S31508003260A7EB09074744032F88BF4FF49C674FF025
S3150800327001059CBFFF0107F558776D0006EB050CA5
S31508003280B4F1807F3CF807E007D2914280F0E780EE
S3150800329011F801CB24024CEA03234FEAD42C0EFB87
S315080032A00CFC634529BF01356446A4EB0C04A3EB6B
S315080032B00C033F2DE1D9403D032D7FF63AAF0D2D86
S315080032C04FEA550700F2B18005F0010C013F4CF0BA
S315080032D0020CC5F100450CFA07FC05F2AF2565445A
S315080032E006EB45064FF0010C4FEA4C0CB4F1807F13
S315080032F036F80CE007D2914280F0B18011F8015BF4
S31508003300240245EA0323E50A0EFB05F5AB4231BF65
S315080033102C46641B5B1B0CF1010C013FE4D108E74A
S31508003320401B3444B0F1807FB4F818C0A3EB050302
S3150800333007D2914280F0938011F8015B000245EABA
S315080033400323C50A0CFB05F5AB4222D20EF1F00E9B
S31508003350B5F1807F36F81E4006D291427FD211F829
S31508003360010B2D0240EA0323E80A6043834208D290
S31508003370B0F1807F71D2914234BF03200020BDE8AE
S31508003380F0872D1A1B1A03204FF00C0E06F6682C30
S315080033902BE7401BB0F1807FB4F830C0A3EB0503E0
S315080033A006D291425BD211F8015B000245EA03237B
S315080033B0C50A0CFB05F5AB42E5D3401BB0F1807F8F
S315080033C0B4F84840A3EB050306D2914247D211F858
S315080033D0015B000245EA0323C50A6543AB4224BFE5
S315080033E05B1B451BCFE72D1BB5F1807FBCF8028020
S315080033F0A3EB040306D2914231D211F8014B2D02F8
S3150800340044EA0323EC0A08FB04F4A34205D20CEBB6
S31508003410071707F5827C0827FFE61B1B10274FF4C2
S3150800342080790CF5017C2C1BF9E6053FB4F1807F09
S3150800343006D2914213D211F8015B240245EA03230E
S3150800344064081D1BED0F013D2540013FA3EB050355
S31508003450ECD1042706F2446644E703208FE70020F0
S315080034608DE700230122C0E90B33C0E9123243621B
S315080034708365026570472DE9F74F9846002704468D
S315080034809DF83030D8F80060C8F8007000938B4675
S315080034901546FFF762F90D9B1F70A36CB3F5897F7C
S315080034A009D1236A13B901230D9A1370206A0038CB
S315080034B018BF01201EE0E36C8BB1A36D5EB3042B2D
S315080034C01BD994F85C30002B40F0D780D4F85D20E7
S315080034D0E36412BA22624FF0FF32A365E261636ABF
S315080034E05B4555D3A36CD3B9236AF3B904230020EB
S315080034F00D9A137003B0BDE8F08F5A1CA26515F833
S31508003500012B234483F85C20D8F80030013E0133B0
S31508003510C8F80030D1E7042BD3D80323E7E7009B8C
S31508003520002B40F0A7800223E1E7009B002BFAD08E
S315080035300123226D9AB1D4E9002111444FF4407257
S315080035408A400021206902F236728A4222D8012274
S31508003550C4E91022C4E90E22002262632265A76D1F
S31508003560002F68D1132E1BD943B33246294620466D
S31508003570FFF77FFDF0B93246294604F15C0000F0FA
S31508003580E1FCA665D8F800303344C8F80030C4E733
S315080035900023CEE74FF4806720F811700131D4E795
S315080035A03246294620460193FFF763FD019B002812
S315080035B0E1D00BB102285DD12A4602E0A6F1140239
S315080035C02A4459462046A561FFF7F1F8002854D148
S315080035D0A369D8F800205D1B2A44C8F80020761B8A
S315080035E01D465AE715F809100137D15509F10109A1
S315080035F0132F25D9A76504F15C0A93BB5246594691
S315080036002046C4F818A0FFF7D2F8B0BBA369A3EB0D
S315080036100A039F4236D3FA1A914533D3D8F80010D5
S3150800362009EB0302D31B19443744C8F800102B448E
S31508003630BE1AA065D4E74FF0000904F15B02D7E78C
S31508003640B145CFD104F15C0A3A4651462046A765F2
S315080036500193FFF70EFD019B88B9D8F800304B445B
S3150800366093E73A4651462046FFF703FD0028F4D073
S315080036700228C3D002230D9A137001203AE7002BC3
S31508003680BCD0F5E70B2035E72DE9F04F89B0DDF81A
S3150800369048809A469DF84C3004460493D8F8003082
S315080036A08B4602930023164617681360C8F8003045
S315080036B0029B149A0793D4E909318B4204BF00236D
S315080036C06362656A20464B1BBB4232BF0023049BDC
S315080036D07919CDE90032524607ABFFF7CCFE079AB7
S315080036E0029B61699B1A0293D8F800300390134431
S315080036F0C8F80030636A5846A3EB05092944924482
S315080037004A46059300F01EFC059BCB44ED1A336828
S315080037102F444B443360039B23B9B9F1000F01D002
S31508003720002FC5D1039809B0BDE8F08F10B504463F
S315080037304B680846216998470023236110BD70B578
S315080037404FF440751646D1E9003213449D4003698B
S31508003750044605F2367513B1436DAB420ED03146B9
S315080037602046FFF7E3FF3046336869009847206133
S31508003770B0FA80F040096565400070BD0020FCE79E
S3150800378038B504460D46FFF7D1FF6B6828466169D0
S3150800379098470023636138BD042A01D8042070477E
S315080037A0D1F80130B3F5805F38BF4FF48053C3605A
S315080037B00A78E02AF2D80923B2FBF3F303EBC30134
S315080037C0521AD2B202600522B3FBF2F2826002EB11
S315080037D082029B1ADBB243600020704770B5D1E9BC
S315080037E00152AA4205D290F840302B449B1A402B2E
S315080037F010D9002012E00A6890F84040D65C90F88C
S3150800380041200133224402F03F02013486548B6082
S3150800381080F840408B689D42EDD8012070BD2DE9A7
S31508003820F84390F840C017469E46D1E90123089D03
S31508003830D21A6244954204460E469DF824909DF895
S3150800384028800AD9FFF7CAFF002867D1142341F256
S31508003850020084F84630BDE8F883754555D800233C
S3150800386094F840200AB19D4235D1D6E9012191420A
S3150800387001D29D4241D89D424DD129463846D4F8B9
S315080038808820FDF7ADFFC4F88800B9F1000F04D011
S315080038902A463946E06C00F054F894F84330B8F1FB
S315080038A0000F06D08BB12B463A463946A06C00F07D
S315080038B037F894F8433043B1E36DA26D2B44934235
S315080038C0E36524BF002384F84330636D41F20300A7
S315080038D02B446365BFE794F84120A25CFA5494F838
S315080038E041200133013202F03F0284F8412094F866
S315080038F04020013A84F84020B2E73268525CFA5414
S31508003900B26801330132B260AFE741F20100142315
S3150800391084F846309FE741F20200F8E700209AE76C
S315080039201FB50C46194600F14803CDE9014200933C
S3150800393000F1440200F158032030FEF721FD04B0DF
S3150800394010BD00F00CB8014600F016B86822002138
S3150800395000F02FBB03460020C3E90000704707B5F7
S3150800396000F128030190009300F108030020FEF7F8
S315080039704BF803B05DF804FB02460B4600F128013C
S315080039800830FEF79FB810B500244A1EA1424FEA38
S3150800399082024FF0FF0108BF224640F8044B00F0B0
S315080039A008FB204610BD036840F204500133012B82
S315080039B098BF0020704740F2025070477047704722
S315080039C0FEF720B901221A70704730B504460D4635
S315080039D0A3B0D0F82C1202AA8023D0F82402FEF74E
S315080039E079F980232146009502AA04F12C00FDF7F7
S315080039F023FBD4F82C32C4F830028033C4F82C32B6
S31508003A0023B030BD1FB50023CDE90033CDE902133D
S31508003A10D0F83032044693B9D0E98A329A420ED2A7
S31508003A206946FFF7D2FFD4F8300270B141F20702B7
S31508003A3040F20123904208BF184604B010BDA3788F
S31508003A4033B1E07800F20220F7E740F20120F4E70C
S31508003A5040F20220F1E737B50C46054611462046E6
S31508003A60FEF703FE48B969462846FEF71BF920B952
S31508003A70019BC4F82452C4F8283203B030BD38B5C7
S31508003A8000F5DE7204460D46202300F5AA712C3097
S31508003A90FDF798FAD4F830321BB9D4E98A329A423B
S31508003AA003D3A07800B1E07838BD29462046FFF751
S31508003AB08CFFEFE738B5FDF703F89F20FCF7AEFF5C
S31508003AC0FCF7D8FF0546FCF7E1FF0446FDF702F8C8
S31508003AD09D2D17D0C22D03D01F2D0CD0002038BD28
S31508003AE042F614039C4214D042F616039C420CBFBD
S31508003AF00A200020F3E748F201439C420CBF0E203F
S31508003B000020ECE744F213039C420CBF1720002068
S31508003B10E5E70720E3E708B5FCF7D2FF0620FCF740
S31508003B207DFFBDE80840FCF7D5BF08B5FCF720FFC8
S31508003B30FFF744FF42F21070FCF7FAFEFCF7C0FFED
S31508003B40AB20FCF76BFFFCF7C5FF47F23050FCF7DC
S31508003B50EFFEFFF7AFFF90B10C38C0B2012801D9CC
S31508003B60002008BDFFF7D7FFFCF7AAFF0120FCF7E6
S31508003B7055FF0020FCF752FFFCF7ACFFF0E740F2D8
S31508003B800110EEE710B5FCF79BFF0520FCF746FF92
S31508003B90FCF770FF0446FCF79DFF04F0010010BD1A
S31508003BA008B5FFF7EFFF0028FBD108BD38B5054675
S31508003BB010460C46FEF7E6F9A04207D3A84205D3FD
S31508003BC02C4484428CBF0020012038BD0020FCE72D
S31508003BD038B505460C46FFF7E3FFFFF79CFFFCF7F1
S31508003BE06FFF2846FCF71AFF2046FCF723FFBDE8BF
S31508003BF03840FCF76FBF70B514460D4600222146C3
S31508003C000646FFF7D3FFA8B1FFF7CAFFFCF758FF30
S31508003C100320FCF703FF3046FCF70CFF2C44A542B3
S31508003C2003D1FCF757FF002070BDFCF723FF05F80A
S31508003C30010BF4E740F20240F6E72DE9F04114469D
S31508003C400F46002221460646FFF7B0FF002846D059
S31508003C50FFF7A6FFFCF734FF0320FCF7DFFE30462C
S31508003C60FCF7E8FE25468DB9FCF734FFF3B253B3EB
S31508003C7026F0FF0505F580753319AB4232BF254698
S31508003C80AD1BADB25CB92046BDE8F081FCF7F2FE8B
S31508003C90FF2805F1FF35E6D040F20340F4E7FFF7C9
S31508003CA07FFFFFF738FFFCF70BFF0220FCF7B6FE95
S31508003CB03046FCF7BFFE07EB0508B8450AD1FCF706
S31508003CC009FF641B2E44B4F5807F254628BF4FF4B0
S31508003CD08075D7E717F8010BFCF7A0FEEDE740F271
S31508003CE00240D1E74FF0FF307047FEF72CBD0023A6
S31508003CF02DE9F34105460DF107008DF807300C460E
S31508003D00FEF740F99DF807300646A3F10F02032A8D
S31508003D1025D9133BDBB2022B4FF6FF7347F6FF7725
S31508003D2032BF4FF400481F464FF4803840F6FF7301
S31508003D3044EA05021A423FD1214628460DF10702F8
S31508003D40FFF734FFD8B30DB9A6420ED06619351B56
S31508003D501CB13D4218D144451DD2254428E04FF6F2
S31508003D60FF774FF480383B46E2E7FFF719FFFFF786
S31508003D70D2FEFCF7A5FEC720FCF750FEFCF7AAFE0C
S31508003D80002002B0BDE8F08129462020FFF720FF79
S31508003D90A4F58054DBE72946D820FFF719FF4544E8
S31508003DA0A4EB0804D7E72020FFF712FFA4F58054F8
S31508003DB0291B002CF7D1E3E740F20440E1E740F283
S31508003DC00240DEE708B5FFF7EBFEFCF779FEB920FF
S31508003DD0FCF724FEFCF77EFEFFF7F1FD002008BD88
S31508003DE0EFF3108072B6704700B962B6704770B5C7
S31508003DF0054614460E46FFF7F3FF2B685C40344031
S31508003E005C402C60BDE87040FFF7EEBF83691B0677
S31508003E10FCD5406AC0B2704783695A06FCD5C163AF
S31508003E2083699B06FCD5406AC0B2704783695B0606
S31508003E30FCD5C1637047B0F5802F22D010D8B0F5F5
S31508003E40003F20D007D818B3B0F5803F08BF4820F8
S31508003E5018BF01207047B0F5403F08BF2C20F7E790
S31508003E60B0F5302F11D007D8B0F5E02F0FD0B0F548
S31508003E70202F08BF1020EBE7B0F57F0F08BF0620FC
S31508003E80E6E74B2070472A2070471120704721200B
S31508003E907047436813B9416070475B685A68012ADE
S31508003EA0FBD159607047836813B9816070475B68B6
S31508003EB05A68012AFBD159607047C369032B9FBF13
S31508003EC000EB83020133D160C3617047C369042BD9
S31508003ED014D84FF09842116CC902FCD504339B00E4
S31508003EE013650168103B11604168116050F8081F9E
S31508003EF011604FF098420344984200D1704750F839
S31508003F00041F1160F8E72422002100F052B870B5AA
S31508003F1015460E4624220021044600F04AF825F0EC
S31508003F204003802B02D0B5F5807F08D12046314664
S31508003F3040F8045BEA0800F005F8002070BD6FF051
S31508003F401F00FBE70A44431E914200D1704710B593
S31508003F5011F8014B914203F8014FF9D110BD01390F
S31508003F60024410B5904201D1002005E0037811F80B
S31508003F70014FA34201D0181B10BD0130F2E7884259
S31508003F8010B501EB020402D98442234607D8431E22
S31508003F90A14208D011F8012B03F8012FF8E70244D3
S31508003FA001468A4200D110BD13F8014D02F8014DB1
S31508003FB0F7E702440346934200D1704703F8011B12
S31508003FC0F9E7000000000000000000000000000003
S31508003FD000000000000000000000000000000000D3
S31508003FE0F8B500BFF8BC08BC9E467047F8B500BFD8
S31508003FF0F8BC08BC9E467047B814B6F1E0CFF3ADDE
S31508004000B7DD25C9FA79B7130000000013B779FAA6
S31508004010C925DDB7ADF3CFE0F1B614B8010200004B
S3150800402000000000144300004000000000000502E4
S315080040300000000000000000000000000000000072
S315080040400000000000000000000000000000000062
S3150800405000000000000000000000000007B0CD5E70
S315080040600200000000000502184300000060000876
S3150800407000003208F0040100E5250008E9250008DB
S31508004080C50300086B2600089B260008C8410008DF
S31508004090CB2600084127000800000000012600087A
S315080040A0110600080400000700000D1013001A206E
S315080040B02630384050000000FD0707FDA90C00080F
S315080040C0D90C00086D0D00084F270008EB17A6034A
S315080040D00201000003000000FA0606FA0F040000B9
S315080040E003000000F40A0AF40505000001000000B8
S315080040F0EB17A65E0A06000001000000F50909F59F
S315080041000307000001000000F60808F6060800008C
S3150800411000000000FE0101FE080800000000000083
S31508004120FD0303FD0C08000000000000FD0707FD65
S315080041301308000000000000F90707F9100900003D
S3150800414002000000F30B0BF3110A00000300000045
S31508004150F70A0AF7120B000003000000FC0404FC2F
S315080041600D0C0000030000008000000000000000A5
S315080041700000000000000000000000000000000031
S315080041800000000000000000000000000000000021
S315080041900000000000000000000000000000000011
S315080041A000000000000000006A09E667BB67AE85EC
S315080041B03C6EF372A54FF53A510E527F9B05688CFB
S315080041C01F83D9AB5BE0CD19000100000D1E000866
S315080041D0A51C0008D51C0008A51D0008E91D000837
S315080041E0A739000887390008B7390008573A000880
S315080041F0053A0008191D0008853B0008F73B00082A
S315080042003B3C0008EF3C0008E53C000800001000B5
S315080042100000040000001000000004000000080070
S315080042200000100000001000000020000000200020
S315080042300000400000008000000008000000100098
S31508004240000008000000040000000800000010003C
S3150800425000002000008000000000010000000200AD
S315080042600000040000000800000000000100000033
S315080042700000000000001000100203009A01000070
S31508004280000C0000001000000000080000000000FC
S315080042900100000001000000100203009A0100005E
S315080042A000300000001000000000080000000000B8
S315080042B00100000000020000100203009A0100003D
S315080042C000E00100001000000000400000000000AF
S315080042D00100000000200000100203009A010000FF
S315080042E00078000000100000000010000000000028
S30D080042F00100000000000100B6
S311080042F804430008A85D00200400000034
S315080043047D0B0008B50B0008750200084D0200086D
S705080001C928
