S04D0000626F6F746C6F616465722D73746F726167652D696E7465726E616C2D626C655F65667233326267317032333266323536676D34385F62726434313030612D636F6D62696E65642E73333700
S3150000000090040020A9050000E5050000E9050000B0
S31500000010ED050000F1050000F505000000000000F8
S315000000200000000000000000C0050000F905000007
S31500000030FD050000000000000106000005060000A6
S3150000004010B56249624A01E069B1491E1369DC07CD
S31500000050FAD441B15060012010601169480705D5F6
S315000000604FF0FF3010BD6FF0020010BD002010BD34
S3150000007003460020002900D1704770B5544C53F850
S31500000080042BE26008252560491E504A01E04AB16A
S31500000090521E2569EE07FAD422B12269950704D4C7
S315000000A029B1ECE76FF0020070BD6FF0010070BD82
S315000000B02DE9F84F444D0C46A96B834600208EB2BD
S315000000C006B1012641F67131A9634FEA92082B6801
S315000000D043F001032B608146A24612E0C7F30A07EC
S315000000E0C7F50067BF08A8EB0900B84238BF074646
S315000000F039465046FFF7BCFF01000CD1B9440AEB64
S31500000100870AC14507D20BEB89073846FFF798FFE8
S315000001100100E3D00DE0DBF8002021688A4208D018
S315000001205846FFF78DFF010003D101212046FFF756
S315000001309FFF2968490849002960F6B20EB10021DF
S31500000140A963BDE8F28F30B51F4B20490246986B74
S3150000015080B200B1012041F671349C631D6845F000
S3150000016001051D609A6001225A605C69620704D528
S3150000017000F020F84FF0FF3030BD02225A6000E058
S31500000180491E5A69D40701D50029F9D15A6994073D
S3150000019004D500F00FF86FF0010030BD0029196892
S315000001A004D100F008F86FF0020030BD00F003F84B
S315000001B0002030BD196849084900196008B10020BF
S315000001C09863704774E7000008000E408096980018
S315000001D00C000E40F8B5282001680869CD68846ACD
S315000001E0AC4225D305F560518C4221D2641B04191B
S315000001F0264E2168B1421BD1E168254F4FF0FF32F0
S3150000020000F050F8B84213D100F044F80ED202685C
S31500000210B2420BD18168A268914207D3C1684FF000
S31500000220FF32284600F03EF8B84201D00120F2BD68
S315000002300020F2BDF8B5282000680569C468AE6ADA
S31500000240361BAE19274604E0384600F05DF807F580
S315000002500067F26810198742F6D32946204600F057
S315000002605AF890B100F016F80CD2026807498A4293
S3150000027008D1C1684FF0FF32204600F013F8044958
S31500000280884201D00020F2BD0120F2BD07B0CD5E4C
S31500000290E320BBDE40F628000068A0F50061B1F55A
S315000002A0605F704730B50A4B1C6844F020041C6040
S315000002B00125084B1D609A605D6002E010F8014B55
S315000002C09C610A46511E002AF8D1D86930BD00BF8C
S315000002D0B0400E4000C0014080B58308800700F0A2
S315000002E006F8042269469800FFF76CFF02BD05D5A3
S315000002F04FF6FF7242EA01420092704741F07F4199
S3150000030041F47F010091704780B5FFF71CFF401E46
S315000003108041C00F02BDF8B5140005460E4624D034
S3150000032005F0010104F00100014320D1AA0707D519
S3150000033036F8021B2846FFF7CFFFC0B9AD1CA41E36
S31500000340042C0CD3A708BF003A4631462846FFF7CF
S3150000035039FF790806EB41067D19E41B38B924B14B
S3150000036031882846FFF7B8FF08B90120F2BD002002
S31500000370F2BD30B40EE00268436802440830DC0780
S3150000038044BFA9F10104E31852F8045B43F8045B87
S31500000390091FF9D150F8041B0029ECD130BC704775
S315000003A04FF000514AF6C03308804FF6F0704A8885
S315000003B002409A421CBF4FF20F024A80704780B536
S315000003C0FFF7EEFF0948016821F4E06141F400718E
S315000003D00160BFF34F8F064906480A6802F4E062DF
S315000003E002430A60BFF34F8F00BFFDE700500E4087
S315000003F00CED00E00400FA0510B54FF000524FF680
S31500000400F071508801EA00034AF6C034A3421CBFCB
S315000004104FF20F03984201D1108810BD002804BF87
S315000004201088012802D140F2022010BD4FF400705E
S3150000043010BD000080B51948194A01681160FFF720
S31500000440F9FE0028FBD040F20220FFF7B8FF00209B
S3150000045002BD000010B5134C00202060FFF7CCFF52
S3150000046011490A68B2F5803F0AD040F20921884254
S3150000047018BFB0F5007F03D1FFF7ACFE00B110BD89
S315000004804FF40060206002461046016881F3088838
S3150000049081F3098840688746FEE70000880000204F
S315000004A08C00002008ED00E004500E400C490D4879
S315000004B008600D48026842F4700202600B48416908
S315000004C041F4005141610268920892000260416B5A
S315000004D0490849004163016A21F080510162704771
S315000004E008ED00E00000000088ED00E040300E401E
S315000004F010B5074979441831064C7C44163404E09B
S315000005000A68081D114488470146A142F8D110BD6A
S315000005102C0000003C0000004EF68851CEF200018F
S31500000520086840F470000860BFF34F8FBFF36F8F09
S315000005304FF00070E1EE100A7047000037FEFFFF33
S315000005401000000090000000800000200000000065
S315000005500120C046002801D0FFF7CAFFAFF3008094
S315000005600020AFF30080FFF765FF00F000F800F011
S3150000057001B800000746384600F002F8FBE7000025
S315000005802021090326311820ABBEF9E705480146AC
S3150000059003B4684680F30988AFF30080FFF7BCFF19
S315000005A0FFF7D6FFA5EDF5FE0248804702488047D3
S315000005B002480047AD040000550400008D05000008
S315000005C0AD1007B00100000000000C01000800009B
S315000005D00080000000F0490200800000C0EA21010E
S315000005E0C0EA2101FFF7FEBFFFF7FEBFFFF7FEBF20
S315000005F0FFF7FEBFFFF7FEBFFFF7FEBFFFF7FEBF29
S30D00000600FFF7FEBFFFF7FEBF86
S3150000080080100020E1350000AB0C0000851E0000C2
S31500000810430D000093120000BF21000000000000FD
S31500000820000000000000000024090000FF26000070
S31500000830A732000064090000C73200005F350000DF
S31500000840454652333200000001000000010000005E
S31500000850001802000058010080000000000000009F
S315000008600000000000000000000000000000000082
S315000008700000000000000000000000000000000072
S315000008800000000000000000000000000000000062
S315000008900000000000000000200000000001000031
S315000008A0050C0000FFFFFFFFFFFFFFFFFFFFFFFF3D
S315000008B00000000000000000000000000100000031
S315000008C0FFFFFFFF512563FCC2CAB9F3849E17A739
S315000008D0ADFAE6BCFFFFFFFFFFFFFFFF00000000D1
S315000008E0FFFFFFFF96C298D84539A1F4A033EB2D40
S315000008F0817D0377F240A463E5E6BCF847422CE12C
S31500000900F2D1176BF551BF376840B6CBCE5E316B6F
S315000009105733CE2B169E0F7C4AEBE78E9B7F1AFE33
S31500000920E242E34F07B0CD5E0100000000000C017B
S31500000930FC2D00000040000000000400F000010053
S31500000940372100003B2100003F2300004D3100000D
S315000009507F310000A4090000B53100001332000009
S315000009600000000013B779FAC925DDB7ADF3CFE073
S31500000970F1B614B80101000002000000F8350000CD
S315000009804000000000000C01000000000000000014
S315000009900000000000000000000000000000000051
S315000009A00000000000010000F52300004B240000B9
S315000009B07924000097240000DD240000173400008D
S315000009C00D330000EB340000FD2400002525000057
S315000009D081250000650D0000790D0000950D0000D1
S315000009E0DD0D0000D70D0000024870470248704731
S315000009F0024870474A43E00F6A43E00F8642E00F21
S31500000A00002070470020704740F6280001680869FA
S31500000A10704728200068704740F628000068704735
S31500000A202820044A00680168914201D10069704794
S31500000A3000207047AD1007B001207047890001EB18
S31500000A40401101F184410A60704710B50A684B688D
S31500000A508C68C968026003600460016010BDF4E739
S31500000A601FB5044611F0030008D01022684600F0B6
S31500000A701DF969462046FFF7F2FF1FBD009120468B
S31500000A800099FFF7ECFF1FBD10B502680368046804
S31500000A9000680A608C604B60C86010BD1FB50C46CC
S31500000AA014F0030108D06946FFF7EEFF10226946ED
S31500000AB0204600F0FBF81FBD00940099FFF7E4FF05
S31500000AC01FBD38B5102A04460D460DD1012200215E
S31500000AD0FFF7B4FF04F5887429462046FFF7B5FFF3
S31500000AE005F11001204606E000220021FFF7A6FFCF
S31500000AF0294604F12400BDE83440A6E738B504468B
S31500000B0011F0030088B015460CD0082D0CBF10223A
S31500000B102022684600F0CAF82A4669462046FFF7B2
S31500000B20D0FF04E0009120460099FFF7CAFF09B004
S31500000B3030BD242100F0C6B870B50D4604461646F1
S31500000B40242100F0BFF8802E04D0C02E0AD0B6F5BE
S31500000B50807F0AD12660F2082946201D00F0A6F8FB
S31500000B60002070BD6FF0710070BD6FF01F0070BD8A
S31500000B70484600F0AAB82DE9F64F83B0002A14BF04
S31500000B80146800240190002702680F9EDDF840805B
S31500000B900091802A18BFB2F5807F029304D06FF0CF
S31500000BA020006EE000F070F80098874265D2002CB5
S31500000BB0F8D100F094F80546002068604FF44041F3
S31500000BC029604FF0000A00F09FF8814601980168FD
S31500000BD080290CBF08221022011D2846FFF78EFF30
S31500000BE0029905F18400FFF73BFFFFF7C1FF00986C
S31500000BF0A0EB070915E000F052F80AF1010A00F02F
S31500000C0083F88346F11905F1A000FFF729FF08EBE9
S31500000C10070105F18000FFF741FF584600F055F83F
S31500000C201037BAEB191F17D24820A8600521A96012
S31500000C30E1E77CB94820A8600521A96000F02FF8FB
S31500000C4000F062F881460E9905F18000FFF726FF55
S31500000C50FFF78EFF00F018F80098C01BE9D100F0EE
S31500000C6053F88146029905F18400FFF717FFFFF755
S31500000C707FFF284600F03CF896E7049800B1046030
S31500000C80002005B0BDE8F08F0E9AF15D105D414081
S31500000C9008F80710641C04F00F047F1C70472869CD
S31500000CA08107FCD40320A8607047FEE74AB1000024
S31500000CB011F8013B521E00F8013B1CBF11F8013B25
S31500000CC0F8E77047002200F023B800B962B6704713
S31500000CD0890001EB401101F184410A60704780B53B
S31500000CE0FFE7012201210648FFF7F2FF054802BD92
S31500000CF00449884203D1002201210148E8E77047F0
S31500000D00B0400E4000000F40EFF3108072B67047FF
S31500000D1000B500BF130096469446103928BFA0E8D8
S31500000D200C50FAD85FEA417C28BF0CC048BF40F897
S31500000D30042BC90728BF20F8022B48BF00F8012B57
S31500000D4000BDFEE736A07047094A914238BF90427F
S31500000D5001D300207047081890428041C00F7047A9
S31500000D60002070470348006800F00100704700004B
S31500000D70010004001C000E4070B500F027F810B901
S31500000D8040F2024070BD324621462846FFF78EFFEC
S31500000D90002070BDF8B500F019F840F2024798B18E
S31500000DA0002000E0001DB04206D2015911F1010FEA
S31500000DB0F8D040F20340F2BD32462946204600F004
S31500000DC0A5F808B10020F2BD3846F2BD0D4616461C
S31500000DD004463146B8E74FF0FF30704738B5054650
S31500000DE00C46600501D1690502D040F2044032BDCF
S31500000DF021462846FFF7A8FF48B1284600F043F8E9
S31500000E00B4F5006405F5006504D00028F5D140F27C
S31500000E10024032BD0028FAD0002032BD00207047C3
S31500000E20010203002800000028000000000800005E
S31500000E3000000400400800000200000080B583089E
S31500000E40800700F013F804226946980000F04EF976
S31500000E5002BD38B584088007154600F007F804235C
S31500000E606A46A100284600F042F932BD05D54FF684
S31500000E70FF7242EA01420092704741F07F4141F41D
S31500000E807F010091704780B500F0F1F8401E804167
S31500000E90C00F02BD2DE9F0411D46082D06468846C5
S31500000EA0144630D201214FF48A4000F0A7F944B32A
S31500000EB006F0010104F00100014324D1B00708D572
S31500000EC038F8021B2A463046FFF7C3FFD8B9B61CCE
S31500000ED0A41E042C0DD3A708BF003B46424631464C
S31500000EE0284600F004F9790808EB4108BE19E41B0E
S31500000EF048B934B1B8F800102A463046FFF7A9FFC2
S31500000F0008B9012000E00020BDE8F081F8B5140022
S31500000F1005460E4624D005F0010104F00100014308
S31500000F2020D1AA0707D536F8021B2846FFF786FF09
S31500000F30C0B9AD1CA41E042C0CD3A708BF003A46AA
S31500000F403146284600F0D2F8790806EB41067D19AD
S31500000F50E41B38B924B131882846FFF76FFF08B97A
S31500000F600120F2BD0020F2BD10B59649964A01E077
S31500000F7069B1491E1369DC07FAD441B150600120FA
S31500000F8010601169480705D54FF0FF3010BD6FF0AE
S31500000F90020010BD002010BD03460020002900D12C
S31500000FA0704770B5884C53F8042BE260082525601D
S31500000FB0491E844A01E04AB1521E2569EE07FAD459
S31500000FC022B12269950704D429B1ECE76FF002003B
S31500000FD070BD6FF0010070BD2DE9F84F784D0C46DD
S31500000FE0A96B834600208EB206B1012641F6713107
S31500000FF0A9634FEA92082B6843F001032B608146F0
S31500001000A24612E0C7F30A07C7F50067BF08A8EBB8
S315000010100900B84238BF074639465046FFF7BCFFBD
S3150000102001000CD1B9440AEB870AC14507D20BEB84
S3150000103089073846FFF798FF0100E3D00DE0DBF89B
S31500001040002021688A4208D05846FFF78DFF01002C
S3150000105003D101212046FFF79FFF2968490849006F
S315000010602960F6B20EB10021A963BDE8F28F30B552
S31500001070534B54490246986B80B200B1012041F6A9
S3150000108071349C631D6845F001051D609A6001225C
S315000010905A605C69620704D500F020F84FF0FF3013
S315000010A030BD02225A6000E0491E5A69D40701D5B4
S315000010B00029F9D15A69940704D500F00FF86FF0AA
S315000010C0010030BD0029196804D100F008F86FF05E
S315000010D0020030BD00F003F8002030BD1968490851
S315000010E04900196008B100209863704774E72DE93C
S315000010F0F04D924602F1604247F60145AA424FD2B0
S315000011003026324A464332444FF4401515600027D4
S315000011105760976097612A4DAE6BB6B206B101264D
S3150000112041F67137AF6301272C68DFF8A4C0DFF8FA
S31500001130A4E044F001042C6087404FF0100B24E03B
S31500001140A96001246C606C69640729D44FEA98048D
S31500001150641E240144F06054D460C2F810A01E4CF2
S315000011605461DEF800403C43CEF80040C5F804B0B8
S31500001170DEF80840C440E407FAD5CCF80870CCF88D
S3150000118000704144C244A3EB080363B101F5006457
S31500001190E40AE402A4EB01084345D1D29846CFE71E
S315000011A04FF0FF300AE004206860F6B2296849086B
S315000011B0490029600EB10020A8630020BDE8F08D2B
S315000011C008000E40809698000C000E4080200E40CD
S315000011D020200E4420200E4018000E40890001EB0E
S315000011E0401101F184410A607047DFF874104A68C3
S315000011F0D30702D40A680242FCD1704770B50C4688
S315000012000246110A01F00F010020491E0929DFF8E4
S31500001210545013D8DFE801F00513121207151812FF
S315000012201B1FDFF83850C2F3043608B1FFF7DDFFA5
S31500001230224631462846BDE87040CFE770BD1035DE
S31500001240F1E730350120EEE738351020EBE7403581
S315000012504FF48030E7E7DFF81050E4E700400E4037
S3150000126040410E40B0400E4050410E404268520987
S31500001270042941EA42120AD9491F022905D9C91E81
S31500001280032904D9091F022902D842F0100242603C
S315000012907047FEE710B50B4A516813688C0004F0DE
S315000012A03C04C3F381110C438470116801F03F01C3
S315000012B041709368D16803F0F003C1F303110B4347
S315000012C0037010BDE0FF0FE02DE9F8415FEA00086A
S315000012D00F4618BF002FA1B016461D4605D0002E9A
S315000012E018BF002D01D0289C14B940F2016023E0FC
S315000012F001211348FFF782FF402111A8FFF7E2FC06
S31500001300294611A800F0D4FA214619A800F0D0FA0F
S31500001310402101A8FFF7D6FC394601A800F0C8FA1B
S31500001320314609A800F0C4FA01A8009011AB2022AA
S315000013304146044800F0CBFA22B0BDE8F08100BF78
S3150000134000150A0000000F4010B50A684B688C684B
S31500001350C968026003600460016010BD10B50268D0
S315000013600368046800680A608C604B60C86010BD42
S3150000137038B504460D46FFF7E7FF05F11001204694
S31500001380BDE83440E0E738B504460D46FFF7E6FF12
S3150000139005F110012046BDE83440DFE7082250F889
S315000013A0041B21B9521EFAD10020C0B270471000AA
S315000013B0FBD00120F9E7F8B504460D461646FFF7BF
S315000013C0A3FC0746294604F58470FFF7D1FF314692
S315000013D004F58670FFF7CCFF00F05EFADFF8D00662
S315000013E02065012161656069000E00F0010080F052
S315000013F00100F2BD2DE9F84F88B004460D4692462D
S315000014001E46FFF781FC834604F5827705F140010D
S315000014103846FFF7ADFF04F5867851464046FFF79C
S31500001420A7FF04F588790AF1200100F0EEF900F033
S31500001430E6F900F034FA04F5847AFFF765FC834692
S3150000144029463846FFF794FF05F1200100F07BFBA3
S3150000145005F1400100F0D9F900F0D1F9DFF85406A2
S31500001460DFF85416206561650120A06504F58079D2
S31500001470FFF74AFC834606F140014846FFF783FF23
S3150000148069465046FFF77FFF00F0B9F9FFF73CFCCD
S31500001490834629464046FFF76BFF00F0B0F9DFF8B8
S315000014A01C06DFF81C16206561650121DFF81406AD
S315000014B0A065E165FFF728FC804605F12001384666
S315000014C0FFF756FF4046FFF700FCDFF8FC05DFF8A4
S315000014D0FC1500F024F8054631465046FFF753FF49
S315000014E02846FFF7F2FBFFF70FFC0546694638462C
S315000014F0FFF73EFF2846FFF7E8FBDFF8D405DFF8E5
S31500001500D41500F00CF8044606F120014846FFF712
S315000015103AFF2046FFF7D9FB09B0BDE8F08F2065FA
S3150000152061650120A065FFF7EFBB2DE9F041054697
S315000015300E461C46174600F05EF901222260FFF7B0
S31500001540E3FB8046394605F58070FFF711FF31460B
S3150000155005F58270FFF70CFF05F5847621463046C7
S31500001560FFF706FF4046FFF7B0FBDFF86C0528657E
S315000015700BE0DFF86815DFF8680529656865DFF8B0
S315000015806415DFF86405A965E8656869C101F0D5E9
S31500001590FFF7BAFB054621463046FFF7F4FE28461C
S315000015A0BDE8F041FFF791BB50F8043B934203D0EE
S315000015B007E050F8042B22B9091F0129F9DA0120A6
S315000015C07047002070472DE9F04FA1B006460D4642
S315000015D092461C46202101A8FFF774FB01220192C6
S315000015E000F009F9202104F12000FFF76BFB202110
S315000015F004F14000FFF766FB05213046FFF736FE93
S315000016000020306030637063FF275046391107EBC6
S31500001610D161491150F82120A7EB4111CA40D307E7
S3150000162002D47F1E002FF1DC06F5867A06F5807857
S3150000163006F582790090D8E0202229462046FFF759
S3150000164035FB202205F1200104F12000FFF72EFBD7
S31500001650202201A904F14000FFF728FBC4E0FFF7B0
S3150000166053FB00F0CFF800F0CAF8DFF88004DFF88B
S31500001670801430657165DFF87C04B065FFF744FBC4
S31500001680834611A94046FFF77EFE00F0B8F8FFF743
S315000016903BFB834621464046FFF76AFE00F0AFF863
S315000016A0DFF85404DFF85414306571654FF4867022
S315000016B0B065FFF729FB834619A95046FFF763FE7D
S315000016C009A94046FFF75FFE00F099F8FFF71CFBFB
S315000016D0834604F1400100F098F800F090F8DFF836
S315000016E020043065012100F032FA8346214606F5D2
S315000016F08470FFF73DFE00F082F8DFF80804DFF89B
S315000017000814306571650121DFF80004B065F165E4
S31500001710FFF7FAFA834609A906F58470FFF728FE53
S3150000172019A95046FFF724FE00F069F8DFF8E00338
S31500001730DFF8E01330657165DFF8DC03B065FFF7AD
S31500001740E3FA8346214606F58870FFF71CFE00F093
S3150000175056F8FFF7D9FA00F055F804F1400106F5FE
S315000017608470FFF705FE11A95046FFF701FE00F051
S3150000177046F8DFF8A803DFF8A81300F0E7F9834678
S3150000178004F140014046FFF7FEFD04F120015046FA
S31500001790FFF7F9FD00F033F83811009907EBD06038
S315000017A0401151F82020A7EB4010C240D1071BD5AD
S315000017B0002220212046FFF7F7FE78B100222021E3
S315000017C004F12000FFF7F0FE40B10022202104F1D1
S315000017D04000FFF7E9FE00287FF42EAF23462A4695
S315000017E021463046FFF706FE7F1E002F7FF537AFF6
S315000017F021B0BDE8F08F20212046FFF763BA584696
S31500001800FFF763BA834604F120014846B0E52DE9A7
S31500001810F0410F4690B0044615460521FFF726FD18
S31500001820002222602263626368462022DFF8F412F7
S31500001830FFF73CFA08AB6A4607F140012046FFF77E
S3150000184074FEFFF761FA804608A904F58270FFF777
S315000018508FFD04F5867639463046FFF789FD07F198
S31500001860200104F58870FFF783FD4046FFF72DFA47
S3150000187000F015F8FFF748FA074605F1200104F5D0
S315000018808070FFF780FD29463046FFF77CFD00F0AB
S3150000189003F810B0BDE8F0813846FFF716BA934852
S315000018A0A149206561650121A048A065E1657047F1
S315000018B038B50D4604462021FFF704FAFFE71F203E
S315000018C04242295C2244401ED177F9D531BD2DE92B
S315000018D0F04FB9B006460D4617461C46602121A8B2
S315000018E0FFF7F0F9602109A8FFF7ECF93DB1009484
S315000018F020001CBF429C002C01D0002F02DC40F2CD
S315000019000160D1E000203060306370630C217068A4
S31500001910DFF81C8240F0100070603046FFF7A6FC2E
S31500001920706820F4406040F40060706020227068A7
S3150000193020F4407040F40070706008F12C0111A88A
S31500001940FFF7B4F911AA21463046FFF734FD78B9FE
S315000019502046FFF723FD58B111AA04F120013046B5
S31500001960FFF729FD20B904F12000FFF717FD10B994
S3150000197040F2026098E0202FC8BF2027202119A836
S31500001980FFF7A0F9002014E03A1A521E09A992089E
S31500001990A7F1010E01EB8201AEEB000E2B5C0A6C87
S315000019A04FEACE0E0EF0180E03FA0EF31A430A642F
S315000019B0401CB842E8DBFFF7A7F9074606F5847531
S315000019C019A92846FFF7D4FCFFF766FF594830658A
S315000019D006F58077FFF798F9814619A93846FFF78B
S315000019E0D2FC4846FFF771F901AB11AA04F12001B8
S315000019F03046FFF79AFDFFF787F9834601A906F5FA
S31500001A008270FFF7B5FC06F5887919A94846FFF7F5
S31500001A10AFFC06F5867A00F095F8FFF7F0FE46482B
S31500001A20464900F093F8834619A94846FFF7ABFCF0
S31500001A3001A93846FFF7A7FCFFF7E1FE21AB19AA7B
S31500001A4008F14C013046FFF7BEFD009909AB01AA2B
S31500001A503046FFF7B8FD21AA21A93046FFF7D7FE89
S31500001A6009AB21AA09A93046FFF7C4FC09AA09A9AE
S31500001A703046FFF7CCFEFFF747F907460C21304604
S31500001A80FFF7F4FB09A92846FFF772FC00F05AF8A5
S31500001A90FFF702FF2A481449306571657069C10174
S31500001AA04CBF002040F2046039B0BDE8F08F000062
S31500001AB03035DA10D01482CB1481E11C8CE11C8104
S31500001AC01C84D91C8391D11CE014D8141482E11C07
S31500001AD084D31482D11CE01439398401D02484FCC7
S31500001AE01C82FED88B1C81A0393801008AD11C814A
S31500001AF0821CC00C0C0C0100C00C0C83D91C83D8B2
S31500001B008AD11C83DA0C811482D11C81C80C0C8109
S31500001B108CE11CD01484E31482D11C01D81483D127
S31500001B201CC00C01A4080000D91C83D11C81E11C37
S31500001B309808000030D00C0130E11C8430D91C011B
S31500001B403035DA1421465046FFF712BC3065716510
S31500001B50FFF7DAB82DE9FC478A461446984670B96D
S31500001B60002C43D00B990A683F2A0AD848680028F7
S31500001B7018BF5FEA080905D10FF24C1902E0414887
S31500001B8035E0C14602F03F06A218A242C6F1400562
S31500001B900A6002D24868401C48600A9F96B1AC426F
S31500001BA010D32A465146B819FFF780F80120009055
S31500001BB043463A464946002000F0B5F8C146AA44D5
S31500001BC0641B00263F2C0BD9A509009543465246B7
S31500001BD04946002000F0A7F80AEB851AA4EB851405
S31500001BE024B122465146B819FFF760F80020BDE837
S31500001BF0F687F8B586B00C4615461E4640BB002152
S31500001C0002AF4A42920056F82130D21D00EBC300C3
S31500001C10B85402A8104456F82120C01E52098270FA
S31500001C2056F82120520B427056F82120520D0270B0
S31500001C3056F82100400F491C0129E2D9327802F0FA
S31500001C403F02382A34BFC2F13802C2F1780201E0FD
S31500001C500C4814E00196009523460B490020FFF737
S31500001C6079FF019600952346082202A90020FFF776
S31500001C7071FF0C9820222146FFF718F8002007B0C4
S31500001C80F0BD000080AFFFFF580800006821FFF795
S31500001C9019B800210160416000207047E0B500F1ED
S31500001CA028030093019000F108030020FFF752FF7C
S31500001CB00EBD80B50091034603F1280203F1080129
S31500001CC00020FFF796FF02BD6A09E667BB67AE858F
S31500001CD03C6EF372A54FF53A510E527F9B05688C08
S31500001CE01F83D9AB5BE0CD1910B50A684B688C68C9
S31500001CF0C968026003600460016010BD10B5026827
S31500001D000368046800680A608C604B60C86010BD98
S31500001D1038B504460D46FFF7F1FF05F110012046E0
S31500001D20BDE83440EAE72DE9F84F98B006460C4680
S31500001D3090469946FEF7D3FF054656BB0420286019
S31500001D4000216960E964686820F44060686029637E
S31500001D500020686354F8201009BA4DF82010401C82
S31500001D600828F7D3FEF7D0FF044605F582766946C4
S31500001D703046FFF7B9FF04A93046FFF7B5FF204606
S31500001D80FEF7A3FF2E4828650027229C05F5D2768C
S31500001D9025E02C4851E018F0030008EB871A06D01E
S31500001DA04022514608A8FEF781FF0DF1200AFEF7F2
S31500001DB0ABFF8346514600F049F80AF1100100F0E6
S31500001DC045F80AF1200100F041F80AF1300100F06F
S31500001DD03DF85846FEF779FF1B4828657F1CA74249
S31500001DE0D9D319F0030005F580760FD0FEF78CFFE6
S31500001DF0044669463046FFF78BFF2046FEF765FF2F
S31500001E00202269464846FEF751FF09E0FEF77CFFAF
S31500001E10044649463046FFF77BFF2046FEF755FF4E
S31500001E202846FEF765FF002059F8201009BA49F840
S31500001E302010401C0828F7D3002019B0BDE8F08F09
S31500001E40888AC80180AFFFFF070D810130464BE746
S31500001E5030B50A4B1C6844F020041C600125084B71
S31500001E601D609A605D6002E010F8014B9C610A46B5
S31500001E70511E002AF8D1D86930BD00BFB0400E40CF
S31500001E8000C001404FF4017000F019B938B5574948
S31500001E90574A0120086068461468FFF7FBF9240ECC
S31500001EA08F2C10DA5348544C016841F0040202604A
S31500001EB04FF05013002230255543521C6351062A19
S31500001EC0F9D3016000E006DC4C480168C909C90184
S31500001ED041F0200101609DF80100012804D1484825
S31500001EE0016841F00401016000204649086000F0E5
S31500001EF022F900F0B5F808B900F0A3F800F021F9CE
S31500001F0004000ED100F0ACF808B100F0A4F840F2DD
S31500001F10012000F0D4F84FF4017000F0D0F8002052
S31500001F2032BD00F09DF808B900F090F800F0A5F871
S31500001F30012802DD00F08FF8FEE700F0ADF8324828
S31500001F4001E00098401E009000980128F9DA40F25E
S31500001F5005418C42DFD140F20320DEE780B5012146
S31500001F6000F059F82949086842050CD500F0C6F872
S31500001F7040F20221401A04D0C01E02D0C01E012821
S31500001F8001D800F047F844F20400016811F1010F8E
S31500001F9005D14FF4027000F045F800F03BF89DF8CB
S31500001FA0010060B14FF4804000F0C9F98DF80000DF
S31500001FB09DF8000018B94FF4027000F033F89DF850
S31500001FC0000090B100F04CF808B100F044F8104958
S31500001FD04FF48040086002461046016881F3088885
S31500001FE081F3098840688746FEE701BD44000E403C
S31500001FF0FC81E00FB0400E4000A000402C400E4097
S3150000200064310E40B40AC64300350C0004500E403D
S3150000201008ED00E000218DF800108DF801107047E2
S31500002020002070474FF000514AF6C03308804FF643
S31500002030F0704A8802409A421CBF4FF20F024A8053
S3150000204070472A494CF23C300880704727494AF6C7
S31500002050C0300880704725494FF20F00088070474E
S3150000206022490A884FF6F07002404AF6C0339A4277
S3150000207001D101207047002070471C4800884FF6A8
S31500002080F07101EA00024AF6C0339A4202D100F02A
S315000020900F0070470020704730B5144801884FF68E
S315000020A0F07303EA01044AF6C035AC4206D101F0EA
S315000020B00F020F2A34BF491C1940018030BD80B57C
S315000020C0FFF7B0FF0A48016821F4E06141F40071AE
S315000020D00160BFF34F8F074907480A6802F4E062C0
S315000020E002430A60BFF34F8F00BFFDE702000020E6
S315000020F000500E400CED00E00400FA0510B54FF05C
S3150000210000524FF6F071508801EA00034AF6C034D7
S31500002110A3421CBF4FF20F03984201D1108810BD95
S31500002120002804BF1088012802D140F2022010BD09
S315000021304FF4007010BDFEF713BEFEF76FBE002011
S31500002140704710B5DEB04FF4BC726946002000F04F
S31500002150D5F90021684600F0E5F940F201218842F0
S31500002160F7D040F20322904240F2054424D19DF874
S31500002170000000F0030002281ED09DF80000810731
S3150000218010D540F628000268019993688B4209D25F
S315000021905A9800F05BFA78B1FEF742FC099900F014
S315000021A00DF909E09DF80000C10705D503995A9875
S315000021B000F068FA00B1002420465EB010BDFEE7CC
S315000021C0F8B50446E00A0D461646B4EBC02004BF37
S315000021D02046FEF758FE04F50067FF0AFF0204E0FA
S315000021E03846FEF750FE07F5006730198742F7D3E9
S315000021F032462946204601B0BDE8F0400223FEF7EC
S3150000220049BEB8B59BB0044640F204600090656BC9
S31500002210FEF702FC0746284600F074F8002835D081
S31500002220284600F087F888B3284600F06BF830B1EE
S31500002230686901280BD1287C022808D2AD69386963
S31500002240854228BFA54202D363498D4201D30020AF
S315000022501CE001A800F044FA2A1B214601A800F060
S3150000226049FA01A800F048FAFEF7C0FB0446FEF75B
S31500002270BBFB0346009405F12002294601A8FFF79F
S3150000228023F800900098401E8041C00F1CB0B0BDDE
S3150000229070B504460D461646FEF7BEFB01698C4234
S315000022A022BF40693219904205D33246294620465C
S315000022B0BDE8704084E770BD2DE9F04104468846CC
S315000022C01646FEF7A6FB45490068884218D1FEF778
S315000022D0A3FB0746FEF7A4FB251870193E49884262
S315000022E00ED23CB9FEF79CFB796988423CBF38693F
S315000022F0FEF7C9FD324641462846BDE8F0415FE794
S31500002300BDE8F0817FB5040012D0684635A11022E1
S31500002310FEF7CCFC002046420DEB0605225CE97B6D
S31500002320914205D1401C1028F5D3012004B070BDA0
S315000023300020FBE7007C02288041C00F7047F8B5FB
S31500002340044625686768666BFEF766FB05F160451F
S3150000235047F601418D4229D20069874226D31E499C
S315000023608F4223D24030864201D38E4205D3FFF7F7
S3150000237057FE401E8041C00FF2BDFFF751FEB8B9AF
S315000023803046FFF7BFFFB8B1307C02280ED2706925
S3150000239090B102280CD1B069001D011B4FF0FF322D
S315000023A02046FFF755FD0E49884205D00020F2BDB4
S315000023B02046BDE8F24024E70120F2BD80B54FF08B
S315000023C0FF32FFF745FD064B984204BF40F2092055
S315000023D0FFF775FE002002BD01000400AD1007B036
S315000023E0E320BBDEB814B6F1E0CFF3ADB7DD25C907
S315000023F0FA79B71310B504000CD04FF48030206082
S3150000240000213D486160027822724068E060FEF774
S3150000241099FC206110BD78B5044604F5B4760D46E6
S31500002420A1B0B1683068802301AA00F025F80095B4
S31500002430802301AA214604F1280000F0D5FAF060B5
S31500002440B0688030B06022B070BD0246002940F20C
S31500002450014000D1704710B5274B5C68A24203D3F8
S3150000246000220A604A6010BD03EBC20082680A605F
S31500002470C0684860002010BD38B500F021F800D3D0
S3150000248026E000F017F800D225E09B68C018BDE8EA
S315000024903840FEF771BC38B500F012F800D317E0EB
S315000024A000F008F800D216E09B68C018BDE8384076
S315000024B0FEF770BC03EBC4031518DC68AC4270472A
S315000024C00446084611461A460B4B5D68AC427047F7
S315000024D040F2014032BD40F2024032BD06494A6830
S315000024E0904202D340F20140704701EBC000C16840
S315000024F08068FEF773BC0000480800003EB504463D
S315000025000D461146284600F021FE50B96946204680
S31500002510FFF79BFF28B905F5B47004600199416087
S3150000252000203EBD38B584B004460D4668461021ED
S31500002530FEF7C8FB029504F5B675A86888B9686801
S31500002540296888420DD269462046FFF764FFA868CD
S3150000255000281CBF41F2070188420BD140F201203E
S3150000256008E0A07800281DBFE078002840F203208C
S3150000257040F2022005B030BD0120187070470000FF
S31500002580F0B585B004460D46164600278DF8007056
S315000025900DF1040046A11022FEF788FBCDF804D009
S315000025A037601C212846FEF78DFB04F5B67703E05D
S315000025B001A92046FFF72FFF9DF8000048B994F8BF
S315000025C06E00112805D0B86818B97868396888424D
S315000025D0EED32278900744BF616831602078C10746
S315000025E005D51C2204F108012846FEF75FFB9DF87D
S315000025F00010002905BF20780028002040F2064080
S3150000260005B0F0BD70B504460D46202304F5807272
S3150000261004F1B80104F1280000F0ABF904F5B67630
S3150000262003E029462046FFF7F6FEB06818B9706841
S3150000263031688842F5D3A07800281CBFE0780028CE
S3150000264001D0012070BD002070BD000038B5DEB09D
S3150000265004460D46FEF7E0F98068A84206D24FF41C
S31500002660BC7269462046FFF749FF08B1002006E024
S3150000267002208DF80100684611A1FFF7C3FF5FB085
S3150000268030BD000080B5DEB000F00DF808B10020C6
S3150000269007E001208DF801004FEA0D000CA1FFF7BD
S315000026A0B1FF5FB000BD4FF4BC72694626E700007B
S315000026B0000000007925000079250000792500003A
S315000026C0000000000000000000000000B922000029
S315000026D00000000091220000000000000000000041
S315000026E010B50446FFF7D2FA2046BDE81040002197
S315000026F0FFF7CFBAFFF7D2BA0146FFF7DABAFEE71D
S3150000270070B54B688C689C4206D200F140021B1BD8
S3150000271014781B19412B01D3002070BD537814780F
S315000027200D68E4188B68EE5C04F03F0406558C686F
S31500002730641C8C6013785B1C13708C684B689C421D
S31500002740ECD3012070BD90F840004A6889681018E3
S31500002750401A7047F8B584B014460026054601961F
S315000027600096082302AA00F048F841F20306B04298
S315000027703CD195F8430005F1480738B100F038F828
S315000027803868082302AA02A900F071FD9DF80A2004
S315000027909DF80B009DF80910120442EA00629DF8AC
S315000027A0080042EA0122024322609DF80E009DF8CD
S315000027B00F10000440EA01609DF80D1040EA012068
S315000027C09DF80C100843606095F8430048B9DFF89F
S315000027D000198A421CBFDFF8FC08824201D000F0D3
S315000027E007F86068B8600021F960304605B0F0BDB2
S315000027F07868082202A9FFF77DBF2DE9F0410C4653
S3150000280017461D468046FFF79EFFA84208F1400680
S3150000281007D221464046FFF773FF00284CD0002020
S3150000282048E000210CE0707818F800207A54491C22
S31500002830737830785B1C03F03F03421E737032706E
S31500002840307808B1A942EED3A0686268904238BFDA
S31500002850A94207D22368185C7854491CA268521C06
S31500002860A260F1E7A94227D1069CB26C29463846F8
S31500002870FFF7EEFAB06424B1F0682A463946FFF74E
S3150000288039FF079838B1F07878B1B0682B463A46E8
S31500002890394600F0ECFCF07838B1F069B1692818D7
S315000028A0F061884224BF0020F07070692D187561B0
S315000028B041F20300BDE8F0811220B07141F202003E
S315000028C0F8E72DE9F8431E467368002B4ED00C46F8
S315000028D014F0030118BF41F2020048D1154607461D
S315000028E0FEF792F8396E001D6A18824221D300F174
S315000028F0180399421DD28C46844538BF844605EBA1
S31500002900010800F11802904588BF9046ACEB010122
S31500002910ACEB000004EB0109A8EB0C083844424676
S3150000292049466830FEF7C2F9FF224146484600F0A4
S31500002930ADFCFEF775F8396E001D884222BF6A1895
S31500002940031D9A4209D3411A601807F180010268F3
S315000029500A600421FF2200F099FC21463368386E94
S3150000296074682A46A047386E2D183D660020BDE8DB
S31500002970F283F8B5064606F140070020B871787074
S31500002980F87038710D4600214FF0FF3039707971BB
S3150000299003F02003B864396279621446BB70FF22E3
S315000029A0182106F1680000F071FCFF22042106F1EF
S315000029B0800000F06BFCFF22042106F1840000F089
S315000029C065FCBD60FC60FEF71DF800B11DB1FEF7A9
S315000029D017F818B114B941F20B00F2BD14B1F8683A
S315000029E0FFF77EFE0020F2BD2DE9FC4F04468A4625
S315000029F000210023002599B005A880E82A00059249
S31500002A00089104F142071A9A249E069204F1480896
S31500002A1041F203099BE10498C8F808000021C8F8B0
S31500002A200C100398DFF8B01688425ED102233B7182
S31500002A308DE100F069FB00F076FBECD01CE300F0C2
S31500002A4063FB00F070FBF9D1B87820B10398DFF88A
S31500002A508416884284E03A78D10752D578780028DF
S31500002A604FD10398DFF8701688421CBFDFF86C164A
S31500002A70884225D0DFF8681688421FBFDFF8641643
S31500002A808842DFF8641688421AD0DFF8601688425A
S31500002A9025D0DFF83C16884267D0DFF85416884206
S31500002AA013D0DFF8501688420DD0DFF8281688427A
S31500002AB018D0DFF8441688421CBFDFF8401688425B
S31500002AC000F01F8115E00E223AE00F203871002039
S31500002AD0D8F80810C8F81010C8F8140037E1122109
S31500002AE0397169E0FDF78CFF002840F00A810C205F
S31500002AF02CE11221397103A800F0D1FB00285BD02C
S31500002B0017E20398DFF8D81588421BD0DFF8D415F2
S31500002B10884214D0DFF8D015884215D0DFF8B015FA
S31500002B2088421FD0DFF8AC15884213D0DFF8C815ED
S31500002B3088420DD0DFF8C415884207D018E0042279
S31500002B403A7104E1062001E107210FE00920FDE0CA
S31500002B500B210BE0FDF754FF0028C6D1787800283A
S31500002B60C3D1C4E778780028BFD110213971EEE0CF
S31500002B7003A800F094FBC0B10398C8F844001121E3
S31500002B803971039800F08DFB089038788106EED5F0
S31500002B90089800281CBF41680029E8D020468847CD
S31500002BA0009000980028E2D0C3E1122178783971AC
S31500002BB010B141F2040087E241F2080084E2D8F83D
S31500002BC00C00082835D2002101200191009000F068
S31500002BD0AEFA00F0A8FA40F04F829DF827000006F2
S31500002BE0B0F1407F04D01220387141F209006BE247
S31500002BF009A84179007940EA01200290C00704D56E
S31500002C00397841F00101397002E0FDF7FBFE30B979
S31500002C10FDF7F6FE0028D2D00298C105CFD41220C7
S31500002C20387141F20A004FE2D8F80830D8F80C00A3
S31500002C30984280F0438201210191009100F06EFAE2
S31500002C4000F071FA5CD11C2209A90AF10800FEF70E
S31500002C502DF89AF8000040F001008AF800000AF109
S31500002C600800FDF7E9FE0028DED11220387141F296
S31500002C700C0029E29AF8000040F002008AF80000F1
S31500002C8009A88278C1789DF82430120442EA0162CC
S31500002C90417842EA01221A43CAF80420D8F80810FB
S31500002CA00839CAF824108279C179120442EA01620D
S31500002CB04179007942EA012202430292FDF7A9FE18
S31500002CC0DFF83C14006888421DD1FDF7A2FE029988
S31500002CD0C068814215D10521F878397140F00100AC
S31500002CE0F8700021C8F81C10D8F80C0008282ED25D
S31500002CF001210191009100F01AFA00F014FAB9D0FE
S31500002D00BAE11220387114E109A88278C1784078B6
S31500002D10120442EA01629DF8241042EA00220A43A4
S31500002D200292D8F80800052824BF0298C8F81800AF
S31500002D30D8F80C00042808D201210191009100F076
S31500002D40ECF900F0F0F9DFD096E10A203871079827
S31500002D501A99884245D238791228F8D8DFE810F057
S31500002D601A0019001800170016002B0015001B008A
S31500002D702B0014002B001400FF00B0016F017E0130
S31500002D8081019C00B001E2E7D2E74DE7ACE7B8E786
S31500002D9015E754E64DE60021C8F81C100820D5E7D3
S31500002DA03368D8F81C005A4609A9A847D8F81C0069
S31500002DB05844C8F81C00D8F80800D8F80C1081420E
S31500002DC080F07C81A0EB010BBBF1040F05A9204626
S31500002DD008D3FFF7B8FC042808D205A92046FFF758
S31500002DE08FFC70E1FFF7AFFC5845F6D3BBF1410FFE
S31500002DF028BF4FF0400B00F08CF9584502D200F086
S31500002E0088F98346BBF1040F24BF4FEA9B004FEAC3
S31500002E10800B00F092F900F086F995D138790828F0
S31500002E2002D1B568002DBBD1BBF1040FCBF104056F
S31500002E3006D209A8FF222946584400F027FAAB44D7
S31500002E4038790A2807D133465A4609A92046FFF79A
S31500002E5038FD0090AFE70528ADD19AF8010081074B
S31500002E60A9D5F0680028A6D0D8F81C0005280ED2EF
S31500002E700BEB000107290AD309A9091D081A04F159
S31500002E80840201681160FF22042100F0FFF9336813
S31500002E90D8F81C00F56886E73978880606D5D8F88C
S31500002EA0440000F0FEF90028089042D0089DD8F8AA
S31500002EB00C00D8F8081088423ED23878810608D52A
S31500002EC0002D1CBF2969002903D020468847834668
S31500002ED001E04FF0010B00F01CF9584585D3D8F8F6
S31500002EE00800D8F80C10A0EB010BBBF1410F28BF6E
S31500002EF04FF0400B00F00DF9834502D300F009F9BD
S31500002F00834600F01AF900F00EF911D138788106DF
S31500002F10CDD575B1D5F808C0BCF1000F09D0334640
S31500002F205A4609A92046E047009000980028BED0DE
S31500002F30A2E041F20100C7E008953878810640F129
S31500002F40BD80002D1CBFEA68002A05D03146204608
S31500002F50904700900098002800F0B0808CE0002098
S31500002F600190009000F0D9F800F0DDF8F6D1D8F81D
S31500002F7040006449884204D012223A7141F20500A9
S31500002F80A2E0FDF73DFD18B901208AF8030003E031
S31500002F909AF80300002840D0F87810F0030F1CBF01
S31500002FA0F568002D05D03368042204F1840104205D
S31500002FB0A847D8F8180000281CBF706800282CD035
S31500002FC04FF0FF31029104F180050422294602A840
S31500002FD000F06AF940B1FDF723FD28B129463368B0
S31500002FE075680422001DA847042204F1680102A89E
S31500002FF000F05AF988B1FDF707FD336875681422A9
S3150000300004F16C010830A847FDF7FEFC04F16801E5
S31500003010336874680422001DA04701208AF8020064
S315000030200D2139714FE0FDF7E3FC802100900191FD
S315000030300123D8F800000AAA022100F0F5F8D8F812
S315000030400C0010283AD20021012001910090102393
S3150000305000F064F800F067F8E5D00DE00120787024
S315000030602CE0B87850BB002101910090402300F07D
S3150000307055F800F058F801D0009825E0D8F804007B
S31500003080FFF73AFBFDF7B2FC0546FDF7ADFC0095F0
S315000030900346D8F8040011AA09A9FEF715F900900D
S315000030A0009838B100218AF803101220387141F2D5
S315000030B0060009E001208AF80300B870012045E601
S315000030C041F2070000E000201BB0BDE8F08F0000D1
S315000030D0F70A0AF7FC0404FCEB17A603EB17A65E37
S315000030E0F40A0AF4F50909F5F60808F6F70909F7E6
S315000030F0F90707F9FA0606FAFD0303FDFE0101FECC
S31500003100AD1007B0E320BBDE03AA05A92046FFF7F2
S3150000311021BB05A92046FFF716BB042309AA05A96A
S315000031202046FFF76ABB0090009848457047082381
S3150000313009AA05A92046FFF760BB0120019000906F
S315000031405B4609AA05A92046FFF757BB10B5B1F59E
S31500003150BC7F044602D240F2052010BD4FF4BC717C
S31500003160FDF7B0FD0020607004F5807204F1B8012F
S3150000317004F12800BDE810400023FFF7FABB1CB598
S315000031800091044600F040F800281CBF41F20701F8
S315000031908842C4F874010BD1A07838B1E07810B138
S315000031A040F2032016BD40F2022016BD40F2012077
S315000031B016BD00002DE9FC41089E904600220446FB
S315000031C00F461D4632601C212846FDF77BFD00BFD9
S315000031D011A2009243463A4600F016F8207881077D
S315000031E044BF606830602178C80705D51C2204F109
S315000031F008012846FDF75AFD2078002814BF002054
S3150000320040F20640BDE8F681214604F12800FFF7AA
S31500003210EBBB4FF4BC7070470000000000000000DC
S3150000322000000000000000002DE9F843089D099FFA
S3150000323080460E4691461C46FDF77BFC3A462946DB
S315000032404046FDF779FC08F124000021016006756F
S315000032500C22494608F13900FDF728FD08F1450022
S31500003260210C220A847001704270BDE8F1833EB5DC
S31500003270029201911C4600F12805009500F13803E1
S3150000328000F124022146FDF776FC37BD4018491CA3
S315000032901CBFB1F1010100F8012DF9D170470020E2
S315000032A0704700207047FEE703000020521E22BF31
S315000032B013F8010B11F801CBB0EB0C00F6D0521C41
S315000032C008BF10467047FEE70C490D4808600D48D8
S315000032D0026842F4700202600B48416941F40051F1
S315000032E041610268920892000260416B49084900F8
S315000032F04163016A21F080510162704708ED00E0E8
S315000033000008000088ED00E040300E402DE9F04353
S3150000331099B004460D4600F0DFF800F0E2F8684682
S31500003320FFF768F8039802284FF0FF3609D200200D
S3150000333020600120A8423CBF44F82060401CF9D31D
S315000033405EE0A84238BF40F204505AD3FEF7F7FEBB
S31500003350804604980C2205A9C7684046FDF70CFD77
S31500003360002847444DD10598DFF86491484522D09E
S315000033700C2205A93846FDF7FFFC002841D1059827
S31500003380484507D00020A8423CBF44F82060401CB6
S31500003390F9D320E0079A05A93846FDF7EDFC049815
S315000033A0C1684046FDF71AFD58BB079A05A9404675
S315000033B0FDF7F0FC28BB079A05A94046FDF7DCFCA3
S315000033C00799324605A8FEF743FD4249884205D0D3
S315000033D0002000F019F840F2055012E00798103866
S315000033E08008A84288BF2846002108AA04E052F8AF
S315000033F0213044F82130491C8142F8D300F004F80A
S31500003400002019B0BDE8F08302E044F82060401CBB
S31500003410A842FAD37047F0B599B005460C4600F0BD
S315000034205BF82B490591012250210791069200F085
S3150000343058F86846FEF7DEFF0398A04207D3022835
S315000034400AD22868002818BF10F1010F02D040F2F6
S3150000345004503AE0002038E0FEF771FE0646049874
S31500003460C768BF19112C28BF1024002008A904E042
S3150000347055F8202041F82020401CA042F8D34FF0F8
S31500003480FF3002E041F82400641C102CFAD30246F7
S315000034904C2105A8FEF7DCFCC04318900498C168CF
S315000034A03846FDF79BFC80B9502205A93846FDF742
S315000034B071FC50B90498C1683046FDF78FFC20B9FD
S315000034C0502205A93046FDF765FC19B0F0BD000095
S315000034D039528FE1E320BBDE5022002105A800F01F
S315000034E034B868461421FDF7EDBB30B595B00446F7
S315000034F0FFF7F7FF6846FEF77DFF039D022D20D3F9
S31500003500294605A8FFF702FF00281CBF40F2055117
S31500003510884218D1002005AA294602E0A3420DD010
S31500003520401C88420DD252F8203013F1010FF5D11C
S3150000353042F8204005A8FFF76EFF04E040F2035072
S3150000354001E040F2025015B030BD10B504461046F9
S315000035500A4601462046FFF799FE204610BDFEE7C3
S315000035600548014603B4684680F30988AFF3008036
S3150000357000F004F800F014F8A5EDF5FE4EF68851BB
S31500003580CEF20001086840F470000860BFF34F8F68
S31500003590BFF36F8F4FF00070E1EE100A7047000026
S315000035A000F00DF8002801D0AFF30080AFF30080E3
S315000035B00020AFF30080FEF769FC00F002F801205E
S315000035C0704700F001B800000746384600F002F8E0
S315000035D0FBE700002021090326311820ABBEF9E7DE
S315000035E080B5FFF771FEFEF7B9FCBDE80140FFF7B5
S311000035F0B7BF000000000000F97ACA4FC7
S5030341B8
S70500000000FA
