S04D0000626F6F746C6F616465722D73746F726167652D696E7465726E616C2D626C655F65667233326267317032333266323536676D34385F62726434313030612D636F6D62696E65642E73333700
S31500000000900400208D050000D5050000D9050000EC
S31500000010DD050000E1050000E50500000000000028
S315000000200000000000000000A4050000E905000033
S31500000030ED05000000000000F1050000F5050000D8
S3150000004010B56249624A01E021B1491E1369DC0715
S31500000050FAD411B96FF0020010BD50600120106093
S315000000601169480702D54FF0FF3010BD002010BDC2
S3150000007003460020002900D1704770B5544C53F850
S31500000080042BE26008252560491E504A01E062B152
S31500000090521E2569EE07FAD43AB12269940701D4B3
S315000000A011B1EBE76FF0010070BD6FF0020070BD9B
S315000000B02DE9F84F444D0C46A96B834600208EB2BD
S315000000C006B1012641F67131A9634FEA92082B6801
S315000000D043F001032B608146A24612E0C7F30A07EC
S315000000E0C7F50067BF08A8EB0900B84238BF074646
S315000000F039465046FFF7BCFF01000CD1B9440AEB64
S31500000100870AC14507D20BEB89073846FFF798FFE8
S315000001100100E3D00DE0DBF8002021688A4208D018
S315000001205846FFF78DFF010003D101212046FFF756
S315000001309FFF2968490849002960F6B20EB10021DF
S31500000140A963BDE8F28F30B51F4B20490246986B74
S3150000015080B200B1012041F671349C631D6845F000
S3150000016001051D609A6001225A605C69620704D528
S3150000017000F021F84FF0FF3030BD02225A605A6974
S31500000180D40710D5002918BF491EF8D10BE0002965
S31500000190196804D100F010F86FF0020030BD00F0CD
S315000001A00BF8002030BD5A699407F0D500F003F82B
S315000001B06FF0010030BD196849084900196008B19F
S315000001C000209863704773E708000E4080969800F9
S315000001D00C000E40F8B5282001680869CD68846ACD
S315000001E0AC4225D305F560518C4221D2641B04191B
S315000001F0264E2168B1421BD1E168254F4FF0FF32F0
S3150000020000F050F8B84213D100F044F80ED202685C
S31500000210B2420BD18168A268914207D3C1684FF000
S31500000220FF32284600F03EF8B84201D00120F2BD68
S315000002300020F2BDF8B5282000680569C468AE6ADA
S31500000240361BAE19274604E0384600F05DF807F580
S315000002500067F26810198742F6D32946204600F057
S315000002605AF890B100F016F80CD2026807498A4293
S3150000027008D1C1684FF0FF32204600F013F8044958
S31500000280884201D00020F2BD0120F2BD07B0CD5E4C
S31500000290E320BBDE40F628000068A0F50061B1F55A
S315000002A0605F704730B50A4B1C6844F020041C6040
S315000002B00125084B1D609A605D6002E010F8014B55
S315000002C09C610A46511E002AF8D1D86930BD00BF8C
S315000002D0B0400E4000C0014080B58308800700F0A2
S315000002E006F8042269469800FFF76DFF02BD05D5A2
S315000002F04FF6FF7242EA01420092704741F07F4199
S3150000030041F47F010091704780B5FFF71CFF401E46
S315000003108041C00F02BDF8B5140005460E4624D034
S3150000032005F0010104F00100014320D1AA0707D519
S3150000033036F8021B2846FFF7CFFFC0B9AD1CA41E36
S31500000340042C0CD3A708BF003A4631462846FFF7CF
S315000003503AFF790806EB41067D19E41B38B924B14A
S3150000036031882846FFF7B8FF08B90120F2BD002002
S31500000370F2BD00004FF000514AF6C03308804FF638
S31500000380F0704A8802409A421CBF4FF20F024A8020
S31500000390704780B5FFF7EEFF0948016821F4E06178
S315000003A041F400710160BFF34F8F064906480A68A1
S315000003B002F4E06202430A60BFF34F8F00BFFDE71D
S315000003C000500E400CED00E00400FA0510B54FF0A9
S315000003D000524FF6F071508801EA00034AF6C03425
S315000003E0A3421CBF4FF20F03984201D1108810BDE3
S315000003F0002804BF1088012802D140F2022010BD57
S315000004004FF4007010BD000080B51948194A016804
S315000004101160FFF70FFF0028FBD040F20220FFF724
S31500000420B8FF002002BD000010B5134C002020606C
S31500000430FFF7CCFF11490A68B2F5803F0AD040F2B7
S315000004400921884218BFB0F5007F03D1FFF7C2FE2D
S3150000045000B110BD4FF400602060024610460168EE
S3150000046081F3088881F3098840688746FEE7000023
S31500000470880000208C00002008ED00E004500E40AB
S315000004800C490D4808600D48026842F4700202608B
S315000004900B48416941F4005141610268920892009B
S315000004A00260416B490849004163016A21F08051AD
S315000004B00162704708ED00E00000000088ED00E0F2
S315000004C040300E4030B450F8041B79B102684368DE
S315000004D002440830DC0744BFA9F10104E31852F8CE
S315000004E0045B43F8045B091FF9D1ECE730BC7047A5
S315000004F010B5074979441831064C7C44163404E09B
S315000005000A68081D114488470146A142F8D110BD6A
S315000005102C0000003C0000004EF68851CEF200018F
S31500000520086840F470000860BFF34F8FBFF36F8F09
S315000005304FF00070E1EE100A7047000089FFFFFFE0
S315000005401000000074000000800000200000000081
S315000005500120C046002801D0FFF7CAFFAFF3008094
S315000005600020AFF30080FFF74FFF00F000F800F027
S3150000057001B800000746384600F002F8FBE7000025
S315000005802021090326311820ABBEF9E7024880472F
S315000005900248804702480047810400002904000001
S315000005A0C9050000AD1007B00100000000000C01F5
S315000005B0000800000080000000F0490200800000F2
S315000005C0C0EA2101C0EA2101AFF30080FFF7A4FFD2
S315000005D0FFF7BEFFFFF7FEBFFFF7FEBFFFF7FEBF49
S315000005E0FFF7FEBFFFF7FEBFFFF7FEBFFFF7FEBF39
S30D000005F0FFF7FEBFFFF7FEBF97
S3150000080080100020E5360000DB0B0000B91E00005A
S31500000810530C0000D30C0000FF1100000000000084
S31500000820000000000000000058080000F32100004E
S315000008303F2700009808000097330000FB330000B4
S31500000840454652333200000001000000010000005E
S31500000850001802000058010007B0CD5E010000003C
S3150000086000000C010C2F00000040000000000400F6
S31500000870F00001006B2100006F21000069230000D9
S31500000880EF31000021320000D80800005B32000082
S31500000890BF3200000000000013B779FAC925DDB7A2
S315000008A0ADF3CFE0F1B614B801010000020000007C
S315000008B0083700004000000000000C0100000000A6
S315000008C00000000000000000000000000000000022
S315000008D000000000000000000001000021240000CC
S315000008E077240000A5240000C32400000925000089
S315000008F05335000041340000213600002925000050
S3150000090051250000AD250000DD0C0000E70C0000BD
S31500000910050D0000410D00003B0D00000248704728
S3150000092002487047024870474A43E00F6A43E00FA7
S315000009308642E00F002070470020704740F62800EE
S3150000094001680869704728200068704740F628004B
S31500000950006870472820044A00680168914201D166
S315000009600069704700207047AD1007B0012070473E
S31500000970890001EB401101F184410A60704710B50E
S315000009800A684B688C68C96802600360046001608D
S3150000099010BDF4E71FB5044611F0030008D010227D
S315000009A0684600F01BF969462046FFF7F2FF1FBDB7
S315000009B0009120460099FFF7ECFF1FBD10B50268B5
S315000009C00368046800680A608C604B60C86010BDEC
S315000009D01FB50C4614F0030108D06946FFF7EEFF79
S315000009E010226946204600F0F9F81FBD00940099D0
S315000009F0FFF7E4FF1FBD38B5102A04460D460DD19A
S31500000A0001220021FFF7B4FF04F588742946204629
S31500000A10FFF7B5FF05F11001204606E00022002190
S31500000A20FFF7A6FF294604F12400BDE83440A6E7F7
S31500000A3038B5044611F0030088B015460CD0082DD1
S31500000A400CBF10222022684600F0C8F82A466946E4
S31500000A502046FFF7D0FF04E0009120460099FFF7FB
S31500000A60CAFF09B030BD242100F0F4B870B50D46B8
S31500000A7000F010F8802E18BFB6F5807F02D06FF018
S31500000A80710070BD2660F2082946201D00F0A6F808
S31500000A90002070BD04461646242100F0DBB85946F6
S31500000AA005F1800094E7011D2846C1E7484600F09D
S31500000AB0D4B82DE9F64F83B0002A14BF1468002479
S31500000AC00190002702680F9EDDF840800091802A81
S31500000AD018BFB2F5807F029304D06FF0200068E063
S31500000AE000F070F8009887425FD2002CF8D100F031
S31500000AF0BEF80546002068604FF4404129604FF07B
S31500000B00000A00F0C9F881460198016880290CBFE7
S31500000B1008221022FFF7C7FF029905F18400FFF7AC
S31500000B2039FFFFF7C3FF0098A0EB070913E000F0B9
S31500000B3043F80AF1010A00F0AFF88346F11905F10E
S31500000B40A000FFF727FF08EB0701FFF7A9FF5846AC
S31500000B5000F083F81037BAEB191F15D24820A860A9
S31500000B600521A960E3E76CB94820A8600521A960C2
S31500000B7000F022F800F090F881460E99FFF790FFFA
S31500000B80FFF794FF00F01EF80098C01BEBD100F0B1
S31500000B9083F88146029905F18400FFF719FFFFF7F4
S31500000BA085FF284600F06CF89CE7049800B10460C5
S31500000BB0002005B0BDE8F08F28698107FCD403202A
S31500000BC0A86070470E9AF15D105D414008F8071065
S31500000BD0641C04F00F047F1C7047FEE762B38B07AA
S31500000BE008D0521E11F8013B00F8013B00F02480AA
S31500000BF08B07F6D1830740F0208000BF103A07D359
S31500000C0030B4B1E83810103AA0E83810F9D230BC48
S31500000C10530724BFB1E80810A0E8081044BF51F8F4
S31500000C20043B40F8043BD20724BF31F8022B20F8DE
S31500000C30022B44BF0B7803707047083A07D3B1E81C
S31500000C400810083A40F8043B40F804CBF7D25307A3
S31500000C50E4E7FEE7002200F023B800B962B6704769
S31500000C60890001EB401101F184410A60704780B5AB
S31500000C70FFE7012201210648FFF7F2FF054802BD02
S31500000C800449884203D1002201210148E8E7704760
S31500000C90B0400E4000000F40EFF3108072B6704770
S31500000CA000B500BF130096469446103928BFA0E849
S31500000CB00C50FAD85FEA417C28BF0CC048BF40F808
S31500000CC0042BC90728BF20F8022B48BF00F8012BC8
S31500000CD000BDFEE72DA07047002070472848006839
S31500000CE000F00100704710B50B461118254CA142C3
S31500000CF005D201461846FFF771FF002010BD40F2ED
S31500000D00024010BD38B513181E4DAB4240F20244E6
S31500000D100BD2002300E01B1D934208D21D5815F18B
S31500000D20010FF8D040F2034032BD204632BD00F03C
S31500000D30A3F80028F9D0002032BD4FF0FF307047ED
S31500000D4070B505460C46600501D1690502D040F232
S31500000D50044070BD60190B49884240F2024603D335
S31500000D6000E008B9304670BD284600F042F8B4F5F8
S31500000D70006405F50065F4D10028F3D0002070BDAD
S31500000D801C000E4001000400002070470102030011
S31500000D9028000000280000000008000000000400F1
S31500000DA0400800000200000080B58308800700F0BC
S31500000DB013F804226946980000F04FF902BD38B5D1
S31500000DC084088007154600F007F804236A46A10048
S31500000DD0284600F043F932BD05D54FF6FF7242EAC8
S31500000DE001420092704741F07F4141F47F0100913A
S31500000DF0704780B500F0F1F8401E8041C00F02BD7B
S31500000E002DE9F0411D46082D06468846144630D287
S31500000E1001214FF48A4000F0A7F944B306F001011E
S31500000E2004F00100014324D1B00708D538F8021BAD
S31500000E302A463046FFF7C3FFD8B9B61CA41E042CB9
S31500000E400DD3A708BF003B4642463146284600F070
S31500000E5005F9790808EB4108BE19E41B48B934B115
S31500000E60B8F800102A463046FFF7A9FF08B9012056
S31500000E7000E00020BDE8F081F8B5140005460E46F6
S31500000E8024D005F0010104F00100014320D1AA0796
S31500000E9007D536F8021B2846FFF786FFC0B9AD1CFA
S31500000EA0A41E042C0CD3A708BF003A463146284698
S31500000EB000F0D3F8790806EB41067D19E41B38B932
S31500000EC024B131882846FFF76FFF08B90120F2BD2B
S31500000ED00020F2BD10B59649964A01E021B1491E9F
S31500000EE01369DC07FAD411B96FF0020010BD506027
S31500000EF0012010601169480702D54FF0FF3010BD80
S31500000F00002010BD03460020002900D1704770B5AF
S31500000F10884C53F8042BE26008252560491E844A54
S31500000F2001E062B1521E2569EE07FAD43AB1226990
S31500000F30940701D411B1EBE76FF0010070BD6FF0BB
S31500000F40020070BD2DE9F84F784D0C46A96B83461B
S31500000F5000208EB206B1012641F67131A9634FEA2F
S31500000F6092082B6843F001032B608146A24612E0EB
S31500000F70C7F30A07C7F50067BF08A8EB0900B84220
S31500000F8038BF074639465046FFF7BCFF01000CD173
S31500000F90B9440AEB870AC14507D20BEB89073846E5
S31500000FA0FFF798FF0100E3D00DE0DBF80020216891
S31500000FB08A4208D05846FFF78DFF010003D1012170
S31500000FC02046FFF79FFF2968490849002960F6B2C5
S31500000FD00EB10021A963BDE8F28F30B5534B5449D9
S31500000FE00246986B80B200B1012041F671349C63D1
S31500000FF01D6845F001051D609A6001225A605C6912
S31500001000620704D500F021F84FF0FF3030BD022210
S315000010105A605A69D40710D5002918BF491EF8D15D
S315000010200BE00029196804D100F010F86FF00200F7
S3150000103030BD00F00BF8002030BD5A699407F0D59A
S3150000104000F003F86FF0010030BD19684908490047
S31500001050196008B100209863704773E72DE9F043E3
S31500001060914602F1604247F60145AA424DD230262A
S31500001070314A464332444FF4401515600027576005
S3150000108097609761294DAE6BB6B206B1012641F65F
S315000010907137AF6301272C68DFF8A0C044F0010464
S315000010A02C60874026E0A96001246C606C696407A7
S315000010B02BD44FEA9E04641E240144F06054D4608D
S315000010C0C2F810901E4CDFF87C805461D8F80040BE
S315000010D03C43C8F8004010246C60D8F80840C4406F
S315000010E0E407FAD5CCF80870CCF800707144F144E6
S315000010F0A3EB0E0363B101F50064E40AE402A4EB7A
S31500001100010E7345CFD29E46CDE74FF0FF300AE081
S3150000111004206860F6B229684908490029600EB1C2
S315000011200020A8630020BDE8F083000008000E4000
S31500001130809698000C000E4080200E4020200E4421
S3150000114018000E4020200E40890001EB401101F1ED
S3150000115084410A607047DFF874104A68D30702D4E6
S315000011600A680242FCD1704770B50C460246110A65
S3150000117001F00F010020491E0929DFF8545013D849
S31500001180DFE801F005131212071518121B1FDFF80E
S315000011903850C2F3043608B1FFF7DDFF2246314668
S315000011A02846BDE87040CFE770BD1035F1E7303511
S315000011B00120EEE738351020EBE740354FF480305C
S315000011C0E7E7DFF81050E4E700400E4040410E40EC
S315000011D0B0400E4050410E4042685209042941EA8F
S315000011E042120AD9491F022905D9C91E032904D961
S315000011F0091F022902D842F0100242607047FEE73A
S3150000120010B50B4A516813688C0004F03C04C3F314
S3150000121081110C438470116801F03F01417093689D
S31500001220D16803F0F003C1F303110B43037010BD43
S31500001230E0FF0FE02DE9F84106000D4618BF002D2E
S31500001240A1B01446984606D0002C18BFB8F1000F7E
S3150000125001D0289F17B940F2016023E0012113480D
S31500001260FFF782FF402111A8FFF7F4FC414611A8C1
S3150000127000F0D3FA394619A800F0CFFA01A84021A8
S31500001280FFF7E8FC294601A800F0C7FA214609A89D
S3150000129000F0C3FA01A8009011AB202231460448A1
S315000012A000F0CAFA22B0BDE8F081000000150A007D
S315000012B000000F4010B50A684B688C68C968026068
S315000012C003600460016010BD10B50268036804681D
S315000012D000680A608C604B60C86010BD38B5044673
S315000012E00D46FFF7E7FF05F110012046BDE8344043
S315000012F0E0E738B504460D46FFF7E6FF05F11001B5
S315000013002046BDE83440DFE7082250F8041B21B927
S31500001310521EFAD10020C0B270471000FBD0012047
S31500001320F9E7F8B500F065F90746294604F5847033
S31500001330FFF7D4FF314604F58670FFF7CFFF384636
S31500001340FFF78BFCDFF8DC0620650121616560692B
S31500001350000E00F0010080F00100F2BD2DE9F84F0B
S3150000136088B004460D4692461E46FFF795FC834616
S3150000137004F5827705F1400100F035F904F5867829
S31500001380514600F029F904F588790AF1200148460A
S31500001390FFF7A4FF00F022F900F038FAA065E16536
S315000013A004F5847AFFF778FC8346294600F01BF99A
S315000013B005F120015046FFF791FF05F1400148462F
S315000013C0FFF78CFF00F00AF9DFF85C06DFF85C1621
S315000013D0206561650120A06504F58079FFF75CFC56
S315000013E0834606F140014846FFF783FF69465046AB
S315000013F0FFF77FFF00F0F2F8FFF74EFC834600F0A0
S31500001400EAF800F0EBF8DFF82806DFF82816206582
S3150000141061650121DFF8200600F0E7F8804600F05C
S31500001420E0F800F02BF9DFF81406DFF8141600F0E8
S3150000143021F8054631465046FFF75BFF2846FFF781
S315000014400CFCFFF729FC054669463846FFF746FFC0
S315000014502846FFF702FCDFF8EC05DFF8EC1500F094
S3150000146009F8044600F0B3F82046FFF7F6FB09B08A
S31500001470BDE8F08F206561650120A065FFF70CBC13
S315000014802DE9F84F98B000F0B4F8804604F582775D
S3150000149000F0A7F800F0F2F8DFF8B005DFF8B015B5
S315000014A02065616504F58078DFF8A805FFF7E5FF9C
S315000014B0814608A94046FFF71CFF4846FFF7CDFBCB
S315000014C0FFF7EAFB814600F086F84846FFF7C5FBC2
S315000014D0DFF88405DFF88415206561654FF48670B2
S315000014E0A06504F58679FFF7D7FB824610A9484622
S315000014F0FFF7FFFE69464046FFF7FBFE5046FFF743
S31500001500ACFBFFF7C9FB824605F1400100F06BF822
S315000015105046FFF7A2FBDFF848052065012161650B
S3150000152004F5847AFFF7B8FB834600F0C1FA00F0B1
S3150000153055F8DFF83005DFF83015206561650121C3
S31500001540DFF8280500F051F8834669465046FFF754
S31500001550C5FE10A94846FFF7C1FE00F03FF8DFF8C8
S315000015601005DFF8101520656165DFF80C05FFF73B
S3150000157084FF8346314604F58870FFF7BAFE00F013
S315000015802DF8FFF789FB834600F02BF805F14001A3
S315000015905046FFF7A3FE08A94846FFF79FFE00F056
S315000015A01DF8DFF8D804DFF8D81420656165FFF769
S315000015B073FB044606F140014046FFF79AFE00F031
S315000015C006F82046FFF749FB19B0BDE8F08F06F193
S315000015D0200148468DE6294640467FE65846FFF7F5
S315000015E03CBB05F12001384678E6A065E165FFF7CA
S315000015F053BB04460D461646FFF74EBB2DE9F04198
S3150000160005460E461C46174620212046FFF722FBBC
S3150000161001222260FFF740FB8046394605F58070BF
S31500001620FFF75CFE314605F58270FFF757FE05F5BC
S31500001630847621463046FFF751FE00F01FF8DFF8AA
S31500001640440428650BE0DFF84014DFF84004296500
S315000016506865DFF83C14DFF83C04A965E86568694D
S31500001660C101F0D5FFF718FB054621463046FFF7C6
S3150000167040FE2846BDE8F041FFF7EFBA4046FFF7C7
S31500001680ECBA50F8043B934203D007E050F8042B21
S3150000169022B9091F0129F9DA012070470020704795
S315000016A02DE9F04188B004460D461646984620219D
S315000016B06846FFF7CFFA0122009220214046FFF745
S315000016C0C9FA202108F12000FFF7C4FA202108F109
S315000016D04000FFF7BFFA05212046FFF77DFD0020F9
S315000016E0206020636063FF2700F040F802D47F1E6D
S315000016F0002FF9DC002F36D4424641462046FFF73C
S31500001700BFFE00F033F82CD5002220214046FFF71B
S31500001710B8FF00B30022202108F12000FFF7B1FF37
S31500001720C8B10022202108F14000FFF7AAFF90B1BE
S31500001730202229464046FFF761FA202205F12001C2
S3150000174008F12000FFF75AFA2022694608F1400006
S31500001750FFF754FA05E043462A4641462046FFF77E
S31500001760FDFD7F1EC6E708B0BDE8F081381107EB26
S31500001770D060401156F82010A7EB4010C140CA07B0
S3150000178070472DE9F0410F4690B0044615460521F5
S31500001790FFF722FD00222260226362636846202250
S315000017A00FF22031FFF72AFA08AB6A4607F140012B
S315000017B02046FFF723FFFFF76FFA804608A904F5D6
S315000017C08270FFF78BFD04F5867639463046FFF7C3
S315000017D085FD07F1200104F58870FFF77FFDFFF70F
S315000017E04DFF00F013F8FFF700FF074605F1200153
S315000017F004F58070FFF77DFD29463046FFF779FD39
S315000018003846FFF72AFA10B0BDE8F0818F48A249A2
S31500001810206561650121A148704738B50D4604462B
S315000018202021FFF717FAFFE71F204242295C2244D6
S31500001830401ED177F9D531BD2DE9F04FB9B0074635
S315000018400C4616461D4621A86021FFF703FA09A893
S315000018506021FFF7FFF93CB1009528001CBF429DAF
S31500001860002D01D0002E02DC40F20160D5E0002000
S315000018703860386378630C2178680FF23C2840F0B2
S31500001880100078603846FFF7A7FC786820F44060BF
S3150000189040F4006078602022786820F4407040F4BC
S315000018A00070786008F12C0111A8FFF7A7F911AABA
S315000018B029463846FFF735FD78B92846FFF724FD57
S315000018C058B111AA05F120013846FFF72AFD20B9C3
S315000018D005F12000FFF718FD10B940F202609CE008
S315000018E0202EC8BF2026202119A8FFF7B3F9002013
S315000018F014E0321A521E09A99208A6F1010E01EB54
S315000019008201AEEB000E235C0A6C4FEACE0E0EF09F
S31500001910180E03FA0EF31A430A64401CB042E8DBC1
S31500001920FFF7BAF9064607F5847419A92046FFF7AA
S31500001930D5FC3046FFF791F95948386507F58076AA
S31500001940FFF7AAF9814619A93046FFF7D2FC4846A7
S31500001950FFF783F901AB11AA05F120013846FFF71D
S315000019604DFEFFF799F9834601A907F58270FFF747
S31500001970B5FC07F5887919A94846FFF7AFFC07F5C6
S31500001980867A00F095F8FFF729FE464846493865FD
S315000019907965FFF781F9834619A94846FFF7A9FC3F
S315000019A001A93046FFF7A5FCFFF718FE21AB19AADF
S315000019B008F14C013846FFF773FE009909AB01AAFE
S315000019C03846FFF76DFE21AA21A93846FFF7D9FE52
S315000019D009AB21AA09A93846FFF7C0FC09AA09A93B
S315000019E03846FFF7CEFEFFF757F906460C21384674
S315000019F0FFF7F2FB09A92046FFF770FC00F058F844
S31500001A003046FFF72AF92948224938657965786909
S31500001A10C1014CBF002040F2046039B0BDE8F08F30
S31500001A20000000003035DA10D01482CB1481E11C9E
S31500001A308CE11C811C84D91C8391D11CE014D81420
S31500001A401482E11C84D31482D11CE0148AD11C8137
S31500001A50821CC00C0C0C0100C00C0C83D91C83D852
S31500001A608AD11C83DA0C811482D11C81C80C0C81AA
S31500001A708CE11CD01484E31482D11C01D81483D1C8
S31500001A801CC00C0139398401D02484FC1C82FED888
S31500001A908B1C81A039380100D91C83D11C81E11C23
S31500001AA030D00C0130E11C8430D91C013035DA14F9
S31500001AB029465046FFF712BC200000000001000036
S31500001AC0050C0000FFFFFFFFFFFFFFFFFFFFFFFF0B
S31500001AD000000000000000000000000001000000FF
S31500001AE0FFFFFFFF512563FCC2CAB9F3849E17A707
S31500001AF0ADFAE6BCFFFFFFFFFFFFFFFF000000009F
S31500001B00FFFFFFFF96C298D84539A1F4A033EB2D0D
S31500001B10817D0377F240A463E5E6BCF847422CE1F9
S31500001B20F2D1176BF551BF376840B6CBCE5E316B3D
S31500001B305733CE2B169E0F7C4AEBE78E9B7F1AFE01
S31500001B40E242E34F2DE9FC478A461446984670B9AF
S31500001B50002C43D00B990A683F2A0AD84868002807
S31500001B6018BF5FEA080905D10FF24C1902E0424896
S31500001B7035E0C14602F03F06A218A242C6F1400572
S31500001B800A6002D24868401C48600A9F96B1AC427F
S31500001B9010D32A465146B819FFF720F801200090C5
S31500001BA043463A464946002000F0D5F8C146AA44C5
S31500001BB0641B00263F2C0BD9A509009543465246C7
S31500001BC04946002000F0C7F80AEB851AA4EB8514F5
S31500001BD024B122465146B819FFF700F80020BDE8A7
S31500001BE0F6870000F8B586B00C4615461E4640BB83
S31500001BF0002102AF4A42920056F82130D21D00EB76
S31500001C00C300B85402A8104456F82120C01E520939
S31500001C10827056F82120520B427056F82120520D40
S31500001C20027056F82100400F491C0129E2D932788A
S31500001C3002F03F02382A34BFC2F13802C2F17802FC
S31500001C4001E00D4815E00C9F23A10196009523465F
S31500001C500020FFF777FF019600952346082202A988
S31500001C600020FFF76FFF202221463846FEF7B6FF19
S31500001C70002007B0F0BD000080AFFFFF6821FEF72F
S31500001C80E9BF00210160416000207047E0B500F126
S31500001C9028030093019000F108030020FFF752FF8C
S31500001CA00EBD80B50091034603F1280203F1080139
S31500001CB00020FFF797FF02BD6A09E667BB67AE859E
S31500001CC03C6EF372A54FF53A510E527F9B05688C18
S31500001CD01F83D9AB5BE0CD19800000000000000037
S31500001CE000000000000000000000000000000000EE
S31500001CF000000000000000000000000000000000DE
S31500001D0000000000000000000000000000000000CD
S31500001D10000000000000000010B50A684B688C68DF
S31500001D20C968026003600460016010BD10B50268F6
S31500001D300368046800680A608C604B60C86010BD68
S31500001D4038B504460D46FFF7F1FF05F110012046B0
S31500001D50BDE83440EAE72DE9F84F98B006460C4650
S31500001D6090469A46FEF783FF002E054650D1042082
S31500001D70286000216960E964686820F44060686052
S31500001D8029630020686354F8201009BA4DF8201022
S31500001D90401C0828F7D3FEF77FFF044605F5827638
S31500001DA069463046FFF7B8FF04A93046FFF7B4FF8F
S31500001DB02046FEF752FF2F4828650027229C05F58E
S31500001DC0D276A74240D218F0030008EB871906D056
S31500001DD04022494608A8FEF701FF0DF12009FEF74B
S31500001DE05BFF8346494600F04BF809F1100100F00D
S31500001DF047F809F1200100F043F809F1300100F03D
S31500001E003FF85846FEF729FF1B4828657F1CD8E790
S31500001E101A4816E0FEF740FF044651463046FFF7E3
S31500001E208FFF2046FEF719FF2846FEF729FF002000
S31500001E305AF8201009BA4AF82010401C0828F7D38F
S31500001E40002019B0BDE8F08F1AF0030005F5807682
S31500001E50E0D0FEF721FF044669463046FFF770FFE3
S31500001E602046FEF7FAFE202269465046FEF7B6FEE9
S31500001E70DAE70000888AC801070D810180AFFFFFFD
S31500001E80304649E730B50A4B1C6844F020041C6014
S31500001E900125084B1D609A605D6002E010F8014B59
S31500001EA09C610A46511E002AF8D1D86930BD00BF90
S31500001EB0B0400E4000C001404FF4017000F019B967
S31500001EC038B55749574A0120086068461468FFF735
S31500001ED097F9240E8F2C10DA5348544C016841F0C0
S31500001EE0040202604FF05013002230255543521C65
S31500001EF06351062AF9D3016000E006DC4C4801680C
S31500001F00C909C90141F0200101609DF801000128BD
S31500001F1004D14848016841F00401016000204649A7
S31500001F20086000F022F900F0B5F808B900F0A3F84F
S31500001F3000F021F904000ED100F0ACF808B100F071
S31500001F40A4F840F2012000F0D4F84FF4017000F03C
S31500001F50D0F8002032BD00F09DF808B900F090F8E6
S31500001F6000F0A5F8012802DD00F08FF8FEE700F08A
S31500001F70ADF8324801E00098401E00900098012814
S31500001F80F9DA40F205418C42DFD140F20320DEE768
S31500001F9080B5012100F059F82949086842050CD599
S31500001FA000F0C6F840F20221401A04D0C01E02D04A
S31500001FB0C01E012801D800F047F844F20400016869
S31500001FC011F1010F05D14FF4027000F045F800F051
S31500001FD03BF89DF8010060B14FF4804000F0C4F971
S31500001FE08DF800009DF8000018B94FF4027000F05B
S31500001FF033F89DF8000090B100F04CF808B100F0FD
S3150000200044F810494FF480400860024610460168C3
S3150000201081F3088881F3098840688746FEE701BD99
S3150000202044000E40FC81E00FB0400E4000A000408E
S315000020302C400E4064310E40B40AC64300350C00F5
S3150000204004500E4008ED00E000218DF800108DF8D8
S3150000205001107047002070474FF000514AF6C03318
S3150000206008804FF6F0704A8802409A421CBF4FF231
S315000020700F024A8070472A494CF23C30088070476C
S3150000208027494AF6C0300880704725494FF20F00AD
S315000020900880704722490A884FF6F07002404AF6D7
S315000020A0C0339A4201D101207047002070471C4876
S315000020B000884FF6F07101EA00024AF6C0339A42F0
S315000020C002D100F00F0070470020704730B5144869
S315000020D001884FF6F07303EA01044AF6C035AC42B4
S315000020E006D101F00F020F2A34BF491C19400180A6
S315000020F030BD80B5FFF7B0FF0A48016821F4E06102
S3150000210041F400710160BFF34F8F074907480A6821
S3150000211002F4E06202430A60BFF34F8F00BFFDE79F
S315000021200200002000500E400CED00E00400FA050D
S3150000213010B54FF000524FF6F071508801EA0003D7
S315000021404AF6C034A3421CBF4FF20F03984201D196
S31500002150108810BD002804BF1088012802D140F263
S31500002160022010BD4FF4007010BDFEF7B5BDFEF79E
S315000021700BBE0020704710B5DEB04FF4BC72694646
S31500002180002000F0D1F90021684600F0E1F940F2A4
S3150000219001218842F7D040F20322904240F20544E2
S315000021A024D19DF8000000F0030002281ED09DF8FF
S315000021B00000810710D540F628000268019993684F
S315000021C08B4209D25A9800F057FA78B1FEF7C2FB53
S315000021D0099900F008F909E09DF80000C10705D546
S315000021E003995A9800F06EFA00B1002420465EB0BA
S315000021F010BDFEE7F8B50446E00A0D461646B4EBF8
S31500002200C02004BF2046FEF7F4FD04F50067FF0A70
S31500002210FF0204E03846FEF7ECFD07F500673019CB
S315000022208742F7D332462946204601B0BDE8F04042
S315000022300223FEF7E5BDB8B59BB0044640F2046044
S315000022400090656BFEF782FB0746284600F074F89F
S31500002250002834D0287C022812D2284600F06CF8D8
S3150000226030B1686901280BD1287C022808D2AD69F3
S315000022703869854228BFA54202D362498D4201D3FF
S3150000228000201CE001A800F04BFA2A1B214601A8F9
S3150000229000F050FA01A800F04FFAFEF741FB0446A1
S315000022A0FEF73CFB0346009405F12002294601A8EF
S315000022B0FEF7C0FF00900098401E8041C00F1CB082
S315000022C0B0BD70B504460D461646FEF73FFB0169E4
S315000022D08C4222BF40693219904205D332462946C4
S315000022E02046BDE8704085E770BD2DE9F041044603
S315000022F088461646FEF727FB43490068884218D1F0
S31500002300FEF724FB0746FEF725FB251870193D4905
S3150000231088420ED23CB9FEF71DFB796988423CBF64
S315000023203869FEF766FD324641462846BDE8F0416B
S3150000233060E7BDE8F08100007FB504464FEA0D0076
S3150000234033A11022FEF75AFC002046420DEB06058B
S31500002350225CE97B914205D1401C1028F5D301206F
S3150000236004B070BD0020FBE7F8B504462568676831
S31500002370666BFEF7EBFA05F1604547F601418D42C3
S3150000238029D20069874226D31E498F4223D2403084
S31500002390864201D38E4205D3FFF75CFE401E804184
S315000023A0C00FF2BDFFF756FEB8B93046FFF7C4FFBF
S315000023B0B8B1307C02280ED2706990B102280CD1D7
S315000023C0B069001D011B4FF0FF322046FFF75AFD92
S315000023D00E49884205D00020F2BD2046BDE8F240F5
S315000023E029E70120F2BD80B54FF0FF32FFF74AFD25
S315000023F0064B984204BF40F20920FFF77AFE002000
S3150000240002BD000001000400AD1007B0E320BBDEF2
S31500002410B814B6F1E0CFF3ADB7DD25C9FA79B71335
S3150000242010B504000CD04FF48030206000213D48E8
S315000024306160027822724068E060FEF74BFC206122
S3150000244010BD78B5044604F5B4760D46A1B0B16862
S315000024503068802301AA00F025F80095802301AAA0
S31500002460214604F1280000F0DFFAF060B068803001
S31500002470B06022B070BD0246002940F2014000D192
S31500002480704710B5274B5C68A24203D300220A604E
S315000024904A6010BD03EBC20082680A60C0684860EB
S315000024A0002010BD38B500F021F800D326E000F07A
S315000024B017F800D225E09B68C018BDE83840FEF743
S315000024C012BC38B500F012F800D317E000F008F897
S315000024D000D216E09B68C018BDE83840FEF712BC73
S315000024E003EBC4031518DC68AC4270470446084683
S315000024F011461A460B4B5D68AC42704740F20140EC
S3150000250032BD40F2024032BD06494A68904202D3CB
S3150000251040F20140704701EBC000C1688068FEF7D9
S315000025200FBC0000480800003EB504460D461146A3
S31500002530284600F05CFE50B969462046FFF79BFF2F
S3150000254028B905F5B47004600199416000203EBDCC
S3150000255038B584B004460D4668461021FEF77AFB6E
S31500002560029504F5B675A86888B96868296888422E
S315000025700DD269462046FFF764FFA86800281CBFF5
S3150000258041F2070188420BD140F2012008E0A07811
S3150000259000281DBFE078002840F2032040F2022008
S315000025A005B030BD0120187070470000F0B585B049
S315000025B004460D46164600278DF800700DF10400FE
S315000025C04BA11022FEF71AFBCDF804D037601C2170
S315000025D02846FEF73FFB04F5B6779DF8000080B964
S315000025E094F86E0011280CD0B86850B9786839682C
S315000025F0884206D201A92046FFF723FFEDE705B082
S31500002600F0BD2078810744BF606830602178C80734
S3150000261005D51C2204F108012846FEF7EFFA9DF8BD
S315000026200010002905BF20780028002040F206404F
S31500002630E5E770B504460D46202304F5807204F1E3
S31500002640B80104F1280000F0B3F904F5B676B068D5
S3150000265050B970683168884206D229462046FFF78D
S31500002660F0FEF4E7002070BDA07800281CBFE078DB
S315000026700028F7D0012070BD38B5E2B004460D46FB
S31500002680FEF764F98068A84206D24FF4BC7204A92A
S315000026902046FFF749FF08B1002008E05FF002007E
S315000026A000F007F816A1FEF7A9FA00F007F863B0E4
S315000026B030BD8DF81100102268467047694604A89F
S315000026C0B7E7000080B5E2B000F00DF808B10020D1
S315000026D007E00120FFF7EDFF0DA1FEF78FFAFFF7E8
S315000026E0EDFF63B000BD4FF4BC7204A91CE7000007
S315000026F000000000A5250000A5250000A525000076
S31500002700000000000000000000000000EB220000B6
S3150000271000000000C32200000000000000000000CE
S3150000272010B50446FFF7AAFA2046BDE8104000217E
S31500002730FFF7A7BAFFF7AABA0146FFF7B2BAFEE754
S3150000274070B54B688C689C4206D200F140021B1B98
S3150000275014781B19412B01D3002070BD53781478CF
S315000027600D68E4188B68EE5C04F03F0406558C682F
S31500002770641C8C6013785B1C13708C684B689C42DD
S31500002780ECD3012070BD90F840004A6889681018A3
S31500002790401A7047F8B584B01446002605460196DF
S315000027A00096082302AA00F048F841F20306B04258
S315000027B03CD195F8430005F1480738B100F038F8E8
S315000027C03868082302AA02A900F09FFD9DF80A2096
S315000027D09DF80B009DF80910120442EA00629DF86C
S315000027E0080042EA0122024322609DF80E009DF88D
S315000027F00F10000440EA01609DF80D1040EA012028
S315000028009DF80C100843606095F8430048B9DFF85E
S3150000281050198A421CBFDFF84C09824201D000F0F1
S3150000282007F86068B8600021F960304605B0F0BD71
S315000028307868082202A9FFF77DBF2DE9F0410C4612
S3150000284017461D468046FFF79EFFA84208F1400640
S3150000285006D221464046FFF773FF10B300204DE035
S3150000286000210CE0707818F800207A54491C73781F
S3150000287030785B1C03F03F03421E73703270307871
S3150000288008B1A942EED3A0686268904238BFA94257
S315000028900CD22368185C7854491CA268521CA260AA
S315000028A0F1E71220B07141F2020027E0A942F8D107
S315000028B0069CB26C29463846FFF7E4FAB06424B1A8
S315000028C0F0682A463946FFF735FF079838B1F078A1
S315000028D078B1B0682B463A46394600F016FDF078D6
S315000028E038B1F069B1692818F061884224BF002028
S315000028F0F07070692D18756141F20300BDE8F08132
S315000029002DE9F8431E467368002B4ED00C4614F092
S31500002910030118BF41F2020048D115460746FEF7EB
S315000029200DF8396E001D6A18824221D300F1180392
S3150000293099421DD28C46844538BF844605EB010872
S3150000294000F11802904588BF9046ACEB0101ACEB54
S31500002950000004EB0109A8EB0C083844424649463E
S315000029606830FEF73BF9FF224146484600F0DCFCA2
S31500002970FDF7F0FF396E001D884222BF6A18031D5D
S315000029809A4209D3411A601807F1800102680A6069
S315000029900421FF2200F0C8FC21463368386E7468B3
S315000029A02A46A047386E2D183D660020BDE8F28302
S315000029B0F8B5064606F140070020B8717870F87041
S315000029C038710D4600214FF0FF303970797103F0F0
S315000029D02003B864396279621446BB70FF2218215D
S315000029E006F1680000F0A0FCFF22042106F1800039
S315000029F000F09AFCFF22042106F1840000F094FC0A
S31500002A00BD60FC60FDF798FF00B11DB1FDF792FFB8
S31500002A1018B114B941F20B00F2BD14B1F868FFF712
S31500002A207FFE0020F2BD00002DE9FB4F0546002188
S31500002A30002300249AB005A880E81A00059209919F
S31500002A4005F148081C9A269F069205F142090EE0F8
S31500002A500498C8F808000021C8F80C100398DFF89D
S31500002A600817884240F06981022289F804200798F5
S31500002A701C99884280F00B8341F2030208920AAC4B
S31500002A8099F80430122BF2D8DFE813F014001A007C
S31500002A90050357013E03400317037B0140036D0105
S31500002AA040036D014802FE024303CA02CE02FE0144
S31500002AB0FE02DCE700F083FB00F07CFBC8D0FAE204
S31500002AC000F07DFB00F076FBF9D199F802000028B2
S31500002AD03BD199F80010CA075AD599F80100002889
S31500002AE056D10398DFF8801688421CBFDFF87C16A3
S31500002AF0884225D0DFF8781688421FBFDFF87416A3
S31500002B008842DFF8741688421AD0DFF870168842B9
S31500002B102DD0DFF84C16884215D0DFF864168842AF
S31500002B201AD0DFF86016884214D0DFF838168842CB
S31500002B3021D0DFF8541688421CBFDFF850168842B1
S31500002B4000F0FB801CE010228FE70398DFF81416D4
S31500002B50884213E00E2288E70F2089F8040000203F
S31500002B60D8F80810C8F81010C8F814007FE712212A
S31500002B7089F804106FE0FDF7DDFE002841D13BE047
S31500002B8000F022FB03A800F002FC002863D0C8E294
S31500002B900398DFF8DC1588421AD0DFF8D81588428A
S31500002BA014D0DFF8D415884216D0DFF8B415884261
S31500002BB024D0DFF8B015884216D0DFF8CC1588424D
S31500002BC010D0DFF8C81588420AD01DE004224CE771
S31500002BD0062089F804004AE7072189F8041046E729
S31500002BE00920F6E70B21F8E7FDF7A4FE002804BF4D
S31500002BF099F80100002804D10C21EEE799F80100AC
S31500002C00002840F09A809EE703A800F0C0FBC8B1F8
S31500002C100398C8F84400112189F80410039800F0BD
S31500002C20B8FB099000F0B8FAD9D5099800281CBF5E
S31500002C3041680029D3D0284688470090009800288C
S31500002C40CDD06EE2122199F8010089F8041010B176
S31500002C5041F204001CE241F2080019E2E0780006A5
S31500002C60B0F1407F04D000F0AFFA41F209000FE264
S31500002C706079217941EA00210291C90706D599F8C0
S31500002C80000040F0010089F8000002E0FDF754FE64
S31500002C9040B9FDF74FFE002800F0FF810298C105FC
S31500002CA000F1FB8100F090FA41F20A00F0E1307881
S31500002CB040F002003070A078E1789DF828200004EA
S31500002CC040EA0160617840EA012010437060D8F85C
S31500002CD0080008387062A179E0792279090441EA8E
S31500002CE00061607941EA002111430291FDF72BFE54
S31500002CF0DFF89C140068884221D1FDF724FE029972
S31500002D00C068814219D1052199F8030089F8041099
S31500002D1040F0010089F803000021C8F81C10D8F81B
S31500002D200C00082880F0FB8101210191009100F040
S31500002D304FFA00F03FFABAD0BDE100F045FAF0E1F3
S31500002D40A178E0789DF82820090441EA00616078BE
S31500002D5041EA002111430291D8F80800052824BF52
S31500002D600298C8F81800D8F80C00042880F0DC8116
S31500002D7001210191009100F017FA00F01BFADFD053
S31500002D8099E10020C8F81C00082126E73B68D8F81E
S31500002D901C005A460AA9A047D8F81C005844C8F88F
S31500002DA01C00D8F80800D8F80C10814280F0B481D5
S31500002DB0A0EB010BBBF1040F05A9284608D3FFF7CA
S31500002DC0E2FC042808D205A92846FFF7B9FC5EE113
S31500002DD0FFF7D9FC5845F6D3BBF1410F28BF4FF09A
S31500002DE0400B00F0DDF9584502D200F0D9F98346D0
S31500002DF0BBF1040F24BF4FEA9B004FEA800B00F0A3
S31500002E00EDF900F0D7F9BBD199F80400082802D1F2
S31500002E10BC68002CBAD1BBF1040FCBF1040406D276
S31500002E200AA8FF222146584400F07EFAA34499F8E6
S31500002E3004000A2807D13B465A460AA92846FFF746
S31500002E405FFD0090ADE70528ABD19AF80100810738
S31500002E50A7D5F8680028A4D0D8F81C0005280ED2FB
S31500002E600BEB000107290AD30AA9091D081A05F167
S31500002E70840201681160FF22042100F055FA3B68C4
S31500002E80D8F81C00FC6884E799F80010880640F121
S31500002E904D81D8F8440000F07CFA0028099040F0F3
S31500002EA045813EE100F078F908D5002C1CBF216968
S31500002EB0002903D028468847064600E0012600F090
S31500002EC06FF9B04287D3D8F80800D8F80C10A0EBF9
S31500002ED0010BBBF1410F28BF4FF0400B00F060F92A
S31500002EE0834502D300F05CF9834600F077F900F0E1
S31500002EF061F912D100F050F940F11981002C1CBF84
S31500002F00A668002ECDD03B465A460AA92846B047A9
S31500002F1000900098002800F00A81CCE00020019083
S31500002F20009000F041F900F045F9F6D1D8F84000DC
S31500002F309849884205D0122289F8042041F20500FA
S31500002F40A6E0FDF7F7FC18B91B990120C87003E04D
S31500002F501B99C878002841D099F8030010F0030F98
S31500002F601CBFFC68002C05D03B68042205F18401D7
S31500002F700420A047D8F8180000281CBF786800284D
S31500002F802CD04FF0FF31029105F180040422214636
S31500002F9002A800F001FA40B1FDF7DCFC28B1214699
S31500002FA03B687C680422001DA047042205F16801E5
S31500002FB002A800F0F1F988B1FDF7C0FC3B687C6817
S31500002FC0142205F16C010830A047FDF7B7FC3B68F9
S31500002FD07C68042205F16801001DA0471B990120A9
S31500002FE088700D2089F8040051E0FDF79BFC8021D4
S31500002FF0009001910123D8F800000BAA022100F0ED
S3150000300061F9D8F80C0010284AD20021012001915C
S315000030100090102300F0C9F800F0CCF8E5D04AE0A3
S31500003020012089F801002DE099F8020050BB00212B
S3150000303001910090402300F0B8F800F0BBF83AD1B7
S31500003040D8F80400FFF778FBFDF76AFC0446FDF7A5
S3150000305065FC00940346D8F8040012AA0AA9FEF7F4
S31500003060E9F80090009840B11B980021C17041F228
S315000030700600122189F804100AE01B990120C87085
S3150000308089F802000121A8E541F2070000E00020CE
S315000030901DB0BDE8F08FDDF86CA0D8F80C0008284C
S315000030A03AD2002101200191009000F091F800F041
S315000030B081F83FF4D3AD0098EAE7DDF86CA0D8F8C4
S315000030C00830D8F80C00984226D2012101910091CF
S315000030D000F06BF800F06EF8EDD11C220AA90AF197
S315000030E00800FDF78BFD9AF8000040F001008AF811
S315000030F000000AF10800FDF739FC0028DFD100F0D6
S3150000310063F841F20C00C3E71B9E08E6DDF86CA0ED
S3150000311047E6DDF86CA074E7CDF86CA0B2E71B9625
S31500003120A5E441F20100B3E70A2052E5099CD8F86C
S315000031300C00D8F808108842FFF4B4AE099400F0E9
S315000031402BF89FD5002C1CBFE268002A9AD039467E
S315000031502846904700900098002893D0ABE70000DF
S31500003160F70A0AF7FC0404FCEB17A603EB17A65EA6
S31500003170F40A0AF4F50909F5F60808F6F70909F755
S31500003180F90707F9FA0606FAFD0303FDFE0101FE3B
S31500003190AD1007B0E320BBDE99F80000810670474A
S315000031A005A92846FFF7EFBA04230AAA05A9284667
S315000031B0FFF743BB0090009808998842704703AA1E
S315000031C005A92846FFF7E6BA122089F804007047D9
S315000031D008230AAA05A92846FFF72FBB012001905C
S315000031E000905B460AAA05A92846FFF726BB10B53C
S315000031F0B1F5BC7F044602D240F2052010BD4FF463
S31500003200BC71FDF727FD0020607004F5807204F1A3
S31500003210B80104F12800BDE810400023FFF7C8BB41
S315000032201CB500910446214604F12800FFF7FCFB7B
S3150000323000281CBF41F207018842C4F874010BD173
S31500003240A07838B1E07810B140F2032016BD40F204
S31500003250022016BD40F2012016BD2DE9F04385B0CF
S3150000326004460D460C9E9046994601A81021FDF78E
S31500003270F1FC002737601C214846FDF7EBFC01A84E
S31500003280009043462A46214604F12800FFF7CCFB6E
S315000032902078810744BF606830602178C80705D56B
S315000032A01C2204F108014846FDF7A8FC20780028F6
S315000032B014BF002040F2064005B0BDE8F0834FF48D
S315000032C0BC7070472DE9F843089D099F80460E465D
S315000032D091461C46FDF7C7FB3A4629464046FDF790
S315000032E0C5FB08F124000021016006750C22494641
S315000032F008F13900FDF772FC08F14500210C220A9D
S31500003300847001704270BDE8F1833EB5029201916E
S315000033101C4600F12805009500F1380300F124024F
S315000033202146FDF7C6FB37BD62F30F2262F31F424B
S31500003330401810F0030308D0C91A1FD3DB0748BF93
S3150000334000F8012D28BF20F8022D130030B41446D2
S315000033501546103928BF20E93C00FAD8490728BF8E
S3150000336020E90C0048BF40F8042D890028BF20F84A
S31500003370022D48BF00F8012D30BC7047C91818BF90
S3150000338000F8012DCB0728BF00F8012D704700205B
S31500003390704700207047FEE70300002013F0030F7C
S315000033A009D0521E22BF13F8010B11F801CBB0EB66
S315000033B00C00F3D07047121F22BF53F8040B51F8CC
S315000033C004CB6045F7D0121D0AD200BA9CFA8CFCD9
S315000033D0B0EB0C0038BF6FF0000088BF01207047CB
S315000033E0521E22BF13F8010B11F801CBB0EB0C00F3
S315000033F0F6D0521C08BF10467047FEE70C490D4830
S3150000340008600D48026842F4700202600B48416988
S3150000341041F4005141610268920892000260416BDA
S31500003420490849004163016A21F0805101627047F1
S3150000343008ED00E00008000088ED00E040300E4096
S315000034402DE9F04399B004460D4605A85021FDF735
S3150000345001FC00F0E1F86846FEF7E2FF0398022857
S315000034604FF0FF3609D2002020600120A8423CBF61
S3150000347044F82060401CF9D364E0A84238BF40F20B
S31500003480045060D3FEF775FE804604980C2205A909
S31500003490C7684046FDF727FC0028474453D10598E6
S315000034A0DFF86C91484522D00C2205A93846FDF775
S315000034B01AFC002847D10598484507D00020A842A5
S315000034C03CBF44F82060401CF9D33FE0079A05A9A9
S315000034D03846FDF708FC0498C1684046FDF730FC05
S315000034E088BB079A05A94046FDF70CFC58BB079A0E
S315000034F005A94046FDF7F7FB0799324605A8FEF7F2
S31500003500C1FC4449884207D00020A8423CBF44F889
S315000035102060401CF9D319E0079810388008A842AB
S3150000352088BF2846002108AA04E052F8213044F852
S315000035302130491C8142F8D3A8423CBF44F82060A0
S31500003540401CF9D3002019B0BDE8F08340F20550C5
S31500003550F9E7F0B599B005460C4605A85021FDF7E8
S3150000356079FB502107910127294E0596069700F011
S3150000357053F86846FEF754FF0398A04207D3022883
S315000035800AD22868002818BF10F1010F02D040F2B5
S3150000359004503AE0002038E0FEF7EBFD06460498BA
S315000035A0C768BF19112C28BF1024002008A904E001
S315000035B055F8202041F82020401CA042F8D34FF0B7
S315000035C0FF3002E041F82400641C102CFAD30246B6
S315000035D04C2105A8FEF756FCC04318900498C16814
S315000035E03846FDF7ADFB80B9502205A93846FDF7F0
S315000035F089FB50B90498C1683046FDF7A1FB20B994
S31500003600502205A93046FDF77DFB19B0F0BD00003C
S3150000361039528FE1E320BBDE68461421FDF71ABB61
S3150000362030B595B00446FFF7F7FF6846FEF7F8FE9B
S31500003630039D022D20D3294605A8FFF701FF002888
S315000036401CBF40F20551884218D1002005A902E0AE
S31500003650A2420ED0401CA8420ED251F8202012F1F0
S31500003660010FF5D141F82040294605A8FFF771FF63
S3150000367004E040F2035001E040F2025015B030BDC4
S315000036804EF68851CEF20001086840F470000860DA
S31500003690BFF34F8FBFF36F8F4FF00070E1EE100A4C
S315000036A07047000000F00DF8002801D0AFF300804D
S315000036B0AFF300800020AFF30080FEF701FC00F0BE
S315000036C002F80120704700F001B8000007463846AE
S315000036D000F002F8FBE7000020210903263118203C
S315000036E0ABBEF9E780B5FFF789FEFEF751FCBDE8F2
S315000036F0014000F000B8AFF30080FFF7C1FFFFF70D
S31100003700D1FF0000000000002AF350EF8B
S5030351A8
S70500000000FA
