S02B000066697273745F73746167655F62746C5F65666D333267673131622F52656C656173652F6578652F6614
S3150FE100000F4880F308880F48004700004505E10FC8
S3150FE100104505E10F4505E10F4505E10F4505E10F02
S3150FE100204505E10F4505E10F6005E10F4505E10FD7
S3150FE100304505E10F4505E10F4505E10F4505E10FE2
S3150FE1004000400020F904E10F10B5054C237833B9D0
S3150FE10050044B13B10448AFF300800123237010BDA5
S3150FE1006010010020000000007405E10F08B5034BF5
S3150FE100701BB103490348AFF3008008BD0000000040
S3150FE10080140100207405E10F044B054A9A60D3F879
S3150FE10090882042F47002C3F88820704700ED00E033
S3150FE100A00000E10F0A4A4FF08043D969C90705D528
S3150FE100B012B96FF002007047013AF6E7002AF8D05D
S3150FE100C001221861DA60D86940F38000704700BFFA
S3150FE100D08096980070B509B9002070BD00234FF0E6
S3150FE100E08042082550F8234094610B4CD5600133CB
S3150FE100F0D669F60705D514B96FF00200EDE7013CB5
S3150FE10100F6E7002CF8D0D469A40702D49942E9D1D5
S3150FE10110E2E76FF00100E0E7809698002DE9F843FA
S3150FE101204FF08043884641F671311D6C19641A49C7
S3150FE10130074648684968996841F00101ADB299608F
S3150FE1014096084FF00009B14501D3002005E007EB12
S3150FE1015089042046FFF7A6FF50B14FF080439A6816
S3150FE1016022F001029A600DB100221A64BDE8F8830C
S3150FE10170C4F30B04C4F58054A408A6EB09039C420F
S3150FE1018028BF1C4621464046FFF7A4FF0028E4D1CD
S3150FE10190A14408EB8408D6E700300E404FF08043C8
S3150FE101A041F671311A6C10B519641D494C684968ED
S3150FE101B0996841F00101996001211861D960D96906
S3150FE101C04C0792B209D5996821F0010199600AB1FC
S3150FE101D000221A644FF0FF301FE00221114CD96063
S3150FE101E01946D869C00700D56CB9C8698B6810F094
S3150FE101F0020023F001038B6007D00AB100230B64E1
S3150FE102006FF0010009E0013CEBE724B902B10C64A0
S3150FE102106FF0020001E00AB1086410BD1046FCE779
S3150FE1022000300E4080969800FFF778BF08B50A4B6D
S3150FE102301A680A4B1A600A4B40221A615A6852032E
S3150FE10240FCD400F07BF80028FBD040F2022000F04E
S3150FE10250AFF8002008BD00BF040100200001002017
S3150FE1026000300E4010B5104C104BA36000F0C0F8F3
S3150FE102700F4B5B68B3F5803F09D040F209239842F3
S3150FE1028002D0B0F5007F02D100F016F850B9094B54
S3150FE10290A3601846016881F3088881F309884068ED
S3150FE102A08746FEE710BD00BF00ED00E00000E10F5D
S3150FE102B000500E400010E10FF8B51C4B1A6810699B
S3150FE102C0D568836AAB4201D20020F8BD05F5E0425D
S3150FE102D09A42F9D95B1BC618C758154B9F42F3D102
S3150FE102E04FF0FF32F16800F0EBF8124B98420446FB
S3150FE102F0EAD1114B1B6803F1F02202F5F012B2F5C8
S3150FE10300E04F10D21A68BA420DD1B1689A6891429C
S3150FE1031009D84FF0FF32D968284600F0D1F8001B13
S3150FE1032018BF0120D1E70120CFE700BF2800E10F79
S3150FE1033007B0CD5EE320BBDE2810E10FF8B5184B11
S3150FE103401B68D3E90347BB6A1B1BFD182646EA6800
S3150FE10350A318B3421CD83946204600F07CF8B0B159
S3150FE10360104B1B6803F1F02202F5F012B2F5E04FE4
S3150FE1037014D219680C4A914210D1D9684FF0FF3265
S3150FE10380204600F09DF8094BC31A58425841F8BD73
S3150FE10390304600F059F806F58056D8E70020F6E723
S3150FE103A02800E10F2810E10F07B0CD5EE320BBDE99
S3150FE103B04FF000534FF20F025A800A4A1880136822
S3150FE103C023F4E06343F400731360BFF34F8F0649E1
S3150FE103D0064BCA6802F4E0621343CB60BFF34F8F5B
S3150FE103E000BFFDE700500E4000ED00E00400FA0506
S3150FE103F04FF000534FF20F015A888A4201D1188804
S3150FE1040070473AB91B88012B40F2022018BF4FF40F
S3150FE10410007070474FF40070704707B503469B07AE
S3150FE1042053BF6FEA01414FF6FF7343EA01416FEAAA
S3150FE1043011410422019120F003000DEB0201FFF7B8
S3150FE10440F3FE03B05DF804FB08B5FFF7A7FEB0FABC
S3150FE1045080F0400908BDF8B540EA02031446DA0711
S3150FE1046005460E4601D50020F8BD0CB90120FBE784
S3150FE10470830721D50988FFF7D0FF0028F3D1023C86
S3150FE10480032C05F1020506F102060BD924F0030749
S3150FE104903A4631462846FFF7C7FE0028E3D13E44E8
S3150FE104A03D44E41B002CE1D031882846FFF7B5FF28
S3150FE104B0B0FA80F04009D7E7032CE7D8F4E700005C
S3150FE104C010B50B4CD4F8B03043F48073C4F8B030A8
S3150FE104D0084B01241C6001449A605C601A4688420D
S3150FE104E001D1D86910BD10F8014B9461F7E700BF50
S3150FE104F000400E4000C001400B4880470B48804743
S3150FE105000B490C4A0C4B9A42BEBF51F8040B42F809
S3150FE10510040BF8E709490A4A00209142BCBF41F8AA
S3150FE10520040BFAE7FFF782FE8900E10F6502E10F9F
S3150FE105307805E10F000100201001002010010020D5
S3150FE105402C010020FEE700BFF8B500BFF8BC08BCE0
S3150FE105509E467047F8B500BFF8BC08BC9E4670478B
S3150FE10560AD1007B00100000000030A010010E10F12
S30D0FE1057000800000000000000D
S3150FE10578C0EA2101C0EA21016D00E10F4900E10F4F
S7050FE104F90D
