S02B000066697273745F73746167655F62746C5F65666D333267673131622F52656C656173652F6578652F6614
S3150FE100000F4880F308880F48004700008905E10F84
S3150FE100108905E10F8905E10F8905E10F8905E10FF2
S3150FE100208905E10F8905E10FA405E10F8905E10FC7
S3150FE100308905E10F8905E10F8905E10F8905E10FD2
S3150FE10040004000203D05E10F10B5054C237833B98B
S3150FE10050044B13B10448AFF300800123237010BDA5
S3150FE100601001002000000000B805E10F08B5034BB1
S3150FE100701BB103490348AFF3008008BD0000000040
S3150FE1008014010020B805E10F044B054A9A60D3F835
S3150FE10090882042F47002C3F88820704700ED00E033
S3150FE100A00000E10F0A4A4FF08043D969C90705D528
S3150FE100B012B96FF002007047013AF6E7002AF8D05D
S3150FE100C001221861DA60D86940F38000704700BFFA
S3150FE100D08096980070B5C9B100234FF0804208258C
S3150FE100E050F8234094610C4CD5600133D669F6077D
S3150FE100F005D514B96FF0020009E0013CF6E7002CD3
S3150FE10100F8D0D469A40703D49942E9D1002070BD90
S3150FE101106FF00100FBE700BF809698002DE9F843E9
S3150FE101204FF08043884641F671311D6C19641A49C7
S3150FE10130074648684968996841F00101ADB299608F
S3150FE1014096084FF00009B14501D3002005E007EB12
S3150FE1015089042046FFF7A6FF50B14FF080439A6816
S3150FE1016022F001029A600DB100221A64BDE8F8830C
S3150FE10170C4F30B04C4F58054A408A6EB0901A1420C
S3150FE1018028BF21464046FFF7A5FF0028E5D1894460
S3150FE1019008EB8108D7E700BF00300E404FF08043F0
S3150FE101A041F671311A6C10B5196421494C684968E9
S3150FE101B0996841F00101996001211861D960D96906
S3150FE101C04C0792B209D5996821F0010199600AB1FC
S3150FE101D000221A644FF0FF3026E00221D96015495B
S3150FE101E0D869C00700D569B9D86910F002000BD0FC
S3150FE101F0996821F0010199600AB100221A646FF042
S3150FE10200010011E00139EBE741B9986820F00100EF
S3150FE10210986002B119646FF0020005E0996821F068
S3150FE10220010199600AB1186410BD1046FCE700BFE1
S3150FE1023000300E4080969800FFF770BF08B50A4B65
S3150FE102401A680A4B1A600A4B40221A615A6852031E
S3150FE10250FCD400F07BF80028FBD040F2022000F03E
S3150FE10260C7F8002008BD00BF0401002000010020EF
S3150FE1027000300E4010B5104C104BA36000F0D6F8CD
S3150FE102800F4B5B68B3F5803F09D040F209239842E3
S3150FE1029002D0B0F5007F02D100F016F850B9094B44
S3150FE102A0A3601846016881F3088881F309884068DD
S3150FE102B08746FEE710BD00BF00ED00E00000E10F4D
S3150FE102C000500E400010E10FF8B51C4B9A6A106909
S3150FE102D0D568836AAB4201D20020F8BD05F5E0424D
S3150FE102E09A42F9D95B1BC618C758154B9F42F3D1F2
S3150FE102F0F1684FF0FF3200F007F9124B98420446CE
S3150FE10300EAD1114B9B6A03F1F02202F5F012B2F535
S3150FE10310E04F10D21A68BA420DD1B1689A6891428C
S3150FE1032009D8D9684FF0FF32284600F0EDF8001BE7
S3150FE1033018BF0120D1E70120CFE700BF0000E10F91
S3150FE1034007B0CD5EE320BBDE0010E10FF8B5184B29
S3150FE103509B6AD3E90347BB6A1B1BFD182646EA686E
S3150FE10360A318B3421CD83946204600F098F8B0B12D
S3150FE10370104B9B6A03F1F02202F5F012B2F5E04F52
S3150FE1038014D219680C4A914210D1D9684FF0FF3255
S3150FE10390204600F0B9F8094BC31A58425841F8BD47
S3150FE103A0304600F075F806F58056D8E70020F6E7F7
S3150FE103B00000E10F0010E10F07B0CD5EE320BBDED9
S3150FE103C04FF000534AF6C0305B8823F00F039BB220
S3150FE103D01B1A5842584170474FF0005208B510802A
S3150FE103E0FFF7EEFF10B94FF20F03538008BD000080
S3150FE103F008B5FFF7F1FF0A4A136823F4E06343F404
S3150FE1040000731360BFF34F8F0649074BCA6802F4B7
S3150FE10410E0621343CB60BFF34F8F00BFFDE700BF31
S3150FE1042000500E4000ED00E00400FA0508B5FFF7B5
S3150FE10430C7FF30B94FF000534FF20F015A888A4286
S3150FE1044003D14FF00053188808BD3AB91B88012B29
S3150FE1045040F2022018BF4FF40070F5E74FF4007039
S3150FE10460F2E707B503469B0753BF6FEA01414FF624
S3150FE10470FF7343EA01416FEA11410422019120F032
S3150FE1048003000DEB0201FFF7D7FE03B05DF804FBA6
S3150FE1049008B5FFF783FEB0FA80F0400908BDF8B55D
S3150FE104A005460E4614460AB90120F8BD42EA000395
S3150FE104B0DA0701D50020F8E7830721D50988FFF789
S3150FE104C0D0FF0028F6D1023C032C05F1020506F117
S3150FE104D002060BD924F003073A4631462846FFF7C1
S3150FE104E0ABFE0028E6D13E443D44E41B002CDBD0B5
S3150FE104F031882846FFF7B5FFB0FA80F04009D4E717
S3150FE10500032CE7D8F4E7000010B50A4CD4F8B03065
S3150FE1051043F48073C4F8B030074B01241C600144E7
S3150FE105209A605C60884201D1D86910BD10F8012B41
S3150FE105309A61F7E700400E4000C001400B48804743
S3150FE105400B4880470B490C4A0C4B9A42BEBF51F8F8
S3150FE10550040B42F8040BF8E709490A4A00209142D5
S3150FE10560BCBF41F8040BFAE7FFF768FE8900E10F1C
S3150FE105707502E10FBC05E10F00010020100100201B
S3150FE10580100100202C010020FEE700BFF8B500BFE7
S3150FE10590F8BC08BC9E467047F8B500BFF8BC08BC6E
S3150FE105A09E467047AD1007B00100000000000C0138
S3110FE105B00010E10F0080000000000000C9
S3150FE105BCC0EA2101C0EA21016D00E10F4900E10F0B
S7050FE1053DC8
