S02B000066697273745F73746167655F62746C5F65666D33326A673132622F52656C656173652F6578652F6610
S3150FE100000F4880F308880F48004700007905E10F94
S3150FE100107905E10F7905E10F7905E10F7905E10F32
S3150FE100207905E10F7905E10F9405E10F7905E10F07
S3150FE100307905E10F7905E10F7905E10F7905E10F12
S3150FE10040004000202D05E10F10B5054C237833B99B
S3150FE10050044B13B10448AFF300800123237010BDA5
S3150FE100601001002000000000A805E10F08B5034BC1
S3150FE100701BB103490348AFF3008008BD0000000040
S3150FE1008014010020A805E10F014A024B9A6070475F
S3150FE100900000E10F00ED00E0094A0A4BD969C907F3
S3150FE100A005D512B96FF002007047013AF6E7002A5B
S3150FE100B0F8D001221861DA60D86940F38000704701
S3150FE100C08096980000000E4070B509B9002070BD0A
S3150FE100D0002308250D4A50F82340013394610C4C57
S3150FE100E0D560D669F60705D514B96FF00200EEE7CC
S3150FE100F0013CF6E7002CF8D0D469A40702D4994263
S3150FE10100E9D1E3E76FF00100E1E700BF00000E4040
S3150FE10110809698002DE9F843884641F671314FF004
S3150FE1012000091A4B07461D6C19641949ADB24868A7
S3150FE1013049689968960841F001019960B14501D383
S3150FE10140002005E007EB89042046FFF7A5FF48B13C
S3150FE101500E4B9A6822F001029A600DB100221A64E1
S3150FE10160BDE8F883C4F30A04C4F50064A408A6EB5A
S3150FE1017009039C4228BF1C4640462146FFF7A4FFD0
S3150FE101800028E5D1A14408EB8408D7E700000E402B
S3150FE1019000300E4041F671311F4B10B51A6C1964E0
S3150FE101A01E4992B24C684968996841F0010199601C
S3150FE101B001211861D960D9694C0709D5996821F0F0
S3150FE101C0010199600AB100221A644FF0FF301FE076
S3150FE101D00221D9601946124CD869C00700D56CB90E
S3150FE101E0C8698B6810F0020023F001038B6007D01A
S3150FE101F00AB100230B646FF0010009E0013CEBE764
S3150FE1020024B902B10C646FF0020001E00AB108648F
S3150FE1021010BD1046FCE700BF00000E4000300E4057
S3150FE1022080969800FFF776BF08B50A4B1A680A4B16
S3150FE102301A604022094B1A615A685203FCD400F046
S3150FE102407BF80028FBD040F2022000F0C5F8002031
S3150FE1025008BD00BF040100200001002000300E4060
S3150FE1026010B5104B104CA36000F0D4F80F4B5B6840
S3150FE10270B3F5803F09D040F20923984202D0B0F599
S3150FE10280007F02D100F016F850B9094BA36018466A
S3150FE10290016881F3088881F3098840688746FEE79C
S3150FE102A010BD00BF0000E10F00ED00E000500E4071
S3150FE102B00008E10FF8B51C4B1A681069D568836A17
S3150FE102C0AB4201D20020F8BD05F510429A42F9D9A9
S3150FE102D05B1BC758C618154B9F42F3D14FF0FF3240
S3150FE102E0F16800F007F9124B04469842EAD1114B37
S3150FE102F01B68A3F17E62A2F58432B2F5104F10D2DC
S3150FE103001A68BA420DD1B1689A68914209D84FF08D
S3150FE10310FF32D968284600F0EDF8001B18BF01201F
S3150FE10320D1E70120CFE700BF2800E10F07B0CD5E8F
S3150FE10330E320BBDE2808E10FF8B5184B1B68D3E9BC
S3150FE1034003472646BB6A1B1BFD18EA68A318B3428F
S3150FE103501CD83946204600F098F8B0B1104B1B680F
S3150FE10360A3F17E62A2F58432B2F5104F14D2196869
S3150FE103700C4A914210D1D9684FF0FF32204600F076
S3150FE10380B9F8094BC31A58425841F8BD304600F047
S3150FE1039075F806F50066D8E70020F6E72800E10FC5
S3150FE103A02808E10F07B0CD5EE320BBDE4FF0005327
S3150FE103B04AF6C0305B8823F00F031B1A58425841A7
S3150FE103C070474FF0005208B51080FFF7EFFF10B9F5
S3150FE103D04FF20F03538008BD08B5FFF7F2FF0A4A44
S3150FE103E0136823F4E06343F400731360BFF34F8F95
S3150FE103F00649074BCA6802F4E0621343CB60BFF3C9
S3150FE104004F8F00BFFDE700BF00500E4000ED00E04B
S3150FE104100400FA0508B5FFF7C9FF30B94FF00053ED
S3150FE104204FF20F015A888A4203D14FF000531888D1
S3150FE1043008BD3AB91B8840F20220012B18BF4FF4D1
S3150FE104400070F5E74FF40070F2E703469B0707B537
S3150FE1045056BF6FEA01414FF6FF736FEA11414FF055
S3150FE10460040248BF43EA0141019120F003000DEB7D
S3150FE104700201FFF7D7FE03B05DF804FB08B5FFF7FE
S3150FE1048089FEB0FA80F0400908BDF8B505460E467B
S3150FE1049014460AB90120F8BD42EA0003DA0701D58D
S3150FE104A00020F8E7830721D50988FFF7CEFF00285B
S3150FE104B0F6D1023C032C05F1020506F102060BD932
S3150FE104C024F003073A4631462846FFF7ABFE0028EC
S3150FE104D0E6D13E443D44E41B002CDBD0318828466F
S3150FE104E0FFF7B3FFB0FA80F04009D4E7032CE7D862
S3150FE104F0F4E7000010B50B4C0144D4F8B03043F0EB
S3150FE105004003C4F8B0300124074B1C609A601A46C9
S3150FE105105C60884201D1D86910BD10F8014B946136
S3150FE10520F7E700BF00400E4000C001400B4880478F
S3150FE105300B4880470B490C4A0C4B9A42BEBF51F808
S3150FE10540040B42F8040BF8E709490A4A00209142E5
S3150FE10550BCBF41F8040BFAE7FFF766FE8900E10F2E
S3150FE105606102E10FAC05E10F00010020100100204F
S3150FE10570100100202C010020FEE700BFF8B500BFF7
S3150FE10580F8BC08BC9E467047F8B500BFF8BC08BC7E
S3150FE105909E467047AD1007B00100000000000C0148
S3110FE105A00008E10F0080000000000000E1
S3150FE105ACC0EA2101C0EA21016D00E10F4900E10F1B
S7050FE1052DD8
